:020000040800F2
:100000007C49002081140008F1140008F114000854
:10001000F1140008F1140008F114000800000000B9
:10002000000000000000000000000000F1140008C3
:10003000F114000800000000F1140008DD0E0008B3
:10004000F1140008F1140008F1140008F11400087C
:10005000F1140008F1140008F1140008F11400086C
:10006000F1140008F1140008F1140008F11400085C
:10007000F1140008F1140008F1140008F11400084C
:10008000F1140008F1140008F1140008F11400083C
:10009000F1140008F1140008F1140008F11400082C
:1000A000F1140008350E0008F1140008F1140008DE
:1000B000F1140008F1140008F1140008F11400080C
:1000C000F1140008F1140008F1140008F1140008FC
:1000D000F1140008F114000875390008F114000843
:1000E000F1140008F1140008F1140008F1140008DC
:1000F0004D0E0008F1140008F1140008F114000876
:10010000F1140008F1140008F1140008F1140008BB
:10011000F1140008F1140008F1140008F1140008AB
:10012000650E0008F1140008F1140008F11400082D
:10013000F1140008F1140008F1140008F11400088B
:10014000F1140008F1140008F1140008F11400087B
:10015000F1140008F1140008F1140008F11400086B
:10016000F1140008F1140008F1140008F11400085B
:10017000F1140008F1140008F1140008F11400084B
:10018000F1140008F114000880B485B000AF0346F4
:10019000FB71FB7903F00103FB73FB7B002B07D0A2
:1001A0004FF44063C4F202034FF002021A8306E0E8
:1001B0004FF44063C4F202034FF002025A83FB790A
:1001C0004FEA5303FB71FB7903F00103FB73FB7BE5
:1001D000002B07D04FF44063C4F202034FF0040237
:1001E0001A8306E04FF44063C4F202034FF00402A6
:1001F0005A83FB794FEA5303FB71FB7903F0010348
:10020000FB73FB7B002B07D04FF44063C4F2020367
:100210004FF008021A8306E04FF44063C4F2020371
:100220004FF008025A83FB794FEA5303FB71FB79C5
:1002300003F00103FB73FB7B002B07D04FF44063FB
:10024000C4F202034FF010021A8306E04FF4406339
:10025000C4F202034FF010025A83FB794FEA5303B2
:10026000FB71FB7903F00103FB73FB7B002B07D0D1
:100270004FF44063C4F202034FF020021A8306E0F9
:100280004FF44063C4F202034FF020025A8307F197
:100290001407BD4680BC704780B582B000AF4FF4F4
:1002A0000043FB8040F23403C2F2000393F846306F
:1002B000DBB2002B03D0FB8803F58043FB8040F2C8
:1002C0003403C2F200031B8FBB804FF00100FFF725
:1002D0005BFF4FF44060C4F202004FF0010102F0F6
:1002E0005DF9FB884FF47050C4F20000194602F02B
:1002F000B5FD00BF4FF47050C4F200004FF0800114
:1003000002F0BAFD0346002BF4D14FF47050C4F252
:10031000000002F095FD0346FB80BB884FF470504F
:10032000C4F20000194602F099FD00BF4FF470506E
:10033000C4F200004FF0800102F09EFD0346002B46
:10034000F4D14FF47050C4F2000002F079FD03467E
:10035000BB804FF44060C4F202004FF0010102F094
:100360000FF907F10807BD4680BD00BF80B582B018
:1003700000AF40F23403C2F20003B3F84030FB8018
:1003800040F23403C2F200035B8FBB804FF00200E7
:10039000FFF7FAFE4FF44060C4F202004FF0010193
:1003A00002F0FCF8FB884FF47050C4F200001946CC
:1003B00002F054FD00BF4FF47050C4F200004FF043
:1003C000800102F059FD0346002BF4D14FF4705028
:1003D000C4F2000002F034FD0346FB80BB884FF4FA
:1003E0007050C4F20000194602F038FD00BF4FF40F
:1003F0007050C4F200004FF0800102F03DFD034652
:10040000002BF4D14FF47050C4F2000002F018FD3C
:100410000346BB804FF44060C4F202004FF001017C
:1004200002F0AEF807F10807BD4680BD80B582B086
:1004300000AF40F23403C2F20003B3F84230FB8055
:1004400040F23403C2F200039B8FBB804FF00300E5
:10045000FFF79AFE4FF44060C4F202004FF0010132
:1004600002F09CF8FB884FF47050C4F2000019466B
:1004700002F0F4FC00BF4FF47050C4F200004FF0E3
:10048000800102F0F9FC0346002BF4D14FF47050C8
:10049000C4F2000002F0D4FC0346FB80BB884FF49A
:1004A0007050C4F20000194602F0D8FC00BF4FF4AF
:1004B0007050C4F200004FF0800102F0DDFC0346F2
:1004C000002BF4D14FF47050C4F2000002F0B8FCDD
:1004D0000346BB804FF44060C4F202004FF00101BC
:1004E00002F04EF807F10807BD4680BD80B582B026
:1004F00000AF40F23403C2F20003B3F84430FB8093
:1005000040F23403C2F20003DB8FBB804FF00400E3
:10051000FFF73AFE4FF44060C4F202004FF00101D1
:1005200002F03CF8FB884FF47050C4F2000019460A
:1005300002F094FC00BF4FF47050C4F200004FF082
:10054000800102F099FC0346002BF4D14FF4705067
:10055000C4F2000002F074FC0346FB80BB884FF439
:100560007050C4F20000194602F078FC00BF4FF44E
:100570007050C4F200004FF0800102F07DFC034691
:10058000002BF4D14FF47050C4F2000002F058FC7C
:100590000346BB804FF44060C4F202004FF00101FB
:1005A00001F0EEFF07F10807BD4680BD80B500AF42
:1005B000FFF7DCFEFFF73AFFFFF798FFFFF76CFE4F
:1005C00080BD00BF80B485B000AF13460246FA80FC
:1005D0000A46BA807B80FB884FEA5303FB81BA88C6
:1005E000FB899A4203D3FB8903F1FF33BB807A88EE
:1005F000FB899A4203D3FB8903F1FF337B8040F2EE
:100600003403C2F20003FA881A87FA89BB88D31A26
:100610009AB240F23403C2F200035A8740F2340324
:10062000C2F20003FA899A87FA897B88D3189AB2B2
:1006300040F23403C2F20003DA8740F23403C2F21C
:1006400000035B8F9AB240F23403C2F200031B8FA7
:100650009BB24FEA53039BB2D3189AB240F23403D1
:10066000C2F20003A3F8402040F23403C2F20003B8
:100670009B8F9AB240F23403C2F200031B8F9BB2ED
:100680004FEA53039BB2D3189AB240F23403C2F23A
:100690000003A3F8422040F23403C2F20003DB8FD0
:1006A0009AB240F23403C2F200031B8F9BB24FEAAE
:1006B00053039BB2D3189AB240F23403C2F2000340
:1006C000A3F8442040F23403C2F20003B3F84030F0
:1006D0009AB240F23403C2F200031B8F9BB29A42DB
:1006E00014D340F23403C2F20003B3F840309AB29C
:1006F00040F23403C2F200031B8F9BB2D31A9AB2AA
:1007000040F23403C2F20003A3F8402040F2340365
:10071000C2F20003B3F842309AB240F23403C2F29C
:1007200000031B8F9BB29A4214D340F23403C2F2EF
:100730000003B3F842309AB240F23403C2F200032D
:100740001B8F9BB2D31A9AB240F23403C2F2000359
:10075000A3F8422040F23403C2F20003B3F844305D
:100760009AB240F23403C2F200031B8F9BB29A424A
:1007700014D340F23403C2F20003B3F844309AB207
:1007800040F23403C2F200031B8F9BB2D31A9AB219
:1007900040F23403C2F20003A3F8442007F1140727
:1007A000BD4680BC704700BF80B584B000AF034633
:1007B000FB71FB7903F00F03FB71FB7903F110036D
:1007C000DBB21846FFF7E0FC4FF44060C4F20200D1
:1007D0004FF0010101F0E2FE4FF47050C4F200004E
:1007E0004FF0000102F03AFB00BF4FF47050C4F22A
:1007F00000004FF0800102F03FFB0346002BF4D1D4
:100800004FF47050C4F2000002F01AFB0346FB8163
:100810004FF47050C4F200004FF0000102F01EFBD4
:1008200000BF4FF47050C4F200004FF0800102F09E
:1008300023FB0346002BF4D14FF47050C4F20000A8
:1008400002F0FEFA0346BB81FA79BB894FEA0353F3
:100850004FEA135399B240F23403C2F2000302F19B
:100860000C0223F812104FF44060C4F202004FF063
:10087000010101F085FE07F11007BD4680BD00BFF4
:1008800080B500AF40F22803C2F200031B78062BAC
:1008900000F2908001A252F823F000BFB9080008CE
:1008A000DD080008010900082509000849090008B9
:1008B0006D090008910900084FF00000FFF774FF70
:1008C00040F22803C2F200031B7803F10103DAB2FD
:1008D00040F22803C2F200031A7073E04FF00100E7
:1008E000FFF762FF40F22803C2F200031B7803F116
:1008F0000103DAB240F22803C2F200031A7061E089
:100900004FF00200FFF750FF40F22803C2F200034D
:100910001B7803F10103DAB240F22803C2F20003AC
:100920001A704FE04FF00300FFF73EFF40F228033C
:10093000C2F200031B7803F10103DAB240F228038C
:10094000C2F200031A703DE04FF00400FFF72CFFE5
:1009500040F22803C2F200031B7803F10103DAB26C
:1009600040F22803C2F200031A702BE04FF005009A
:10097000FFF71AFF40F22803C2F200031B7803F1CD
:100980000103DAB240F22803C2F200031A7019E040
:100990004FF00600FFF708FF40F22803C2F2000301
:1009A0001B7803F10103DAB240F22803C2F200031C
:1009B0001A7007E040F22803C2F200034FF0000271
:1009C0001A7000BF80BD00BF80B483B000AF034683
:1009D0003960FB7197F90730002B10DA4FF46D4343
:1009E000CEF20003FA7902F00F02A2F104013A6894
:1009F000D2B24FEA0212D2B25B181A760DE04FF46F
:100A00006143CEF2000397F907103A68D2B24FEA79
:100A10000212D2B25B1883F8002307F10C07BD461F
:100A200080BC704780B582B000AF78607A686FF0A4
:100A30007F439A4202D94FF001031FE04EF21003A8
:100A4000CEF200037A6822F07F4202F1FF325A6050
:100A50004FF0FF304FF00F01FFF7B6FF4EF21003DB
:100A6000CEF200034FF000029A604EF21003CEF275
:100A700000034FF007021A604FF00003184607F119
:100A80000807BD4680BD00BF80B582B000AF0346F9
:100A9000FB8044F26C13C2F200031B78DBB2032B21
:100AA0003DD144F26C13C2F200039A68FB889A426B
:100AB0000BD944F26C13C2F200039A68FB88D21A75
:100AC00044F26C13C2F200039A6044F26C13C2F257
:100AD00000039A6840F21F339A4206D844F26C131E
:100AE000C2F200034FF448729A6044F26C13C2F2EF
:100AF00000039B6899B244F26C13C2F20003DB68F6
:100B00009AB244F26C13C2F200031B699BB208460E
:100B100011461A46FFF756FDFFF748FD00E000BFFB
:100B200007F10807BD4680BD80B582B000AF03461F
:100B3000FB8044F26C13C2F200031B78DBB2032B80
:100B40003ED144F26C13C2F200039A6840F6B73308
:100B50009A421BD844F26C13C2F200039A68FB88D5
:100B6000D21844F26C13C2F200039A6044F26C1380
:100B7000C2F200039A6840F6B8339A4206D944F2AA
:100B80006C13C2F2000340F6B8329A6044F26C1360
:100B9000C2F200039B6899B244F26C13C2F20003E4
:100BA000DB689AB244F26C13C2F200031B699BB279
:100BB000084611461A46FFF705FDFFF7F7FC00E06F
:100BC00000BF07F10807BD4680BD00BF80B582B0F9
:100BD00000AF0346FB8044F26C13C2F200031B78A3
:100BE000DBB2032B3FD144F26C13C2F20003DA688C
:100BF000FB88D21844F26C13C2F20003DA6044F2AC
:100C00006C13C2F20003DA6844F26C13C2F2000300
:100C10009B684FEA53039A420BD944F26C13C2F219
:100C200000039B684FEA530244F26C13C2F20003C4
:100C3000DA6044F26C13C2F200039B6899B244F28A
:100C40006C13C2F20003DB689AB244F26C13C2F276
:100C500000031B699BB2084611461A46FFF7B2FC17
:100C6000FFF7A4FC00E000BF07F10807BD4680BD08
:100C700080B582B000AF0346FB8044F26C13C2F231
:100C800000031B78DBB2032B35D144F26C13C2F2A4
:100C90000003DA68FB889A420CD944F26C13C2F262
:100CA0000003DA68FB88D21A44F26C13C2F2000324
:100CB000DA6006E044F26C13C2F200034FF0000267
:100CC000DA6044F26C13C2F200039B6899B244F2FA
:100CD0006C13C2F20003DB689AB244F26C13C2F2E6
:100CE00000031B699BB2084611461A46FFF76AFCCF
:100CF000FFF75CFC00E000BF07F10807BD4680BDC0
:100D000080B582B000AF0346FB8044F26C13C2F2A0
:100D100000031B78DBB2032B3FD144F26C13C2F209
:100D200000031A69FB88D21844F26C13C2F2000364
:100D30001A6144F26C13C2F200031A6944F26C1394
:100D4000C2F200039B684FEA53039A420BD944F264
:100D50006C13C2F200039B684FEA530244F26C1317
:100D6000C2F200031A6144F26C13C2F200039B68E2
:100D700099B244F26C13C2F20003DB689AB244F2F7
:100D80006C13C2F200031B699BB2084611461A4657
:100D9000FFF718FCFFF70AFC00E000BF07F10807A7
:100DA000BD4680BD80B582B000AF0346FB8044F2F3
:100DB0006C13C2F200031B78DBB2032B35D144F273
:100DC0006C13C2F200031A69FB889A420CD944F2F0
:100DD0006C13C2F200031A69FB88D21A44F26C1336
:100DE000C2F200031A6106E044F26C13C2F200037F
:100DF0004FF000021A6144F26C13C2F200039B68C8
:100E000099B244F26C13C2F20003DB689AB244F266
:100E10006C13C2F200031B699BB2084611461A46C6
:100E2000FFF7D0FBFFF7C2FB00E000BF07F10807A8
:100E3000BD4680BD80B500AF4FF00000C4F2010098
:100E40004FF0010102F0B6FC80BD00BF80B500AFDD
:100E50004FF48060C4F201004FF0010102F0AAFCDF
:100E600080BD00BF80B500AF46F21040C4F2020062
:100E70004FF02001C1F2000101F0AEFD01F052FF80
:100E800001F094FF01F0B6FF42F2C803C2F2000382
:100E900003F5005303F114031B6803F1010242F24E
:100EA000C803C2F2000303F5005303F114031A60F0
:100EB00080BD00BF80B500AF40F21403C2F2000352
:100EC0001A6844F6D353C1F26203A3FB02134FEA3C
:100ED00093131846FFF7A6FD80BD00BF80B500AF95
:100EE00044F2E403C2F200034FF001021A7040F230
:100EF0002903C2F200031B7803F10103DAB240F2C6
:100F00002903C2F200031A7040F20003C2F2000388
:100F10001B7803F10103DAB240F20003C2F20003CE
:100F20001A7040F20103C2F200031B7803F10103BF
:100F3000DAB240F20103C2F200031A7040F2020377
:100F4000C2F200031B8803F101039AB240F20203CC
:100F5000C2F200031A8002F04BF8FFF791FC40F256
:100F60002903C2F200031B78092B0DD940F2290393
:100F7000C2F200034FF000021A7044F2E403C2F21E
:100F800000034FF001025A7040F20003C2F2000366
:100F90001B78632B0DD940F20003C2F200034FF01F
:100FA00000021A7044F2E403C2F200034FF001029F
:100FB0009A7040F20103C2F200031B78C72B0DD9CF
:100FC00040F20103C2F200034FF000021A7044F233
:100FD000E403C2F200034FF00102DA7040F20203B0
:100FE000C2F200031A8840F2E7339A4227D942F24C
:100FF000C803C2F2000303F5005303F114031A6897
:1010000042F2C803C2F20003C3F8C42042F2C8038C
:10101000C2F2000303F5005303F114034FF0000282
:101020001A6040F20203C2F200034FF000021A807D
:1010300044F2E403C2F200034FF001021A7180BDD2
:1010400080B58AB000AF786039604FF000037B62F2
:101050004FF000033B624FF00003FB614FF00003D1
:10106000BB617B681B8A9BB27B627B6A23F4405323
:101070007B623B68DB887A6A13437B627B6A9AB245
:101080007B681A827B689B899BB27B627B6A23F4B4
:10109000B05323F00C037B623B689A883B681B8942
:1010A00013439AB23B685B8913439BB27A6A13433A
:1010B0007B627B6A9AB27B689A817B689B8A9BB2CF
:1010C0007B627B6A23F440737B623B689B897A6A0C
:1010D00013437B627B6A9AB27B689A8207F10803AA
:1010E000184600F0A7FC7A684FF48053C4F201035D
:1010F0009A4206D07A684FF4A053C4F201039A4290
:1011000002D17B693B6201E03B693B627B689B8962
:101110009BB29BB21BB2002B0FDA3A6A13464FEA1E
:1011200083039B184FEA83029A183B681B684FEAB7
:101130004303B2FBF3F3FB610EE03A6A13464FEA56
:1011400083039B184FEA83029A183B681B684FEA97
:101150008303B2FBF3F3FB61FA6948F21F53C5F254
:10116000EB13A3FB02134FEA53134FEA03137B6203
:101170007B6A4FEA13134FF0640202FB03F3FA6930
:10118000D31ABB617B689B899BB29BB21BB2002BBD
:1011900012DABB694FEAC30303F1320248F21F536C
:1011A000C5F2EB13A3FB02134FEA531303F007033B
:1011B0007A6A13437B6211E0BB694FEA031303F1C0
:1011C000320248F21F53C5F2EB13A3FB02134FEA9E
:1011D000531303F00F037A6A13437B627B6A9AB25C
:1011E0007B681A8107F12807BD4680BD80B483B0B3
:1011F00000AF78600B46FB70FB78002B08D07B6853
:101200009B899BB243F400539AB27B689A8107E0B2
:101210007B689B899BB223F400539AB27B689A81C6
:1012200007F10C07BD4680BC704700BF80B483B097
:1012300000AF78600B467B807B884FEAC3534FEA50
:10124000D3539AB27B689A8007F10C07BD4680BCE5
:10125000704700BF80B487B000AF786013460A467D
:101260007A807B704FF000033B614FF00003FB601E
:101270004FF00003BB604FF000037B617B687B6134
:101280007B88DBB24FEA5313DBB23B617B8803F010
:101290001F03FB60FB684FF0010202FA03F3BB601F
:1012A0003B69012B04D17B6903F10C037B610BE0EB
:1012B0003B69022B04D17B6903F110037B6103E0DE
:1012C0007B6903F114037B617B78002B06D07B697B
:1012D0007A691168BA680A431A6007E07B697A691B
:1012E0001168BA686FEA02020A401A6007F11C0727
:1012F000BD4680BC704700BF80B487B000AF786047
:101300000B467B804FF00003FB604FF000037B61D6
:101310004FF00003BB604FF00003FB747B88DBB22F
:101320004FEA5313DBB2BB607B8803F01F037B6182
:101330007B694FF0010202FA03F37B61BB68012B6A
:1013400006D17B689B899BB27A6913407B610FE071
:10135000BB68022B06D17B681B8A9BB27A6913405B
:101360007B6105E07B689B8A9BB27A6913407B6155
:101370007B884FEA13239BB2FB60FB684FF00102AE
:1013800002FA03F3FB607B681B889BB2FA68134088
:10139000FB607B69002B06D0FB68002B03D04FF06D
:1013A0000103FB7402E04FF00003FB74FB7C184662
:1013B00007F11C07BD4680BC704700BF80B500AF79
:1013C0004FF01F00C0F240004FF0010100F018FC88
:1013D0004FF40040C2F202004FF0010100F03AFC6D
:1013E00040F213504FF0010100F05EFC80BD00BFE1
:1013F00080B582B000AF4FF000604FF0000101F007
:10140000E1FD4FF4E06001F057FD4FF026033B7122
:101410004FF000037B714FF00703BB714FF00103E6
:10142000FB7107F10403184601F05AFD4FF0380331
:101430003B714FF000037B714FF00003BB714FF025
:101440000103FB7107F10403184601F049FD07F1A0
:101450000807BD4680BD00BF80B500AF45F25550BE
:1014600000F04AF84FF0030000F056F840F6C410C0
:1014700000F062F800F070F800F07AF880BD00BF6C
:1014800080B582B000AF43F61833C0F600037B602E
:1014900040F20003C2F200033B600BE07B681A6875
:1014A0003B681A603B6803F104033B607B6803F10F
:1014B00004037B603A6840F22803C2F200039A42B8
:1014C000ECD3094809494FF000028842B8BF40F800
:1014D000042BFFF6FAAF01F0C3F800F055F807F15E
:1014E0000807BD4680BD0000280000208041002084
:1014F00080B400AFFEE700BF80B483B000AF034606
:10150000FB804FF44053C4F20003FA881A6007F1DD
:101510000C07BD4680BC704780B483B000AF034663
:10152000FB714FF44053C4F20003FA795A6007F19B
:101530000C07BD4680BC704780B483B000AF034643
:10154000FB804FF44053C4F20003FA889A6007F11D
:101550000C07BD4680BC704780B400AF4FF44053C9
:10156000C4F200034AF6AA221A60BD4680BC704746
:1015700080B400AF4FF44053C4F200034CF6CC42A9
:101580001A60BD4680BC704780B500AFFFF716FFFC
:10159000FFF72EFFFFF760FF00F07CFDFFF78AFCEE
:1015A00001F04AFA02F018F900E000BFFFF7D4FF9B
:1015B00000F02EF844F2E403C2F200031B79DBB220
:1015C000002B06D044F2E403C2F200034FF0000205
:1015D0001A7144F2E403C2F200039B78DBB2002BE1
:1015E00006D044F2E403C2F200034FF000029A7006
:1015F00044F2E403C2F200035B78DBB2002BD4D0E8
:1016000044F2E403C2F200034FF000025A70CCE748
:1016100080B582B000AF02F057F90346002B00F00E
:10162000478102F065F90346FB7140F22C03C2F2D8
:1016300000031B78002B40F00081FB79A3F12B0302
:10164000472B00F2F38001A252F823F06D17000837
:101650009F17000877170008951700082D18000835
:101660002D1800082D1800082D1800082D18000846
:101670002D1800082D1800082D1800082D18000836
:101680002D1800082D1800082D1800082D18000826
:10169000B31700082D180008A91700082D18000816
:1016A0002D180008E51700082D1800082D1800084F
:1016B000FB170008EB1700082D1800082D1800086C
:1016C0002D1800082D1800082D180008DB17000839
:1016D000D11700082D1800082D1800082D18000833
:1016E0002D1800082D1800080B1800082D180008E8
:1016F0002D1800082D1800082D1800082D180008B6
:101700002D1800082D1800082D1800082D180008A5
:101710002D1800082D1800082D1800082D18000895
:101720002D180008AF1800082D1800082D18000803
:101730008B1700082D1800082D1800082D18000818
:101740002D180008811700082D180008C717000879
:10175000BD1700082D1800082D1800082D180008C6
:101760002D1800082D1800081B1800084FF0010064
:10177000FFF78AF99CE04FF00100FFF7D5F997E0F9
:101780004FF00A00FFF780F992E04FF00A00FFF7F0
:10179000CBF98DE04FF00100FFF718FA88E04FF029
:1017A0000100FFF765FA83E04FF00A00FFF70EFA39
:1017B0007EE04FF00A00FFF75BFA79E04FF001009E
:1017C000FFF79EFA74E04FF00100FFF7EBFA6FE0CD
:1017D0004FF00A00FFF794FA6AE04FF00A00FFF7B3
:1017E000E1FA65E000F068F862E044F26C13C2F2DE
:1017F00000034FF065025A705AE044F26C13C2F2D3
:1018000000034FF064025A7052E044F26C13C2F2CB
:1018100000034FF045025A704AE044F26C13C2F2E2
:1018200000034FF072025A7000BF41E044F26C13A3
:10183000C2F20003FA795A703AE0FB792F2B22D9D1
:10184000FB79392B1FD840F23003C2F200031A682B
:1018500013464FEA83039B184FEA43031A4640F2AC
:101860003003C2F200031A60FA7940F23003C2F288
:1018700000031B68D318A3F1300240F23003C2F218
:1018800000031A6014E0FB79582B11D140F22C03AD
:10189000C2F200031B78332B00D000E000BF40F2FF
:1018A0002C03C2F200034FF000021A7000E000BFE8
:1018B00007F10807BD4680BD80B584B000AF4FF08A
:1018C00000037B6001F0FEFD42F2C803C2F2000398
:1018D000BB604FF00003FB6049E040F27C03C2F2C2
:1018E00000031B889BB21946BB681A7840F27C0340
:1018F000C2F200035B181A73BB681B781A467B6838
:10190000D3187B60BB6803F10103BB6040F27C032A
:10191000C2F200039B889BB203F101039AB240F22A
:101920007C03C2F200039A8040F27C03C2F20003FF
:101930001B889BB203F101039AB240F27C03C2F20E
:1019400000031A8040F27C03C2F200031B889AB2A3
:1019500041F6FF739A4206D940F27C03C2F20003BB
:101960004FF000021A80FB6803F10103FB60FB6883
:10197000C72BB2D901F0FCFC07F10403BB604FF0A8
:101980000003FB6043E040F27C03C2F200031B88CB
:101990009BB21946BB681A7840F27C03C2F200037E
:1019A0005B181A73BB6803F10103BB6040F27C0350
:1019B000C2F200039B889BB203F101039AB240F28A
:1019C0007C03C2F200039A8040F27C03C2F200035F
:1019D0001B889BB203F101039AB240F27C03C2F26E
:1019E00000031A8040F27C03C2F200031B889AB203
:1019F00041F6FF739A4206D940F27C03C2F200031B
:101A00004FF000021A80FB6803F10103FB60FB68E2
:101A1000032BB8D901F040FF4FF48840C4F2000016
:101A200040F227714FF00102FFF714FC07F1100795
:101A3000BD4680BD80B489B000AF78604FF0000330
:101A4000BB614FF000037B614FF00003FB614FF07F
:101A500002033B614FF00003FB604FF00203BB60E9
:101A60004FF46053C4F202039B6803F00C03BB61A4
:101A7000BB69042B0AD0082B0FD0002B60D17A68E9
:101A80004FF41053C0F2F403136060E07A684FF42F
:101A90009053C0F27A03136059E04FF46053C4F2DC
:101AA00002035B6803F480034FEA9353FB604FF437
:101AB0006053C4F202035B6803F03F03BB60FB6842
:101AC000002B14D04FF49053C0F27A03BA68B3FBE2
:101AD000F2F24FF46053C4F20203596847F6C07340
:101AE0000B404FEA931303FB02F3FB6113E04FF447
:101AF0001053C0F2F403BA68B3FBF2F24FF4605330
:101B0000C4F20203596847F6C0730B404FEA9313BF
:101B100003FB02F3FB614FF46053C4F202035B6802
:101B200003F440334FEA134303F101034FEA430345
:101B30003B61FA693B69B2FBF3F27B681A6006E02D
:101B40007A684FF41053C0F2F403136000BF4FF4EF
:101B50006053C4F202039B6803F0F003BB61BB69EE
:101B60004FEA1313BB6140F20403C2F20003BA69E7
:101B70009B181B78DBB27B617B681A687B6922FA51
:101B800003F27B685A604FF46053C4F202039B680F
:101B900003F4E053BB61BB694FEA9323BB6140F29E
:101BA0000403C2F20003BA699B181B78DBB27B61A5
:101BB0007B685A687B6922FA03F27B689A604FF46B
:101BC0006053C4F202039B6803F46043BB61BB69CA
:101BD0004FEA5333BB6140F20403C2F20003BA6917
:101BE0009B181B78DBB27B617B685A687B6922FAA1
:101BF00003F27B68DA6007F12407BD4680BC7047BA
:101C000080B483B000AF78600B46FB70FB78002B8C
:101C10000CD04FF46053C4F202034FF46052C4F28C
:101C20000202116B7A680A431A630DE04FF46053A5
:101C3000C4F202034FF46052C4F20202116B7A68DC
:101C40006FEA02020A401A6307F10C07BD4680BC26
:101C5000704700BF80B483B000AF78600B46FB7064
:101C6000FB78002B0CD04FF46053C4F202034FF406
:101C70006052C4F20202116C7A680A431A640DE0E1
:101C80004FF46053C4F202034FF46052C4F20202F4
:101C9000116C7A686FEA02020A401A6407F10C07B5
:101CA000BD4680BC704700BF80B483B000AF786091
:101CB0000B46FB70FB78002B0CD04FF46053C4F242
:101CC00002034FF46052C4F20202516C7A680A4374
:101CD0005A640DE04FF46053C4F202034FF46052B3
:101CE000C4F20202516C7A686FEA02020A405A6436
:101CF00007F10C07BD4680BC704700BF80B485B0BB
:101D000000AF786039604FF00003FB604FF00003D4
:101D1000FB727B685B68FB60FB6823F0407323F415
:101D20008073FB603B681B794FEA03223B681B68AA
:101D30001343FA681343FB607B68FA685A607B6858
:101D40009B68FB60FA684FF2FD73CCF2FF0313400F
:101D5000FB603B681A693B68DB681A433B689B6819
:101D60001A433B685B794FEA43031343FA68134312
:101D7000FB607B68FA689A607B68DB6AFB60FB68E3
:101D800023F47003FB603B681B7D03F1FF33DAB281
:101D9000FB7A1343FB72FB7A4FEA0353FA6813434F
:101DA000FB607B68FA68DA6207F11407BD4680BC05
:101DB000704700BF80B485B000AF78604FF000037B
:101DC000FB604FF40C53C4F201035B68FB60FA68DC
:101DD00043F2E003CFF6FC731340FB607B681A68A4
:101DE0007B685B681A437B689B681A437B68DB6887
:101DF0001343FA681343FB604FF40C53C4F201031E
:101E0000FA685A6007F11407BD4680BC704700BFEE
:101E100080B483B000AF78600B46FB70FB78002B7A
:101E200006D07B689B6843F001027B689A6005E0FE
:101E30007B689B6823F001027B689A6007F10C07BE
:101E4000BD4680BC704700BF80B485B000AF7860ED
:101E5000F970BA707B704FF00003FB604FF0000325
:101E6000BB60FB78092B27D97B68DB68FB60FA78BD
:101E700013464FEA43039B18A3F11E034FF00702DA
:101E800002FA03F3BB60BB686FEA0303FA6813400E
:101E9000FB607978FA7813464FEA43039B18A3F165
:101EA0001E0301FA03F3BB60FA68BB681343FB60CF
:101EB0007B68FA68DA6022E07B681B69FB60FA786D
:101EC00013464FEA43039B184FF0070202FA03F34D
:101ED000BB60BB686FEA0303FA681340FB60797864
:101EE000FA7813464FEA43039B1801FA03F3BB60E9
:101EF000FA68BB681343FB607B68FA681A61BB78B9
:101F0000062B27D87B685B6BFB60BB7803F1FF3245
:101F100013464FEA83039B184FF01F0202FA03F3A4
:101F2000BB60BB686FEA0303FA681340FB60F97893
:101F3000BB7803F1FF3213464FEA83039B1801FA83
:101F400003F3BB60FA68BB681343FB607B68FA6805
:101F50005A6351E0BB780C2B27D87B681B6BFB6066
:101F6000BA7813464FEA83039B18A3F123034FF07B
:101F70001F0202FA03F3BB60BB686FEA0303FA684F
:101F80001340FB60F978BA7813464FEA83039B1835
:101F9000A3F1230301FA03F3BB60FA68BB681343A0
:101FA000FB607B68FA681A6326E07B68DB6AFB608B
:101FB000BA7813464FEA83039B18A3F141034FF00D
:101FC0001F0202FA03F3BB60BB686FEA0303FA68FF
:101FD0001340FB60F978BA7813464FEA83039B18E5
:101FE000A3F1410301FA03F3BB60FA68BB68134332
:101FF000FB607B68FA68DA6207F11407BD4680BCB3
:10200000704700BF80B483B000AF78607B689B6886
:1020100043F080427B689A6007F10C07BD4680BCA4
:10202000704700BF80B483B000AF78600B46FB7090
:10203000FB78002B06D07B689B6843F480727B683A
:102040009A6005E07B689B6823F480727B689A60E5
:1020500007F10C07BD4680BC704700BF80B483B059
:1020600000AF78600B46FB70FB78002B06D07B68D6
:102070009B6843F400727B689A6005E07B689B680C
:1020800023F400727B689A6007F10C07BD4680BCA0
:10209000704700BF80B582B000AF4FF48050C4F2EB
:1020A00002004FF008014FF0010200F085FA4FF4F2
:1020B0008050C4F202004FF009014FF0010200F01D
:1020C0007BFA4FF40060C4F202004FF008014FF0B9
:1020D000030200F071FA4FF440733B604FF00203CB
:1020E0003B714FF003037B714FF00003BB714FF066
:1020F0000003FB713B464FF48050C4F202001946C6
:1021000000F09CF94FF480733B604FF002033B7189
:102110004FF003037B714FF00003BB714FF00003DE
:10212000FB713B464FF40060C4F20200194600F018
:1021300085F94FF040033B604FF001033B714FF0D6
:102140000003BB714FF003037B714FF00003FB7181
:102150003B464FF44060C4F20200194600F06EF9AD
:102160004FF080033B604FF000033B714FF00303DF
:102170007B714FF00003FB713B464FF44060C4F2AB
:102180000200194600F05AF94FF00000C4F20200B4
:102190004FF009014FF0070200F00EFA4FF0000077
:1021A000C4F202004FF00A014FF0070200F004FAF7
:1021B0004FF400733B604FF00003BB714FF001031D
:1021C000FB714FF002033B714FF003037B713B4601
:1021D0004FF00000C4F20200194600F02FF94FF44E
:1021E00080633B604FF00003BB714FF00103FB7154
:1021F0004FF002033B714FF003037B713B464FF0FE
:102200000000C4F20200194600F018F94FF0000077
:10221000C4F202004FF002014FF0070200F0CCF9C7
:102220004FF00000C4F202004FF003014FF007022C
:1022300000F0C2F94FF004033B604FF00003BB71A4
:102240004FF00103FB714FF002033B714FF00303AA
:102250007B713B464FF00000C4F20200194600F0CB
:10226000EDF84FF008033B604FF00003BB714FF0F7
:102270000103FB714FF002033B714FF003037B71CD
:102280003B464FF00000C4F20200194600F0D6F8B9
:102290004FF002033B604FF001033B714FF000032E
:1022A000BB714FF003037B714FF00003FB713B46A2
:1022B0004FF00000C4F20200194600F0BFF84FF0E2
:1022C000C1033B604FF003033B714FF00003FB7110
:1022D0003B464FF00000C4F20200194600F0AEF891
:1022E0004FF03F033B604FF003033B714FF000039F
:1022F000FB713B464FF40060C4F20200194600F047
:102300009DF84FF003033B604FF003033B714FF028
:102310000003FB713B464FF48060C4F20200194693
:1023200000F08CF84FF030033B604FF003033B713B
:102330004FF00003FB713B464FF00000C4F2020077
:10234000194600F07BF84FF0C0033B604FF00003EC
:102350003B714FF003037B714FF00003FB713B4671
:102360004FF48060C4F20200194600F067F84FF0A5
:1023700020033B604FF001033B714FF00003BB7142
:102380004FF003037B714FF00003FB713B464FF4AA
:102390008060C4F20200194600F050F84FF03F038D
:1023A0003B604FF001033B714FF00003BB714FF0F6
:1023B00003037B714FF00003FB713B464FF4406019
:1023C000C4F20200194600F039F84FF40060C4F27C
:1023D00002004FF00A014FF0060200F0EDF84FF452
:1023E0000060C4F202004FF00B014FF0060200F053
:1023F000E3F84FF40060C4F202004FF00C014FF01C
:10240000060200F0D9F84FF4E0533B604FF00203AE
:102410003B714FF00003BB714FF003037B714FF032
:102420000203FB713B464FF40060C4F20200194600
:1024300000F004F807F10807BD4680BD80B487B0FE
:1024400000AF786039604FF000037B614FF000030C
:102450003B614FF00003FB604FF000037B6186E0BF
:102460007B694FF0010202FA03F33B613B681A6893
:102470003B691340FB60FA683B699A4273D17B6801
:102480001A687B694FEA43034FF0030101FA03F333
:102490006FEA03031A407B681A607B681A683B681E
:1024A0001B7919467B694FEA430301FA03F31A4388
:1024B0007B681A603B681B79012B03D03B681B7952
:1024C000022B34D17B689A687B694FEA43034FF053
:1024D000030101FA03F36FEA03031A407B689A6071
:1024E0007B689A683B685B7919467B694FEA4303CE
:1024F00001FA03F31A437B689A607B685A687B6928
:102500009BB24FF0010101FA03F36FEA03031A4093
:102510007B685A607B685A683B689B7919467B697F
:102520009BB201FA03F39BB21A437B685A607B6843
:10253000DA687B699BB24FEA43034FF0030101FA6B
:1025400003F36FEA03031A407B68DA607B68DA689A
:102550003B68DB7919467B694FEA430301FA03F3D1
:102560001A437B68DA607B6903F101037B617B6955
:102570000F2B7FF675AF07F11C07BD4680BC704777
:1025800080B483B000AF78600B467B807B687A882C
:102590001A8307F10C07BD4680BC704780B483B036
:1025A00000AF78600B467B807B687A885A8307F19E
:1025B0000C07BD4680BC704780B485B000AF786022
:1025C00013460A467A807B704FF00003FB604FF0A1
:1025D0000003BB607A787B8803F007034FEA83032C
:1025E00002FA03F3FB607B884FEAD3039BB21A46DF
:1025F0007B884FEAD3039BB219467B6801F108013F
:1026000053F821107B8803F007034FEA83034FF050
:102610000F0000FA03F36FEA030319407B6802F12D
:10262000080243F822107B884FEAD3039BB21A4674
:102630007B6802F1080253F82220FB681343BB6059
:102640007B884FEAD3039BB21A467B6802F10802EB
:10265000B96843F8221007F11407BD4680BC7047E3
:1026600080B500AF4FF46053C4F202034FF46052E0
:10267000C4F20202126842F001021A604FF4605381
:10268000C4F202034FF000029A604FF46053C4F2A8
:1026900002034FF46052C4F20202126822F0847204
:1026A00022F480321A604FF46053C4F2020343F202
:1026B0001002C2F200425A604FF46053C4F20203A7
:1026C0004FF46052C4F20202126822F480221A60AF
:1026D0004FF46053C4F202034FF00002DA6000F0DE
:1026E00009F84FF46D43CEF200034FF000629A6098
:1026F00080BD00BF80B483B000AF4FF000037B60AB
:102700004FF000033B604FF46053C4F202034FF4F8
:102710006052C4F20202126842F480321A604FF42E
:102720006053C4F202031B6803F400333B607B6810
:1027300003F101037B603B68002B03D17B68B3F599
:10274000A06FECD14FF46053C4F202031B6803F492
:102750000033002B03D04FF001033B6002E04FF049
:1027600000033B603B68012B40F082804FF46053D4
:10277000C4F202034FF46052C4F20202126C42F03F
:1027800080521A644FF4E043C4F200034FF4E04275
:10279000C4F20002126842F480421A604FF460539F
:1027A000C4F202034FF46052C4F2020292689A60CB
:1027B0004FF46053C4F202034FF46052C4F20202B9
:1027C000926842F400429A604FF46053C4F20203EC
:1027D0004FF46052C4F20202926842F4C0529A600E
:1027E0004FF46053C4F2020345F20842C0F2407253
:1027F0005A604FF46053C4F202034FF46052C4F2C3
:102800000202126842F080721A6000BF4FF46053F7
:10281000C4F202031B6803F00073002BF6D04FF4E0
:102820007053C4F2020340F205621A604FF4605321
:10283000C4F202034FF46052C4F20202926822F022
:1028400003029A604FF46053C4F202034FF46052E3
:10285000C4F20202926842F002029A6000BF4FF492
:102860006053C4F202039B6803F00C03082BF6D1FB
:1028700007F10C07BD4680BC704700BF80B485B02F
:1028800000AF786039604FF00003FB607B681B6825
:10289000FB60FA6848F23F03CFF21C031340FB6071
:1028A0003B681A683B68DB681A433B685B691A43FC
:1028B0003B689B691A433B68DB691A433B681B6AA8
:1028C0001A433B685B6A1A433B689B6A1A433B683E
:1028D0005B6B1A433B689B6B1343FA681343FB60C3
:1028E0007B68FA681A607B685B69FB60FB6823F0B1
:1028F0000703FB603B68DA6A3B681B6B1343FA68AB
:102900001343FB607B68FA685A613B681A697B680D
:102910005A603B685A687B689A603B689A687B6833
:10292000DA6007F11407BD4680BC704780B483B0FD
:1029300000AF78600B46FB70FB78002B06D07B68FD
:102940001B6843F001027B681A6005E07B681B6826
:1029500023F001027B681A6007F10C07BD4680BCBA
:10296000704700BF80B485B000AFF860B96013460F
:10297000FB71BB6803F08003002B0FD0FB79002BA9
:1029800006D0FB685B6943F08002FB685A6105E092
:10299000FB685B6923F08002FB685A61BB68802B8F
:1029A00015D0FB79002B08D0FB681A68BB6803F0D0
:1029B0001E031A43FB681A6009E0FB681A68BB68CB
:1029C00003F01E036FEA03031A40FB681A6007F165
:1029D0001407BD4680BC704780B485B000AF7860F6
:1029E00039607A6846F20F43C4F202039A4205D86E
:1029F0004FF4C043C4F20203FB6004E04FF4C84349
:102A0000C4F20203FB603B6803F00053002B07D0C5
:102A10003B6823F0F02323F08213FA68D36006E0CA
:102A20003B6823F0F02323F08213FA68936007F1E8
:102A30001407BD4680BC704780B59AB000AF4FF018
:102A400000037B660CE044F2EC03C2F200037A6EF2
:102A50004FF0000123F812107B6E03F101037B6637
:102A60007B6E3F2BEFD94FF000033B6044F2EC0349
:102A7000C2F20003BB6042F24C03C4F201037B606C
:102A80004FF00003FB604FF040033B614FF0000349
:102A90007B614FF48063BB614FF40063FB614FF4D3
:102AA00000533B624FF480737B624FF40033BB6290
:102AB0004FF00403FB624FF001033B634FF0000350
:102AC0007B634FF00003BB633B4646F21040C4F209
:102AD00002001946FFF7D2FE46F21040C4F202008F
:102AE0004FF00101FFF722FF4FF000037B654FF02D
:102AF0000003BB654FF00003FB654FF000033B662E
:102B000007F154031846FFF755F94FF00003FB6334
:102B10004FF0010387F840304FF0010387F8413050
:102B20004FF000037B644FF06063BB644FF0000321
:102B3000FB644FF0080387F8503007F13C034FF473
:102B40000050C4F201001946FFF7D8F84FF40050C6
:102B5000C4F201004FF00F014FF001024FF00003EB
:102B6000FFF772F94FF40050C4F201004FF00E016C
:102B70004FF002024FF00003FFF766F94FF40050E8
:102B8000C4F201004FF009014FF003024FF00003BF
:102B9000FFF75AF94FF40050C4F201004FF008015A
:102BA0004FF004024FF00003FFF74EF94FF40050CE
:102BB000C4F201004FF00A014FF005024FF000038C
:102BC000FFF742F94FF40050C4F201004FF00B013F
:102BD0004FF006024FF00003FFF736F94FF40050B4
:102BE000C4F201004FF00C014FF007024FF0000358
:102BF000FFF72AF94FF40050C4F201004FF00D0125
:102C00004FF008024FF00003FFF71EF94FF4005099
:102C1000C4F201004FF00101FFF720FA4FF4005019
:102C2000C4F201004FF00101FFF7FCF946F2104039
:102C3000C4F202004FF010014FF00102FFF792FEC4
:102C40004FF40050C4F201004FF00101FFF7E0F82B
:102C50004FF40050C4F20100FFF7D4F907F1680700
:102C6000BD4680BD80B485B000AF0346FB714FF018
:102C70000003BB60FB79BB814FF00003FB7312E0E4
:102C8000BA8944F2EC03C2F2000333F812309BB26B
:102C9000BA68D318BB60BB8903F10803BB81FB7B17
:102CA00003F10103FB73FB7B072BE9D9BB684FEAF8
:102CB000D303BB60BB68184607F11407BD4680BC50
:102CC000704700BF80B483B000AF786039607B6824
:102CD0003A6802FB03F37B607A6844F6D353C1F28F
:102CE0006203A3FB02134FEA93137B607B6840F6F9
:102CF000C41202FB03F37B607A6840F20113C0F256
:102D00001003A3FB0213D21A4FEA52029B184FEA98
:102D1000D3237B607B68184607F10C07BD4680BC57
:102D2000704700BF80B500AF4FF00000FFF79AFF7B
:102D30000346184640F2F671FFF7C4FF024642F21E
:102D4000A803C2F200031A604FF00100FFF78AFFE8
:102D50000346184640F2F671FFF7B4FF024642F20E
:102D6000A803C2F200035A604FF00200FFF77AFF97
:102D70000346184640F2F671FFF7A4FF024642F2FE
:102D8000A803C2F200039A604FF00300FFF76AFF46
:102D90000346184640F2F671FFF794FF024642F2EE
:102DA000A803C2F20003DA6080BD00BF80B500AFA7
:102DB0004FF00400FFF756FF034618464FF47A71B0
:102DC000FFF780FF024642F2A803C2F200031A6135
:102DD0004FF00500FFF746FF034618464FF47A719F
:102DE000FFF770FF024642F2A803C2F200035A61E5
:102DF00080BD00BF80B500AF4FF00600FFF732FF87
:102E0000034618464FF47A71FFF75CFF03461A46F3
:102E100042F2A803C2F200039A614FF00700FFF7E5
:102E200021FF034618464FF47A71FFF74BFF034624
:102E30001A4642F2A803C2F20003DA6180BD00BF65
:102E400080B483B000AF78607B689B899BB21846E2
:102E500007F10C07BD4680BC704700BF80B483B04B
:102E600000AF78600B467B807B687A889A8107F197
:102E70000C07BD4680BC704780B485B000AF786059
:102E80000B467B804FF00003FB737B681B899AB273
:102E90007B8813409BB2002B03D04FF00103FB73E0
:102EA00002E04FF00003FB73FB7B184607F11407A9
:102EB000BD4680BC704700BF80B483B000AF78606F
:102EC0004FF46D43CEF200037A6842F0BF6242F4E1
:102ED0000032DA6007F10C07BD4680BC704700BFC6
:102EE00080B485B000AF78604FF00003FB734FF003
:102EF0000003BB734FF00F037B737B68DB78002B01
:102F000045D04FF46D43CEF20003DB686FEA030354
:102F100003F4E0634FEA1323FB73FB7BC3F1040369
:102F2000BB737A7BFB7B42FA03F37B737B685B7832
:102F30001A46BB7B02FA03F3FB737B689A787B7BB0
:102F40001340DAB2FB7B1343FB73FB7B4FEA0313A3
:102F5000FB734FF46143CEF200037A6812789B183A
:102F6000FA7B83F800234FF46143CEF200037A68C2
:102F700012784FEA5212D2B27968097801F01F0133
:102F80004FF0010000FA01F143F8221014E04FF471
:102F90006143CEF200037A6812784FEA5212D2B23D
:102FA0007968097801F01F014FF0010000FA01F182
:102FB00002F1200243F8221007F11407BD4680BC3D
:102FC000704700BF80B483B000AF786039604FF4C1
:102FD0006D43CEF200033A6822F0604222F07F0295
:102FE00079680A439A6007F10C07BD4680BC7047B8
:102FF00080B400AF42F2C803C2F2000303F50053ED
:1030000003F118031B78DBB2002B00F0AE8142F213
:10301000C803C2F2000303F5005303F110031A685A
:1030200049F63F439A4200F2A08142F2C803C2F23D
:1030300000035A6842F2A803C2F200031B68D218C8
:1030400042F2C803C2F200035A6042F2C803C2F25D
:1030500000031A6942F2A803C2F200035B68D218A7
:1030600042F2C803C2F200031A6142F2C803C2F27C
:103070000003DA6942F2A803C2F200039B68D21887
:1030800042F2C803C2F20003DA6142F2C803C2F29C
:1030900000039A6A42F2A803C2F20003DB68D21866
:1030A00042F2C803C2F200039A6242F2C803C2F2BB
:1030B00000035A6E42F2A803C2F200031B69D21841
:1030C00042F2C803C2F200035A6642F2C803C2F2D7
:1030D00000031A6F42F2A803C2F200035B69D21820
:1030E00042F2C803C2F200031A6742F2C803C2F2F6
:1030F0000003D3F8B42042F2A803C2F200039B6994
:10310000D21842F2C803C2F20003C3F8B42042F25C
:10311000C803C2F20003D3F8B82042F2A803C2F2F7
:103120000003DB69D21842F2C803C2F20003C3F8FD
:10313000B82042F2A803C2F200031A6842F2C803A0
:10314000C2F200031B689A4209D942F2A803C2F2F4
:1031500000031A6842F2C803C2F200031A6042F286
:10316000A803C2F200035A6842F2C803C2F2000385
:10317000DB689A4209D942F2A803C2F200035A68F6
:1031800042F2C803C2F20003DA6042F2A803C2F2BC
:1031900000039A6842F2C803C2F200039B699A4294
:1031A00009D942F2A803C2F200039A6842F2C803A6
:1031B000C2F200039A6142F2A803C2F20003DA6885
:1031C00042F2C803C2F200035B6A9A4209D942F292
:1031D000A803C2F20003DA6842F2C803C2F2000395
:1031E0005A6242F2A803C2F200031A6942F2C8030B
:1031F000C2F200031B6E9A4209D942F2A803C2F23E
:1032000000031A6942F2C803C2F200031A6642F2CE
:10321000A803C2F200035A6942F2C803C2F20003D3
:10322000DB6E9A4209D942F2A803C2F200035A693E
:1032300042F2C803C2F20003DA6642F2A803C2F205
:1032400000031A6842F2C803C2F200039B689A4264
:1032500009D242F2A803C2F200031A6842F2C8037C
:10326000C2F200039A6042F2A803C2F200035A6855
:1032700042F2C803C2F200035B699A4209D242F2E9
:10328000A803C2F200035A6842F2C803C2F2000364
:103290005A6142F2A803C2F200039A6842F2C803DC
:1032A000C2F200031B6A9A4209D242F2A803C2F298
:1032B00000039A6842F2C803C2F200031A6242F2A3
:1032C000A803C2F20003DA6842F2C803C2F20003A4
:1032D000DB6A9A4209D242F2A803C2F20003DA681A
:1032E00042F2C803C2F20003DA6242F2A803C2F259
:1032F00000031A6942F2C803C2F200039B6E9A42AD
:1033000009D242F2A803C2F200031A6942F2C803CA
:10331000C2F200039A6642F2A803C2F200035A699D
:1033200042F2C803C2F200035B6F9A4209D242F232
:10333000A803C2F200035A6942F2C803C2F20003B2
:103340005A6742F2C803C2F2000303F5005303F1C7
:1033500010031B6803F1010242F2C803C2F200032A
:1033600003F5005303F110031A60BD4680BC70479B
:1033700080B400AF42F2C803C2F200034FF0000273
:103380005A6042F2C803C2F200034FF000021A6111
:1033900042F2C803C2F200034FF00002DA6142F2C7
:1033A000C803C2F200034FF000029A6242F2C8035F
:1033B000C2F200034FF000025A6642F2C803C2F2A2
:1033C00000034FF000021A6742F2C803C2F2000382
:1033D0004FF00002C3F8B42042F2C803C2F2000367
:1033E0004FF00002C3F8B82042F2C803C2F2000353
:1033F0004FF000021A6042F2C803C2F200034FF01D
:103400000002DA6042F2C803C2F200034FF0000289
:103410009A6142F2C803C2F200034FF000025A62FE
:1034200042F2C803C2F200034FF000021A6642F2F1
:10343000C803C2F200034FF00002DA6642F2C8038A
:10344000C2F200036FF000429A6042F2C803C2F277
:1034500000036FF000425A6142F2C803C2F2000357
:103460006FF000421A6242F2C803C2F200036FF02A
:103470000042DA6242F2C803C2F200036FF0004277
:103480009A6642F2C803C2F200036FF000425A6724
:1034900042F2C803C2F2000303F5005303F1100324
:1034A0004FF000021A6042F2C803C2F2000303F5B3
:1034B000005303F118034FF001021A70BD4680BC9F
:1034C000704700BF80B400AF42F2C803C2F20003ED
:1034D00003F5005303F118034FF000021A7042F293
:1034E000C803C2F200034FF0FA02C3F8B42042F25C
:1034F000C803C2F200034FF0FA02C3F8B82042F248
:10350000C803C2F200034FF065025A6042F2C803DA
:10351000C2F200034FF066021A6142F2C803C2F21F
:1035200000034FF06702DA6142F2C803C2F20003FF
:103530004FF068029A6242F2C803C2F200034FF0F1
:1035400069021A6042F2C803C2F200034FF06A0235
:10355000DA6042F2C803C2F200034FF06B029A61D4
:1035600042F2C803C2F200034FF06C025A6242F208
:10357000C803C2F200034FF06D029A6042F2C80322
:10358000C2F200034FF06E025A6142F2C803C2F267
:1035900000034FF06F021A6242F2C803C2F2000346
:1035A0004FF07002DA6242F2C803C2F200034FF435
:1035B000FA625A6642F2C803C2F2000340F6B83219
:1035C0001A6742F2C803C2F200034FF47A621A6625
:1035D00042F2C803C2F2000341F28832DA6642F2D4
:1035E000C803C2F2000341F270729A6642F2C80345
:1035F000C2F2000341F658325A6742F2C803C2F2DF
:1036000000034FF001021A6342F2C803C2F2000342
:103610004FF00202DA6342F2C803C2F200034FF035
:1036200003029A6442F2C803C2F200034FF004029C
:103630005A6542F2C803C2F200034FF005025A6312
:1036400042F2C803C2F200034FF006021A6442F2CB
:10365000C803C2F200034FF00702DA6442F2C80363
:10366000C2F200034FF008029A6542F2C803C2F2A8
:1036700000034FF009029A6342F2C803C2F200034A
:103680004FF00A025A6442F2C803C2F200034FF03C
:103690000B021A6542F2C803C2F200034FF00C029B
:1036A000DA6542F2C803C2F200034FF00D02C3F81C
:1036B000842042F2C803C2F200034FF00E02C3F8A6
:1036C000902042F2C803C2F200034FF00F02C3F889
:1036D0009C2042F2C803C2F200034FF01002C3F86C
:1036E000A82042F2C803C2F200034FF01102C3F84F
:1036F000882042F2C803C2F200034FF01202C3F85E
:10370000942042F2C803C2F200034FF01302C3F840
:10371000A02042F2C803C2F200034FF01402C3F823
:10372000AC2042F2C803C2F200034FF01502C3F806
:103730008C2042F2C803C2F200034FF01602C3F815
:10374000982042F2C803C2F200034FF01702C3F8F8
:10375000A42042F2C803C2F200034FF01802C3F8DB
:10376000B02042F2C803C2F200034FF019029A6778
:1037700042F2C803C2F200034FF01A02DA6742F2C3
:10378000C803C2F200034FF01B02C3F8802042F2CC
:10379000C803C2F200034FF01F02C3F8BC2042F27C
:1037A000C803C2F200034FF02002C3F8C020BD4698
:1037B00080BC704780B483B000AF78600B467B80DC
:1037C0007B886FEA03039AB27B681A8207F10C07C1
:1037D000BD4680BC704700BF80B584B000AF40F2EA
:1037E0007C03C2F200034FF000021A8040F27C0317
:1037F000C2F200034FF000025A8040F27C03C2F292
:1038000000034FF000029A8040F27C03C2F20003F2
:103810004FF00002DA8040F27C03C2F200034FF066
:1038200000021A8140F27C03C2F200034FF0000252
:103830005A814FF4E1333B604FF00003BB804FF4FB
:103840000053FB804FF000033B814FF00003BB812E
:103850004FF00C037B813B464FF48840C4F20000DC
:103860001946FDF7EDFB4FF48840C4F2000040F22A
:1038700025514FF00102FDF7EDFC4FF48840C4F2F2
:1038800000004FF00101FDF7B1FC00F011F807F165
:103890001007BD4680BD00BF80B500AF4FF00000EF
:1038A000C4F202004FF00201FEF76AFE80BD00BFC5
:1038B00080B500AF4FF00000C4F202004FF00201EB
:1038C000FEF76CFE80BD00BF80B400AF40F27C0309
:1038D000C2F200035B899BB2002B02D04FF00103C0
:1038E00001E04FF000031846BD4680BC704700BFA2
:1038F00080B483B000AF40F27C03C2F200031B89A6
:103900009AB2114640F27C03C2F200035B1803F541
:10391000005303F108031B79FB7102F101039AB212
:1039200040F27C03C2F200031A8140F27C03C2F22F
:1039300000035B899BB203F1FF339AB240F27C0330
:10394000C2F200035A8140F27C03C2F200031B89D9
:103950009BB21F2B06D940F27C03C2F200034FF04A
:1039600000021A81FB79184607F10C07BD4680BC9E
:10397000704700BF80B582B000AF4FF48840C4F2FA
:10398000000040F22551FDF7B7FC0346002B3DD067
:103990004FF48843C4F200039B88FB8040F27C0311
:1039A000C2F20003DB889AB21046FB88D9B240F21B
:1039B0007C03C2F200031B1803F5005303F1080354
:1039C000197102F101039AB240F27C03C2F20003C2
:1039D000DA8040F27C03C2F20003DB889BB21F2B2B
:1039E00006D940F27C03C2F200034FF00002DA80F5
:1039F00040F27C03C2F200035B899BB203F1010336
:103A00009AB240F27C03C2F200035A814FF488401C
:103A1000C4F2000040F22771FDF76EFC0346002B54
:103A20005ED040F27C03C2F200039B889BB2002B65
:103A300031D040F27C03C2F200035B889BB21A468D
:103A400040F27C03C2F200039B181B7BDBB24FF4F5
:103A50008840C4F200001946FDF7E8FB40F27C0301
:103A6000C2F200039B889BB203F1FF339AB240F28B
:103A70007C03C2F200039A8040F27C03C2F200038E
:103A80005B889BB203F101039AB240F27C03C2F25D
:103A900000035A8013E04FF48840C4F2000040F263
:103AA00027714FF00002FDF7D5FB4FF48840C4F2B8
:103AB000000040F226614FF00102FDF7CBFB40F21F
:103AC0007C03C2F200035B889AB241F6FF739A420C
:103AD00006D940F27C03C2F200034FF000025A8084
:103AE0004FF48840C4F2000040F22661FDF704FC68
:103AF0000346002B0BD04FF48840C4F2000040F284
:103B000026614FF00002FDF7A5FBFFF7D1FE07F19C
:083B10000807BD4680BD00BF9F
:103B18000532F4010000000001020304010203045D
:103B280006070809007A030A0000000000000000E8
:083B380001020304060708095D
:0400000508000000EF
:00000001FF
