:020000040800F2
:10000000743A0020A1170008111800081118000800
:10001000111800081118000811180008000000004D
:10002000000000000000000000000000111800089F
:10003000111800080000000011180008251200081F
:1000400011180008111800081118000811180008EC
:1000500011180008111800081118000811180008DC
:1000600011180008111800081118000811180008CC
:1000700011180008111800081118000811180008BC
:1000800011180008111800081118000811180008AC
:10009000111800081118000811180008111800089C
:1000A000111800087D110008111800081118000827
:1000B000111800081118000811180008111800087C
:1000C000111800081118000811180008111800086C
:1000D0001118000865480008C549000811180008F3
:1000E000111800081118000811180008111800084C
:1000F00095110008111800081118000811180008BF
:10010000111800081118000811180008111800082B
:10011000111800081118000811180008111800081B
:10012000AD11000811180008111800081118000876
:1001300011180008111800081118000811180008FB
:1001400011180008111800081118000811180008EB
:1001500011180008111800081118000811180008DB
:1001600011180008111800081118000811180008CB
:1001700011180008111800081118000811180008BB
:10018000111800081118000880B586B000AF00F003
:1001900073FB4FF47050C4F2000002F0FDFD4FF00D
:1001A0000003BB804FF48273FB804FF400633B81FC
:1001B0004FF000037B814FF00103BB814FF40073CC
:1001C000FB814FF000033B824FF000037B8207F17D
:1001D00004034FF47050C4F20000194602F020FEF0
:1001E0004FF47050C4F200004FF0010102F05CFEC9
:1001F0004FF44060C4F202004FF0010102F06CF9CC
:1002000000F05CFA07F11807BD4680BD80B485B0E8
:1002100000AF0346FB71FB7903F00103FB73FB7B2B
:10022000002B07D04FF44063C4F202034FF00202E8
:100230001A8306E04FF44063C4F202034FF0020257
:100240005A83FB794FEA5303FB71FB7903F00103F7
:10025000FB73FB7B002B07D04FF44063C4F2020317
:100260004FF004021A8306E04FF44063C4F2020325
:100270004FF004025A83FB794FEA5303FB71FB7979
:1002800003F00103FB73FB7B002B07D04FF44063AB
:10029000C4F202034FF008021A8306E04FF44063F1
:1002A000C4F202034FF008025A83FB794FEA53036A
:1002B000FB71FB7903F00103FB73FB7B002B07D081
:1002C0004FF44063C4F202034FF010021A8306E0B9
:1002D0004FF44063C4F202034FF010025A83FB79DB
:1002E0004FEA5303FB71FB7903F00103FB73FB7BC4
:1002F000002B07D04FF44063C4F202034FF02002FA
:100300001A8306E04FF44063C4F202034FF0200268
:100310005A8307F11407BD4680BC704780B582B090
:1003200000AF4FF40043FB8040F2D403C2F200035D
:1003300093F83230DBB2002B03D0FB8803F5804307
:10034000FB8040F2D403C2F200031B8DBB804FF050
:100350000100FFF75BFF4FF44060C4F202004FF072
:10036000010102F0C7F8FB884FF47050C4F200009E
:10037000194602F0C7FD00BF4FF47050C4F20000F0
:100380004FF0800102F0CCFD0346002BF4D14FF476
:100390007050C4F2000002F0A7FD0346FB80BB884A
:1003A0004FF47050C4F20000194602F0ABFD00BFDC
:1003B0004FF47050C4F200004FF0800102F0B0FD25
:1003C0000346002BF4D14FF47050C4F2000002F049
:1003D0008BFD0346BB804FF44060C4F202004FF037
:1003E000010102F079F807F10807BD4680BD00BFA2
:1003F00080B582B000AF40F2D403C2F20003DB8DBF
:10040000FB8040F2D403C2F200035B8DBB804FF04F
:100410000200FFF7FBFE4FF44060C4F202004FF011
:10042000010102F067F8FB884FF47050C4F200003D
:10043000194602F067FD00BF4FF47050C4F200008F
:100440004FF0800102F06CFD0346002BF4D14FF415
:100450007050C4F2000002F047FD0346FB80BB88E9
:100460004FF47050C4F20000194602F04BFD00BF7B
:100470004FF47050C4F200004FF0800102F050FDC4
:100480000346002BF4D14FF47050C4F2000002F088
:100490002BFD0346BB804FF44060C4F202004FF0D6
:1004A000010102F019F807F10807BD4680BD00BF41
:1004B00080B582B000AF40F2D403C2F200031B8EBD
:1004C000FB8040F2D403C2F200039B8DBB804FF04F
:1004D0000300FFF79BFE4FF44060C4F202004FF0B0
:1004E000010102F007F8FB884FF47050C4F20000DD
:1004F000194602F007FD00BF4FF47050C4F200002F
:100500004FF0800102F00CFD0346002BF4D14FF4B4
:100510007050C4F2000002F0E7FC0346FB80BB8889
:100520004FF47050C4F20000194602F0EBFC00BF1B
:100530004FF47050C4F200004FF0800102F0F0FC64
:100540000346002BF4D14FF47050C4F2000002F0C7
:10055000CBFC0346BB804FF44060C4F202004FF076
:10056000010101F0B9FF07F10807BD4680BD00BFDA
:1005700080B500AFFFF73CFFFFF79AFFFFF7CEFE15
:1005800080BD00BF80B485B000AF02460B46FA8044
:10059000BB80FB884FEA5303FB81BA88FB889A42F1
:1005A00003D3FB8803F1FF33BB8040F2D403C2F2D4
:1005B0000003FA881A8540F2D403C2F20003FA89D4
:1005C0005A85FA89BB88D3189AB240F2D403C2F292
:1005D00000039A8540F2D403C2F200035B8D9AB205
:1005E00040F2D403C2F200031B8D9BB24FEA5303C7
:1005F0009BB2D3189AB240F2D403C2F20003DA8558
:1006000040F2D403C2F200039B8D9AB240F2D403AD
:10061000C2F200031B8D9BB24FEA53039BB2D31867
:100620009AB240F2D403C2F200031A8640F2D40315
:10063000C2F20003DB8D9AB240F2D403C2F200038F
:100640001B8D9BB29A4212D340F2D403C2F2000334
:10065000DB8D9AB240F2D403C2F200031B8D9BB231
:10066000D31A9AB240F2D403C2F20003DA8540F200
:10067000D403C2F200031B8E9AB240F2D403C2F23A
:1006800000031B8D9BB29A4212D340F2D403C2F2F4
:1006900000031B8E9AB240F2D403C2F200031B8DFA
:1006A0009BB2D31A9AB240F2D403C2F200031A8664
:1006B00007F11407BD4680BC704700BF80B582B00B
:1006C00000AF4FF00000FFF7A1FD4FF44060C4F20F
:1006D00002004FF0010101F00DFF4FF47050C4F221
:1006E00000004FF0000102F00DFC00BF4FF470500D
:1006F000C4F200004FF0800102F012FC0346002B10
:10070000F4D14FF47050C4F2000002F0EDFB034648
:10071000FB804FF47050C4F200004FF0000102F073
:10072000F1FB00BF4FF47050C4F200004FF08001A5
:1007300002F0F6FB0346002BF4D14FF47050C4F2E4
:10074000000002F0D1FB0346BB80FA8840F2D403DC
:10075000C2F200035A6040F2D403C2F200035B68A5
:100760004FEA034240F2D403C2F200035A6040F25F
:10077000D403C2F200035A68BB88D21840F2D403F3
:10078000C2F200035A604FF44060C4F202004FF01E
:10079000010101F0A1FE07F10807BD4680BD00BFC1
:1007A00080B584B000AF0346FB71FB7903F00F0303
:1007B000FB71FB7903F11003DBB21846FFF726FD4E
:1007C0004FF44060C4F202004FF0010101F092FECC
:1007D0004FF47050C4F200004FF0000102F092FBA1
:1007E00000BF4FF47050C4F200004FF0800102F0DF
:1007F00097FB0346002BF4D14FF47050C4F2000075
:1008000002F072FB0346FB814FF47050C4F200000B
:100810004FF0000102F076FB00BF4FF47050C4F2BD
:1008200000004FF0800102F07BFB0346002BF4D167
:100830004FF47050C4F2000002F056FB0346BB8137
:10084000FA79BB894FEA03534FEA135399B240F246
:10085000D403C2F2000302F1040223F812104FF491
:100860004060C4F202004FF0010101F035FE07F1D3
:100870001007BD4680BD00BF80B500AF4FF440609B
:10088000C4F202004FF0400101F026FE4FF4406038
:10089000C4F202004FF0400101F02CFE80BD00BF09
:1008A00080B500AF4FF44060C4F202004FF0800109
:1008B00001F0F4FD03461A4640F2D403C2F20003ED
:1008C0001A7040F2D403C2F200031B78DBB2184660
:1008D00080BD00BF80B500AF40F22803C2F2000324
:1008E0001B78042B66D801A252F823F001090008F6
:1008F00025090008490900086D0900089109000848
:100900004FF00000FFF74CFF40F22803C2F2000353
:100910001B7803F10103DAB240F22803C2F20003AC
:100920001A704FE04FF00100FFF73AFF40F2280342
:10093000C2F200031B7803F10103DAB240F228038C
:10094000C2F200031A703DE04FF00200FFF728FFEB
:1009500040F22803C2F200031B7803F10103DAB26C
:1009600040F22803C2F200031A702BE04FF003009C
:10097000FFF716FF40F22803C2F200031B7803F1D1
:100980000103DAB240F22803C2F200031A7019E040
:100990004FF00400FFF704FF40F22803C2F2000307
:1009A0001B7803F10103DAB240F22803C2F200031C
:1009B0001A7007E040F22803C2F200034FF0000271
:1009C0001A7000BF80BD00BF80B483B000AF034683
:1009D0003960FB7197F90730002B10DA4FF46D4343
:1009E000CEF20003FA7902F00F02A2F104013A6894
:1009F000D2B24FEA0212D2B25B181A760DE04FF46F
:100A00006143CEF2000397F907103A68D2B24FEA79
:100A10000212D2B25B1883F8002307F10C07BD461F
:100A200080BC704780B582B000AF78607A686FF0A4
:100A30007F439A4202D94FF001031FE04EF21003A8
:100A4000CEF200037A6822F07F4202F1FF325A6050
:100A50004FF0FF304FF00F01FFF7B6FF4EF21003DB
:100A6000CEF200034FF000029A604EF21003CEF275
:100A700000034FF007021A604FF00003184607F119
:100A80000807BD4680BD00BF80B58CB000AF42F600
:100A90005C23C2F200034FF462729A604FF00003CD
:100AA000BB844FF00003FB844FF00703BB624FF0A1
:100AB0000003BB854FF0000387F82E3007F12403B5
:100AC0004FF48060C4F20100194603F03BFC4FF084
:100AD00070033B824FF001037B824FF00003BB8227
:100AE0004FF00403BB614FF00003BB834FF00003E2
:100AF000FB834FF480733B844FF000037B8407F14A
:100B000010034FF48060C4F20100194603F0B4FCF6
:100B10004FF400633B804FF480637B804FF480731D
:100B2000BB804FF00003FB804FF000033B814FF48C
:100B300000537B814FF48043BB813B464FF4806080
:100B4000C4F20100194603F027FD4FF48060C4F29F
:100B500001004FF0010103F06FFC4FF48060C4F21C
:100B600001004FF0010103F03FFD42F65C23C2F2A9
:100B700000034FF00002DA6040F2D403C2F2000337
:100B80004FF0000283F8322042F65C23C2F20003E9
:100B90009B689AB242F65C23C2F20003DB689BB208
:100BA00010461946FFF7EEFCFFF7E2FC07F13007AD
:100BB000BD4680BD80B582B000AF0346FB8042F6E3
:100BC0005C23C2F200031B78DBB2032B36D142F662
:100BD0005C23C2F200039A68FB889A420BD942F662
:100BE0005C23C2F200039A68FB88D21A42F65C23A7
:100BF000C2F200039A6042F65C23C2F200039A68D4
:100C000040F21F339A4206D842F65C23C2F2000338
:100C10004FF448729A6042F65C23C2F200039B686C
:100C20009AB242F65C23C2F20003DB689BB2104624
:100C30001946FFF7A7FCFFF79BFC00E000BF07F198
:100C40000807BD4680BD00BF80B582B000AF034637
:100C5000FB8042F65C23C2F200031B78DBB2032B5D
:100C600037D142F65C23C2F200039A6840F6B733EC
:100C70009A421BD842F65C23C2F200039A68FB88B2
:100C8000D21842F65C23C2F200039A6042F65C235B
:100C9000C2F200039A6840F6B8339A4206D942F687
:100CA0005C23C2F2000340F6B8329A6042F65C233D
:100CB000C2F200039B689AB242F65C23C2F20003C0
:100CC000DB689BB210461946FFF75CFCFFF750FC4F
:100CD00000E000BF07F10807BD4680BD80B582B0C7
:100CE00000AF0346FB8042F65C23C2F200031B7890
:100CF000DBB2032B38D142F65C23C2F20003DA6880
:100D0000FB88D21842F65C23C2F20003DA6042F696
:100D10005C23C2F20003DA6842F65C23C2F20003ED
:100D20009B684FEA53039A420BD942F65C23C2F206
:100D300000039B684FEA530242F65C23C2F20003B1
:100D4000DA6042F65C23C2F200039B689AB242F674
:100D50005C23C2F20003DB689BB210461946FFF722
:100D600011FCFFF705FC00E000BF07F10807BD46D6
:100D700080BD00BF80B582B000AF0346FB8042F665
:100D80005C23C2F200031B78DBB2032B2ED142F6A8
:100D90005C23C2F20003DA68FB889A420CD942F65F
:100DA0005C23C2F20003DA68FB88D21A42F65C23A5
:100DB000C2F20003DA6006E042F65C23C2F20003EE
:100DC0004FF00002DA6042F65C23C2F200039B6837
:100DD0009AB242F65C23C2F20003DB689BB2104673
:100DE0001946FFF7CFFBFFF7C3FB00E000BF07F199
:100DF0000807BD4680BD00BF80B500AFFFF750FDBE
:100E00000346002B0BD0FFF759FC42F65C23C2F2DD
:100E100000034FF004021A704FF0010325E040F682
:100E20001413C2F200039B69B3F52F7F09DD42F66C
:100E30005C23C2F200034FF008021A704FF0010366
:100E400013E040F61413C2F20003DB69B3F52F7F01
:100E500009DD42F65C23C2F200034FF008021A706B
:100E60004FF0010301E04FF00003184680BD00BFC2
:100E700080B500AF42F65C23C2F200031B78DBB200
:100E8000082B00F25C8101A252F823F0B10E000899
:100E90003F1100085D0F0008AB0F0008D90F0008D4
:100EA000231000086D100008B3100008F9100008A6
:100EB00040F2D403C2F200034FF0000283F8322064
:100EC00042F65C23C2F200034FF462729A6042F66B
:100ED0005C23C2F200034FF00002DA6042F65C23AA
:100EE000C2F200039B689AB242F65C23C2F200038E
:100EF000DB689BB210461946FFF744FBFFF738FB4F
:100F0000FFF77AFF0346002B40F0218142F65C2375
:100F1000C2F200035B78DBB2652B11D140F2D4033F
:100F2000C2F200034FF0010283F83220FFF720FBEA
:100F300042F65C23C2F200034FF002021A7006E18F
:100F400042F65C23C2F200035B78DBB2722B40F006
:100F5000FE80FFF791FCFFF7B1FBF8E0FFF74CFFD5
:100F60000346002B40F0F58042F65C23C2F20003FA
:100F70005B78DBB2642B07D142F65C23C2F200033C
:100F80004FF000021A70E4E042F65C23C2F2000364
:100F90005B78DBB2452B40F0DC8042F65C23C2F28A
:100FA00000034FF003021A70D3E0FFF725FF03465A
:100FB000002B40F0D08042F65C23C2F200035B7845
:100FC000DBB2642B40F0C78042F65C23C2F2000320
:100FD0004FF000021A70BEE040F2D403C2F20003E8
:100FE0004FF0000283F83220FFF7C2FA42F65C238A
:100FF000C2F200035B78DBB2722B40F0AE80FFF7E9
:101000003BFCFFF75BFBFFF7F7FE0346002B40F0CE
:10101000A48042F65C23C2F200034FF000021A7073
:101020009BE040F2D403C2F200034FF0000283F8C9
:101030003220FFF79DFA42F65C23C2F200035B7890
:10104000DBB2722B40F08B80FFF716FCFFF736FB0C
:10105000FFF7D2FE0346002B40F0818042F65C236E
:10106000C2F200034FF000021A7078E040F2D4039D
:10107000C2F200034FF0000283F83220FFF778FA43
:1010800042F65C23C2F200035B78DBB2722B68D1BC
:10109000FFF7F2FBFFF712FBFFF7AEFE0346002B54
:1010A0005FD142F65C23C2F200034FF000021A70D7
:1010B00057E040F2D403C2F200034FF0000283F87D
:1010C0003220FFF755FA42F65C23C2F200035B7848
:1010D000DBB2722B47D1FFF7CFFBFFF7EFFAFFF739
:1010E0008BFE0346002B3ED142F65C23C2F2000386
:1010F0004FF000021A7036E040F2D403C2F200034F
:101100004FF0000283F83220FFF732FA42F65C23F8
:10111000C2F200035B78DBB2722B26D1FFF7ACFB87
:10112000FFF7CCFAFFF768FE0346002B1DD142F60D
:101130005C23C2F200034FF000021A7015E042F681
:101140005C23C2F200034FF000021A700EE000BFF1
:101150000CE000BF0AE000BF08E000BF06E000BFEF
:1011600004E000BF02E000BF00E000BF42F65C23E5
:10117000C2F200034FF000025A7080BD80B500AF8C
:101180004FF00000C4F201004FF0010103F054FAE7
:1011900080BD00BF80B500AF4FF48060C4F2010095
:1011A0004FF0010103F048FA80BD00BF80B500AFE9
:1011B00046F21040C4F202004FF02001C1F20001DB
:1011C00001F0B6FB01F05AFD01F09CFD01F0BEFDFF
:1011D00040F63813C2F2000303F5025303F114037F
:1011E0001B6803F1010240F63813C2F2000303F555
:1011F000025303F114031A6080BD00BF80B500AF35
:1012000040F21403C2F200031A6844F6D353C1F249
:101210006203A3FB02134FEA93131846FFF702FC85
:1012200080BD00BF80B500AF42F6D413C2F2000308
:101230004FF001021A7040F22903C2F200031B783A
:1012400003F10103DAB240F22903C2F200031A707B
:1012500040F20003C2F200031B7803F10103DAB28B
:1012600040F20003C2F200031A7040F20103C2F21E
:1012700000031B7803F10103DAB240F20103C2F26A
:1012800000031A7040F20203C2F200031B8803F14C
:1012900001039AB240F20203C2F200031A8002F084
:1012A00079FAFFF717FB40F22903C2F200031B781B
:1012B000092B0DD940F22903C2F200034FF00002BE
:1012C0001A7042F6D413C2F200034FF001025A70B2
:1012D00040F20003C2F200031B78632B0DD940F2E9
:1012E0000003C2F200034FF000021A7042F6D4135A
:1012F000C2F200034FF001029A7040F20103C2F201
:1013000000031B78C72B0DD940F20103C2F2000382
:101310004FF000021A7042F6D413C2F200034FF0ED
:101320000102DA7040F20203C2F200031A8840F2AE
:10133000E7339A4227D940F63813C2F2000303F587
:10134000025303F114031A6840F63813C2F2000383
:10135000C3F8A02040F63813C2F2000303F502538D
:1013600003F114034FF000021A6040F20203C2F2CC
:1013700000034FF000021A8042F6D413C2F20003B9
:101380004FF001021A7180BD80B58AB000AF78605D
:1013900039604FF000037B624FF000033B624FF077
:1013A0000003FB614FF00003BB617B681B8A9BB2AB
:1013B0007B627B6A23F440537B623B68DB887A6AFA
:1013C00013437B627B6A9AB27B681A827B689B8933
:1013D0009BB27B627B6A23F4B05323F00C037B62E5
:1013E0003B689A883B681B8913439AB23B685B89C8
:1013F00013439BB27A6A13437B627B6A9AB27B681F
:101400009A817B689B8A9BB27B627B6A23F44073E0
:101410007B623B689B897A6A13437B627B6A9AB2E0
:101420007B689A8207F10803184600F03DFA7A6853
:101430004FF48053C4F201039A4206D07A684FF405
:10144000A053C4F201039A4202D17B693B6201E0DE
:101450003B693B627B689B899BB29BB21BB2002BB2
:101460000FDA3A6A13464FEA83039B184FEA830266
:101470009A183B681B684FEA4303B2FBF3F3FB6126
:101480000EE03A6A13464FEA83039B184FEA830241
:101490009A183B681B684FEA8303B2FBF3F3FB61C6
:1014A000FA6948F21F53C5F2EB13A3FB02134FEA8C
:1014B00053134FEA03137B627B6A4FEA13134FF017
:1014C000640202FB03F3FA69D31ABB617B689B8950
:1014D0009BB29BB21BB2002B12DABB694FEAC3036B
:1014E00003F1320248F21F53C5F2EB13A3FB0213C0
:1014F0004FEA531303F007037A6A13437B6211E048
:10150000BB694FEA031303F1320248F21F53C5F2DD
:10151000EB13A3FB02134FEA531303F00F037A6A92
:1015200013437B627B6A9AB27B681A8107F12807B2
:10153000BD4680BD80B483B000AF78600B46FB70C1
:10154000FB78002B08D07B689B899BB243F4005347
:101550009AB27B689A8107E07B689B899BB223F4EF
:1015600000539AB27B689A8107F10C07BD4680BC94
:10157000704700BF80B483B000AF78600B467B80BB
:101580007B884FEAC3534FEAD3539AB27B689A8061
:1015900007F10C07BD4680BC704700BF80B487B020
:1015A00000AF786013460A467A807B704FF00003E4
:1015B0003B614FF00003FB604FF00003BB604FF056
:1015C00000037B617B687B617B88DBB24FEA53134E
:1015D000DBB23B617B8803F01F03FB60FB684FF0CD
:1015E000010202FA03F3BB603B69012B04D17B6962
:1015F00003F10C037B610BE03B69022B04D17B6997
:1016000003F110037B6103E07B6903F114037B6149
:101610007B78002B06D07B697A691168BA680A4327
:101620001A6007E07B697A691168BA686FEA02029A
:101630000A401A6007F11C07BD4680BC704700BF16
:1016400080B487B000AF78600B467B804FF000031A
:10165000FB604FF000037B614FF00003BB604FF075
:101660000003FB747B88DBB24FEA5313DBB2BB6031
:101670007B8803F01F037B617B694FF0010202FA54
:1016800003F37B61BB68012B06D17B689B899BB20E
:101690007A6913407B610FE0BB68022B06D17B683F
:1016A0001B8A9BB27A6913407B6105E07B689B8A49
:1016B0009BB27A6913407B617B884FEA13239BB20C
:1016C000FB60FB684FF0010202FA03F3FB607B68EA
:1016D0001B889BB2FA681340FB607B69002B06D025
:1016E000FB68002B03D04FF00103FB7402E04FF0C6
:1016F0000003FB74FB7C184607F11C07BD4680BC49
:10170000704700BF80B500AF4FF01F00C0F240002F
:101710004FF0010100F0AEF94FF40040C2F20200B8
:101720004FF0010100F0D0F940F213504FF00101E9
:1017300000F0F4F980BD00BF80B582B000AF4FF07B
:1017400000604FF0000101F091FC4FF4E06001F007
:1017500007FC4FF025033B714FF000037B714FF006
:101760000703BB714FF00103FB7107F10403184637
:1017700001F00AFC4FF038033B714FF000037B711E
:101780004FF00003BB714FF00103FB7107F104033D
:10179000184601F0F9FB07F10807BD4680BD00BF00
:1017A00080B582B000AF44F66433C0F600037B60BE
:1017B00040F20003C2F200033B600BE07B681A6852
:1017C0003B681A603B6803F104033B607B6803F1EC
:1017D00004037B603A6840F22803C2F200039A4295
:1017E000ECD3094809494FF000028842B8BF40F8DD
:1017F000042BFFF6FAAF00F0DFFE00F00DF807F162
:101800000807BD4680BD0000280000207832002077
:1018100080B400AFFEE700BF80B500AFFFF772FFF6
:10182000FFF78AFF00F0C4FBFFF7E8FC01F0B0F817
:10183000FFF72AF9FEF7A8FC02F010FF00E000BF56
:1018400001F04AFE42F6D413C2F200031B79DBB268
:10185000002B06D042F6D413C2F200034FF0000270
:101860001A7142F6D413C2F200039B78DBB2002B4C
:1018700006D042F6D413C2F200034FF000029A7071
:1018800042F6D413C2F200035B78DBB2002BD6D051
:1018900042F6D413C2F200034FF000025A7001F076
:1018A000FBFBFFF7E5FACAE780B489B000AF7860C8
:1018B0004FF00003BB614FF000037B614FF000036A
:1018C000FB614FF002033B614FF00003FB604FF000
:1018D0000203BB604FF46053C4F202039B6803F041
:1018E0000C03BB61BB69042B0AD0082B0FD0002B63
:1018F00060D17A684FF41053C0F2F403136060E0D3
:101900007A684FF49053C0F27A03136059E04FF4B1
:101910006053C4F202035B6803F480034FEA9353FD
:10192000FB604FF46053C4F202035B6803F03F03B3
:10193000BB60FB68002B14D04FF49053C0F27A03C5
:10194000BA68B3FBF2F24FF46053C4F20203596871
:1019500047F6C0730B404FEA931303FB02F3FB619E
:1019600013E04FF41053C0F2F403BA68B3FBF2F281
:101970004FF46053C4F20203596847F6C0730B403A
:101980004FEA931303FB02F3FB614FF46053C4F27D
:1019900002035B6803F440334FEA134303F101038E
:1019A0004FEA43033B61FA693B69B2FBF3F27B68A0
:1019B0001A6006E07A684FF41053C0F2F403136023
:1019C00000BF4FF46053C4F202039B6803F0F003BE
:1019D000BB61BB694FEA1313BB6140F20403C2F25F
:1019E0000003BA699B181B78DBB27B617B681A68BD
:1019F0007B6922FA03F27B685A604FF46053C4F2A9
:101A000002039B6803F4E053BB61BB694FEA932375
:101A1000BB6140F20403C2F20003BA699B181B7851
:101A2000DBB27B617B685A687B6922FA03F27B68D0
:101A30009A604FF46053C4F202039B6803F460435E
:101A4000BB61BB694FEA5333BB6140F20403C2F28E
:101A50000003BA699B181B78DBB27B617B685A680C
:101A60007B6922FA03F27B68DA6007F12407BD463E
:101A700080BC704780B483B000AF78600B46FB70C9
:101A8000FB78002B0CD04FF46053C4F202034FF4E8
:101A90006052C4F20202116B7A680A431A630DE0C5
:101AA0004FF46053C4F202034FF46052C4F20202D6
:101AB000116B7A686FEA02020A401A6307F10C0799
:101AC000BD4680BC704700BF80B483B000AF786073
:101AD0000B46FB70FB78002B0CD04FF46053C4F224
:101AE00002034FF46052C4F20202116C7A680A4396
:101AF0001A640DE04FF46053C4F202034FF46052D5
:101B0000C4F20202116C7A686FEA02020A401A6497
:101B100007F10C07BD4680BC704700BF80B483B09E
:101B200000AF78600B46FB70FB78002B0CD04FF4B5
:101B30006053C4F202034FF46052C4F20202516CCB
:101B40007A680A435A640DE04FF46053C4F202030A
:101B50004FF46052C4F20202516C7A686FEA0202DA
:101B60000A405A6407F10C07BD4680BC704700BFAD
:101B700080B483B000AF78600B46FB70FB78002B1D
:101B80000CD04FF46053C4F202034FF46052C4F21D
:101B90000202116A7A680A431A620DE04FF4605338
:101BA000C4F202034FF46052C4F20202116A7A686E
:101BB0006FEA02020A401A6207F10C07BD4680BCB8
:101BC000704700BF80B483B000AF78600B46FB70F5
:101BD000FB78002B0CD04FF46053C4F202034FF497
:101BE0006052C4F20202516A7A680A435A620DE0F6
:101BF0004FF46053C4F202034FF46052C4F2020285
:101C0000516A7A686FEA02020A405A6207F10C07C9
:101C1000BD4680BC704700BF80B485B000AF78601F
:101C200039604FF00003FB604FF00003FB727B68EC
:101C30005B68FB60FB6823F0407323F48073FB60F8
:101C40003B681B794FEA03223B681B681343FA6821
:101C50001343FB607B68FA685A607B689B68FB6093
:101C6000FA684FF2FD73CCF2FF031340FB603B6850
:101C70001A693B68DB681A433B689B681A433B68F8
:101C80005B794FEA43031343FA681343FB607B68B5
:101C9000FA689A607B68DB6AFB60FB6823F4700378
:101CA000FB603B681B7D03F1FF33DAB2FB7A134321
:101CB000FB72FB7A4FEA0353FA681343FB607B68BD
:101CC000FA68DA6207F11407BD4680BC704700BFAE
:101CD00080B485B000AF78604FF00003FB604FF434
:101CE0000C53C4F201035B68FB60FA6843F2E00343
:101CF000CFF6FC731340FB607B681A687B685B68F7
:101D00001A437B689B681A437B68DB681343FA6855
:101D10001343FB604FF40C53C4F20103FA685A609A
:101D200007F11407BD4680BC704700BF80B483B084
:101D300000AF78600B46FB70FB78002B06D07B6809
:101D40009B6843F001027B689A6005E07B689B68B2
:101D500023F001027B689A6007F10C07BD4680BC46
:101D6000704700BF80B485B000AF7860F970BA707A
:101D70007B704FF00003FB604FF00003BB60FB780B
:101D8000092B27D97B68DB68FB60FA7813464FEA9A
:101D900043039B18A3F11E034FF0070202FA03F35B
:101DA000BB60BB686FEA0303FA681340FB60797895
:101DB000FA7813464FEA43039B18A3F11E0301FA76
:101DC00003F3BB60FA68BB681343FB607B68FA6887
:101DD000DA6022E07B681B69FB60FA7813464FEA01
:101DE00043039B184FF0070202FA03F3BB60BB6882
:101DF0006FEA0303FA681340FB607978FA781346B8
:101E00004FEA43039B1801FA03F3BB60FA68BB680F
:101E10001343FB607B68FA681A61BB78062B27D8EE
:101E20007B685B6BFB60BB7803F1FF3213464FEAC4
:101E300083039B184FF01F0202FA03F3BB60BB68D9
:101E40006FEA0303FA681340FB60F978BB7803F18B
:101E5000FF3213464FEA83039B1801FA03F3BB607A
:101E6000FA68BB681343FB607B68FA685A6351E009
:101E7000BB780C2B27D87B681B6BFB60BA781346AA
:101E80004FEA83039B18A3F123034FF01F0202FACA
:101E900003F3BB60BB686FEA0303FA681340FB609F
:101EA000F978BA7813464FEA83039B18A3F123030A
:101EB00001FA03F3BB60FA68BB681343FB607B68FD
:101EC000FA681A6326E07B68DB6AFB60BA7813461F
:101ED0004FEA83039B18A3F141034FF01F0202FA5C
:101EE00003F3BB60BB686FEA0303FA681340FB604F
:101EF000F978BA7813464FEA83039B18A3F141039C
:101F000001FA03F3BB60FA68BB681343FB607B68AC
:101F1000FA68DA6207F11407BD4680BC704700BF5B
:101F200080B483B000AF78607B689B6843F08042E8
:101F30007B689A6007F10C07BD4680BC704700BF04
:101F400080B483B000AF78600B46FB70FB78002B49
:101F500006D07B689B6843F480727B689A6005E0DA
:101F60007B689B6823F480727B689A6007F10C079A
:101F7000BD4680BC704700BF80B483B000AF7860BE
:101F80000B46FB70FB78002B06D07B689B6843F404
:101F900000727B689A6005E07B689B6823F400729E
:101FA0007B689A6007F10C07BD4680BC704700BF94
:101FB00080B582B000AF4FF48050C4F202004FF001
:101FC00008014FF0010200F0A3FA4FF48050C4F270
:101FD00002004FF009014FF0010200F099FA4FF4AE
:101FE0000060C4F202004FF008014FF0030200F05D
:101FF0008FFA4FF440733B604FF002033B714FF098
:1020000003037B714FF00003BB714FF00003FB71C2
:102010003B464FF48050C4F20200194600F09CF990
:102020004FF480733B604FF002033B714FF00303AA
:102030007B714FF00003BB714FF00003FB713B4617
:102040004FF40060C4F20200194600F085F94FF029
:1020500040033B604FF001033B714FF00003BB7145
:102060004FF003037B714FF00003FB713B464FF4CD
:102070004060C4F20200194600F06EF94FF0800390
:102080003B604FF000033B714FF003037B714FF057
:102090000003FB713B464FF44060C4F20200194656
:1020A00000F05AF94FF00000C4F202004FF00901AD
:1020B0004FF0070200F02CFA4FF00000C4F20200CB
:1020C0004FF00A014FF0070200F022FA4FF40073BC
:1020D0003B604FF00003BB714FF00103FB714FF009
:1020E00002033B714FF003037B713B464FF000004E
:1020F000C4F20200194600F02FF94FF480633B60F0
:102100004FF00003BB714FF00103FB714FF002036E
:102110003B714FF003037B713B464FF00000C4F26C
:102120000200194600F018F94FF00000C4F2020056
:102130004FF002014FF0070200F0EAF94FF0000003
:10214000C4F202004FF003014FF0070200F0E0F983
:102150004FF004033B604FF00003BB714FF00103ED
:10216000FB714FF002033B714FF003037B713B4661
:102170004FF00000C4F20200194600F0EDF84FF0F5
:1021800008033B604FF00003BB714FF00103FB718C
:102190004FF002033B714FF003037B713B464FF05E
:1021A0000000C4F20200194600F0D6F84FF0020316
:1021B0003B604FF001033B714FF00003BB714FF0E8
:1021C00003037B714FF00003FB713B464FF00000AF
:1021D000C4F20200194600F0BFF84FF0C1033B60A3
:1021E0004FF003033B714FF00003FB713B464FF090
:1021F0000000C4F20200194600F0AEF84FF03F03B1
:102200003B604FF003033B714FF00003FB713B4613
:102210004FF40060C4F20200194600F09DF84FF040
:1022200003033B604FF003033B714FF00003FB716E
:102230003B464FF48060C4F20200194600F08CF86F
:102240004FF030033B604FF003033B714FF000034E
:10225000FB713B464FF00000C4F20200194600F04B
:102260007BF84FF0C0033B604FF000033B714FF031
:1022700003037B714FF00003FB713B464FF480601A
:10228000C4F20200194600F067F84FF020033B60EB
:102290004FF001033B714FF00003BB714FF003039C
:1022A0007B714FF00003FB713B464FF48060C4F23A
:1022B0000200194600F050F84FF03F033B604FF02A
:1022C00001033B714FF00003BB714FF003037B71BF
:1022D0004FF00003FB713B464FF44060C4F2020034
:1022E000194600F039F84FF40060C4F202004FF0D4
:1022F0000A014FF0060200F00BF94FF40060C4F23F
:1023000002004FF00B014FF0060200F001F94FF40C
:102310000060C4F202004FF00C014FF0060200F022
:10232000F7F84FF4E0533B604FF002033B714FF07E
:102330000003BB714FF003037B714FF00203FB718D
:102340003B464FF40060C4F20200194600F004F866
:1023500007F10807BD4680BD80B487B000AF786044
:1023600039604FF000037B614FF000033B614FF099
:102370000003FB604FF000037B6186E07B694FF058
:10238000010202FA03F33B613B681A683B691340A0
:10239000FB60FA683B699A4273D17B681A687B6973
:1023A0004FEA43034FF0030101FA03F36FEA03031B
:1023B0001A407B681A607B681A683B681B7919466B
:1023C0007B694FEA430301FA03F31A437B681A60FF
:1023D0003B681B79012B03D03B681B79022B34D15E
:1023E0007B689A687B694FEA43034FF0030101FA67
:1023F00003F36FEA03031A407B689A607B689A686C
:102400003B685B7919467B694FEA430301FA03F3A2
:102410001A437B689A607B685A687B699BB24FF06D
:10242000010101FA03F36FEA03031A407B685A6063
:102430007B685A683B689B7919467B699BB201FAB5
:1024400003F39BB21A437B685A607B68DA687B6946
:102450009BB24FEA43034FF0030101FA03F36FEA23
:1024600003031A407B68DA607B68DA683B68DB79D3
:1024700019467B694FEA430301FA03F31A437B6869
:10248000DA607B6903F101037B617B690F2B7FF6C7
:1024900075AF07F11C07BD4680BC704780B485B09E
:1024A00000AF78600B467B804FF00003FB737B68C6
:1024B0001A697B881340002B03D04FF00103FB7394
:1024C00002E04FF00003FB73FB7B184607F1140793
:1024D000BD4680BC704700BF80B483B000AF786059
:1024E0000B467B807B687A881A8307F10C07BD4610
:1024F00080BC704780B483B000AF78600B467B80AF
:102500007B687A885A8307F10C07BD4680BC704708
:1025100080B485B000AF786013460A467A807B703D
:102520004FF00003FB604FF00003BB607A787B88BC
:1025300003F007034FEA830302FA03F3FB607B888F
:102540004FEAD3039BB21A467B884FEAD3039BB270
:1025500019467B6801F1080153F821107B8803F0CC
:1025600007034FEA83034FF00F0000FA03F36FEA0B
:10257000030319407B6802F1080243F822107B88AC
:102580004FEAD3039BB21A467B6802F1080253F864
:102590002220FB681343BB607B884FEAD3039BB2C6
:1025A0001A467B6802F10802B96843F8221007F165
:1025B0001407BD4680BC704780B500AF4FF4605330
:1025C000C4F202034FF46052C4F20202126842F0F5
:1025D00001021A604FF46053C4F202034FF000028C
:1025E0009A604FF46053C4F202034FF46052C4F295
:1025F0000202126822F0847222F480321A604FF4D0
:102600006053C4F2020343F21002C2F200425A6065
:102610004FF46053C4F202034FF46052C4F202025A
:10262000126822F480221A604FF46053C4F202034D
:102630004FF00002DA6000F009F84FF46D43CEF27B
:1026400000034FF000629A6080BD00BF80B483B089
:1026500000AF4FF000037B604FF000033B604FF48E
:102660006053C4F202034FF46052C4F202021268D3
:1026700042F480321A604FF46053C4F202031B68C4
:1026800003F400333B607B6803F101037B603B682C
:10269000002B03D17B68B3F5A06FECD14FF46053EE
:1026A000C4F202031B6803F40033002B03D04FF085
:1026B00001033B6002E04FF000033B603B68012BED
:1026C00040F082804FF46053C4F202034FF4605232
:1026D000C4F20202126C42F080521A644FF4E043DA
:1026E000C4F200034FF4E042C4F20002126842F464
:1026F00080421A604FF46053C4F202034FF46052F8
:10270000C4F2020292689A604FF46053C4F202036A
:102710004FF46052C4F20202926842F400429A609E
:102720004FF46053C4F202034FF46052C4F2020249
:10273000926842F4C0529A604FF46053C4F20203AC
:1027400045F20842C0F240725A604FF46053C4F23E
:1027500002034FF46052C4F20202126842F0807227
:102760001A6000BF4FF46053C4F202031B6803F009
:102770000073002BF6D04FF47053C4F2020340F202
:1027800005621A604FF46053C4F202034FF46052C2
:10279000C4F20202926822F003029A604FF460537E
:1027A000C4F202034FF46052C4F20202926842F093
:1027B00002029A6000BF4FF46053C4F202039B68A8
:1027C00003F00C03082BF6D107F10C07BD4680BCC3
:1027D000704700BF80B485B000AF786039604FF0BB
:1027E0000003FB607B681B68FB60FA6848F23F03EC
:1027F000CFF21C031340FB603B681A683B68DB6840
:102800001A433B685B691A433B689B691A433B6800
:10281000DB691A433B681B6A1A433B685B6A1A43CD
:102820003B689B6A1A433B685B6B1A433B689B6B34
:102830001343FA681343FB607B68FA681A607B688D
:102840005B69FB60FB6823F00703FB603B68DA6AA7
:102850003B681B6B1343FA681343FB607B68FA68A1
:102860005A613B681A697B685A603B685A687B68A2
:102870009A603B689A687B68DA6007F11407BD4686
:1028800080BC704780B483B000AF78600B46FB70AB
:10289000FB78002B06D07B681B6843F001027B6845
:1028A0001A6005E07B681B6823F001027B681A60F0
:1028B00007F10C07BD4680BC704700BF80B485B0EF
:1028C00000AFF860B9601346FB71BB6803F080038A
:1028D000002B0FD0FB79002B06D0FB685B6943F01F
:1028E0008002FB685A6105E0FB685B6923F08002A7
:1028F000FB685A61BB68802B15D0FB79002B08D090
:10290000FB681A68BB6803F01E031A43FB681A6071
:1029100009E0FB681A68BB6803F01E036FEA030353
:102920001A40FB681A6007F11407BD4680BC704767
:1029300080B485B000AF786039607A6846F20F43A2
:10294000C4F202039A4205D84FF4C043C4F2020312
:10295000FB6004E04FF4C843C4F20203FB603B6831
:1029600003F00053002B07D03B6823F0F02323F043
:102970008213FA68D36006E03B6823F0F02323F06B
:102980008213FA68936007F11407BD4680BC704754
:1029900080B59AB000AF4FF000037B660CE042F6C2
:1029A000DC13C2F200037A6E4FF0000123F812101C
:1029B0007B6E03F101037B667B6E3F2BEFD94FF0FB
:1029C00000033B6042F6DC13C2F20003BB6042F23C
:1029D0004C03C4F201037B604FF00003FB604FF037
:1029E00040033B614FF000037B614FF48063BB61A8
:1029F0004FF40063FB614FF400533B624FF480736C
:102A00007B624FF40033BB624FF00403FB624FF074
:102A100001033B634FF000037B634FF00003BB6394
:102A20003B4646F21040C4F202001946FFF7D2FEC0
:102A300046F21040C4F202004FF00101FFF722FFFE
:102A40004FF000037B654FF00003BB654FF00003C0
:102A5000FB654FF000033B6607F154031846FFF790
:102A600037F94FF00003FB634FF0010387F8403064
:102A70004FF0010387F841304FF000037B644FF0C3
:102A80006063BB644FF00003FB644FF0080387F8FA
:102A9000503007F13C034FF40050C4F201001946D6
:102AA000FFF7BAF84FF40050C4F201004FF00F01E5
:102AB0004FF001024FF00003FFF754F94FF40050BC
:102AC000C4F201004FF00E014FF002024FF000037C
:102AD000FFF748F94FF40050C4F201004FF009012C
:102AE0004FF003024FF00003FFF73CF94FF40050A2
:102AF000C4F201004FF008014FF004024FF0000350
:102B0000FFF730F94FF40050C4F201004FF00A0112
:102B10004FF005024FF00003FFF724F94FF4005087
:102B2000C4F201004FF00B014FF006024FF000031A
:102B3000FFF718F94FF40050C4F201004FF00C01F8
:102B40004FF007024FF00003FFF70CF94FF400506D
:102B5000C4F201004FF00D014FF008024FF00003E6
:102B6000FFF700F94FF40050C4F201004FF00101EB
:102B7000FFF702FA4FF40050C4F201004FF00101D8
:102B8000FFF7DEF946F21040C4F202004FF01001E8
:102B90004FF00102FFF792FE4FF40050C4F2010023
:102BA0004FF00101FFF7C2F84FF40050C4F20100EA
:102BB000FFF7B6F907F16807BD4680BD80B485B060
:102BC00000AF0346FB714FF00003BB60FB79BB8194
:102BD0004FF00003FB7312E0BA8942F6DC13C2F235
:102BE000000333F812309BB2BA68D318BB60BB89BC
:102BF00003F10803BB81FB7B03F10103FB73FB7B48
:102C0000072BE9D9BB684FEAD303BB60BB68184602
:102C100007F11407BD4680BC704700BF80B483B085
:102C200000AF786039607B683A6802FB03F37B6031
:102C30007A6844F6D353C1F26203A3FB02134FEA4E
:102C400093137B607B6840F6C41202FB03F37B6046
:102C50007A6840F20113C0F21003A3FB0213D21AE8
:102C60004FEA52029B184FEAD3237B607B681846D9
:102C700007F10C07BD4680BC704700BF80B500AFB0
:102C80004FF00000FFF79AFF0346184640F2F67136
:102C9000FFF7C4FF024640F61413C2F200031A60A5
:102CA0004FF00100FFF78AFF0346184640F2F67125
:102CB000FFF7B4FF024640F61413C2F200035A6055
:102CC0004FF00200FFF77AFF0346184640F2F67114
:102CD000FFF7A4FF024640F61413C2F200039A6005
:102CE0004FF00300FFF76AFF0346184640F2F67103
:102CF000FFF794FF024640F61413C2F20003DA60B5
:102D000080BD00BF80B500AF4FF00400FFF756FF55
:102D10000346184640F23261FFF780FF024640F654
:102D20001413C2F200031A614FF00500FFF746FFCB
:102D30000346184640F2A661FFF770FF024640F6D0
:102D40001413C2F200035A6180BD00BF80B500AF0A
:102D50004FF00600FFF732FF034618464FF47A7132
:102D6000FFF75CFF03461A4640F61413C2F2000355
:102D70009A614FF00700FFF721FF034618464FF412
:102D80007A71FFF74BFF03461A4640F61413C2F25E
:102D90000003DA6180BD00BF80B582B000AF78600B
:102DA0007A684FF44053C4F201039A420CD14FF4B5
:102DB00080504FF00101FEF705FF4FF480504FF0B7
:102DC0000001FEF7FFFE26E07A684FF46053C4F27C
:102DD00000039A420CD14FF480404FF00101FEF7FE
:102DE000C7FE4FF480404FF00001FEF7C1FE12E035
:102DF0007A684FF47053C4F200039A420BD14FF437
:102E000000404FF00101FEF7B3FE4FF400404FF0D9
:102E10000001FEF7ADFE07F10807BD4680BD00BF0B
:102E200080B485B000AF786039604FF00003FB815B
:102E30007B681B88FB81FB8903F44153FB813B6862
:102E40001A883B685B8813439AB23B689B8813439C
:102E50009AB23B68DB8813439AB23B681B891343E1
:102E60009AB23B685B8913439AB23B689B891343D0
:102E70009AB23B68DB8913439AB2FB891343FB8107
:102E80007B68FA891A807B689B8B9BB223F4006372
:102E90009AB27B689A833B681A8A7B681A8207F128
:102EA0001407BD4680BC704780B483B000AF786023
:102EB0000B46FB70FB78002B08D07B681B889BB20D
:102EC00043F040039AB27B681A8007E07B681B8856
:102ED0009BB223F040039AB27B681A8007F10C077B
:102EE000BD4680BC704700BF80B483B000AF78603F
:102EF0007B689B899BB2184607F10C07BD4680BCD6
:102F0000704700BF80B483B000AF78600B467B8011
:102F10007B687A889A8107F10C07BD4680BC7047B0
:102F200080B485B000AF78600B467B804FF0000323
:102F3000FB737B681B899AB27B8813409BB2002B82
:102F400003D04FF00103FB7302E04FF00003FB736B
:102F5000FB7B184607F11407BD4680BC704700BFD5
:102F600080B483B000AF78604FF46D43CEF20003BD
:102F70007A6842F0BF6242F40032DA6007F10C076F
:102F8000BD4680BC704700BF80B485B000AF78609C
:102F90004FF00003FB734FF00003BB734FF00F03C0
:102FA0007B737B68DB78002B45D04FF46D43CEF20A
:102FB0000003DB686FEA030303F4E0634FEA1323C3
:102FC000FB73FB7BC3F10403BB737A7BFB7B42FA8D
:102FD00003F37B737B685B781A46BB7B02FA03F3CF
:102FE000FB737B689A787B7B1340DAB2FB7B1343DD
:102FF000FB73FB7B4FEA0313FB734FF46143CEF289
:1030000000037A6812789B18FA7B83F800234FF448
:103010006143CEF200037A6812784FEA5212D2B2BC
:103020007968097801F01F014FF0010000FA01F101
:1030300043F8221014E04FF46143CEF200037A68A3
:1030400012784FEA5212D2B27968097801F01F0162
:103050004FF0010000FA01F102F1200243F82210C2
:1030600007F11407BD4680BC704700BF80B483B031
:1030700000AF786039604FF46D43CEF200033A68D8
:1030800022F0604222F07F0279680A439A6007F1D9
:103090000C07BD4680BC704780B584B000AF40F6D9
:1030A0003413C2F200031B78DBB2002B40F03981ED
:1030B00042F65C23C2F200034FF000021A7040F6A1
:1030C0001413C2F200031B687B6040F61413C2F2B3
:1030D00000035B687A68D3187B6040F61413C2F271
:1030E00000039B687A68D3187B6040F61413C2F221
:1030F0000003DB687A68D3187B607B684FEA930330
:103100007B607B689BB27B804FF00003FB724FF0CB
:10311000FF0001F061FB4FF0FF0001F05DFB07F1E4
:103120000203FB60FB681A78FB7AD318FB72FB681A
:1031300003F101031A78FB7AD318FB72FB681B7842
:10314000184601F049FBFB6803F101031B781846A0
:1031500001F042FB40F61413C2F200031B699BB25C
:103160007B8007F10203FB60FB681A78FB7AD318B7
:10317000FB72FB6803F101031A78FB7AD318FB7228
:10318000FB681B78184601F027FBFB6803F101037D
:103190001B78184601F020FB40F63413C2F20003FE
:1031A0009B78DBB2184601F017FB40F23003C2F205
:1031B0000003FB6040F63413C2F200039B78DBB2DD
:1031C0004FEA0313FA68D318FB6040F63413C2F2D7
:1031D00000039B78DBB20A2B03D14FF004037B8002
:1031E00002E04FF010037B804FF00003BB7248E019
:1031F00042F66C23C2F200031B889BB21946FB689F
:103200001A7842F66C23C2F200035B181A73FB684B
:103210001A78FB7AD318FB72FB6803F10103FB6099
:1032200042F66C23C2F200039B889BB203F10103B8
:103230009AB242F66C23C2F200039A8042F66C23E3
:10324000C2F200031B889BB203F101039AB242F65B
:103250006C23C2F200031A8042F66C23C2F2000310
:103260001B889AB240F2FF339A4206D942F66C2389
:10327000C2F200034FF000021A80BB7A03F101038F
:10328000BB72BB7A9AB27B889A42B1D340F63413B0
:10329000C2F200039B78DBB203F10103DAB240F61D
:1032A0003413C2F200039A70FB7A184601F094FAC4
:1032B0004FF48050C4F2010040F227714FF0010238
:1032C000FEF76CF940F63413C2F200039B78DBB2D0
:1032D0000A2B40F2FD8040F63413C2F200034FF097
:1032E00000029A7000F0D6FE40F63813C2F20003D6
:1032F000FB604FF00003BB720DE0BA7ABB7AF9684D
:10330000CB18197840F23003C2F200039954BB7A0B
:1033100003F10103BB72BB7AA32BEED900F08EFD43
:10332000D6E040F63413C2F200031B78DBB2012B67
:1033300040F0CE804FF00003FB724FF0FF0001F031
:103340004BFA4FF0FF0001F047FA40F63413C2F297
:1033500000039B78DBB2184601F03EFA40F23003DE
:10336000C2F20003FB6040F63413C2F200039B7804
:10337000DBB24FEA0313FA68D318FB6040F634134C
:10338000C2F200039B78DBB20A2B03D14FF0040397
:103390007B8002E04FF010037B804FF00003BB7294
:1033A00048E042F66C23C2F200031B889BB2194628
:1033B000FB681A7842F66C23C2F200035B181A739A
:1033C000FB681A78FB7AD318FB72FB6803F10103E0
:1033D000FB6042F66C23C2F200039B889BB203F1B0
:1033E00001039AB242F66C23C2F200039A8042F6BD
:1033F0006C23C2F200031B889BB203F101039AB253
:1034000042F66C23C2F200031A8042F66C23C2F229
:1034100000031B889AB240F2FF339A4206D942F663
:103420006C23C2F200034FF000021A80BB7A03F152
:103430000103BB72BB7A9AB27B889A42B1D340F641
:103440003413C2F200039B78DBB203F10103DAB25A
:1034500040F63413C2F200039A7040F63413C2F2FD
:1034600000039B78DBB20A2B24D940F63413C2F256
:1034700000034FF000029A7000F00CFE40F6381383
:10348000C2F20003FB604FF00003BB720DE0BA7A9A
:10349000BB7AF968CB18197840F23003C2F2000306
:1034A0009954BB7A03F10103BB72BB7AA32BEED90B
:1034B00000F0C4FCFB7A184601F08EF94FF48050FE
:1034C000C4F2010040F227714FF00102FEF766F8E6
:1034D00007F11007BD4680BD80B582B000AF40F651
:1034E0003413C2F200031B78DBB2002B32D101F09F
:1034F0001FF90346002B00F0488101F02DF9034627
:10350000FB7140F22C03C2F200031B78FA799A4255
:1035100019D140F22C03C2F200031B78722B09D0A0
:10352000732B0FD140F63413C2F200034FF00102A7
:103530001A7008E042F65C23C2F200034FF07202F8
:103540005A7000E000BF40F22C03C2F20003FA7987
:103550001A701AE140F63413C2F200031B78DBB292
:10356000012B40F0128101F0E3F80346002B00F03C
:103570000C8101F0F1F80346FB7140F22C03C2F21A
:1035800000031B78FA799A4240F0F98040F22C034C
:10359000C2F200031B78A3F12B03472B00F2EC804F
:1035A00001A252F823F000BF293700085B3700085A
:1035B0003337000851370008793700087937000899
:1035C000793700087937000879370008793700081B
:1035D000793700087937000879370008793700080B
:1035E0007937000879370008793700086F37000805
:1035F00079370008653700087937000879370008FF
:10360000793700087937000879370008F93600085B
:10361000093700087937000879370008793700083A
:1036200079370008793700087937000879370008BA
:1036300079370008793700087937000879370008AA
:1036400079370008193700087937000879370008FA
:10365000793700087937000879370008793700088A
:10366000793700087937000879370008793700087A
:10367000793700087937000879370008793700086A
:10368000793700087937000879370008473700088C
:10369000793700087937000879370008793700084A
:1036A0003D37000879370008793700087937000876
:1036B000C9360008793700087937000879370008DB
:1036C00079370008E936000842F65C23C2F20003AD
:1036D0001B78DBB2002B51D140F63413C2F2000349
:1036E0004FF000021A7049E042F65C23C2F2000378
:1036F0004FF072025A7042E042F65C23C2F20003BD
:103700004FF064025A703AE042F65C23C2F20003C2
:103710004FF065025A7032E042F65C23C2F20003B9
:103720004FF045025A702AE04FF00100FDF742FACF
:1037300025E04FF00100FDF787FA20E04FF00A0086
:10374000FDF738FA1BE04FF00A00FDF77DFA16E0AE
:103750004FF00100FDF7C2FA11E04FF00100FDF754
:1037600009FB0CE04FF00A00FDF7B8FA07E04FF054
:103770000A00FDF7FFFA02E000BF00E000BF40F2E0
:103780002C03C2F20003FA791A7007F10807BD464C
:1037900080BD00BF80B400AF40F63813C2F2000312
:1037A00003F5025303F118031B78DBB2002B00F082
:1037B000428340F63813C2F2000303F5025303F1CB
:1037C00010031A6849F63F439A4200F2348340F6E8
:1037D0003813C2F200035A6840F61413C2F2000311
:1037E0001B68D21840F63813C2F200035A6040F644
:1037F0003813C2F200031A6940F61413C2F2000330
:103800005B68D21840F63813C2F200031A6140F622
:103810003813C2F20003DA6940F61413C2F200034F
:103820009B68D21840F63813C2F20003DA6140F602
:103830003813C2F200039A6A40F61413C2F200036E
:10384000DB68D21840F63813C2F200039A6240F6E1
:103850003813C2F200035A6E40F61413C2F200038A
:103860001B69D21840F63813C2F200035A6640F6BC
:103870003813C2F200031A6F40F61413C2F20003A9
:103880005B69D21840F63813C2F200031A6740F69B
:103890003813C2F200035A6B40F2D403C2F20003A1
:1038A0005B899BB2D21840F63813C2F200035A6308
:1038B00040F63813C2F200031A6C40F2D403C2F28D
:1038C00000039B899BB2D21840F63813C2F2000362
:1038D0001A6440F63813C2F20003DA6C40F2D403E3
:1038E000C2F20003DB899BB2D21840F63813C2F251
:1038F0000003DA6440F63813C2F200039A6D40F216
:10390000D403C2F200031B8A9BB2D21840F63813CC
:10391000C2F200039A6540F63813C2F20003DA6F70
:1039200042F65C23C2F200039B68D21840F63813BB
:10393000C2F20003DA6740F63813C2F20003D3F88C
:10394000882042F65C23C2F20003DB68D21840F6FE
:103950003813C2F20003C3F8882040F63813C2F2CD
:103960000003D3F8902040F61413C2F200039B69C1
:10397000D21840F63813C2F20003C3F8902040F684
:103980003813C2F20003D3F8942040F61413C2F2A5
:103990000003DB69D21840F63813C2F20003C3F803
:1039A000942040F61413C2F200031A6840F638134C
:1039B000C2F200031B689A4209D940F61413C2F2FE
:1039C00000031A6840F63813C2F200031A6040F68A
:1039D0001413C2F200035A6840F63813C2F200030F
:1039E000DB689A4209D940F61413C2F200035A6800
:1039F00040F63813C2F20003DA6040F61413C2F244
:103A000000039A6840F63813C2F200039B699A4299
:103A100009D940F61413C2F200039A6840F638132D
:103A2000C2F200039A6140F61413C2F20003DA688E
:103A300040F63813C2F200035B6A9A4209D940F695
:103A40001413C2F20003DA6840F63813C2F200031E
:103A50005A6240F61413C2F200031A6940F6381392
:103A6000C2F200031B6E9A4209D940F61413C2F247
:103A700000031A6940F63813C2F200031A6640F6D2
:103A80001413C2F200035A6940F63813C2F200035D
:103A9000DB6E9A4209D940F61413C2F200035A6948
:103AA00040F63813C2F20003DA6640F2D403C2F2E1
:103AB00000035B899BB21A4640F63813C2F200033A
:103AC0001B6B9A420BD940F2D403C2F200035B890C
:103AD0009BB21A4640F63813C2F200031A6340F252
:103AE000D403C2F200039B899BB21A4640F63813F6
:103AF000C2F20003DB6B9A420BD940F2D403C2F24C
:103B000000039B899BB21A4640F63813C2F20003A9
:103B1000DA6340F2D403C2F20003DB899BB21A4697
:103B200040F63813C2F200039B6C9A420BD940F264
:103B3000D403C2F20003DB899BB21A4640F6381365
:103B4000C2F200039A6440F2D403C2F200031B8A5B
:103B50009BB21A4640F63813C2F200035B6D9A42DC
:103B60000BD940F2D403C2F200031B8A9BB21A465F
:103B700040F63813C2F200035A6542F65C23C2F2E3
:103B800000039A6840F63813C2F200039B6F9A4212
:103B900009D942F65C23C2F200039A6840F6381352
:103BA000C2F200039A6742F65C23C2F20003DA68AD
:103BB00040F63813C2F20003D3F884309A420AD98F
:103BC00042F65C23C2F20003DA6840F63813C2F210
:103BD0000003C3F8842040F61413C2F200031A68ED
:103BE00040F63813C2F200039B689A4209D240F6AD
:103BF0001413C2F200031A6840F63813C2F200032D
:103C00009A6040F61413C2F200035A6840F6381363
:103C1000C2F200035B699A4209D240F61413C2F261
:103C200000035A6840F63813C2F200035A6140F6A6
:103C30001413C2F200039A6840F63813C2F200036C
:103C40001B6A9A4209D240F61413C2F200039A6822
:103C500040F63813C2F200031A6240F61413C2F29F
:103C60000003DA6840F63813C2F20003DB6A9A42B6
:103C700009D240F61413C2F20003DA6840F6381392
:103C8000C2F20003DA6240F61413C2F200031A69AA
:103C900040F63813C2F200039B6E9A4209D240F6F6
:103CA0001413C2F200031A6940F63813C2F200037B
:103CB0009A6640F61413C2F200035A6940F63813AC
:103CC000C2F200035B6F9A4209D240F61413C2F2AB
:103CD00000035A6940F63813C2F200035A6740F2F3
:103CE000D403C2F200035B899BB21A4640F6381334
:103CF000C2F200039B6B9A420BD240F2D403C2F291
:103D000000035B899BB21A4640F63813C2F20003E7
:103D10009A6340F2D403C2F200039B899BB21A4615
:103D200040F63813C2F200035B6C9A420BD240F2A9
:103D3000D403C2F200039B899BB21A4640F63813A3
:103D4000C2F200035A6440F2D403C2F20003DB89DA
:103D50009BB21A4640F63813C2F200031B6D9A421A
:103D60000BD240F2D403C2F20003DB899BB21A46A5
:103D700040F63813C2F200031A6540F2D403C2F2CF
:103D800000031B8A9BB21A4640F63813C2F20003A6
:103D9000DB6D9A420BD240F2D403C2F200031B8ABD
:103DA0009BB21A4640F63813C2F20003DA6542F6B7
:103DB0005C23C2F200039A6840F63813C2F2000393
:103DC000D3F880309A420AD242F65C23C2F2000352
:103DD0009A6840F63813C2F20003C3F8802042F616
:103DE0005C23C2F20003DA6840F63813C2F2000323
:103DF000D3F88C309A420AD242F65C23C2F2000316
:103E0000DA6840F63813C2F20003C3F88C2040F69B
:103E10003813C2F2000303F5025303F110031B68C9
:103E200003F1010240F63813C2F2000303F5025316
:103E300003F110031A60BD4680BC704780B400AF28
:103E400040F63813C2F200034FF000025A6040F609
:103E50003813C2F200034FF000021A6140F6381323
:103E6000C2F200034FF00002DA6140F63813C2F2EA
:103E700000034FF000029A6240F63813C2F20003CA
:103E80004FF000025A6640F63813C2F200034FF0BA
:103E900000021A6740F63813C2F200034FF0000226
:103EA0005A6340F63813C2F200034FF000021A645E
:103EB00040F63813C2F200034FF00002DA6440F615
:103EC0003813C2F200034FF000029A6540F638132F
:103ED000C2F200034FF00002DA6740F63813C2F274
:103EE00000034FF00002C3F8882040F63813C2F2F6
:103EF00000034FF00002C3F8902040F63813C2F2DE
:103F000000034FF00002C3F8942040F63813C2F2C9
:103F100000034FF000021A6040F63813C2F20003AB
:103F20004FF00002DA6040F63813C2F200034FF09F
:103F300000029A6140F63813C2F200034FF000020B
:103F40005A6240F63813C2F200034FF000021A66BC
:103F500040F63813C2F200034FF00002DA6640F672
:103F60003813C2F200034FF000021A6340F6381310
:103F7000C2F200034FF00002DA6340F63813C2F2D7
:103F800000034FF000029A6440F63813C2F20003B7
:103F90004FF000025A6540F63813C2F200034FF0AA
:103FA00000029A6740F63813C2F200034FF0000295
:103FB000C3F8842040F63813C2F200036FF00042C9
:103FC0009A6040F63813C2F200036FF000425A6163
:103FD00040F63813C2F200036FF000421A6240F656
:103FE0003813C2F200036FF00042DA6240F6381371
:103FF000C2F200036FF000429A6640F63813C2F234
:1040000000036FF000425A6740F63813C2F2000313
:104010006FF000429A6340F63813C2F200036FF06B
:1040200000425A6440F63813C2F200036FF00042B7
:104030001A6540F63813C2F200036FF00042DA65E9
:1040400040F63813C2F200036FF00042C3F880203C
:1040500040F63813C2F200036FF00042C3F88C2020
:1040600040F63813C2F2000303F5025303F11003C4
:104070004FF000021A6040F63813C2F2000303F555
:10408000025303F118034FF001021A70BD4680BCC1
:10409000704700BF80B400AF40F63813C2F200038F
:1040A00003F5025303F118034FF000021A7040F6B3
:1040B0003813C2F200035A6840F63813C2F2000304
:1040C00003F5025303F110031B68B2FBF3F240F651
:1040D0003813C2F200035A6040F63813C2F20003EC
:1040E0001A6940F63813C2F2000303F5025303F1D4
:1040F00010031B68B2FBF3F240F63813C2F2000360
:104100001A6140F63813C2F20003DA6940F6381338
:10411000C2F2000303F5025303F110031B68B2FB64
:10412000F3F240F63813C2F20003DA6140F63813B6
:10413000C2F200039A6A40F63813C2F2000303F594
:10414000025303F110031B68B2FBF3F240F638137D
:10415000C2F200039A6240F63813C2F200035A6EAC
:1041600040F63813C2F2000303F5025303F11003C3
:104170001B68B2FBF3F240F63813C2F200035A6632
:1041800040F63813C2F200031A6F40F63813C2F239
:10419000000303F5025303F110031B68B2FBF3F2B3
:1041A00040F63813C2F200031A6740F63813C2F221
:1041B00000035A6B40F63813C2F2000303F50253B2
:1041C00003F110031B68B2FBF3F240F63813C2F29E
:1041D00000035A6340F63813C2F200031A6C40F62B
:1041E0003813C2F2000303F5025303F110031B68F6
:1041F000B2FBF3F240F63813C2F200031A6440F641
:104200003813C2F20003DA6C40F63813C2F200032E
:1042100003F5025303F110031B68B2FBF3F240F6FF
:104220003813C2F20003DA6440F63813C2F2000316
:104230009A6D40F63813C2F2000303F5025303F1FE
:1042400010031B68B2FBF3F240F63813C2F200030E
:104250009A6540F63813C2F20003DA6F40F638135D
:10426000C2F2000303F5025303F110031B68B2FB13
:10427000F3F240F63813C2F20003DA6740F638135F
:10428000C2F20003D3F8882040F63813C2F20003CC
:1042900003F5025303F110031B68B2FBF3F240F67F
:1042A0003813C2F20003C3F8882040F63813C2F274
:1042B0000003D3F890301A4640F63813C2F20003D8
:1042C00003F5025303F110031B68B2FBF3F31A4624
:1042D00040F63813C2F20003C3F8902040F63813BA
:1042E000C2F20003D3F894301A4640F63813C2F2F3
:1042F000000303F5025303F110031B68B2FBF3F351
:104300001A4640F63813C2F20003C3F8942040F274
:10431000D403C2F200035A6840F63813C2F2000315
:10432000C3F8982042F65C23C2F200031B78DBB28C
:104330001A4640F63813C2F20003C3F89C20BD466B
:1043400080BC704780B485B000AF786039604FF0B2
:104350000003FB817B681B88FB817A684FF00003B8
:10436000C4F201039A421FD07A684FF48063C4F20A
:1043700001039A4218D07B68B3F1804F14D07A6859
:104380004FF48063C4F200039A420DD07A684FF470
:104390000063C4F200039A4206D07A684FF4406387
:1043A000C4F200039A4208D1FB8923F07003FB8119
:1043B0003B685A88FB891343FB817A684FF480532A
:1043C000C4F200039A420FD07A684FF4A053C4F2AB
:1043D00000039A4208D0FB8923F44073FB813B68B9
:1043E0001A89FB891343FB817B68FA891A803B6831
:1043F0005A687B68DA623B681A887B681A857A6833
:104400004FF00003C4F201039A4206D07A684FF4D9
:104410008063C4F201039A4204D13B689B7A1A4636
:104420007B681A867B684FF001029A8207F11407B5
:10443000BD4680BC704700BF80B483B000AF7860D9
:104440000B46FB70FB78002B08D07B681B889BB267
:1044500043F001039AB27B681A8007E07B681B88EF
:104460009BB223F001039AB27B681A8007F10C0714
:10447000BD4680BC704700BF80B485B000AF786097
:1044800039604FF000037B814FF00003FB814FF058
:104490000003BB817B681B8C9BB223F480739AB2B0
:1044A0007B681A847B681B8CFB817B689B88BB8143
:1044B0007B689B8B7B817B8923F070037B817B896D
:1044C00023F003037B813B681A887B8913437B813C
:1044D000FB8923F40073FB813B689B894FEA03232C
:1044E0009AB2FB891343FB813B685B884FEA032345
:1044F0009AB2FB891343FB817A684FF00003C4F240
:1045000001039A4206D07A684FF48063C4F2010333
:104510009A422FD1FB8923F40063FB813B68DB893E
:104520004FEA03239AB2FB891343FB81FB8923F4EF
:104530008063FB813B689B884FEA03239AB2FB8927
:104540001343FB81BB8923F48053BB81BB8923F4D4
:104550000053BB813B681B8A4FEA03139AB2BB89A5
:104560001343BB813B685B8A4FEA03139AB2BB8952
:104570001343BB817B68BA899A807B687A899A8366
:104580003B689A687B68DA637B68FA891A8407F16A
:104590001407BD4680BC704780B483B000AF78601C
:1045A00039603B681A883B685B8813439AB23B6862
:1045B0009B8813439AB23B68DB8813439AB23B68EB
:1045C0001B8913439AB23B685B8913439AB23B68D9
:1045D0009B8913439AB27B68A3F8442007F10C0728
:1045E000BD4680BC704700BF80B483B000AF786028
:1045F0000B46FB70FB78002B0CD07B68B3F8443083
:104600009BB26FEA43436FEA53439AB27B68A3F8C5
:1046100044200BE07B68B3F844309BB24FEA43433D
:104620004FEA53439AB27B68A3F8442007F10C0782
:10463000BD4680BC704700BF80B483B000AF7860D7
:104640000B467B807B886FEA03039AB27B681A82F1
:1046500007F10C07BD4680BC704700BF80B584B031
:1046600000AF42F66C23C2F200034FF000021A8042
:1046700042F66C23C2F200034FF000025A8042F669
:104680006C23C2F200034FF000029A8042F66C23C2
:10469000C2F200034FF00002DA8042F66C23C2F24D
:1046A00000034FF000021A8142F66C23C2F20003AD
:1046B0004FF000025A814FF4E1333B604FF00003AA
:1046C000BB804FF40053FB804FF000033B814FF061
:1046D0000003BB814FF00C037B813B464FF48050BD
:1046E000C4F201001946FCF74FFE4FF48050C4F2AB
:1046F000010040F225514FF00102FCF74FFF4FF44B
:104700008050C4F201004FF00101FCF713FF07F1E4
:104710001007BD4680BD00BF80B500AF4FF0000060
:10472000C4F202004FF00201FDF7E4FE80BD00BFBD
:1047300080B400AF42F66C23C2F200035B899BB2E7
:10474000002B02D04FF0010301E04FF000031846A8
:10475000BD4680BC704700BF80B483B000AF42F656
:104760006C23C2F200031B899AB2114642F66C23F5
:10477000C2F200035B1893F80C34FB7102F10103E1
:104780009AB242F66C23C2F200031A8142F66C23FD
:10479000C2F200035B899BB203F1FF339AB242F687
:1047A0006C23C2F200035A8142F66C23C2F200036A
:1047B0001B899AB240F2FF339A4206D942F66C2323
:1047C000C2F200034FF000021A81FB79184607F18C
:1047D0000C07BD4680BC704780B483B000AF034671
:1047E000FB7142F66C23C2F200031B889BB21A468F
:1047F00042F66C23C2F200039B18FA791A7342F650
:104800006C23C2F200039B889BB203F101039AB2AE
:1048100042F66C23C2F200039A8042F66C23C2F285
:1048200000031B889BB203F101039AB242F66C238A
:10483000C2F200031A8042F66C23C2F200031B8806
:104840009AB240F2FF339A4206D942F66C23C2F282
:1048500000034FF000021A8007F10C07BD4680BC30
:10486000704700BF80B582B000AF4FF48050C4F2F3
:10487000010040F22551FCF7E3FE0346002B3CD03B
:104880004FF48053C4F201039B88FB8042F66C23F3
:10489000C2F20003DB889AB21046FB88D9B242F616
:1048A0006C23C2F200031B1883F80C1402F10103FD
:1048B0009AB242F66C23C2F20003DA8042F66C230D
:1048C000C2F20003DB889AB240F2FF339A4206D963
:1048D00042F66C23C2F200034FF00002DA8042F687
:1048E0006C23C2F200035B899BB203F101039AB20D
:1048F00042F66C23C2F200035A814FF48050C4F296
:10490000010040F22771FCF79BFE0346002B54D0B8
:1049100042F66C23C2F200039B889BB2002B31D07D
:1049200042F66C23C2F200035B889BB21A4642F641
:104930006C23C2F200039B181B7BDBB24FF4805048
:10494000C4F201001946FCF715FE42F66C23C2F2D0
:1049500000039B889BB203F1FF339AB242F66C23AB
:10496000C2F200039A8042F66C23C2F200035B8815
:104970009BB203F101039AB242F66C23C2F2000328
:104980005A8009E04FF48050C4F2010040F22771D0
:104990004FF00002FCF702FE42F66C23C2F2000365
:1049A0005B889AB240F2FF339A4206D942F66C23F2
:1049B000C2F200034FF000025A8007F10807BD461B
:1049C00080BD00BF80B582B000AF4FF48840C4F214
:1049D000000040F22551FCF733FE0346002B3CD08B
:1049E0004FF48843C4F200039B88FB8040F2081315
:1049F000C2F20003DB889AB21046FB88D9B240F2BB
:104A00000813C2F200031B1883F80C1402F101030F
:104A10009AB240F20813C2F20003DA8040F208139F
:104A2000C2F20003DB889AB240F2FF339A4206D901
:104A300040F20813C2F200034FF00002DA8040F2A5
:104A40000813C2F200035B899BB203F101039AB21F
:104A500040F20813C2F200035A814FF48840C4F2B6
:104A6000000040F22771FCF7EBFD0346002B5ED0FF
:104A700040F20813C2F200039B889BB2002B31D096
:104A800040F20813C2F200035B889BB21A4640F260
:104A90000813C2F200039B181B7BDBB24FF4884063
:104AA000C4F200001946FCF765FD40F20813C2F29B
:104AB00000039B889BB203F1FF339AB240F20813C4
:104AC000C2F200039A8040F20813C2F200035B882E
:104AD0009BB203F101039AB240F20813C2F2000341
:104AE0005A8013E04FF48840C4F2000040F227716E
:104AF0004FF00002FCF752FD4FF48840C4F2000072
:104B000040F226614FF00102FCF748FD40F2081325
:104B1000C2F200035B889AB240F2FF339A4206D990
:104B200040F20813C2F200034FF000025A804FF423
:104B30008840C4F2000040F22661FCF781FD034684
:104B4000002B0BD04FF48840C4F2000040F22661E5
:104B50004FF00002FCF722FDFFF7DEFD07F108072A
:044B6000BD4680BD11
:104B64000532F40100000000010203040102030401
:104B740006070809007A030A00000000000000008C
:084B8400010203040607080901
:0400000508000000EF
:00000001FF
