:020000040800F2
:10000000E43E002069340008D9340008D9340008DF
:10001000D9340008D9340008D934000800000000A1
:10002000000000000000000000000000D9340008BB
:10003000D934000800000000D9340008292800083D
:10004000D9340008D9340008D9340008D93400085C
:10005000D9340008D9340008D9340008D93400084C
:10006000D9340008D9340008D9340008D93400083C
:10007000D9340008D9340008D9340008D93400082C
:10008000D9340008D9340008D9340008D93400081C
:10009000D9340008D9340008D9340008D93400080C
:1000A000D934000855120008D9340008D9340008A2
:1000B000D9340008D9340008D9340008D9340008EC
:1000C000D9340008D9340008D9340008D9340008DC
:1000D000D9340008C177000821790008D934000814
:1000E000D9340008D9340008D9340008D9340008BC
:1000F0006D120008D9340008D9340008D93400083A
:10010000D9340008D9340008D9340008D93400089B
:10011000D9340008D9340008D9340008D93400088B
:1001200085120008D9340008D9340008D9340008F1
:10013000D9340008D9340008D9340008D93400086B
:10014000D9340008D9340008D9340008D93400085B
:10015000D9340008D9340008D9340008D93400084B
:10016000D9340008D9340008D9340008D93400083B
:10017000D9340008D9340008D9340008D93400082B
:10018000D9340008D934000880B586B000AF00F03B
:1001900073FB4FF47050C4F2000005F067F94FF0A4
:1001A0000003BB804FF48273FB804FF400633B81FC
:1001B0004FF000037B814FF00103BB814FF40073CC
:1001C000FB814FF000033B824FF000037B8207F17D
:1001D00004034FF47050C4F20000194605F08AF988
:1001E0004FF47050C4F200004FF0010105F0C6F961
:1001F0004FF44060C4F202004FF0010104F0D6FC5D
:1002000000F05CFA07F11807BD4680BD80B485B0E8
:1002100000AF0346FB71FB7903F00103FB73FB7B2B
:10022000002B07D04FF44063C4F202034FF00202E8
:100230001A8306E04FF44063C4F202034FF0020257
:100240005A83FB794FEA5303FB71FB7903F00103F7
:10025000FB73FB7B002B07D04FF44063C4F2020317
:100260004FF004021A8306E04FF44063C4F2020325
:100270004FF004025A83FB794FEA5303FB71FB7979
:1002800003F00103FB73FB7B002B07D04FF44063AB
:10029000C4F202034FF008021A8306E04FF44063F1
:1002A000C4F202034FF008025A83FB794FEA53036A
:1002B000FB71FB7903F00103FB73FB7B002B07D081
:1002C0004FF44063C4F202034FF010021A8306E0B9
:1002D0004FF44063C4F202034FF010025A83FB79DB
:1002E0004FEA5303FB71FB7903F00103FB73FB7BC4
:1002F000002B07D04FF44063C4F202034FF02002FA
:100300001A8306E04FF44063C4F202034FF0200268
:100310005A8307F11407BD4680BC704780B582B090
:1003200000AF4FF40043FB8040F2B843C2F2000339
:1003300093F83230DBB2002B03D0FB8803F5804307
:10034000FB8040F2B843C2F200031B8DBB804FF02C
:100350000100FFF75BFF4FF44060C4F202004FF072
:10036000010104F031FCFB884FF47050C4F200002E
:10037000194605F031F900BF4FF47050C4F2000087
:100380004FF0800105F036F90346002BF4D14FF40D
:100390007050C4F2000005F011F90346FB80BB88E1
:1003A0004FF47050C4F20000194605F015F900BF73
:1003B0004FF47050C4F200004FF0800105F01AF9BC
:1003C0000346002BF4D14FF47050C4F2000005F046
:1003D000F5F80346BB804FF44060C4F202004FF0D2
:1003E000010104F0E3FB07F10807BD4680BD00BF33
:1003F00080B582B000AF40F2B843C2F20003DB8D9B
:10040000FB8040F2B843C2F200035B8DBB804FF02B
:100410000200FFF7FBFE4FF44060C4F202004FF011
:10042000010104F0D1FBFB884FF47050C4F20000CE
:10043000194605F0D1F800BF4FF47050C4F2000027
:100440004FF0800105F0D6F80346002BF4D14FF4AD
:100450007050C4F2000005F0B1F80346FB80BB8881
:100460004FF47050C4F20000194605F0B5F800BF13
:100470004FF47050C4F200004FF0800105F0BAF85C
:100480000346002BF4D14FF47050C4F2000005F085
:1004900095F80346BB804FF44060C4F202004FF071
:1004A000010104F083FB07F10807BD4680BD00BFD2
:1004B00080B582B000AF40F2B843C2F200031B8E99
:1004C000FB8040F2B843C2F200039B8DBB804FF02B
:1004D0000300FFF79BFE4FF44060C4F202004FF0B0
:1004E000010104F071FBFB884FF47050C4F200006E
:1004F000194605F071F800BF4FF47050C4F20000C7
:100500004FF0800105F076F80346002BF4D14FF44C
:100510007050C4F2000005F051F80346FB80BB8820
:100520004FF47050C4F20000194605F055F800BFB2
:100530004FF47050C4F200004FF0800105F05AF8FB
:100540000346002BF4D14FF47050C4F2000005F0C4
:1005500035F80346BB804FF44060C4F202004FF010
:10056000010104F023FB07F10807BD4680BD00BF71
:1005700080B500AFFFF73CFFFFF79AFFFFF7CEFE15
:1005800080BD00BF80B485B000AF02460B46FA8044
:10059000BB80FB884FEA5303FB81BA88FB889A42F1
:1005A00003D3FB8803F1FF33BB8040F2B843C2F2B0
:1005B0000003FA881A8540F2B843C2F20003FA89B0
:1005C0005A85FA89BB88D3189AB240F2B843C2F26E
:1005D00000039A8540F2B843C2F200035B8D9AB2E1
:1005E00040F2B843C2F200031B8D9BB24FEA5303A3
:1005F0009BB2D3189AB240F2B843C2F20003DA8534
:1006000040F2B843C2F200039B8D9AB240F2B84365
:10061000C2F200031B8D9BB24FEA53039BB2D31867
:100620009AB240F2B843C2F200031A8640F2B843CD
:10063000C2F20003DB8D9AB240F2B843C2F200036B
:100640001B8D9BB29A4212D340F2B843C2F2000310
:10065000DB8D9AB240F2B843C2F200031B8D9BB20D
:10066000D31A9AB240F2B843C2F20003DA8540F2DC
:10067000B843C2F200031B8E9AB240F2B843C2F2F2
:1006800000031B8D9BB29A4212D340F2B843C2F2D0
:1006900000031B8E9AB240F2B843C2F200031B8DD6
:1006A0009BB2D31A9AB240F2B843C2F200031A8640
:1006B00007F11407BD4680BC704700BF80B582B00B
:1006C00000AF4FF00000FFF7A1FD4FF44060C4F20F
:1006D00002004FF0010104F077FA4FF47050C4F2B9
:1006E00000004FF0000104F077FF00BF4FF470509E
:1006F000C4F200004FF0800104F07CFF0346002BA1
:10070000F4D14FF47050C4F2000004F057FF0346D8
:10071000FB804FF47050C4F200004FF0000104F071
:100720005BFF00BF4FF47050C4F200004FF0800137
:1007300004F060FF0346002BF4D14FF47050C4F274
:10074000000004F03BFF0346BB80FA8840F2B84348
:10075000C2F200035A6040F2B843C2F200035B6881
:100760004FEA034240F2B843C2F200035A6040F23B
:10077000B843C2F200035A68BB88D21840F2B843AB
:10078000C2F200035A604FF44060C4F202004FF01E
:10079000010104F00BFA07F10807BD4680BD00BF58
:1007A00080B584B000AF0346FB71FB7903F00F0303
:1007B000FB71FB7903F11003DBB21846FFF726FD4E
:1007C0004FF44060C4F202004FF0010104F0FCF964
:1007D0004FF47050C4F200004FF0000104F0FCFE32
:1007E00000BF4FF47050C4F200004FF0800104F0DD
:1007F00001FF0346002BF4D14FF47050C4F2000007
:1008000004F0DCFE0346FB814FF47050C4F200009C
:100810004FF0000104F0E0FE00BF4FF47050C4F24E
:1008200000004FF0800104F0E5FE0346002BF4D1F8
:100830004FF47050C4F2000004F0C0FE0346BB81C8
:10084000FA79BB894FEA03534FEA135399B240F246
:10085000B843C2F2000302F1040223F812104FF46D
:100860004060C4F202004FF0010104F09FF907F16B
:100870001007BD4680BD00BF80B500AF4FF440609B
:10088000C4F202004FF0400104F090F94FF44060D0
:10089000C4F202004FF0400104F096F980BD00BFA1
:1008A00080B500AF4FF44060C4F202004FF0800109
:1008B00004F05EF903461A4640F2B843C2F2000360
:1008C0001A7040F2B843C2F200031B78DBB218463C
:1008D00080BD00BF80B500AF40F25C43C2F20003B0
:1008E0001B78042B66D801A252F823F001090008F6
:1008F00025090008490900086D0900089109000848
:100900004FF00000FFF74CFF40F25C43C2F20003DF
:100910001B7803F10103DAB240F25C43C2F2000338
:100920001A704FE04FF00100FFF73AFF40F25C43CE
:10093000C2F200031B7803F10103DAB240F25C4318
:10094000C2F200031A703DE04FF00200FFF728FFEB
:1009500040F25C43C2F200031B7803F10103DAB2F8
:1009600040F25C43C2F200031A702BE04FF0030028
:10097000FFF716FF40F25C43C2F200031B7803F15D
:100980000103DAB240F25C43C2F200031A7019E0CC
:100990004FF00400FFF704FF40F25C43C2F2000393
:1009A0001B7803F10103DAB240F25C43C2F20003A8
:1009B0001A7007E040F25C43C2F200034FF00002FD
:1009C0001A7000BF80BD00BF80B483B000AF034683
:1009D0003960FB7197F90730002B10DA4FF46D4343
:1009E000CEF20003FA7902F00F02A2F104013A6894
:1009F000D2B24FEA0212D2B25B181A760DE04FF46F
:100A00006143CEF2000397F907103A68D2B24FEA79
:100A10000212D2B25B1883F8002307F10C07BD461F
:100A200080BC704780B582B000AF78607A686FF0A4
:100A30007F439A4202D94FF001031FE04EF21003A8
:100A4000CEF200037A6822F07F4202F1FF325A6050
:100A50004FF0FF304FF00F01FFF7B6FF4EF21003DB
:100A6000CEF200034FF000029A604EF21003CEF275
:100A700000034FF007021A604FF00003184607F119
:100A80000807BD4680BD00BF80B58CB000AF42F600
:100A9000C863C2F2000340F2E3329A604FF00003F1
:100AA000BB844FF00003FB844FF00703BB624FF0A1
:100AB0000003BB854FF0000387F82E3007F12403B5
:100AC0004FF48060C4F20100194606F029FB4FF094
:100AD00070033B824FF001037B824FF00003BB8227
:100AE0004FF00403BB614FF00003BB834FF00003E2
:100AF000FB834FF480733B844FF000037B8407F14A
:100B000010034FF48060C4F20100194606F0A2FB06
:100B10004FF400633B804FF480637B804FF480731D
:100B2000BB804FF00003FB804FF000033B814FF48C
:100B300000537B814FF48043BB813B464FF4806080
:100B4000C4F20100194606F015FC4FF48060C4F2AF
:100B500001004FF0010106F05DFB4FF48060C4F22C
:100B600001004FF0010106F02DFC42F6C863C2F20D
:100B700000034FF00002DA6040F2B843C2F2000313
:100B80004FF0000283F8322042F6C863C2F200033D
:100B90009B689AB242F6C863C2F20003DB689BB25C
:100BA00010461946FFF7EEFCFFF7E2FC07F13007AD
:100BB000BD4680BD80B582B000AF0346FB8042F6E3
:100BC000C863C2F200031B78DBB2032B07D042F6E6
:100BD000C863C2F200031B78DBB2042B36D142F6A5
:100BE000C863C2F200039A68FB889A420BD942F6A6
:100BF000C863C2F200039A68FB88D21A42F6C8633F
:100C0000C2F200039A6042F6C863C2F200039A6817
:100C100040F21F339A4206D842F6C863C2F200037C
:100C20004FF448729A6042F6C863C2F200039B68B0
:100C30009AB242F6C863C2F20003DB689BB2104668
:100C40001946FFF79FFCFFF793FC00E000BF07F198
:100C50000807BD4680BD00BF80B582B000AF034627
:100C6000FB8042F6C863C2F200031B78DBB2032BA1
:100C700007D042F6C863C2F200031B78DBB2042B34
:100C800037D142F6C863C2F200039A6840F6E20325
:100C90009A421BD842F6C863C2F200039A68FB88E6
:100CA000D21842F6C863C2F200039A6042F6C863E3
:100CB000C2F200039A6840F6E3039A4206D942F66C
:100CC000C863C2F2000340F6E3029A6042F6C863CA
:100CD000C2F200039B689AB242F6C863C2F20003F4
:100CE000DB689BB210461946FFF74CFCFFF740FC4F
:100CF00000E000BF07F10807BD4680BD80B582B0A7
:100D000000AF0346FB8042F6C863C2F200031B78C3
:100D1000DBB2032B07D042F6C863C2F200031B7894
:100D2000DBB2042B38D142F6C863C2F20003DA68A2
:100D3000FB88D21842F6C863C2F20003DA6042F6BA
:100D4000C863C2F20003DA6842F6C863C2F2000365
:100D50009B684FEA53039A420BD942F6C863C2F22A
:100D600000039B684FEA530242F6C863C2F20003D5
:100D7000DA6042F6C863C2F200039B689AB242F698
:100D8000C863C2F20003DB689BB210461946FFF746
:100D9000F9FBFFF7EDFB00E000BF07F10807BD46D8
:100DA00080BD00BF80B582B000AF0346FB8042F635
:100DB000C863C2F200031B78DBB2032B07D042F6F4
:100DC000C863C2F200031B78DBB2042B2ED142F6BB
:100DD000C863C2F20003DA68FB889A420CD942F673
:100DE000C863C2F20003DA68FB88D21A42F6C8630D
:100DF000C2F20003DA6006E042F6C863C2F2000302
:100E00004FF00002DA6042F6C863C2F200039B684A
:100E10009AB242F6C863C2F20003DB689BB2104686
:100E20001946FFF7AFFBFFF7A3FB00E000BF07F198
:100E30000807BD4680BD00BF80B500AFFFF730FD9D
:100E40000346002B0BD0FFF739FC42F6C863C2F211
:100E500000034FF00A021A704FF0010301E04FF057
:100E60000003184680BD00BF80B500AF42F6C863DE
:100E7000C2F200031B78DBB20E2B00F2CA8101A282
:100E800052F823F0C10E000813120008C30F000827
:100E9000111000085F100008131200081312000858
:100EA000131200081312000813120008AD100008F6
:100EB000F71000084111000887110008CD11000843
:100EC00040F2B843C2F200034FF0000283F8322030
:100ED00042F6C863C2F2000340F2E3329A6042F67F
:100EE000C863C2F200034FF00002DA6040F63053EC
:100EF000C2F200034FF07E521A6140F63053C2F244
:100F000000034FF00002C4F2A0021A6040F6305312
:100F1000C2F200034FF00002C4F220125A6040F601
:100F20003053C2F2000344F65212C3F69D129A6087
:100F300040F63053C2F200034CF6CD42C3F6CC4229
:100F4000DA6042F6C863C2F200039B689AB242F6C6
:100F5000C863C2F20003DB689BB210461946FFF774
:100F600011FBFFF705FBFFF767FF0346002B40F07F
:100F7000588142F6C863C2F200035B78DBB2652B8E
:100F800011D140F2B843C2F200034FF0010283F8DE
:100F90003220FFF7EDFA42F6C863C2F200034FF0C9
:100FA00002021A703DE142F6C863C2F200035B78A8
:100FB000DBB2722B40F03581FFF75EFCFFF77EFB62
:100FC0002FE1FFF739FF0346002B40F02C8142F65A
:100FD000C863C2F200035B78DBB2642B07D142F630
:100FE000C863C2F200034FF000021A701BE142F620
:100FF000C863C2F200035B78DBB2452B40F013817B
:1010000042F6C863C2F200034FF003021A700AE10D
:10101000FFF712FF0346002B40F0078142F6C8633A
:10102000C2F200035B78DBB2642B07D142F6C863DF
:10103000C2F200034FF000021A70F6E042F6C863F5
:10104000C2F200035B78DBB2452B40F0EE8042F643
:10105000C863C2F200034FF004021A70E5E0FFF724
:10106000EBFE0346002B40F0E28042F6C863C2F27A
:1010700000035B78DBB2642B07D142F6C863C2F28F
:1010800000034FF000021A70D1E042F6C863C2F2CA
:1010900000035B78DBB2452B40F0C98042F6C863A1
:1010A000C2F200034FF003021A70C0E040F2B843EE
:1010B000C2F200034FF0000283F83220FFF758FA23
:1010C00042F6C863C2F200035B78DBB2722B40F0D9
:1010D000B080FFF7D1FBFFF7F1FAFFF7ADFE034653
:1010E000002B40F0A68042F6C863C2F200034FF026
:1010F00000021A709DE040F2B843C2F200034FF0C4
:10110000000283F83220FFF733FA42F6C863C2F2D6
:1011100000035B78DBB2722B40F08D80FFF7ACFBF5
:10112000FFF7CCFAFFF788FE0346002B40F08380E0
:1011300042F6C863C2F200034FF000021A707AE070
:1011400040F2B843C2F200034FF0000283F83220AD
:10115000FFF70EFA42F6C863C2F200035B78DBB217
:10116000722B6AD1FFF788FBFFF7A8FAFFF764FE3E
:101170000346002B61D142F6C863C2F200034FF070
:1011800000021A7059E040F2B843C2F200034FF077
:10119000000283F83220FFF7EBF942F6C863C2F28F
:1011A00000035B78DBB2722B49D1FFF765FBFFF7D9
:1011B00085FAFFF741FE0346002B40D142F6C86393
:1011C000C2F200034FF000021A7038E040F2B84358
:1011D000C2F200034FF0000283F83220FFF7C8F993
:1011E00042F6C863C2F200035B78DBB2722B28D1EF
:1011F000FFF742FBFFF762FAFFF71EFE0346002BE4
:101200001FD142F6C863C2F200034FF000021A7009
:1012100017E042F6C863C2F200034FF000021A70F2
:1012200010E000BF0EE000BF0CE000BF0AE000BF0E
:1012300008E000BF06E000BF04E000BF02E000BF1E
:1012400000E000BF42F6C863C2F200034FF00002A4
:101250005A7080BD80B500AF4FF00000C4F20100AD
:101260004FF0010106F0D6F880BD00BF80B500AF99
:101270004FF48060C4F201004FF0010106F0CAF89B
:1012800080BD00BF80B500AF46F21040C4F202003E
:101290004FF02001C1F2000103F0B4FE04F058F851
:1012A00004F09AF804F0BCF840F64853C2F2000388
:1012B00003F5035303F130031B6803F1010240F609
:1012C0004853C2F2000303F5035303F130031A60DD
:1012D00080BD00BF80B582B000AF786044F20E20C0
:1012E000C4F63E50796809F07BFA034618464FF081
:1012F000804109F0B7F80346184609F0A9FB0346F8
:101300009AB240F29043C2F200031A8042F6C863D8
:10131000C2F200031B78DBB2042B4FD140F29043A2
:10132000C2F200031B88B3F5487F14D940F2904302
:10133000C2F200031A8840F6E2039A420BD840F248
:101340009043C2F200031B881A4642F6C863C2F2F9
:1013500000039A601FE040F29043C2F200031B8832
:10136000B3F5487F07D842F6C863C2F200034FF4D2
:1013700048729A600FE040F29043C2F200031A886C
:1013800040F6E2039A4206D942F6C863C2F200036D
:1013900040F6E3029A6042F6C863C2F200039B681B
:1013A0009AB242F6C863C2F20003DB689BB21046F1
:1013B0001946FFF7E7F8FFF7DBF800E000BF07F199
:1013C0000807BD4680BD00BF80B582B000AF0346B0
:1013D000FB8042F6C863C2F200031B78DBB2042B29
:1013E00047D1FB88002B10D0FA8842F6C863C2F2BE
:1013F00000039B684FEA53039A4206D2FA8842F6EA
:10140000C863C2F20003DA6020E0FB88002B07D13A
:1014100042F6C863C2F200034FF00002DA6015E042
:10142000FA8842F6C863C2F200039B684FEA53038E
:101430009A420BD342F6C863C2F200039B684FEA9C
:10144000530242F6C863C2F20003DA6042F6C86390
:10145000C2F200039B689AB242F6C863C2F200036C
:10146000DB689BB210461946FFF78CF8FFF780F84F
:1014700000E000BF07F10807BD4680BD80B500AFA2
:1014800040F63053C2F200031B6918464FF00001CA
:10149000C4F27A4109F08EFA0346002B13D040F6CD
:1014A0003053C2F200031B6918464FF00001C4F22A
:1014B000201109F0E1F803461A4640F63053C2F213
:1014C00000031A6117E040F63053C2F200031B69B3
:1014D00018464FF00001C4F27A4109F07FFA034642
:1014E000002B08D040F63053C2F200034FF0000248
:1014F000C4F27A421A6180BD80B500AF40F6305325
:10150000C2F200031B69184608F042FC02460B4673
:10151000104619461CA3D3E9002308F01DFF03461B
:10152000002B13D040F63053C2F200031B6918465B
:101530004FF00001C4F2201109F052F903461A4697
:1015400040F63053C2F200031A611CE040F63053FB
:10155000C2F200031B69184608F01AFC02460B464B
:101560001046194608A3D3E9002308F0E1FE03461C
:10157000002B08D040F63053C2F200034BF2177232
:10158000C3F6D1021A6180BD2D431CEBE2361A3F2F
:1015900080B500AF40F63053C2F200031B68184616
:1015A0004FF48041C4F21C6109F004FA0346002B99
:1015B00015D040F63053C2F200031A6840F630539B
:1015C000C2F200031B691046194608F04DFF03469E
:1015D0001A4640F63053C2F200031A6017E040F694
:1015E0003053C2F200031B6818464FF48041C4F226
:1015F0001C6109F0F3F90346002B08D040F6305384
:10160000C2F200034FF48042C4F21C621A6080BD33
:1016100080B500AF40F63053C2F200031B68184695
:1016200008F0B6FB02460B46104619461EA3D3E946
:10163000002308F087FE0346002B15D040F63053F8
:10164000C2F200031A6840F63053C2F200031B696D
:101650001046194608F006FF03461A4640F6305376
:10166000C2F200031A601CE040F63053C2F20003DD
:101670001B68184608F08CFB02460B4610461946BC
:1016800009A3D3E9002308F049FE0346002B08D044
:1016900040F63053C2F200034BF21772C3F6D10288
:1016A0001A6080BDAFF300802D431CEBE2361A3F79
:1016B00080B500AF40F63053C2F200035B681846B5
:1016C0004FF48041C4F21C6109F074F90346002B09
:1016D00015D040F63053C2F200035A6840F630533A
:1016E000C2F200031B691046194608F0BDFE03460E
:1016F0001A4640F63053C2F200035A6017E040F633
:101700003053C2F200035B6818464FF48041C4F2C4
:101710001C6109F063F90346002B08D040F63053F2
:10172000C2F200034FF48042C4F21C625A6080BDD2
:1017300080B500AF40F63053C2F200035B68184634
:1017400008F026FB02460B46104619461EA3D3E9B5
:10175000002308F001FE0346002B15D040F630535D
:10176000C2F200035A6840F63053C2F200031B690C
:101770001046194608F076FE03461A4640F63053E6
:10178000C2F200035A601CE040F63053C2F200037C
:101790005B68184608F0FCFA02460B4610461946EC
:1017A00009A3D3E9002308F0C3FD0346002B08D0AA
:1017B00040F63053C2F200034BF21772C3F6D10267
:1017C0005A6080BDAFF300802D431CEBE2361A3F18
:1017D00080B500AF40F63053C2F200039B68184654
:1017E0004FF48041C4F21C6109F0E4F80346002B79
:1017F00015D040F63053C2F200039A6840F63053D9
:10180000C2F200031B691046194608F02DFE03467C
:101810001A4640F63053C2F200039A6017E040F6D1
:101820003053C2F200039B6818464FF48041C4F263
:101830001C6109F0D3F80346002B08D040F6305362
:10184000C2F200034FF48042C4F21C629A6080BD71
:1018500080B500AF40F63053C2F200039B681846D3
:1018600008F096FA02460B46104619461EA3D3E925
:10187000002308F071FD0346002B15D040F63053CD
:10188000C2F200039A6840F63053C2F200031B69AB
:101890001046194608F0E6FD03461A4640F6305356
:1018A000C2F200039A601CE040F63053C2F200031B
:1018B0009B68184608F06CFA02460B46104619461B
:1018C00009A3D3E9002308F033FD0346002B08D019
:1018D00040F63053C2F200034BF21772C3F6D10246
:1018E0009A6080BDAFF300802D431CEBE2361A3FB7
:1018F00080B500AF40F63053C2F20003DB681846F3
:101900004FF48041C4F21C6109F054F80346002BE7
:1019100015D040F63053C2F20003DA6840F6305377
:10192000C2F200031B691046194608F09DFD0346EC
:101930001A4640F63053C2F20003DA6017E040F670
:101940003053C2F20003DB6818464FF48041C4F202
:101950001C6109F043F80346002B08D040F63053D1
:10196000C2F200034FF48042C4F21C62DA6080BD10
:1019700080B500AF40F63053C2F20003DB68184672
:1019800008F006FA02460B46104619461EA3D3E994
:10199000002308F0E1FC0346002B15D040F630533D
:1019A000C2F20003DA6840F63053C2F200031B694A
:1019B0001046194608F056FD03461A4640F63053C5
:1019C000C2F20003DA601CE040F63053C2F20003BA
:1019D000DB68184608F0DCF902460B46104619464B
:1019E00009A3D3E9002308F0A3FC0346002B08D089
:1019F00040F63053C2F200034BF21772C3F6D10225
:101A0000DA6080BDAFF300802D431CEBE2361A3F55
:101A10002DE9B0438AB000AFF860B9607A603B60EE
:101A2000F86808F0B5F904460D467B681846194673
:101A300008F01AFD0346184608F0AAF902460B46BC
:101A4000104619468AA3D3E9002308F0F5F90246A7
:101A50000B4690469946786C08F09AF902460B4678
:101A60004046494608F012FB02460B46104619460E
:101A700006F0DAF902460B462046294608F0DCF962
:101A800002460B461046194608F098FC03467B6256
:101A9000F86808F07DF904460D467B68184619463B
:101AA00008F0E2FC0346184608F072F902460B46BD
:101AB000104619466EA3D3E9002308F0BDF902468B
:101AC0000B4690469946786C08F062F902460B4640
:101AD0004046494608F0DAFA02460B4610461946D7
:101AE00006F0EEF902460B462046294608F0A4F916
:101AF00002460B461046194608F060FC03463B625E
:101B0000B86808F045F904460D463868396C08F0A5
:101B1000ABFC03461846194608F0A6FC03461846D7
:101B200008F036F902460B461046194650A3D3E991
:101B3000002308F081F902460B4690469946786CDE
:101B400008F026F902460B464046494608F09EFA40
:101B500002460B461046194606F066F902460B4649
:101B60002046294608F068F902460B4610461946F9
:101B700008F024FC0346FB61B86808F009F9044644
:101B80000D463868396C08F06FFC03461846194654
:101B900008F06AFC0346184608F0FAF802460B46BD
:101BA0001046194632A3D3E9002308F045F902464E
:101BB0000B4690469946786C08F0EAF802460B46C8
:101BC0004046494608F062FA02460B46104619465E
:101BD00006F076F902460B462046294608F02CF915
:101BE00002460B461046194608F0E8FB0346BB6167
:101BF000786AF96908F038FC03461C46786AF96986
:101C000008F032FC03462046194608F035FD03462D
:101C10001C46386AB96908F027FC03461D46386A35
:101C2000B96908F021FC03462846194608F024FD4E
:101C300003462046194608F017FC0346184608F0EC
:101C4000A7F802460B461046194606F085F90246EB
:101C50000B461046194608F0B1FB03467B617B69D1
:101C6000184607F12807BD46BDE8B083AFF30080F2
:101C7000182D4454FB2109402DE9B0438AB000AF30
:101C8000F860B9607A603B60F86808F081F8044653
:101C90000D467B681846194608F0E6FB03461846D1
:101CA00008F076F802460B461046194692A3D3E98F
:101CB000002308F0C1F802460B4690469946786C1E
:101CC00008F066F802460B464046494608F0DEF941
:101CD00002460B461046194606F0A6F802460B4689
:101CE0002046294608F0A8F802460B461046194639
:101CF00008F064FB03463B62F86808F049F80446C4
:101D00000D467B681846194608F0AEFB0346184698
:101D100008F03EF802460B461046194676A3D3E972
:101D2000002308F089F802460B4690469946786CE5
:101D300008F02EF802460B464046494608F0A6F940
:101D400002460B461046194606F0BAF802460B4604
:101D50002046294608F070F802460B461046194600
:101D600008F02CFB0346FB61B86808F011F8044644
:101D70000D463868396C08F077FB0346184619465B
:101D800008F072FB0346184608F002F802460B46BC
:101D90001046194658A3D3E9002308F04DF802462F
:101DA0000B4690469946786C07F0F2FF02460B46C8
:101DB0004046494608F06AF902460B461046194665
:101DC00006F032F802460B462046294608F034F861
:101DD00002460B461046194608F0F0FA0346BB616E
:101DE000B86807F0D5FF04460D463868396C08F02E
:101DF0003BFB03461846194608F036FB03461846D7
:101E000007F0C6FF02460B46104619463AA3D3E92F
:101E1000002308F011F802460B4690469946786C6C
:101E200007F0B6FF02460B464046494608F02EF939
:101E300002460B461046194606F042F802460B468B
:101E40002046294607F0F8FF02460B461046194681
:101E500008F0B4FA03467B61386AB96908F004FBFC
:101E6000034618464FF0000108F0C2FD0346002B60
:101E70004AD0F869796908F0F7FA034618464FF036
:101E8000000108F0B5FD0346002B3DD0F8697969E3
:101E900008F0EAFA03461C46386AB96908F0E4FA21
:101EA00003462046194608F09BFC0346184607F0F7
:101EB0006FFF02460B461046194605F001FE044628
:101EC0000D46786C07F064FF02460B462046294613
:101ED00007F0B2FF02460B461046194608A3D3E9A5
:101EE000002308F0D3F802460B461046194608F0C6
:101EF00065FA03467B62FFE0182D4454FB2109403C
:101F0000182D4454FB211940386AB96908F0ACFA1D
:101F1000034618464FF0000108F04CFD0346002B25
:101F20004ED0F869796908F09FFA034618464FF0D9
:101F3000000108F05DFD0346002B41D0F869796986
:101F400008F092FA03461C463B6A83F000431846A9
:101F5000B96908F087FA03462046194608F040FCA4
:101F60000346184607F014FF02460B461046194672
:101F700005F0A6FD02460B4663A1D1E9000107F07A
:101F8000A7FD02460B4614461D46786C07F000FF7D
:101F900002460B462046294607F04EFF02460B46F6
:101FA000104619465AA3D3E9002308F06FF80246F9
:101FB0000B461046194608F001FA03467B629BE087
:101FC000386AB96908F050FA034618464FF0000124
:101FD00008F0F0FC0346002B4DD0F869796908F051
:101FE00043FA034618464FF0000108F0E3FC0346AD
:101FF000002B40D0F869796908F036FA03461C4690
:10200000386AB96908F030FA03462046194608F0E4
:10201000E7FB0346184607F0BBFE02460B46104698
:10202000194605F04DFD02460B461046194636A3EB
:10203000D3E9002307F04EFD02460B4614461D4629
:10204000786C07F0A5FE02460B462046294607F0AD
:10205000F3FE02460B46104619462DA3D3E9002392
:1020600008F014F802460B461046194608F0A6F987
:1020700003467B6240E0FB6983F0004318467969C0
:1020800008F0F0F903461C46386AB96908F0ECF923
:1020900003462046194608F0A3FB0346184607F0FE
:1020A00077FE02460B461046194605F009FD02462A
:1020B0000B4617A1D1E9000107F00AFD02460B46C5
:1020C00014461D46786C07F063FE02460B46204618
:1020D000294607F0B1FE02460B46104619460CA3EE
:1020E000D3E9002307F0D2FF02460B4610461946FB
:1020F00008F064F903467B627B6A184607F12807FB
:10210000BD46BDE8B08300BF182D4454FB210940F3
:10211000182D4454FB2119402DE9B0438AB000AF7B
:10212000F860B9607A603B60F86807F031FE0446F9
:102130000D467B681846194608F096F9034618467E
:1021400007F026FE02460B461046194686A3D3E941
:10215000002307F071FE02460B4690469946386C04
:1021600007F016FE02460B464046494607F08EFF32
:1021700002460B461046194605F056FE02460B462F
:102180002046294607F058FE02460B4610461946DF
:1021900008F014F903467B62F86807F0F9FD04467D
:1021A0000D467B681846194608F05EF90346184646
:1021B00007F0EEFD02460B46104619466AA3D3E926
:1021C000002307F039FE02460B4690469946386CCC
:1021D00007F0DEFD02460B464046494607F056FF33
:1021E00002460B461046194605F06AFE02460B46AB
:1021F0002046294607F020FE02460B4610461946A7
:1022000008F0DCF803463B62B86807F0C1FD0446FD
:102210000D463B681846194608F026F9034618464D
:1022200007F0B6FD02460B46104619464EA3D3E909
:10223000002307F001FE02460B4690469946386C93
:1022400007F0A6FD02460B464046494607F01EFF32
:1022500002460B461046194605F0E6FD02460B46BF
:102260002046294607F0E8FD02460B46104619466F
:1022700008F0A4F80346FB61B86807F089FD04463E
:102280000D463B681846194608F0EEF80346184616
:1022900007F07EFD02460B461046194632A3D3E9ED
:1022A000002307F0C9FD02460B4690469946386C5C
:1022B00007F06EFD02460B464046494607F0E6FE33
:1022C00002460B461046194605F0FAFD02460B463B
:1022D0002046294607F0B0FD02460B461046194637
:1022E00008F06CF80346BB61786AF96908F0BCF83D
:1022F00003461C46786AF96908F0B6F8034620469A
:10230000194608F0B9F903461C46386AB96908F05D
:10231000ABF803461D46386AB96908F0A5F80346CC
:102320002846194608F0A8F903462046194608F041
:102330009BF80346184607F02BFD02460B46104655
:10234000194605F009FE02460B461046194608F0EC
:1023500035F803467B617B69184607F12807BD46BF
:10236000BDE8B083AFF30080182D4454FB21094031
:102370002DE9B0438AB000AFF860B9607A603B6085
:10238000F86807F005FD04460D467B6818461946B7
:1023900008F06AF80346184607F0FAFC02460B46B6
:1023A000104619468EA3D3E9002307F045FD0246E7
:1023B0000B4690469946386C07F0EAFC02460B46FD
:1023C0004046494607F062FE02460B461046194653
:1023D00005F02AFD02460B462046294607F02CFD53
:1023E00002460B461046194607F0E8FF03463B62DB
:1023F000F86807F0CDFC04460D467B681846194680
:1024000008F032F80346184607F0C2FC02460B46B5
:102410001046194672A3D3E9002307F00DFD0246CA
:102420000B4690469946386C07F0B2FC02460B46C4
:102430004046494607F02AFE02460B46104619461A
:1024400005F03EFD02460B462046294607F0F4FC07
:1024500002460B461046194607F0B0FF0346FB61E3
:10246000B86807F095FC04460D463B6818461946C7
:1024700007F0FAFF0346184607F08AFC02460B46AF
:102480001046194656A3D3E9002307F0D5FC0246AF
:102490000B4690469946386C07F07AFC02460B468C
:1024A0004046494607F0F2FD02460B4610461946E3
:1024B00005F0BAFC02460B462046294607F0BCFC54
:1024C00002460B461046194607F078FF0346BB61EB
:1024D000B86807F05DFC04460D463B68184619468F
:1024E00007F0C2FF0346184607F052FC02460B46AF
:1024F000104619463AA3D3E9002307F09DFC024693
:102500000B4690469946386C07F042FC02460B4653
:102510004046494607F0BAFD02460B4610461946AA
:1025200005F0CEFC02460B462046294607F084FC07
:1025300002460B461046194607F040FF03467B61F2
:10254000386AB96907F090FF034618464FF000015A
:1025500008F04EFA0346002B4AD0F869796907F073
:1025600083FF034618464FF0000108F041FA034686
:10257000002B3DD0F869796907F076FF03461C46C9
:10258000386AB96907F070FF03462046194608F01B
:1025900027F90346184607F0FBFB02460B46104698
:1025A000194605F08DFA04460D46386C07F0F0FB2D
:1025B00002460B462046294607F03EFC02460B46E3
:1025C0001046194608A3D3E9002307F05FFD024631
:1025D0000B461046194607F0F1FE03467B62FFE00A
:1025E000182D4454FB210940182D4454FB21194057
:1025F000386AB96907F038FF034618464FF0000102
:1026000008F0D8F90346002B4ED0F869796907F035
:102610002BFF034618464FF0000108F0E9F9034686
:10262000002B41D0F869796907F01EFF03461C466C
:102630003B6A83F000431846B96907F013FF03466D
:102640002046194608F0CCF80346184607F0A0FBD0
:1026500002460B461046194605F032FA02460B4672
:1026600063A1D1E9000107F033FA02460B46144694
:102670001D46386C07F08CFB02460B462046294667
:1026800007F0DAFB02460B46104619465AA3D3E977
:10269000002307F0FBFC02460B461046194607F0E4
:1026A0008DFE03467B629BE0386AB96907F0DCFE69
:1026B000034618464FF0000108F07CF90346002B52
:1026C0004DD0F869796907F0CFFE034618464FF000
:1026D000000108F06FF90346002B40D0F8697969D2
:1026E00007F0C2FE03461C46386AB96907F0BCFE13
:1026F00003462046194608F073F80346184607F0CB
:1027000047FB02460B461046194605F0D9F902462A
:102710000B461046194636A3D3E9002307F0DAF931
:1027200002460B4614461D46386C07F031FB024644
:102730000B462046294607F07FFB02460B46104613
:1027400019462DA3D3E9002307F0A0FC02460B464F
:102750001046194607F032FE03467B6240E0FB69F3
:1027600083F000431846796907F07CFE03461C4657
:10277000386AB96907F078FE03462046194608F022
:102780002FF80346184607F003FB02460B46104697
:10279000194605F095F902460B4617A1D1E900014B
:1027A00007F096F902460B4614461D46386C07F0B2
:1027B000EFFA02460B462046294607F03DFB02464B
:1027C0000B46104619460CA3D3E9002307F05EFC24
:1027D00002460B461046194607F0F0FD03467B62A1
:1027E0007B6A184607F12807BD46BDE8B08300BFE5
:1027F000182D4454FB210940182D4454FB21194045
:1028000080B500AF40F21803C2F200031A6841F22B
:102810005973CDF2B713A3FB02134FEA5333184693
:10282000FEF700F980BD00BF2DE9F04383B002AF91
:1028300040F26043C2F200031B7803F10103DAB2F5
:1028400040F26043C2F200031A7003F0F7FAFEF799
:1028500041F840F26043C2F200031B78092B40F2BA
:10286000E18340F26043C2F200034FF000021A70AD
:1028700042F64063C2F200034FF001021A7040F2C8
:102880000003C2F200031B7803F10103DAB240F245
:102890000003C2F200031A7040F20103C2F2000307
:1028A0001B7803F10103DAB240F20103C2F2000324
:1028B0001A7040F20203C2F200031B7803F1010315
:1028C000DAB240F20203C2F200031A7040F20403CB
:1028D000C2F200031B8803F101039AB240F2040321
:1028E000C2F200031A8040F26243C2F200031B8866
:1028F00003F101039AB240F26243C2F200031A806C
:1029000040F20003C2F200031B78092B40F28081E1
:1029100040F20003C2F200034FF000021A7042F6C8
:102920004063C2F200034FF001025A7040F61053A8
:10293000C2F200031B68184607F046FE804640F6C8
:102940001053C2F200035B68184607F03DFE0646CE
:1029500040F2B843C2F200035B899BB2184607F00D
:1029600033FE054640F2B843C2F200039B899BB296
:10297000184607F029FE044642F6C863C2F2000377
:10298000DB68184607F020FE814642F6C863C2F2B3
:1029900000039B68184607F017FE0346CDF8009029
:1029A0000193404631462A462346FFF731F8024656
:1029B00040F2B843C2F200035A6340F61053C2F229
:1029C00000031B68184607F0FFFD804640F61053D1
:1029D000C2F200035B68184607F0F6FD064640F2B7
:1029E000B843C2F200035B899BB2184607F0ECFDC6
:1029F000054640F2B843C2F200039B899BB21846D9
:102A000007F0E2FD044642F6C863C2F20003DB6849
:102A1000184607F0D9FD814642F6C863C2F20003AA
:102A20009B68184607F0D0FD0346CDF8009001934F
:102A3000404631462A462346FFF71EF9024640F239
:102A4000B843C2F200039A6340F61053C2F2000387
:102A50009B68184607F0B8FD804640F61053C2F256
:102A60000003DB68184607F0AFFD064640F2B843A6
:102A7000C2F20003DB899BB2184607F0A5FD0546AC
:102A800040F2B843C2F200031B8A9BB2184607F01B
:102A90009BFD044642F6C863C2F20003DB68184699
:102AA00007F092FD814642F6C863C2F200039B68BC
:102AB000184607F089FD0346CDF800900193404683
:102AC00031462A462346FEF7A3FF024640F2B843AA
:102AD000C2F20003DA6340F61053C2F200039B68AF
:102AE000184607F071FD804640F61053C2F200030D
:102AF000DB68184607F068FD064640F2B843C2F2AC
:102B00000003DB899BB2184607F05EFD054640F2E4
:102B1000B843C2F200031B8A9BB2184607F054FD6B
:102B2000044642F6C863C2F20003DB68184607F0A9
:102B30004BFD814642F6C863C2F200039B6818460B
:102B400007F042FD0346CDF8009001934046314620
:102B50002A462346FFF790F8024640F2B843C2F2F5
:102B600000031A6440F2B843C2F20003D3F8348081
:102B700040F2B843C2F20003DE6B40F2B843C2F247
:102B800000039D6B40F2B843C2F200031C6C42F696
:102B9000C863C2F200039B68184607F015FD0346A0
:102BA0000093404631462A462346FFF7B5FA0246CF
:102BB00040F2B843C2F200035A6440F2B843C2F292
:102BC0000003D3F8348040F2B843C2F20003DE6B56
:102BD00040F2B843C2F200039D6B40F2B843C2F228
:102BE00000031C6C42F6C863C2F200039B681846DF
:102BF00007F0EAFC03460093404631462A46234646
:102C0000FFF7B6FB024640F2B843C2F200039A64F3
:102C100040F20103C2F200031B78632B40F2A5814E
:102C200040F20103C2F200034FF000021A7042F6B4
:102C30004063C2F200034FF001029A7042F6C8638B
:102C4000C2F200031B78DBB2042B40F0388142F65D
:102C5000C863C2F200039B68184607F0B5FC034640
:102C600018464FF00001C4F2B43107F0B9FD034635
:102C700018464FF00001C4F2F02107F0FDFC0346B6
:102C80001A4640F26443C2F200031A6040F2644301
:102C9000C2F200031A6840F2B843C2F200039B6C10
:102CA0001046194607F0DEFB03461A4640F2684319
:102CB000C2F200031A6040F63053C2F200035A68B1
:102CC00040F26843C2F200031B681046194607F041
:102CD000D3FC03461A4640F26C43C2F200031A606A
:102CE00040F63053C2F200031C6840F26843C2F25F
:102CF00000031A6840F27043C2F200031B681046DA
:102D0000194607F0AFFB03462046194607F0B4FC0E
:102D100003461A4640F26C43C2F200031B68104699
:102D2000194607F0A1FB03461A4640F26C43C2F273
:102D300000031A6040F26C43C2F200031A6840F2CA
:102D40007443C2F200031B681046194607F08CFB5F
:102D500003461A4640F26C43C2F200031A6040F286
:102D60006C43C2F200031B681846FEF7B3FA40F248
:102D70006C43C2F200031A6840F27443C2F20003CB
:102D80001A6040F26843C2F200031A6840F27043CE
:102D9000C2F200031A6040F27843C2F200034FF01F
:102DA0000002C4F22F421A6040F27843C2F20003DC
:102DB0001A6840F2B843C2F200035B6C1046194631
:102DC00007F050FB03461A4640F27C43C2F2000370
:102DD0001A6040F63053C2F20003DA6840F27C43D6
:102DE000C2F200031B681046194607F045FC034673
:102DF0001A4640F28043C2F200031A6040F6305394
:102E0000C2F200039C6840F27C43C2F200031A68DD
:102E100040F28443C2F200031B681046194607F0D3
:102E200021FB03462046194607F026FC03461A46B6
:102E300040F28043C2F200031B681046194607F0B7
:102E400013FB03461A4640F28043C2F200031A60A5
:102E500040F28043C2F200031A6840F28843C2F293
:102E600000031B681046194607F0FEFA03461A468F
:102E700040F28043C2F200031A6040F28043C2F283
:102E800000031B68184607F0E3FD03469BB2184693
:102E9000FEF79AFA40F28043C2F200031A6840F249
:102EA0008843C2F200031A6040F27C43C2F200037E
:102EB0001A6840F28443C2F200031A6055E042F6F9
:102EC000C863C2F200031B78DBB2032B4DD142F67C
:102ED000C863C2F200039B6803F1020242F2E003FE
:102EE000C0F6E433B3FBF2F3184607F06DFB02467D
:102EF00040F27443C2F200031A6042F6C863C2F2A1
:102F00000003DB68184607F05FFB024640F2884387
:102F1000C2F200031A6040F27043C2F200034FF0A5
:102F200000021A6040F28443C2F200034FF0000234
:102F30001A6040F26C43C2F200034FF000021A60C4
:102F400040F28043C2F200034FF000021A6040F2E8
:102F50006843C2F200034FF000021A6040F27C4363
:102F6000C2F200034FF000021A6040F20203C2F204
:102F700000031B78C72B0DD940F20203C2F20003F5
:102F80004FF000021A7042F64063C2F200034FF0A5
:102F90000102DA7040F20403C2F200031A8840F220
:102FA000E7339A4227D940F64853C2F2000303F5AB
:102FB000035303F130031A6840F64853C2F200038A
:102FC000C3F8A02040F64853C2F2000303F50353B0
:102FD00003F130034FF000021A6040F20403C2F222
:102FE00000034FF000021A8042F64063C2F2000371
:102FF0004FF001021A7140F26243C2F200031A88D4
:1030000042F20F739A420DD940F26243C2F20003BA
:103010004FF000021A8042F64063C2F200034FF004
:1030200001025A7107F10407BD46BDE8F08300BFF5
:1030300080B58AB000AF786039604FF000037B62E2
:103040004FF000033B624FF00003FB614FF00003C1
:10305000BB617B681B8A9BB27B627B6A23F4405313
:103060007B623B68DB887A6A13437B627B6A9AB235
:103070007B681A827B689B899BB27B627B6A23F4A4
:10308000B05323F00C037B623B689A883B681B8932
:1030900013439AB23B685B8913439BB27A6A13432A
:1030A0007B627B6A9AB27B689A817B689B8A9BB2BF
:1030B0007B627B6A23F440737B623B689B897A6AFC
:1030C00013437B627B6A9AB27B689A8207F108039A
:1030D000184600F053FF7A684FF48053C4F201039E
:1030E0009A4206D07A684FF4A053C4F201039A4280
:1030F00002D17B693B6201E03B693B627B689B8953
:103100009BB29BB21BB2002B0FDA3A6A13464FEA0E
:1031100083039B184FEA83029A183B681B684FEAA7
:103120004303B2FBF3F3FB610EE03A6A13464FEA46
:1031300083039B184FEA83029A183B681B684FEA87
:103140008303B2FBF3F3FB61FA6948F21F53C5F244
:10315000EB13A3FB02134FEA53134FEA03137B62F3
:103160007B6A4FEA13134FF0640202FB03F3FA6920
:10317000D31ABB617B689B899BB29BB21BB2002BAD
:1031800012DABB694FEAC30303F1320248F21F535C
:10319000C5F2EB13A3FB02134FEA531303F007032B
:1031A0007A6A13437B6211E0BB694FEA031303F1B0
:1031B000320248F21F53C5F2EB13A3FB02134FEA8E
:1031C000531303F00F037A6A13437B627B6A9AB24C
:1031D0007B681A8107F12807BD4680BD80B483B0A3
:1031E00000AF78600B46FB70FB78002B08D07B6843
:1031F0009B899BB243F400539AB27B689A8107E0A3
:103200007B689B899BB223F400539AB27B689A81B6
:1032100007F10C07BD4680BC704700BF80B483B087
:1032200000AF78600B467B807B884FEAC3534FEA40
:10323000D3539AB27B689A8007F10C07BD4680BCD5
:10324000704700BF80B487B000AF786013460A466D
:103250007A807B704FF000033B614FF00003FB600E
:103260004FF00003BB604FF000037B617B687B6124
:103270007B88DBB24FEA5313DBB23B617B8803F000
:103280001F03FB60FB684FF0010202FA03F3BB600F
:103290003B69012B04D17B6903F10C037B610BE0DB
:1032A0003B69022B04D17B6903F110037B6103E0CE
:1032B0007B6903F114037B617B78002B06D07B696B
:1032C0007A691168BA680A431A6007E07B697A690B
:1032D0001168BA686FEA02020A401A6007F11C0717
:1032E000BD4680BC704700BF80B487B000AF786037
:1032F0000B467B804FF00003FB604FF000037B61C7
:103300004FF00003BB604FF00003FB747B88DBB21F
:103310004FEA5313DBB2BB607B8803F01F037B6172
:103320007B694FF0010202FA03F37B61BB68012B5A
:1033300006D17B689B899BB27A6913407B610FE061
:10334000BB68022B06D17B681B8A9BB27A6913404B
:103350007B6105E07B689B8A9BB27A6913407B6145
:103360007B884FEA13239BB2FB60FB684FF001029E
:1033700002FA03F3FB607B681B889BB2FA68134078
:10338000FB607B69002B06D0FB68002B03D04FF05D
:103390000103FB7402E04FF00003FB74FB7C184652
:1033A00007F11C07BD4680BC704700BF80B500AF69
:1033B0004FF01F00C0F240004FF0010100F0C4FECA
:1033C0004FF40040C2F202004FF0010100F0E6FEAF
:1033D00040F213504FF0010100F00AFF80BD00BF22
:1033E00080B582B000AF4FF000604FF0000102F0F6
:1033F000A7F94FF4E06002F01DF94FF026033B718E
:103400004FF000037B714FF00703BB714FF00103D6
:10341000FB7107F10403184602F020F94FF0250371
:103420003B714FF000037B714FF00603BB714FF00F
:103430000103FB7107F10403184602F00FF94FF086
:1034400038033B714FF000037B714FF00003BB71F9
:103450004FF00103FB7107F10403184602F0FEF878
:1034600007F10807BD4680BD80B582B000AF4AF6BF
:10347000C443C0F600037B6040F20003C2F20003C5
:103480003B600BE07B681A683B681A603B6803F19D
:1034900004033B607B6803F104037B603A6840F2FD
:1034A0005C43C2F200039A42ECD3094809494FF049
:1034B00000028842B8BF40F8042BFFF6FAAF01F0D3
:1034C000E5FB00F00DF807F10807BD4680BD0000E0
:1034D0005C040020E836002080B400AFFEE700BFA7
:1034E00080B500AFFFF762FFFFF77AFF01F0CAF87F
:1034F000FFF786F901F0B6FDFDF7C6FAFCF744FECA
:1035000003F09AFF03F0F6FF02F030F900E000BF8D
:1035100000F034F802F0B6F942F64063C2F200035C
:103520001B79DBB2002B06D042F64063C2F20003E7
:103530004FF000021A7142F64063C2F200039B781A
:10354000DBB2002B06D042F64063C2F200034FF01C
:1035500000029A7042F64063C2F200035B78DBB26D
:10356000002BD4D042F64063C2F200034FF00002B9
:103570005A7002F01DF9FDF777FCC8E780B582B0FC
:1035800000AF04F043F80346002B00F0558304F02D
:1035900091F80346FB7140F29443C2F200031B789A
:1035A000002B40F03982FB79A3F12B034F2B00F263
:1035B0002C8201A252F823F0F9360008CB3700081C
:1035C00023370008A13700080B3A0008BD3900086E
:1035D0000B3A00080B3A00080B3A00080B3A0008B7
:1035E0000B3A00080B3A0008B7390008B139000857
:1035F000C33900080B3A00080B3A00081F380008CE
:103600000B3A0008F53700080B3A00080B3A00089F
:10361000493800084F3800080B3A00089D38000868
:103620006D3800080B3A00080B3A00080B3A000806
:10363000553800080B3A00080B3A00080B3A00080E
:103640000B3A00080B3A00080B3A00080B3A000846
:10365000E9390008BB3800080B3A00080B3A0008AB
:103660000B3A00080B3A0008F93900080B3A000839
:103670000B3A00080B3A00084B3900080B3A0008D7
:10368000093900080B3A00080B3A00080B3A000809
:103690002F3C00080B3A0008AB39000877370008C8
:1036A0000B3A00080B3A00080B3A00080B3A0008E6
:1036B0004D3700080B3A00080B3A00089339000810
:1036C0008D3900080B3A00080B3A00080B3A000845
:1036D000C9390008EB3800080B3A00080B3A00081B
:1036E0000B3A0008A5390008D939000899390008B3
:1036F0000B3A00089F39000840F64453C2F2000319
:103700001B78DBB2002B04D14FF00100FDF752FA19
:1037100092E240F64453C2F200034FF02B02DA70FB
:103720008AE240F64453C2F200031B78DBB2002B5E
:1037300004D14FF00100FDF78FFA7DE240F64453CB
:10374000C2F200034FF02D02DA7075E240F64453E6
:10375000C2F200031B78DBB2002B04D14FF00A0049
:10376000FDF728FA68E240F64453C2F200034FF036
:103770006902DA7060E240F64453C2F200031B783B
:10378000DBB2002B04D14FF00A00FDF765FA53E2DB
:1037900040F64453C2F200034FF06402DA704BE289
:1037A00040F64453C2F200031B78DBB2002B04D175
:1037B0004FF00100FDF7A2FA3EE240F64453C2F298
:1037C00000034FF02E02DA7036E240F64453C2F2A4
:1037D00000031B78DBB2002B04D14FF00100FDF792
:1037E000E1FA29E240F64453C2F200034FF02C0202
:1037F000DA7021E240F64453C2F200031B78DBB2D8
:10380000002B04D14FF00A00FDF778FA14E240F6DD
:103810004453C2F200034FF03E02DA700CE240F66D
:103820004453C2F200031B78DBB2002B04D14FF0EB
:103830000A00FDF7B7FAFFE140F64453C2F2000375
:103840004FF03C02DA70F7E100F0FAF9F4E100F031
:10385000D9FAF1E140F64853C2F2000303F50353ED
:1038600003F128034FF001021A70E5E140F64453DA
:10387000C2F200031B78DBB2012B07D140F64453A0
:10388000C2F200034FF04502DA70D5E142F6C86398
:10389000C2F200034FF065025A70CDE142F6C863F0
:1038A000C2F200034FF064025A7040F64453C2F271
:1038B00000034FF04402DA70BEE140F64453C2F216
:1038C00000031B78DBB2012B07D140F64453C2F250
:1038D00000034FF05202DA70AEE142F6C863C2F262
:1038E00000034FF045025A70A6E142F6C863C2F2E7
:1038F00000034FF072025A7040F64453C2F20003C4
:103900004FF07202DA7097E140F64853C2F20003BA
:10391000D3F89C30002B40F08C8140F64853C2F223
:103920000003D3F84031002B40F0838140F644532C
:10393000C2F200034FF000021A7040F64453C2F284
:1039400000034FF06D02DA7073E140F64853C2F2A3
:103950000003D3F89C30002B40F06D8140F64853B3
:10396000C2F20003D3F84031002B40F0648140F6EE
:103970004453C2F200034FF001021A7040F6445360
:10398000C2F200034FF07302DA7054E1FDF776FDE6
:1039900052E1FDF7B1FD4FE1FDF7FAFD4CE1FDF716
:1039A00037FE49E1FDF784FE46E1FDF7C1FE43E144
:1039B000FDF70EFF40E1FDF74BFF3DE1FDF798FFFE
:1039C0003AE1FDF7D5FF37E140F29443C2F200033C
:1039D0004FF071021A702FE140F29443C2F20003DB
:1039E0004FF077021A7027E140F29443C2F20003CD
:1039F0004FF051021A701FE140F29443C2F20003EB
:103A00004FF057021A7000BF16E142F6C863C2F2C7
:103A10000003FA795A700FE1FB792F2B22D9FB7939
:103A2000392B1FD840F29843C2F200031A6813469C
:103A30004FEA83039B184FEA43031A4640F2984328
:103A4000C2F200031A60FA7940F29843C2F200030E
:103A50001B68D318A3F1300240F29843C2F200036E
:103A60001A60E9E0FB79582B40F0E68040F294437D
:103A7000C2F200031B78A3F15103262B00F2CE8083
:103A800001A252F823F000BFA13B00081D3C000832
:103A90001D3C00081D3C00081D3C00081D3C0008A2
:103AA000DF3B00081D3C00081D3C00081D3C0008D1
:103AB0001D3C00081D3C00081D3C00081D3C000882
:103AC0001D3C00081D3C00081D3C00081D3C000872
:103AD0001D3C00081D3C00081D3C00081D3C000862
:103AE0001D3C00081D3C00081D3C00081D3C000852
:103AF0001D3C00081D3C00081D3C00081D3C000842
:103B00001D3C00081D3C0008253B00081D3C00082A
:103B10001D3C00081D3C00081D3C00081D3C000821
:103B2000633B000840F29843C2F200031B6818464A
:103B300006F04AFD034618464FF48041C4F21C616A
:103B400006F04EFE03461A4640F63053C2F200031A
:103B50001A6040F29843C2F200034FF000021A606C
:103B60005DE040F29843C2F200031B68184606F07D
:103B70002BFD034618464FF48041C4F21C6106F049
:103B80002FFE03461A4640F63053C2F200035A6035
:103B900040F29843C2F200034FF000021A603EE088
:103BA00040F29843C2F200031B68184606F00CFD71
:103BB000034618464FF48041C4F21C6106F010FE23
:103BC00003461A4640F63053C2F200039A6040F2B0
:103BD0009843C2F200034FF000021A601FE040F267
:103BE0009843C2F200031B68184606F0EDFC03463A
:103BF00018464FF48041C4F21C6106F0F1FD034603
:103C00001A4640F63053C2F20003DA6040F298439D
:103C1000C2F200034FF000021A6000E000BF40F261
:103C20009443C2F200034FF000021A7004E000BF98
:103C300002E000BF00E000BF07F10807BD4680BDFD
:103C400080B584B000AF4FF000037B6003F008F84C
:103C500040F64853C2F20003D3F89C2040F6445388
:103C6000C2F200031B78DBB24FEAC373D21840F6EE
:103C70004853C2F20003C3F89C2040F64853C2F2F6
:103C80000003BB604FF00003FB6049E040F20453C7
:103C9000C2F200031B889BB21946BB681A7840F237
:103CA0000453C2F200035B181A73BB681B781A46F0
:103CB0007B68D3187B60BB6803F10103BB6040F2F3
:103CC0000453C2F200039B889BB203F101039AB232
:103CD00040F20453C2F200039A8040F20453C2F24D
:103CE00000031B889BB203F101039AB240F2045314
:103CF000C2F200031A8040F20453C2F200031B8890
:103D00009AB240F2FF339A4206D940F20453C2F20B
:103D100000034FF000021A80FB6803F10103FB600F
:103D2000FA6840F2A3139A42B0D940F64853C2F25F
:103D30000003D3F89C30DAB240F64853C2F20003D5
:103D4000C3F89C2002F0D0FD07F10403BB604FF0E4
:103D50000003FB6043E040F20453C2F200031B88FF
:103D60009BB21946BB681A7840F20453C2F20003B2
:103D70005B181A73BB6803F10103BB6040F2045384
:103D8000C2F200039B889BB203F101039AB240F296
:103D90000453C2F200039A8040F20453C2F20003BB
:103DA0001B889BB203F101039AB240F20453C2F2A2
:103DB00000031A8040F20453C2F200031B889AB237
:103DC00040F2FF339A4206D940F20453C2F2000394
:103DD0004FF000021A80FB6803F10103FB60FB68EF
:103DE000032BB8D903F0E6FB4FF48840C4F200007F
:103DF00040F227714FF00102FFF724FA07F1100794
:103E0000BD4680BD80B584B000AF4FF000037B603D
:103E1000594BBB604FF00003FB6049E040F2045394
:103E2000C2F200031B889BB21946BB681A7840F2A5
:103E30000453C2F200035B181A73BB681B781A465E
:103E40007B68D3187B60BB6803F10103BB6040F261
:103E50000453C2F200039B889BB203F101039AB2A0
:103E600040F20453C2F200039A8040F20453C2F2BB
:103E700000031B889BB203F101039AB240F2045382
:103E8000C2F200031A8040F20453C2F200031B88FE
:103E90009AB240F2FF339A4206D940F20453C2F27A
:103EA00000034FF000021A80FB6803F10103FB607E
:103EB000FA6841F63F739A42B0D907F10403BB6038
:103EC0004FF00003FB6043E040F20453C2F20003F2
:103ED0001B889BB21946BB681A7840F20453C2F2A1
:103EE00000035B181A73BB6803F10103BB6040F267
:103EF0000453C2F200039B889BB203F101039AB200
:103F000040F20453C2F200039A8040F20453C2F21A
:103F100000031B889BB203F101039AB240F20453E1
:103F2000C2F200031A8040F20453C2F200031B885D
:103F30009AB240F2FF339A4206D940F20453C2F2D9
:103F400000034FF000021A80FB6803F10103FB60DD
:103F5000FB68032BB8D903F02DFB4FF48840C4F263
:103F6000000040F227714FF00102FFF76BF907F1F3
:103F70001007BD4680BD00BFEC0E002080B489B0A4
:103F800000AF78604FF00003BB614FF000037B612E
:103F90004FF00003FB614FF002033B614FF0000361
:103FA000FB604FF00203BB604FF46053C4F20203A6
:103FB0009B6803F00C03BB61BB69042B0AD0082B80
:103FC0000FD0002B60D17A684FF41053C0F2F40385
:103FD000136060E07A684FF49053C0F27A03136084
:103FE00059E04FF46053C4F202035B6803F48003AA
:103FF0004FEA9353FB604FF46053C4F202035B68D3
:1040000003F03F03BB60FB68002B14D04FF49053C8
:10401000C0F27A03BA68B3FBF2F24FF46053C4F211
:104020000203596847F6C0730B404FEA931303FB32
:1040300002F3FB6113E04FF41053C0F2F403BA68CB
:10404000B3FBF2F24FF46053C4F20203596847F62F
:10405000C0730B404FEA931303FB02F3FB614FF471
:104060006053C4F202035B6803F440334FEA134326
:1040700003F101034FEA43033B61FA693B69B2FB79
:10408000F3F27B681A6006E07A684FF41053C0F2CE
:10409000F403136000BF4FF46053C4F202039B6843
:1040A00003F0F003BB61BB694FEA1313BB6140F23D
:1040B0000803C2F20003BA699B181B78DBB27B616C
:1040C0007B681A687B6922FA03F27B685A604FF4B6
:1040D0006053C4F202039B6803F4E053BB61BB6905
:1040E0004FEA9323BB6140F20803C2F20003BA69AE
:1040F0009B181B78DBB27B617B685A687B6922FA6C
:1041000003F27B689A604FF46053C4F202039B6829
:1041100003F46043BB61BB694FEA5333BB6140F2B8
:104120000803C2F20003BA699B181B78DBB27B61FB
:104130007B685A687B6922FA03F27B68DA6007F1D0
:104140002407BD4680BC704780B483B000AF786060
:104150000B46FB70FB78002B0CD04FF46053C4F27D
:1041600002034FF46052C4F20202116B7A680A43F0
:104170001A630DE04FF46053C4F202034FF460522F
:10418000C4F20202116B7A686FEA02020A401A63F3
:1041900007F10C07BD4680BC704700BF80B483B0F8
:1041A00000AF78600B46FB70FB78002B0CD04FF40F
:1041B0006053C4F202034FF46052C4F20202116C65
:1041C0007A680A431A640DE04FF46053C4F20203A4
:1041D0004FF46052C4F20202116C7A686FEA020274
:1041E0000A401A6407F10C07BD4680BC704700BF47
:1041F00080B483B000AF78600B46FB70FB78002B77
:104200000CD04FF46053C4F202034FF46052C4F276
:104210000202516C7A680A435A640DE04FF460530D
:10422000C4F202034FF46052C4F20202516C7A6885
:104230006FEA02020A405A6407F10C07BD4680BCCF
:10424000704700BF80B483B000AF78600B46FB704E
:10425000FB78002B0CD04FF46053C4F202034FF4F0
:104260006052C4F20202116A7A680A431A620DE0CF
:104270004FF46053C4F202034FF46052C4F20202DE
:10428000116A7A686FEA02020A401A6207F10C07A3
:10429000BD4680BC704700BF80B483B000AF78607B
:1042A0000B46FB70FB78002B0CD04FF46053C4F22C
:1042B00002034FF46052C4F20202516A7A680A4360
:1042C0005A620DE04FF46053C4F202034FF460529F
:1042D000C4F20202516A7A686FEA02020A405A6224
:1042E00007F10C07BD4680BC704700BF80B485B0A5
:1042F00000AF786039604FF00003FB604FF00003BF
:10430000FB727B685B68FB60FB6823F0407323F4FF
:104310008073FB603B681B794FEA03223B681B6894
:104320001343FA681343FB607B68FA685A607B6842
:104330009B68FB60FA684FF2FD73CCF2FF031340F9
:10434000FB603B681A693B68DB681A433B689B6803
:104350001A433B685B794FEA43031343FA681343FC
:10436000FB607B68FA689A607B68DB6AFB60FB68CD
:1043700023F47003FB603B681B7D03F1FF33DAB26B
:10438000FB7A1343FB72FB7A4FEA0353FA68134339
:10439000FB607B68FA68DA6207F11407BD4680BCEF
:1043A000704700BF80B485B000AF78604FF0000365
:1043B000FB604FF40C53C4F201035B68FB60FA68C6
:1043C00043F2E003CFF6FC731340FB607B681A688E
:1043D0007B685B681A437B689B681A437B68DB6871
:1043E0001343FA681343FB604FF40C53C4F2010308
:1043F000FA685A6007F11407BD4680BC704700BFD9
:1044000080B483B000AF78600B46FB70FB78002B64
:1044100006D07B689B6843F001027B689A6005E0E8
:104420007B689B6823F001027B689A6007F10C07A8
:10443000BD4680BC704700BF80B485B000AF7860D7
:10444000F970BA707B704FF00003FB604FF000030F
:10445000BB60FB78092B27D97B68DB68FB60FA78A7
:1044600013464FEA43039B18A3F11E034FF00702C4
:1044700002FA03F3BB60BB686FEA0303FA681340F8
:10448000FB607978FA7813464FEA43039B18A3F14F
:104490001E0301FA03F3BB60FA68BB681343FB60B9
:1044A0007B68FA68DA6022E07B681B69FB60FA7857
:1044B00013464FEA43039B184FF0070202FA03F337
:1044C000BB60BB686FEA0303FA681340FB6079784E
:1044D000FA7813464FEA43039B1801FA03F3BB60D3
:1044E000FA68BB681343FB607B68FA681A61BB78A3
:1044F000062B27D87B685B6BFB60BB7803F1FF3230
:1045000013464FEA83039B184FF01F0202FA03F38E
:10451000BB60BB686FEA0303FA681340FB60F9787D
:10452000BB7803F1FF3213464FEA83039B1801FA6D
:1045300003F3BB60FA68BB681343FB607B68FA68EF
:104540005A6351E0BB780C2B27D87B681B6BFB6050
:10455000BA7813464FEA83039B18A3F123034FF065
:104560001F0202FA03F3BB60BB686FEA0303FA6839
:104570001340FB60F978BA7813464FEA83039B181F
:10458000A3F1230301FA03F3BB60FA68BB6813438A
:10459000FB607B68FA681A6326E07B68DB6AFB6075
:1045A000BA7813464FEA83039B18A3F141034FF0F7
:1045B0001F0202FA03F3BB60BB686FEA0303FA68E9
:1045C0001340FB60F978BA7813464FEA83039B18CF
:1045D000A3F1410301FA03F3BB60FA68BB6813431C
:1045E000FB607B68FA68DA6207F11407BD4680BC9D
:1045F000704700BF80B483B000AF78607B689B6871
:1046000043F080427B689A6007F10C07BD4680BC8E
:10461000704700BF80B483B000AF78600B46FB707A
:10462000FB78002B06D07B689B6843F480727B6824
:104630009A6005E07B689B6823F480727B689A60CF
:1046400007F10C07BD4680BC704700BF80B483B043
:1046500000AF78600B46FB70FB78002B06D07B68C0
:104660009B6843F400727B689A6005E07B689B68F6
:1046700023F400727B689A6007F10C07BD4680BC8A
:10468000704700BF80B582B000AF4FF48050C4F2D5
:1046900002004FF008014FF0010200F0A3FA4FF4BE
:1046A0008050C4F202004FF009014FF0010200F007
:1046B00099FA4FF40060C4F202004FF008014FF085
:1046C000030200F08FFA4FF440733B604FF0020397
:1046D0003B714FF003037B714FF00003BB714FF050
:1046E0000003FB713B464FF48050C4F202001946B0
:1046F00000F09CF94FF480733B604FF002033B7174
:104700004FF003037B714FF00003BB714FF00003C8
:10471000FB713B464FF40060C4F20200194600F002
:1047200085F94FF040033B604FF001033B714FF0C0
:104730000003BB714FF003037B714FF00003FB716B
:104740003B464FF44060C4F20200194600F06EF997
:104750004FF080033B604FF000033B714FF00303C9
:104760007B714FF00003FB713B464FF44060C4F295
:104770000200194600F05AF94FF00000C4F202009E
:104780004FF009014FF0070200F02CFA4FF0000043
:10479000C4F202004FF00A014FF0070200F022FAC3
:1047A0004FF400733B604FF00003BB714FF0010307
:1047B000FB714FF002033B714FF003037B713B46EB
:1047C0004FF00000C4F20200194600F02FF94FF438
:1047D00080633B604FF00003BB714FF00103FB713E
:1047E0004FF002033B714FF003037B713B464FF0E8
:1047F0000000C4F20200194600F018F94FF0000062
:10480000C4F202004FF002014FF0070200F0EAF993
:104810004FF00000C4F202004FF003014FF0070216
:1048200000F0E0F94FF004033B604FF00003BB7170
:104830004FF00103FB714FF002033B714FF0030394
:104840007B713B464FF00000C4F20200194600F0B5
:10485000EDF84FF008033B604FF00003BB714FF0E1
:104860000103FB714FF002033B714FF003037B71B7
:104870003B464FF00000C4F20200194600F0D6F8A3
:104880004FF002033B604FF001033B714FF0000318
:10489000BB714FF003037B714FF00003FB713B468C
:1048A0004FF00000C4F20200194600F0BFF84FF0CC
:1048B000C1033B604FF003033B714FF00003FB71FA
:1048C0003B464FF00000C4F20200194600F0AEF87B
:1048D0004FF03F033B604FF003033B714FF0000389
:1048E000FB713B464FF40060C4F20200194600F031
:1048F0009DF84FF003033B604FF003033B714FF013
:104900000003FB713B464FF48060C4F2020019467D
:1049100000F08CF84FF030033B604FF003033B7125
:104920004FF00003FB713B464FF00000C4F2020061
:10493000194600F07BF84FF0C0033B604FF00003D6
:104940003B714FF003037B714FF00003FB713B465B
:104950004FF48060C4F20200194600F067F84FF08F
:1049600020033B604FF001033B714FF00003BB712C
:104970004FF003037B714FF00003FB713B464FF494
:104980008060C4F20200194600F050F84FF03F0377
:104990003B604FF001033B714FF00003BB714FF0E0
:1049A00003037B714FF00003FB713B464FF4406003
:1049B000C4F20200194600F039F84FF40060C4F266
:1049C00002004FF00A014FF0060200F00BF94FF41D
:1049D0000060C4F202004FF00B014FF0060200F03D
:1049E00001F94FF40060C4F202004FF00C014FF0E7
:1049F000060200F0F7F84FF4E0533B604FF002037B
:104A00003B714FF00003BB714FF003037B714FF01C
:104A10000203FB713B464FF40060C4F202001946EA
:104A200000F004F807F10807BD4680BD80B487B0E8
:104A300000AF786039604FF000037B614FF00003F6
:104A40003B614FF00003FB604FF000037B6186E0A9
:104A50007B694FF0010202FA03F33B613B681A687D
:104A60003B691340FB60FA683B699A4273D17B68EB
:104A70001A687B694FEA43034FF0030101FA03F31D
:104A80006FEA03031A407B681A607B681A683B6808
:104A90001B7919467B694FEA430301FA03F31A4372
:104AA0007B681A603B681B79012B03D03B681B793C
:104AB000022B34D17B689A687B694FEA43034FF03D
:104AC000030101FA03F36FEA03031A407B689A605B
:104AD0007B689A683B685B7919467B694FEA4303B8
:104AE00001FA03F31A437B689A607B685A687B6912
:104AF0009BB24FF0010101FA03F36FEA03031A407E
:104B00007B685A607B685A683B689B7919467B6969
:104B10009BB201FA03F39BB21A437B685A607B682D
:104B2000DA687B699BB24FEA43034FF0030101FA55
:104B300003F36FEA03031A407B68DA607B68DA6884
:104B40003B68DB7919467B694FEA430301FA03F3BB
:104B50001A437B68DA607B6903F101037B617B693F
:104B60000F2B7FF675AF07F11C07BD4680BC704761
:104B700080B485B000AF78600B467B804FF00003B7
:104B8000FB737B681A697B881340002B03D04FF0BE
:104B90000103FB7302E04FF00003FB73FB7B18463D
:104BA00007F11407BD4680BC704700BF80B483B0D6
:104BB00000AF78600B467B807B687A881A8307F1A8
:104BC0000C07BD4680BC704780B483B000AF7860EE
:104BD0000B467B807B687A885A8307F10C07BD46B9
:104BE00080BC704780B485B000AF786013460A4639
:104BF0007A807B704FF00003FB604FF00003BB60D6
:104C00007A787B8803F007034FEA830302FA03F301
:104C1000FB607B884FEAD3039BB21A467B884FEA3E
:104C2000D3039BB219467B6801F1080153F82110A8
:104C30007B8803F007034FEA83034FF00F0000FA6D
:104C400003F36FEA030319407B6802F1080243F89B
:104C500022107B884FEAD3039BB21A467B6802F18D
:104C6000080253F82220FB681343BB607B884FEA9D
:104C7000D3039BB21A467B6802F10802B96843F875
:104C8000221007F11407BD4680BC704780B500AF05
:104C90004FF46053C4F202034FF46052C4F20202B4
:104CA000126842F001021A604FF46053C4F202032A
:104CB0004FF000029A604FF46053C4F202034FF4C5
:104CC0006052C4F20202126822F0847222F480322E
:104CD0001A604FF46053C4F2020343F21002C2F2AE
:104CE00000425A604FF46053C4F202034FF4605222
:104CF000C4F20202126822F480221A604FF4605358
:104D0000C4F202034FF00002DA6000F009F84FF439
:104D10006D43CEF200034FF000629A6080BD00BF89
:104D200080B483B000AF4FF000037B604FF000030E
:104D30003B604FF46053C4F202034FF46052C4F27C
:104D40000202126842F480321A604FF46053C4F2D7
:104D500002031B6803F400333B607B6803F101032B
:104D60007B603B68002B03D17B68B3F5A06FECD16F
:104D70004FF46053C4F202031B6803F40033002BAA
:104D800003D04FF001033B6002E04FF000033B60B3
:104D90003B68012B40F082804FF46053C4F2020361
:104DA0004FF46052C4F20202126C42F080521A6454
:104DB0004FF4E043C4F200034FF4E042C4F20002B7
:104DC000126842F480421A604FF46053C4F2020346
:104DD0004FF46052C4F2020292689A604FF460533A
:104DE000C4F202034FF46052C4F20202926842F429
:104DF00000429A604FF46053C4F202034FF46052D1
:104E0000C4F20202926842F4C0529A604FF46053B6
:104E1000C4F2020345F20842C0F240725A604FF4F5
:104E20006053C4F202034FF46052C4F202021268EB
:104E300042F080721A6000BF4FF46053C4F2020364
:104E40001B6803F00073002BF6D04FF47053C4F2CC
:104E5000020340F205621A604FF46053C4F2020389
:104E60004FF46052C4F20202926822F003029A6088
:104E70004FF46053C4F202034FF46052C4F20202D2
:104E8000926842F002029A6000BF4FF46053C4F28D
:104E900002039B6803F00C03082BF6D107F10C0703
:104EA000BD4680BC704700BF80B485B000AF78605D
:104EB00039604FF00003FB607B681B68FB60FA6899
:104EC00048F23F03CFF21C031340FB603B681A68B3
:104ED0003B68DB681A433B685B691A433B689B6924
:104EE0001A433B68DB691A433B681B6A1A433B68F9
:104EF0005B6A1A433B689B6A1A433B685B6B1A43C5
:104F00003B689B6B1343FA681343FB607B68FA684A
:104F10001A607B685B69FB60FB6823F00703FB603A
:104F20003B68DA6A3B681B6B1343FA681343FB6008
:104F30007B68FA685A613B681A697B685A603B680B
:104F40005A687B689A603B689A687B68DA6007F108
:104F50001407BD4680BC704780B483B000AF786052
:104F60000B46FB70FB78002B06D07B681B6843F078
:104F700001027B681A6005E07B681B6823F0010270
:104F80007B681A6007F10C07BD4680BC704700BF04
:104F900080B485B000AFF860B9601346FB71BB68A0
:104FA00003F08003002B0FD0FB79002B06D0FB68A9
:104FB0005B6943F08002FB685A6105E0FB685B694E
:104FC00023F08002FB685A61BB68802B15D0FB7907
:104FD000002B08D0FB681A68BB6803F01E031A4355
:104FE000FB681A6009E0FB681A68BB6803F01E03DF
:104FF0006FEA03031A40FB681A6007F11407BD4605
:1050000080BC704780B485B000AF786039607A6842
:1050100046F20F43C4F202039A4205D84FF4C0434C
:10502000C4F20203FB6004E04FF4C843C4F202037D
:10503000FB603B6803F00053002B07D03B6823F074
:10504000F02323F08213FA68D36006E03B6823F074
:10505000F02323F08213FA68936007F11407BD462A
:1050600080BC704780B59AB000AF4FF000037B66FC
:105070000CE042F64863C2F200037A6E4FF0000182
:1050800023F812107B6E03F101037B667B6E3F2BCE
:10509000EFD94FF000033B6042F64863C2F20003D1
:1050A000BB6042F24C03C4F201037B604FF000038B
:1050B000FB604FF040033B614FF000037B614FF416
:1050C0008063BB614FF40063FB614FF400533B62AC
:1050D0004FF480737B624FF40033BB624FF00403E4
:1050E000FB624FF001033B634FF000037B634FF023
:1050F0000003BB633B4646F21040C4F2020019466F
:10510000FFF7D2FE46F21040C4F202004FF0010158
:10511000FFF722FF4FF000037B654FF00003BB65F4
:105120004FF00003FB654FF000033B6607F15403AB
:105130001846FFF737F94FF00003FB634FF0010308
:1051400087F840304FF0010387F841304FF00003FB
:105150007B644FF06063BB644FF00003FB644FF06F
:10516000080387F8503007F13C034FF40050C4F2B5
:1051700001001946FFF7BAF84FF40050C4F20100DD
:105180004FF00F014FF001024FF00003FFF754F909
:105190004FF40050C4F201004FF00E014FF0020234
:1051A0004FF00003FFF748F94FF40050C4F201003C
:1051B0004FF009014FF003024FF00003FFF73CF9F5
:1051C0004FF40050C4F201004FF008014FF0040208
:1051D0004FF00003FFF730F94FF40050C4F2010024
:1051E0004FF00A014FF005024FF00003FFF724F9DA
:1051F0004FF40050C4F201004FF00B014FF00602D3
:105200004FF00003FFF718F94FF40050C4F201000B
:105210004FF00C014FF007024FF00003FFF70CF9BD
:105220004FF40050C4F201004FF00D014FF008029E
:105230004FF00003FFF700F94FF40050C4F20100F3
:105240004FF00101FFF702FA4FF40050C4F20100E1
:105250004FF00101FFF7DEF946F21040C4F2020000
:105260004FF010014FF00102FFF792FE4FF4005093
:10527000C4F201004FF00101FFF7C2F84FF40050F3
:10528000C4F20100FFF7B6F907F16807BD4680BD1B
:1052900080B485B000AF0346FB714FF00003BB60E4
:1052A000FB79BB814FF00003FB7312E0BA8942F631
:1052B0004863C2F2000333F812309BB2BA68D318C5
:1052C000BB60BB8903F10803BB81FB7B03F10103D6
:1052D000FB73FB7B072BE9D9BB684FEAD303BB60A9
:1052E000BB68184607F11407BD4680BC704700BF75
:1052F00080B483B000AF786039607B683A6802FBA5
:1053000003F37B607A6844F6D353C1F26203A3FBD4
:1053100002134FEA93137B607B6840F6C41202FBD2
:1053200003F37B607A6840F20113C0F21003A3FB21
:105330000213D21A4FEA52029B184FEAD3237B6022
:105340007B68184607F10C07BD4680BC704700BF5C
:1053500080B500AF4FF00000FFF79AFF03461846F4
:1053600040F2F671FFF7C4FF024640F61053C2F256
:1053700000031A604FF00100FFF78AFF034618464A
:1053800040F2F671FFF7B4FF024640F61053C2F246
:1053900000035A604FF00200FFF77AFF03461846F9
:1053A00040F2F671FFF7A4FF024640F61053C2F236
:1053B00000039A604FF00300FFF76AFF03461846A8
:1053C00040F2F671FFF794FF024640F61053C2F226
:1053D0000003DA6080BD00BF80B500AF4FF004006D
:1053E000FFF756FF0346184640F26D61FFF780FF56
:1053F000024640F61053C2F200031A614FF0050056
:10540000FFF746FF0346184640F23D61FFF770FF85
:10541000024640F61053C2F200035A6180BD00BF3D
:1054200080B500AF4FF00600FFF732FF0346184685
:105430004FF47A71FFF75CFF03461A4640F61053AB
:10544000C2F200039A614FF00700FFF721FF034605
:1054500018464FF47A71FFF74BFF03461A4640F6A1
:105460001053C2F20003DA6180BD00BF80B582B084
:1054700000AF78607A684FF44053C4F201039A4257
:105480000CD14FF480504FF00101FEF705FF4FF4AF
:1054900080504FF00001FEF7FFFE26E07A684FF4DF
:1054A0006053C4F200039A420CD14FF480404FF095
:1054B0000101FEF7C7FE4FF480404FF00001FEF7F8
:1054C000C1FE12E07A684FF47053C4F200039A42AE
:1054D0000BD14FF400404FF00101FEF7B3FE4FF443
:1054E00000404FF00001FEF7ADFE07F10807BD4692
:1054F00080BD00BF80B485B000AF786039604FF0E8
:105500000003FB817B681B88FB81FB8903F441530B
:10551000FB813B681A883B685B8813439AB23B68FF
:105520009B8813439AB23B68DB8813439AB23B686B
:105530001B8913439AB23B685B8913439AB23B6859
:105540009B8913439AB23B68DB8913439AB2FB8968
:105550001343FB817B68FA891A807B689B8B9BB223
:1055600023F400639AB27B689A833B681A8A7B684B
:105570001A8207F11407BD4680BC704780B483B01F
:1055800000AF78600B46FB70FB78002B08D07B687F
:105590001B889BB243F040039AB27B681A8007E0F5
:1055A0007B681B889BB223F040039AB27B681A8009
:1055B00007F10C07BD4680BC704700BF80B483B0C4
:1055C00000AF78607B689B899BB2184607F10C0797
:1055D000BD4680BC704700BF80B483B000AF786028
:1055E0000B467B807B687A889A8107F10C07BD4661
:1055F00080BC704780B485B000AF78600B467B807C
:105600004FF00003FB737B681B899AB27B881340C1
:105610009BB2002B03D04FF00103FB7302E04FF06D
:105620000003FB73FB7B184607F11407BD4680BCE3
:10563000704700BF80B483B000AF78604FF46D4313
:10564000CEF200037A6842F0BF6242F40032DA60C0
:1056500007F10C07BD4680BC704700BF80B485B021
:1056600000AF78604FF00003FB734FF00003BB7393
:105670004FF00F037B737B68DB78002B45D04FF432
:105680006D43CEF20003DB686FEA030303F4E063CB
:105690004FEA1323FB73FB7BC3F10403BB737A7BD9
:1056A000FB7B42FA03F37B737B685B781A46BB7B18
:1056B00002FA03F3FB737B689A787B7B1340DAB2C0
:1056C000FB7B1343FB73FB7B4FEA0313FB734FF42A
:1056D0006143CEF200037A6812789B18FA7B83F854
:1056E00000234FF46143CEF200037A6812784FEA48
:1056F0005212D2B27968097801F01F014FF001000F
:1057000000FA01F143F8221014E04FF46143CEF2A5
:1057100000037A6812784FEA5212D2B27968097897
:1057200001F01F014FF0010000FA01F102F1200227
:1057300043F8221007F11407BD4680BC704700BF34
:1057400080B483B000AF786039604FF46D43CEF21F
:1057500000033A6822F0604222F07F0279680A432F
:105760009A6007F10C07BD4680BC704780B400AF5B
:1057700040F64453C2F200034FF000021A7040F6A4
:105780004453C2F200034FF000029A7040F64453B3
:10579000C2F200034FF000025A7040F64453C2F2C6
:1057A00000034FF00002DA70BD4680BC704700BFB6
:1057B00080B500AF40F64453C2F200031B78DBB261
:1057C000002B2BD140F64453C2F20003DB78DBB24E
:1057D000002B56D040F64453C2F20003DB78DBB214
:1057E000184601F0A7FF40F64453C2F20003DB78ED
:1057F000DBB2184601F09EFF4FF48050C4F2010066
:1058000040F227714FF00102FDF71CFD40F64453B2
:10581000C2F200034FF00002DA7032E040F6445367
:10582000C2F200031B78DBB2012B2AD140F64453AD
:10583000C2F20003DB78DBB2002B22D040F64453E7
:10584000C2F20003DB78DBB2184601F073FF40F6CA
:105850004453C2F20003DB78DBB2184601F06AFF62
:105860004FF48050C4F2010040F227714FF0010262
:10587000FDF7E8FC40F64453C2F200034FF000028B
:10588000DA7080BD80B582B000AF40F64453C2F2FA
:1058900000031B78DBB2002B40F07C8101F0A2FEFC
:1058A0000346002B00F0B28201F0C4FE0346BB7138
:1058B00040F64453C2F200035B78DBB2062B00F2E1
:1058C000618101A252F823F0E5580008FD58000854
:1058D0003159000879590008C1590008095A0008CF
:1058E000515A0008BB79FF2B40F0968240F6445392
:1058F000C2F200034FF001025A708DE2BB79FF2B18
:105900000ED140F64453C2F200034FF002025A7027
:1059100040F29C43C2F200034FF000021A7088E28A
:1059200040F64453C2F200034FF000025A7080E286
:1059300040F29C43C2F200031A78114640F2A043A1
:10594000C2F20003B879585402F10103DAB240F20E
:105950009C43C2F200031A7040F29C43C2F200035F
:105960001B78032B40F25A8240F64453C2F20003E4
:105970004FF003025A7051E240F64453C2F2000362
:10598000BA799A70BB79092B07D840F64453C2F212
:1059900000034FF004025A704BE2BB790A2B07D187
:1059A00040F64453C2F200034FF005025A7040E241
:1059B00040F64453C2F200034FF000025A7038E23E
:1059C00040F29C43C2F200031A78114640F2A04311
:1059D000C2F20003B879585402F10103DAB240F27E
:1059E0009C43C2F200031A7040F29C43C2F20003CF
:1059F0001B78132B40F2148240F64453C2F200038A
:105A00004FF006025A700BE240F29C43C2F20003D0
:105A10001A78114640F2A043C2F20003B8795854F4
:105A200002F10103DAB240F29C43C2F200031A70A1
:105A300040F29C43C2F200031B78072B40F2F28134
:105A400040F64453C2F200034FF006025A70E9E1F7
:105A500040F2B443C2F200034FF000021A704FF05C
:105A60000003FB7115E0FA7940F2A043C2F2000393
:105A70009A5C40F2B443C2F200031B78D318DAB246
:105A800040F2B443C2F200031A70FB7903F1010340
:105A9000FB7140F29C43C2F200031B78FA799A42F0
:105AA000E1D340F2B443C2F200031B78BA799A42C0
:105AB0005FD140F64853C2F2000303F5035303F1EC
:105AC00034031B78DBB2002B53D0D14B3B6040F248
:105AD000A043C2F200031A783B681A703B6803F1D6
