:020000040800F2
:100000008C3E00206D240008DD240008DD2400085B
:10001000DD240008DD240008DD24000800000000C5
:10002000000000000000000000000000DD240008C7
:10003000DD24000800000000DD240008011A00088B
:10004000DD240008DD240008DD240008DD2400088C
:10005000DD240008DD240008DD240008DD2400087C
:10006000DD240008DD240008DD240008DD2400086C
:10007000DD240008DD240008DD240008DD2400085C
:10008000DD240008DD240008DD240008DD2400084C
:10009000DD240008DD240008DD240008DD2400083C
:1000A000DD24000851120008DD240008DD240008CA
:1000B000DD240008DD240008DD240008DD2400081C
:1000C000DD240008DD240008DD240008DD2400080C
:1000D000DD2400080563000865640008DD240008CD
:1000E000DD240008DD240008DD240008DD240008EC
:1000F00069120008DD240008DD240008DD24000862
:10010000DD240008DD240008DD240008DD240008CB
:10011000DD240008DD240008DD240008DD240008BB
:1001200081120008DD240008DD240008DD24000819
:10013000DD240008DD240008DD240008DD2400089B
:10014000DD240008DD240008DD240008DD2400088B
:10015000DD240008DD240008DD240008DD2400087B
:10016000DD240008DD240008DD240008DD2400086B
:10017000DD240008DD240008DD240008DD2400085B
:10018000DD240008DD24000880B586B000AF00F053
:1001900073FB4FF47050C4F2000003F07BFF4FF08C
:1001A0000003BB804FF48273FB804FF400633B81FC
:1001B0004FF000037B814FF00103BB814FF40073CC
:1001C000FB814FF000033B824FF000037B8207F17D
:1001D00004034FF47050C4F20000194603F09EFF70
:1001E0004FF47050C4F200004FF0010103F0DAFF49
:1001F0004FF44060C4F202004FF0010103F0EAFA4C
:1002000000F05CFA07F11807BD4680BD80B485B0E8
:1002100000AF0346FB71FB7903F00103FB73FB7B2B
:10022000002B07D04FF44063C4F202034FF00202E8
:100230001A8306E04FF44063C4F202034FF0020257
:100240005A83FB794FEA5303FB71FB7903F00103F7
:10025000FB73FB7B002B07D04FF44063C4F2020317
:100260004FF004021A8306E04FF44063C4F2020325
:100270004FF004025A83FB794FEA5303FB71FB7979
:1002800003F00103FB73FB7B002B07D04FF44063AB
:10029000C4F202034FF008021A8306E04FF44063F1
:1002A000C4F202034FF008025A83FB794FEA53036A
:1002B000FB71FB7903F00103FB73FB7B002B07D081
:1002C0004FF44063C4F202034FF010021A8306E0B9
:1002D0004FF44063C4F202034FF010025A83FB79DB
:1002E0004FEA5303FB71FB7903F00103FB73FB7BC4
:1002F000002B07D04FF44063C4F202034FF02002FA
:100300001A8306E04FF44063C4F202034FF0200268
:100310005A8307F11407BD4680BC704780B582B090
:1003200000AF4FF40043FB8040F28443C2F200036D
:1003300093F83230DBB2002B03D0FB8803F5804307
:10034000FB8040F28443C2F200031B8DBB804FF060
:100350000100FFF75BFF4FF44060C4F202004FF072
:10036000010103F045FAFB884FF47050C4F200001D
:10037000194603F045FF00BF4FF47050C4F200006F
:100380004FF0800103F04AFF0346002BF4D14FF4F5
:100390007050C4F2000003F025FF0346FB80BB88C9
:1003A0004FF47050C4F20000194603F029FF00BF5B
:1003B0004FF47050C4F200004FF0800103F02EFFA4
:1003C0000346002BF4D14FF47050C4F2000003F048
:1003D00009FF0346BB804FF44060C4F202004FF0B7
:1003E000010103F0F7F907F10807BD4680BD00BF22
:1003F00080B582B000AF40F28443C2F20003DB8DCF
:10040000FB8040F28443C2F200035B8DBB804FF05F
:100410000200FFF7FBFE4FF44060C4F202004FF011
:10042000010103F0E5F9FB884FF47050C4F20000BD
:10043000194603F0E5FE00BF4FF47050C4F200000F
:100440004FF0800103F0EAFE0346002BF4D14FF495
:100450007050C4F2000003F0C5FE0346FB80BB8869
:100460004FF47050C4F20000194603F0C9FE00BFFB
:100470004FF47050C4F200004FF0800103F0CEFE44
:100480000346002BF4D14FF47050C4F2000003F087
:10049000A9FE0346BB804FF44060C4F202004FF057
:1004A000010103F097F907F10807BD4680BD00BFC1
:1004B00080B582B000AF40F28443C2F200031B8ECD
:1004C000FB8040F28443C2F200039B8DBB804FF05F
:1004D0000300FFF79BFE4FF44060C4F202004FF0B0
:1004E000010103F085F9FB884FF47050C4F200005D
:1004F000194603F085FE00BF4FF47050C4F20000AF
:100500004FF0800103F08AFE0346002BF4D14FF434
:100510007050C4F2000003F065FE0346FB80BB8808
:100520004FF47050C4F20000194603F069FE00BF9A
:100530004FF47050C4F200004FF0800103F06EFEE3
:100540000346002BF4D14FF47050C4F2000003F0C6
:1005500049FE0346BB804FF44060C4F202004FF0F6
:10056000010103F037F907F10807BD4680BD00BF60
:1005700080B500AFFFF73CFFFFF79AFFFFF7CEFE15
:1005800080BD00BF80B485B000AF02460B46FA8044
:10059000BB80FB884FEA5303FB81BA88FB889A42F1
:1005A00003D3FB8803F1FF33BB8040F28443C2F2E4
:1005B0000003FA881A8540F28443C2F20003FA89E4
:1005C0005A85FA89BB88D3189AB240F28443C2F2A2
:1005D00000039A8540F28443C2F200035B8D9AB215
:1005E00040F28443C2F200031B8D9BB24FEA5303D7
:1005F0009BB2D3189AB240F28443C2F20003DA8568
:1006000040F28443C2F200039B8D9AB240F28443CD
:10061000C2F200031B8D9BB24FEA53039BB2D31867
:100620009AB240F28443C2F200031A8640F2844335
:10063000C2F20003DB8D9AB240F28443C2F200039F
:100640001B8D9BB29A4212D340F28443C2F2000344
:10065000DB8D9AB240F28443C2F200031B8D9BB241
:10066000D31A9AB240F28443C2F20003DA8540F210
:100670008443C2F200031B8E9AB240F28443C2F25A
:1006800000031B8D9BB29A4212D340F28443C2F204
:1006900000031B8E9AB240F28443C2F200031B8D0A
:1006A0009BB2D31A9AB240F28443C2F200031A8674
:1006B00007F11407BD4680BC704700BF80B582B00B
:1006C00000AF4FF00000FFF7A1FD4FF44060C4F20F
:1006D00002004FF0010103F08BF84FF47050C4F2A8
:1006E00000004FF0000103F08BFD00BF4FF470508D
:1006F000C4F200004FF0800103F090FD0346002B90
:10070000F4D14FF47050C4F2000003F06BFD0346C7
:10071000FB804FF47050C4F200004FF0000103F072
:100720006FFD00BF4FF47050C4F200004FF0800125
:1007300003F074FD0346002BF4D14FF47050C4F263
:10074000000003F04FFD0346BB80FA8840F284436B
:10075000C2F200035A6040F28443C2F200035B68B5
:100760004FEA034240F28443C2F200035A6040F26F
:100770008443C2F200035A68BB88D21840F2844313
:10078000C2F200035A604FF44060C4F202004FF01E
:10079000010103F01FF807F10807BD4680BD00BF47
:1007A00080B584B000AF0346FB71FB7903F00F0303
:1007B000FB71FB7903F11003DBB21846FFF726FD4E
:1007C0004FF44060C4F202004FF0010103F010F852
:1007D0004FF47050C4F200004FF0000103F010FD20
:1007E00000BF4FF47050C4F200004FF0800103F0DE
:1007F00015FD0346002BF4D14FF47050C4F20000F5
:1008000003F0F0FC0346FB814FF47050C4F200008B
:100810004FF0000103F0F4FC00BF4FF47050C4F23D
:1008200000004FF0800103F0F9FC0346002BF4D1E7
:100830004FF47050C4F2000003F0D4FC0346BB81B7
:10084000FA79BB894FEA03534FEA135399B240F246
:100850008443C2F2000302F1040223F812104FF4A1
:100860004060C4F202004FF0010102F0B3FF07F153
:100870001007BD4680BD00BF80B500AF4FF440609B
:10088000C4F202004FF0400102F0A4FF4FF44060B8
:10089000C4F202004FF0400102F0AAFF80BD00BF89
:1008A00080B500AF4FF44060C4F202004FF0800109
:1008B00002F072FF03461A4640F28443C2F200037C
:1008C0001A7040F28443C2F200031B78DBB2184670
:1008D00080BD00BF80B500AF40F25C43C2F20003B0
:1008E0001B78042B66D801A252F823F001090008F6
:1008F00025090008490900086D0900089109000848
:100900004FF00000FFF74CFF40F25C43C2F20003DF
:100910001B7803F10103DAB240F25C43C2F2000338
:100920001A704FE04FF00100FFF73AFF40F25C43CE
:10093000C2F200031B7803F10103DAB240F25C4318
:10094000C2F200031A703DE04FF00200FFF728FFEB
:1009500040F25C43C2F200031B7803F10103DAB2F8
:1009600040F25C43C2F200031A702BE04FF0030028
:10097000FFF716FF40F25C43C2F200031B7803F15D
:100980000103DAB240F25C43C2F200031A7019E0CC
:100990004FF00400FFF704FF40F25C43C2F2000393
:1009A0001B7803F10103DAB240F25C43C2F20003A8
:1009B0001A7007E040F25C43C2F200034FF00002FD
:1009C0001A7000BF80BD00BF80B483B000AF034683
:1009D0003960FB7197F90730002B10DA4FF46D4343
:1009E000CEF20003FA7902F00F02A2F104013A6894
:1009F000D2B24FEA0212D2B25B181A760DE04FF46F
:100A00006143CEF2000397F907103A68D2B24FEA79
:100A10000212D2B25B1883F8002307F10C07BD461F
:100A200080BC704780B582B000AF78607A686FF0A4
:100A30007F439A4202D94FF001031FE04EF21003A8
:100A4000CEF200037A6822F07F4202F1FF325A6050
:100A50004FF0FF304FF00F01FFF7B6FF4EF21003DB
:100A6000CEF200034FF000029A604EF21003CEF275
:100A700000034FF007021A604FF00003184607F119
:100A80000807BD4680BD00BF80B58CB000AF42F600
:100A90006C63C2F200034FF462729A604FF000037D
:100AA000BB844FF00003FB844FF00703BB624FF0A1
:100AB0000003BB854FF0000387F82E3007F12403B5
:100AC0004FF48060C4F20100194605F0CBF84FF0F6
:100AD00070033B824FF001037B824FF00003BB8227
:100AE0004FF00403BB614FF00003BB834FF00003E2
:100AF000FB834FF480733B844FF000037B8407F14A
:100B000010034FF48060C4F20100194605F044F967
:100B10004FF400633B804FF480637B804FF480731D
:100B2000BB804FF00003FB804FF000033B814FF48C
:100B300000537B814FF48043BB813B464FF4806080
:100B4000C4F20100194605F0B7F94FF48060C4F211
:100B500001004FF0010105F0FFF84FF48060C4F28E
:100B600001004FF0010105F0CFF942F66C63C2F2CB
:100B700000034FF00002DA6040F28443C2F2000347
:100B80004FF0000283F8322042F66C63C2F2000399
:100B90009B689AB242F66C63C2F20003DB689BB2B8
:100BA00010461946FFF7EEFCFFF7E2FC07F13007AD
:100BB000BD4680BD80B582B000AF0346FB8042F6E3
:100BC0006C63C2F200031B78DBB2032B07D042F642
:100BD0006C63C2F200031B78DBB2042B36D142F601
:100BE0006C63C2F200039A68FB889A420BD942F602
:100BF0006C63C2F200039A68FB88D21A42F66C63F7
:100C0000C2F200039A6042F66C63C2F200039A6873
:100C100040F21F339A4206D842F66C63C2F20003D8
:100C20004FF448729A6042F66C63C2F200039B680C
:100C30009AB242F66C63C2F20003DB689BB21046C4
:100C40001946FFF79FFCFFF793FC00E000BF07F198
:100C50000807BD4680BD00BF80B582B000AF034627
:100C6000FB8042F66C63C2F200031B78DBB2032BFD
:100C700007D042F66C63C2F200031B78DBB2042B90
:100C800037D142F66C63C2F200039A6840F6E20381
:100C90009A421BD842F66C63C2F200039A68FB8842
:100CA000D21842F66C63C2F200039A6042F66C639B
:100CB000C2F200039A6840F6E3039A4206D942F66C
:100CC0006C63C2F2000340F6E3029A6042F66C6382
:100CD000C2F200039B689AB242F66C63C2F2000350
:100CE000DB689BB210461946FFF74CFCFFF740FC4F
:100CF00000E000BF07F10807BD4680BD80B582B0A7
:100D000000AF0346FB8042F66C63C2F200031B781F
:100D1000DBB2032B07D042F66C63C2F200031B78F0
:100D2000DBB2042B38D142F66C63C2F20003DA68FE
:100D3000FB88D21842F66C63C2F20003DA6042F616
:100D40006C63C2F20003DA6842F66C63C2F200031D
:100D50009B684FEA53039A420BD942F66C63C2F286
:100D600000039B684FEA530242F66C63C2F2000331
:100D7000DA6042F66C63C2F200039B689AB242F6F4
:100D80006C63C2F20003DB689BB210461946FFF7A2
:100D9000F9FBFFF7EDFB00E000BF07F10807BD46D8
:100DA00080BD00BF80B582B000AF0346FB8042F635
:100DB0006C63C2F200031B78DBB2032B07D042F650
:100DC0006C63C2F200031B78DBB2042B2ED142F617
:100DD0006C63C2F20003DA68FB889A420CD942F6CF
:100DE0006C63C2F20003DA68FB88D21A42F66C63C5
:100DF000C2F20003DA6006E042F66C63C2F200035E
:100E00004FF00002DA6042F66C63C2F200039B68A6
:100E10009AB242F66C63C2F20003DB689BB21046E2
:100E20001946FFF7AFFBFFF7A3FB00E000BF07F198
:100E30000807BD4680BD00BF80B500AFFFF730FD9D
:100E40000346002B0BD0FFF739FC42F66C63C2F26D
:100E500000034FF00A021A704FF0010301E04FF057
:100E60000003184680BD00BF80B500AF42F66C633A
:100E7000C2F200031B78DBB20E2B00F2C68101A286
:100E800052F823F0C10E00080B1200086D0F000885
:100E9000BB0F000809100008571000080B120008CB
:100EA0000B1200080B1200080B120008A510000816
:100EB000EF100008391100087F110008C511000863
:100EC00040F28443C2F200034FF0000283F8322064
:100ED00042F66C63C2F200034FF462729A6042F60B
:100EE0006C63C2F200034FF00002DA6042F66C63FA
:100EF000C2F200039B689AB242F66C63C2F200032E
:100F0000DB689BB210461946FFF73CFBFFF730FB4E
:100F1000FFF792FF0346002B40F07F8142F66C639F
:100F2000C2F200035B78DBB2652B11D140F284433F
:100F3000C2F200034FF0010283F83220FFF718FBE2
:100F400042F66C63C2F200034FF002021A7064E1D1
:100F500042F66C63C2F200035B78DBB2722B40F0A6
:100F60005C81FFF789FCFFF7A9FB56E1FFF764FFFF
:100F70000346002B40F0538142F66C63C2F200033B
:100F80005B78DBB2642B07D142F66C63C2F20003DC
:100F90004FF000021A7042E142F66C63C2F20003A5
:100FA0005B78DBB2452B40F03A8142F66C63C2F2CB
:100FB00000034FF003021A7031E1FFF73DFF0346D3
:100FC000002B40F02E8142F66C63C2F200035B7886
:100FD000DBB2642B07D142F66C63C2F200034FF020
:100FE00000021A701DE142F66C63C2F200035B78E6
:100FF000DBB2452B40F0158142F66C63C2F2000370
:101000004FF004021A700CE1FFF716FF0346002BA5
:1010100040F0098142F66C63C2F200035B78DBB2F8
:10102000642B07D142F66C63C2F200034FF000025A
:101030001A70F8E042F66C63C2F200035B78DBB230
:10104000452B40F0F08042F66C63C2F200034FF093
:1010500005021A70E7E0FFF7EFFE0346002B40F0B1
:10106000E48042F66C63C2F200035B78DBB2642B6F
:1010700007D142F66C63C2F200034FF000021A700F
:10108000D3E042F66C63C2F200035B78DBB2452B1F
:1010900040F0CB8042F66C63C2F200034FF00302D3
:1010A0001A70C2E040F28443C2F200034FF0000223
:1010B00083F83220FFF75CFA42F66C63C2F2000359
:1010C0005B78DBB2722B40F0B280FFF7D5FBFFF705
:1010D000F5FAFFF7B1FE0346002B40F0A88042F678
:1010E0006C63C2F200034FF000021A709FE040F2FE
:1010F0008443C2F200034FF0000283F83220FFF76E
:1011000037FA42F66C63C2F200035B78DBB2722BF3
:1011100040F08F80FFF7B0FBFFF7D0FAFFF78CFEAF
:101120000346002B40F0858042F66C63C2F2000358
:101130004FF000021A707CE040F28443C2F20003D8
:101140004FF0000283F83220FFF712FA42F66C6388
:10115000C2F200035B78DBB2722B6CD1FFF78CFB21
:10116000FFF7ACFAFFF768FE0346002B63D142F6A7
:101170006C63C2F200034FF000021A705BE040F2B1
:101180008443C2F200034FF0000283F83220FFF7DD
:10119000EFF942F66C63C2F200035B78DBB2722BAC
:1011A0004BD1FFF769FBFFF789FAFFF745FE0346CE
:1011B000002B42D142F66C63C2F200034FF00002F2
:1011C0001A703AE040F28443C2F200034FF000028A
:1011D00083F83220FFF7CCF942F66C63C2F20003C9
:1011E0005B78DBB2722B2AD1FFF746FBFFF766FA7A
:1011F000FFF722FE0346002B21D142F66C63C2F2B8
:1012000000034FF000021A7019E042F66C63C2F25C
:1012100000034FF000021A7012E000BF10E000BFA0
:101220000EE000BF0CE000BF0AE000BF08E000BF16
:1012300006E000BF04E000BF02E000BF00E000BF26
:1012400042F66C63C2F200034FF000025A7080BD98
:1012500080B500AF4FF00000C4F201004FF0010173
:1012600004F07AFE80BD00BF80B500AF4FF480600F
:10127000C4F201004FF0010104F06EFE80BD00BF1A
:1012800080B500AF46F21040C4F202004FF02001DA
:10129000C1F2000102F0CAFC02F06EFE02F0B0FEE4
:1012A00002F0D2FE40F60053C2F2000303F50353EE
:1012B00003F11C031B6803F1010240F60053C2F264
:1012C000000303F5035303F11C031A6080BD00BF44
:1012D00080B500AF40F21803C2F200031A6841F271
:1012E0005973CDF2B713A3FB02134FEA53331846D9
:1012F000FFF798FB80BD00BF2DE9B0438AB000AF77
:10130000F860B9607A603B60F86807F0E5FA044677
:101310000D467B681846194607F04AFE03461846F4
:1013200007F0DAFA02460B46104619468AA3D3E9BB
:10133000002307F025FB02460B4690469946786C41
:1013400007F0CAFA02460B464046494607F042FCFF
:1013500002460B461046194605F00AFB02460B46AC
:101360002046294607F00CFB02460B46104619465C
:1013700007F0C8FD03467B62F86807F0ADFA044643
:101380000D467B681846194607F012FE03461846BC
:1013900007F0A2FA02460B46104619466EA3D3E99F
:1013A000002307F0EDFA02460B4690469946786C0A
:1013B00007F092FA02460B464046494607F00AFCFF
:1013C00002460B461046194605F01EFB02460B4628
:1013D0002046294607F0D4FA02460B461046194625
:1013E00007F090FD03463B62B86807F075FA0446C3
:1013F0000D463868396C07F0DBFD03461846194680
:1014000007F0D6FD0346184607F066FA02460B467B
:101410001046194650A3D3E9002307F0B1FA02465B
:101420000B4690469946786C07F056FA02460B46F2
:101430004046494607F0CEFB02460B461046194689
:1014400005F096FA02460B462046294607F098FA20
:1014500002460B461046194607F054FD0346FB6151
:10146000B86807F039FA04460D463868396C07F059
:101470009FFD03461846194607F09AFD0346184695
:1014800007F02AFA02460B461046194632A3D3E962
:10149000002307F075FA02460B4690469946786C91
:1014A00007F01AFA02460B464046494607F092FBFF
:1014B00002460B461046194605F0A6FA02460B46B0
:1014C0002046294607F05CFA02460B4610461946AC
:1014D00007F018FD0346BB61786AF96907F068FDFB
:1014E00003461C46786AF96907F062FD0346204608
:1014F000194607F065FE03461C46386AB96907F0CD
:1015000057FD03461D46386AB96907F051FD034689
:101510002846194607F054FE03462046194607F0B0
:1015200047FD0346184607F0D7F902460B4610461A
:10153000194605F0B5FA02460B461046194607F063
:10154000E1FC03467B617B69184607F12807BD462D
:10155000BDE8B083AFF30080182D4454FB2109404F
:101560002DE9B0438AB000AFF860B9607A603B60A3
:10157000F86807F0B1F904460D467B68184619462D
:1015800007F016FD0346184607F0A6F902460B467B
:101590001046194692A3D3E9002307F0F1F9024659
:1015A0000B4690469946786C07F096F902460B4632
:1015B0004046494607F00EFB02460B4610461946C8
:1015C00005F0D6F902460B462046294607F0D8F921
:1015D00002460B461046194607F094FC03463B6250
:1015E000F86807F079F904460D467B6818461946F5
:1015F00007F0DEFC0346184607F06EF902460B467C
:101600001046194676A3D3E9002307F0B9F902463C
:101610000B4690469946786C07F05EF902460B46F9
:101620004046494607F0D6FA02460B461046194690
:1016300005F0EAF902460B462046294607F0A0F9D4
:1016400002460B461046194607F05CFC0346FB6158
:10165000B86807F041F904460D463868396C07F060
:10166000A7FC03461846194607F0A2FC0346184695
:1016700007F032F902460B461046194658A3D3E943
:10168000002307F07DF902460B4690469946786C98
:1016900007F022F902460B464046494607F09AFAFF
:1016A00002460B461046194605F062F902460B4603
:1016B0002046294607F064F902460B4610461946B3
:1016C00007F020FC0346BB61B86807F005F9044643
:1016D0000D463868396C07F06BFC0346184619460E
:1016E00007F066FC0346184607F0F6F802460B467C
:1016F000104619463AA3D3E9002307F041F9024600
:101700000B4690469946786C07F0E6F802460B4681
:101710004046494607F05EFA02460B461046194617
:1017200005F072F902460B462046294607F028F9D3
:1017300002460B461046194607F0E4FB03467B6160
:10174000386AB96907F034FC034618464FF00001C7
:1017500007F0F2FE0346002B4AD0F869796907F0DA
:1017600027FC034618464FF0000107F0E5FE03464C
:10177000002B3DD0F869796907F01AFC03461C4636
:10178000386AB96907F014FC03462046194607F089
:10179000CBFD0346184607F09FF802460B4610465D
:1017A000194604F031FF04460D46786C07F094F8B2
:1017B00002460B462046294607F0E2F802460B4651
:1017C0001046194608A3D3E9002307F003FA02469E
:1017D0000B461046194607F095FB03467B62FFE077
:1017E000182D4454FB210940182D4454FB21194065
:1017F000386AB96907F0DCFB034618464FF0000170
:1018000007F07CFE0346002B4ED0F869796907F09B
:10181000CFFB034618464FF0000107F08DFE03464C
:10182000002B41D0F869796907F0C2FB03461C46DA
:101830003B6A83F000431846B96907F0B7FB0346DB
:101840002046194607F070FD0346184607F044F895
:1018500002460B461046194604F0D6FE02460B46D9
:1018600063A1D1E9000106F0D7FE02460B461446FB
:101870001D46786C07F030F802460B462046294694
:1018800007F07EF802460B46104619465AA3D3E9E4
:10189000002307F09FF902460B461046194607F051
:1018A00031FB03467B629BE0386AB96907F080FB35
:1018B000034618464FF0000107F020FE0346002BB8
:1018C0004DD0F869796907F073FB034618464FF06D
:1018D000000107F013FE0346002B40D0F869796938
:1018E00007F066FB03461C46386AB96907F060FBDF
:1018F00003462046194607F017FD0346184606F032
:10190000EBFF02460B461046194604F07DFE0246E8
:101910000B461046194636A3D3E9002306F07EFE97
:1019200002460B4614461D46786C06F0D5FF02466B
:101930000B462046294607F023F802460B46104680
:1019400019462DA3D3E9002307F044F902460B46BC
:101950001046194607F0D6FA03467B6240E0FB6961
:1019600083F000431846796907F020FB03461C46C4
:10197000386AB96907F01CFB03462046194607F090
:10198000D3FC0346184606F0A7FF02460B46104656
:10199000194604F039FE02460B4617A1D1E90001B1
:1019A00006F03AFE02460B4614461D46786C06F0D9
:1019B00093FF02460B462046294606F0E1FF024609
:1019C0000B46104619460CA3D3E9002307F002F991
:1019D00002460B461046194607F094FA03467B620E
:1019E0007B6A184607F12807BD46BDE8B08300BFF3
:1019F000182D4454FB210940182D4454FB21194053
:101A00002DE9F04383B002AF42F6E453C2F2000383
:101A10004FF001021A7040F25D43C2F200031B78DE
:101A200003F10103DAB240F25D43C2F200031A701F
:101A300040F20003C2F200031B7803F10103DAB2A3
:101A400040F20003C2F200031A7040F20103C2F236
:101A500000031B7803F10103DAB240F20103C2F282
:101A600000031A7040F20203C2F200031B7803F174
:101A70000103DAB240F20203C2F200031A7040F22C
:101A80000403C2F200031B8803F101039AB240F27F
:101A90000403C2F200031A8002F0E4FFFEF71AFF0B
:101AA00040F25D43C2F200031B78092B06D940F2D5
:101AB0005D43C2F200034FF000021A7040F20003CF
:101AC000C2F200031B78092B40F2968140F200031A
:101AD000C2F200034FF000021A7042F6E453C2F261
:101AE00000034FF001025A7040F6DC43C2F20003DB
:101AF0001B68184607F00CFB804640F6DC43C2F238
:101B000000035B68184607F003FB064640F2844377
:101B1000C2F200035B899BB2184607F0F9FA05464A
:101B200040F28443C2F200039B899BB2184607F03F
:101B3000EFFA044642F66C63C2F20003DB68184613
:101B400007F0E6FA814642F66C63C2F200039B6836
:101B5000184607F0DDFA0346CDF8009001934046A1
:101B600031462A462346FFF7C7FB024640F284432C
:101B7000C2F200035A6340F6DC43C2F200031B6862
:101B8000184607F0C5FA804640F6DC43C2F200036F
:101B90005B68184607F0BCFA064640F28443C2F27E
:101BA00000035B899BB2184607F0B2FA054640F283
:101BB0008443C2F200039B899BB2184607F0A8FA3F
:101BC000044642F66C63C2F20003DB68184607F075
:101BD0009FFA814642F66C63C2F200039B68184686
:101BE00007F096FA0346CDF800900193404631463F
:101BF0002A462346FFF7B4FC024640F28443C2F271
:101C000000039A6340F6DC43C2F200039B68184667
:101C100007F07EFA804640F6DC43C2F20003DB6840
:101C2000184607F075FA064640F28443C2F20003F4
:101C3000DB899BB2184607F06BFA054640F28443F5
:101C4000C2F200031B8A9BB2184607F061FA0446F1
:101C500042F66C63C2F20003DB68184607F058FADC
:101C6000814642F66C63C2F200039B68184607F097
:101C70004FFA0346CDF800900193404631462A467C
:101C80002346FFF739FB024640F28443C2F20003C9
:101C9000DA6340F6DC43C2F200039B68184607F0A3
:101CA00037FA804640F6DC43C2F20003DB68184690
:101CB00007F02EFA064640F28443C2F20003DB89A5
:101CC0009BB2184607F024FA054640F28443C2F25C
:101CD00000031B8A9BB2184607F01AFA044642F624
:101CE0006C63C2F20003DB68184607F011FA814604
:101CF00042F66C63C2F200039B68184607F008FACC
:101D00000346CDF800900193404631462A462346CB
:101D1000FFF726FC024640F28443C2F200031A6435
:101D200040F28443C2F20003D3F8348040F284438B
:101D3000C2F20003DE6B40F28443C2F200039D6BEB
:101D400040F28443C2F200031C6C42F66C63C2F2A0
:101D50000003DB68184607F0DBF9814642F66C6346
:101D6000C2F200039B68184607F0D2F90346CDF88B
:101D700000900193404631462A462346FFF7BCFABD
:101D8000024640F28443C2F200035A6440F28443A4
:101D9000C2F20003D3F8348040F28443C2F200035D
:101DA000DE6B40F28443C2F200039D6B40F2844339
:101DB000C2F200031C6C42F66C63C2F20003DB68E3
:101DC000184607F0A5F9814642F66C63C2F200039B
:101DD0009B68184607F09CF90346CDF800900193E4
:101DE000404631462A462346FFF7BAFB024640F2F8
:101DF0008443C2F200039A6440F20103C2F200037A
:101E00001B78632B40F2CA8040F20103C2F2000348
:101E10004FF000021A7042F6E453C2F200034FF092
:101E200001029A7042F66C63C2F200031B78DBB2C7
:101E3000042B4ED140F28443C2F200039C6B42F665
:101E40006C63C2F200039B684FF05A0202FB03F37B
:101E50004FEAD30246F61743C1F2C163A3FB020364
:101E60004FEA9303184607F053F9034620461946F4
:101E700007F062FB0346002B04D04FF00100FEF791
:101E8000EBFE26E040F28443C2F200039C6B42F674
:101E90006C63C2F200039B684FF05A0202FB03F32B
:101EA0004FEAD30246F61743C1F2C163A3FB021304
:101EB0004FEA9303184607F02BF9034620461946CC
:101EC00007F01CFB0346002B03D04FF00100FEF788
:101ED00071FE42F66C63C2F200031B78DBB2052B85
:101EE0005CD140F28443C2F200035B6C18464FF0B1
:101EF0000001C4F22F4107F01FFB0346002B11D055
:101F000042F66C63C2F20003DB6803F1FF3242F673
:101F10006C63C2F20003DA6042F66C63C2F2000343
:101F2000DB683BE040F28443C2F200035B6C18467E
:101F30004FF00001C4F22F4107F0E0FA0346002BF6
:101F40002CD042F66C63C2F20003DB6803F101029D
:101F500042F66C63C2F20003DA6042F66C63C2F2CE
:101F60000003DA6842F66C63C2F200039B684FF02C
:101F7000320101FB03F34FEAD30146F61743C1F2E6
:101F8000C163A3FB01034FEA93039A4206D942F6C9
:101F90006C63C2F200034FF00002DA6040F2020309
:101FA000C2F200031B78C72B0DD940F20203C2F224
:101FB00000034FF000021A7042F6E453C2F200032D
:101FC0004FF00102DA7040F20403C2F200031A88F3
:101FD00040F2E7339A4227D940F60053C2F2000399
:101FE00003F5035303F11C031A6840F60053C2F2D1
:101FF0000003C3F8A02040F60053C2F2000303F52B
:10200000035303F11C034FF000021A6040F2040373
:10201000C2F200034FF000021A8042F6E453C2F20B
:1020200000034FF001021A7107F10407BD46BDE835
:10203000F08300BF80B58AB000AF786039604FF0A0
:1020400000037B624FF000033B624FF00003FB6133
:102050004FF00003BB617B681B8A9BB27B627B6A8B
:1020600023F440537B623B68DB887A6A13437B62CC
:102070007B6A9AB27B681A827B689B899BB27B627F
:102080007B6A23F4B05323F00C037B623B689A888D
:102090003B681B8913439AB23B685B8913439BB22D
:1020A0007A6A13437B627B6A9AB27B689A817B6807
:1020B0009B8A9BB27B627B6A23F440737B623B68A2
:1020C0009B897A6A13437B627B6A9AB27B689A82A5
:1020D00007F10803184600F065FD7A684FF4805355
:1020E000C4F201039A4206D07A684FF4A053C4F2B6
:1020F00001039A4202D17B693B6201E03B693B628A
:102100007B689B899BB29BB21BB2002B0FDA3A6AA9
:1021100013464FEA83039B184FEA83029A183B68E1
:102120001B684FEA4303B2FBF3F3FB610EE03A6A2C
:1021300013464FEA83039B184FEA83029A183B68C1
:102140001B684FEA8303B2FBF3F3FB61FA6948F2C1
:102150001F53C5F2EB13A3FB02134FEA53134FEACD
:1021600003137B627B6A4FEA13134FF0640202FB96
:1021700003F3FA69D31ABB617B689B899BB29BB25C
:102180001BB2002B12DABB694FEAC30303F1320220
:1021900048F21F53C5F2EB13A3FB02134FEA53138C
:1021A00003F007037A6A13437B6211E0BB694FEACD
:1021B000031303F1320248F21F53C5F2EB13A3FBE2
:1021C00002134FEA531303F00F037A6A13437B623F
:1021D0007B6A9AB27B681A8107F12807BD4680BDE9
:1021E00080B483B000AF78600B46FB70FB78002BA7
:1021F00008D07B689B899BB243F400539AB27B68FA
:102200009A8107E07B689B899BB223F400539AB2C2
:102210007B689A8107F10C07BD4680BC704700BF00
:1022200080B483B000AF78600B467B807B884FEA38
:10223000C3534FEAD3539AB27B689A8007F10C07D5
:10224000BD4680BC704700BF80B487B000AF7860E7
:1022500013460A467A807B704FF000033B614FF0D3
:102260000003FB604FF00003BB604FF000037B6195
:102270007B687B617B88DBB24FEA5313DBB23B6147
:102280007B8803F01F03FB60FB684FF0010202FA3A
:1022900003F3BB603B69012B04D17B6903F10C03A1
:1022A0007B610BE03B69022B04D17B6903F11003D6
:1022B0007B6103E07B6903F114037B617B78002B76
:1022C00006D07B697A691168BA680A431A6007E028
:1022D0007B697A691168BA686FEA02020A401A607B
:1022E00007F11C07BD4680BC704700BF80B487B0B3
:1022F00000AF78600B467B804FF00003FB604FF02F
:1023000000037B614FF00003BB604FF00003FB74E0
:102310007B88DBB24FEA5313DBB2BB607B8803F0F0
:102320001F037B617B694FF0010202FA03F37B61BB
:10233000BB68012B06D17B689B899BB27A691340ED
:102340007B610FE0BB68022B06D17B681B8A9BB2C6
:102350007A6913407B6105E07B689B8A9BB27A694E
:1023600013407B617B884FEA13239BB2FB60FB68C1
:102370004FF0010202FA03F3FB607B681B889BB2FB
:10238000FA681340FB607B69002B06D0FB68002BCA
:1023900003D04FF00103FB7402E04FF00003FB7425
:1023A000FB7C184607F11C07BD4680BC704700BF88
:1023B00080B500AF4FF01F00C0F240004FF00101A8
:1023C00000F0D6FC4FF40040C2F202004FF00101D1
:1023D00000F0F8FC40F213504FF0010100F01CFD3A
:1023E00080BD00BF80B582B000AF4FF000604FF0FD
:1023F000000101F0B9FF4FF4E06001F02FFF4FF052
:1024000026033B714FF000037B714FF00703BB7154
:102410004FF00103FB7107F10403184601F032FF8E
:102420004FF025033B714FF000037B714FF0060323
:10243000BB714FF00103FB7107F10403184601F073
:1024400021FF4FF038033B714FF000037B714FF0D9
:102450000003BB714FF00103FB7107F10403184641
:1024600001F010FF07F10807BD4680BD80B582B0BE
:1024700000AF49F2CC73C0F600037B6040F200036A
:10248000C2F200033B600BE07B681A683B681A608D
:102490003B6803F104033B607B6803F104037B604A
:1024A0003A6840F25C43C2F200039A42ECD3094816
:1024B00009494FF000028842B8BF40F8042BFFF6EC
:1024C000FAAF01F0F7F900F00DF807F10807BD4683
:1024D00080BD00005C0400208C36002080B400AF7A
:1024E000FEE700BF80B500AFFFF762FFFFF77AFF9E
:1024F00000F0DCFEFEF7ECFE01F0C8FBFEF7C4FACC
:10250000FDF742FE03F03AFD03F096FD01F042FFB5
:1025100000E000BF00F034F801F0C8FF42F6E453D9
:10252000C2F200031B79DBB2002B06D042F6E45363
:10253000C2F200034FF000021A7142F6E453C2F2F5
:1025400000039B78DBB2002B06D042F6E453C2F2C4
:1025500000034FF000029A7042F6E453C2F2000307
:102560005B78DBB2002BD4D042F6E453C2F2000316
:102570004FF000025A7001F02FFFFEF775FCC8E71C
:1025800080B582B000AF03F0E3FD0346002B00F0FE
:10259000238203F031FE0346FB7140F26043C2F236
:1025A00000031B78002B40F0D881FB79A3F12B03AB
:1025B000472B00F2CB8101A252F823F0DD26000860
:1025C000AF27000807270008852700084D290008C5
:1025D0004D2900084D2900084D2900084D29000803
:1025E0004D2900084D2900084D2900084D290008F3
:1025F0004D2900084D2900084D2900084D290008E3
:10260000032800084D290008D92700084D29000893
:102610004D2900082D2800084D2900084D290008E3
:1026200063280008332800084D2900084D290008B8
:102630004D2900084D2900084D2900084D290008A2
:102640004D2900084D2900084D2900084D29000892
:102650004D2900084D290008812800084D2900084F
:102660004D2900084D2900084D2900084D29000872
:102670004D2900084D2900084D2900080D290008A2
:102680004D290008CF2800084D2900084D290008D1
:102690004D290008CF2900084D2900084D290008C0
:1026A0005B2700084D2900084D2900084D29000826
:1026B0004D290008312700084D2900084D29000840
:1026C0004D2900084D2900084D2900084D29000812
:1026D0004D2900084D290008B128000840F6FC43A8
:1026E000C2F200031B78DBB2002B04D14FF00100D3
:1026F000FEF760FA70E140F6FC43C2F200034FF0CF
:102700002B02DA7068E140F6FC43C2F200031B784A
:10271000DBB2002B04D14FF00100FEF79DFA5BE124
:1027200040F6FC43C2F200034FF02D02DA7053E191
:1027300040F6FC43C2F200031B78DBB2002B04D14D
:102740004FF00A00FEF736FA46E140F6FC43C2F2CB
:1027500000034FF06902DA703EE140F6FC43C2F23A
:1027600000031B78DBB2002B04D14FF00A00FEF708
:1027700073FA31E140F6FC43C2F200034FF0640209
:10278000DA7029E140F6FC43C2F200031B78DBB2A9
:10279000002B04D14FF00100FEF7B0FA1CE140F627
:1027A000FC43C2F200034FF02E02DA7014E140F64F
:1027B000FC43C2F200031B78DBB2002B04D14FF0C4
:1027C0000100FEF7EFFA07E140F6FC43C2F2000316
:1027D0004FF02C02DA70FFE040F6FC43C2F2000337
:1027E0001B78DBB2002B04D14FF00A00FEF786FA0B
:1027F000F2E040F6FC43C2F200034FF03E02DA7012
:10280000EAE040F6FC43C2F200031B78DBB2002B87
:1028100004D14FF00A00FEF7C5FADDE040F6FC43B4
:10282000C2F200034FF03C02DA70D5E000F0D8F8B5
:10283000D2E040F6FC43C2F200031B78DBB2012B6E
:1028400007D140F6FC43C2F200034FF04502DA70B4
:10285000C2E042F66C63C2F200034FF065025A70A8
:10286000BAE042F66C63C2F200034FF064025A70A1
:1028700040F6FC43C2F200034FF04402DA70ABE0D2
:1028800040F6FC43C2F200031B78DBB2012B07D1F8
:1028900040F6FC43C2F200034FF05202DA709BE0B4
:1028A00042F66C63C2F200034FF045025A7093E0A7
:1028B00042F66C63C2F200034FF072025A7040F6A7
:1028C000FC43C2F200034FF07202DA7084E040F67B
:1028D0000053C2F20003D3F89C30002B79D140F6AC
:1028E0000053C2F20003D3F84031002B71D140F6FF
:1028F000FC43C2F200034FF000021A7040F6FC43A2
:10290000C2F200034FF06D02DA7062E040F600534D
:10291000C2F20003D3F89C30002B5CD140F6005388
:10292000C2F20003D3F84031002B54D140F6FC43EF
:10293000C2F200034FF001021A7040F6FC43C2F2EB
:1029400000034FF07302DA7000BF44E042F66C639C
:10295000C2F20003FA795A703EE0FB792F2B22D99C
:10296000FB79392B1FD840F26443C2F200031A6886
:1029700013464FEA83039B184FEA43031A4640F27B
:102980006443C2F200031A60FA7940F26443C2F26F
:1029900000031B68D318A3F1300240F26443C2F273
:1029A00000031A6018E0FB79582B15D140F2604300
:1029B000C2F200031B78332B00D000E000BF40F2CE
:1029C0006043C2F200034FF000021A7004E000BF3F
:1029D00002E000BF00E000BF07F10807BD4680BD70
:1029E00080B584B000AF4FF000037B6002F04CFF75
:1029F00040F60053C2F20003D3F89C2040F6FC439B
:102A0000C2F200031B78DBB24FEAC373D21840F660
:102A10000053C2F20003C3F89C2040F60053C2F2F8
:102A20000003BB604FF00003FB6049E040F2D0437D
:102A3000C2F200031B889BB21946BB681A7840F2A9
:102A4000D043C2F200035B181A73BB681B781A46A6
:102A50007B68D3187B60BB6803F10103BB6040F265
:102A6000D043C2F200039B889BB203F101039AB2E8
:102A700040F2D043C2F200039A8040F2D043C2F247
:102A800000031B889BB203F101039AB240F2D043CA
:102A9000C2F200031A8040F2D043C2F200031B8846
:102AA0009AB240F2FF339A4206D940F2D043C2F2C2
:102AB00000034FF000021A80FB6803F10103FB6082
:102AC000FA6840F28F139A42B0D940F60053C2F22E
:102AD0000003D3F89C30DAB240F60053C2F2000390
:102AE000C3F89C2002F014FD07F10403BB604FF013
:102AF0000003FB6043E040F2D043C2F200031B88B6
:102B00009BB21946BB681A7840F2D043C2F2000368
:102B10005B181A73BB6803F10103BB6040F2D0433A
:102B2000C2F200039B889BB203F101039AB240F208
:102B3000D043C2F200039A8040F2D043C2F20003B5
:102B40001B889BB203F101039AB240F2D043C2F258
:102B500000031A8040F2D043C2F200031B889AB2ED
:102B600040F2FF339A4206D940F2D043C2F200034A
:102B70004FF000021A80FB6803F10103FB60FB6861
:102B8000032BB8D903F0B8FA4FF48840C4F2000020
:102B900040F227714FF00102FFF756FB07F11007D3
:102BA000BD4680BD80B489B000AF78604FF00003AF
:102BB000BB614FF000037B614FF00003FB614FF0FE
:102BC00002033B614FF00003FB604FF00203BB6068
:102BD0004FF46053C4F202039B6803F00C03BB6123
:102BE000BB69042B0AD0082B0FD0002B60D17A6868
:102BF0004FF41053C0F2F403136060E07A684FF4AE
:102C00009053C0F27A03136059E04FF46053C4F25A
:102C100002035B6803F480034FEA9353FB604FF4B5
:102C20006053C4F202035B6803F03F03BB60FB68C0
:102C3000002B14D04FF49053C0F27A03BA68B3FB60
:102C4000F2F24FF46053C4F20203596847F6C073BE
:102C50000B404FEA931303FB02F3FB6113E04FF4C5
:102C60001053C0F2F403BA68B3FBF2F24FF46053AE
:102C7000C4F20203596847F6C0730B404FEA93133E
:102C800003FB02F3FB614FF46053C4F202035B6881
:102C900003F440334FEA134303F101034FEA4303C4
:102CA0003B61FA693B69B2FBF3F27B681A6006E0AC
:102CB0007A684FF41053C0F2F403136000BF4FF46E
:102CC0006053C4F202039B6803F0F003BB61BB696D
:102CD0004FEA1313BB6140F20803C2F20003BA6962
:102CE0009B181B78DBB27B617B681A687B6922FAD0
:102CF00003F27B685A604FF46053C4F202039B688E
:102D000003F4E053BB61BB694FEA9323BB6140F21C
:102D10000803C2F20003BA699B181B78DBB27B611F
:102D20007B685A687B6922FA03F27B689A604FF4E9
:102D30006053C4F202039B6803F46043BB61BB6948
:102D40004FEA5333BB6140F20803C2F20003BA6991
:102D50009B181B78DBB27B617B685A687B6922FA1F
:102D600003F27B68DA6007F12407BD4680BC704738
:102D700080B483B000AF78600B46FB70FB78002B0B
:102D80000CD04FF46053C4F202034FF46052C4F20B
:102D90000202116B7A680A431A630DE04FF4605324
:102DA000C4F202034FF46052C4F20202116B7A685B
:102DB0006FEA02020A401A6307F10C07BD4680BCA5
:102DC000704700BF80B483B000AF78600B46FB70E3
:102DD000FB78002B0CD04FF46053C4F202034FF485
:102DE0006052C4F20202116C7A680A431A640DE060
:102DF0004FF46053C4F202034FF46052C4F2020273
:102E0000116C7A686FEA02020A401A6407F10C0733
:102E1000BD4680BC704700BF80B483B000AF78600F
:102E20000B46FB70FB78002B0CD04FF46053C4F2C0
:102E300002034FF46052C4F20202516C7A680A43F2
:102E40005A640DE04FF46053C4F202034FF4605231
:102E5000C4F20202516C7A686FEA02020A405A64B4
:102E600007F10C07BD4680BC704700BF80B483B03B
:102E700000AF78600B46FB70FB78002B0CD04FF452
:102E80006053C4F202034FF46052C4F20202116AAA
:102E90007A680A431A620DE04FF46053C4F20203E9
:102EA0004FF46052C4F20202116A7A686FEA0202B9
:102EB0000A401A6207F10C07BD4680BC704700BF8C
:102EC00080B483B000AF78600B46FB70FB78002BBA
:102ED0000CD04FF46053C4F202034FF46052C4F2BA
:102EE0000202516A7A680A435A620DE04FF4605355
:102EF000C4F202034FF46052C4F20202516A7A68CB
:102F00006FEA02020A405A6207F10C07BD4680BC14
:102F1000704700BF80B485B000AF786039604FF073
:102F20000003FB604FF00003FB727B685B68FB6093
:102F3000FB6823F0407323F48073FB603B681B79CC
:102F40004FEA03223B681B681343FA681343FB6094
:102F50007B68FA685A607B689B68FB60FA684FF28E
:102F6000FD73CCF2FF031340FB603B681A693B68BA
:102F7000DB681A433B689B681A433B685B794FEAFE
:102F800043031343FA681343FB607B68FA689A6053
:102F90007B68DB6AFB60FB6823F47003FB603B68C3
:102FA0001B7D03F1FF33DAB2FB7A1343FB72FB7A2A
:102FB0004FEA0353FA681343FB607B68FA68DA62EE
:102FC00007F11407BD4680BC704700BF80B485B0D0
:102FD00000AF78604FF00003FB604FF40C53C4F275
:102FE00001035B68FB60FA6843F2E003CFF6FC7311
:102FF0001340FB607B681A687B685B681A437B68D8
:103000009B681A437B68DB681343FA681343FB60D1
:103010004FF40C53C4F20103FA685A6007F1140725
:10302000BD4680BC704700BF80B483B000AF7860FD
:103030000B46FB70FB78002B06D07B689B6843F047
:1030400001027B689A6005E07B689B6823F00102BF
:103050007B689A6007F10C07BD4680BC704700BFD3
:1030600080B485B000AF7860F970BA707B704FF0B3
:103070000003FB604FF00003BB60FB78092B27D9EE
:103080007B68DB68FB60FA7813464FEA43039B18C2
:10309000A3F11E034FF0070202FA03F3BB60BB6803
:1030A0006FEA0303FA681340FB607978FA781346F5
:1030B0004FEA43039B18A3F11E0301FA03F3BB601D
:1030C000FA68BB681343FB607B68FA68DA6022E049
:1030D0007B681B69FB60FA7813464FEA43039B1831
:1030E0004FF0070202FA03F3BB60BB686FEA030309
:1030F000FA681340FB607978FA7813464FEA430385
:103100009B1801FA03F3BB60FA68BB681343FB60CA
:103110007B68FA681A61BB78062B27D87B685B6BE3
:10312000FB60BB7803F1FF3213464FEA83039B1821
:103130004FF01F0202FA03F3BB60BB686FEA0303A0
:10314000FA681340FB60F978BB7803F1FF3213464D
:103150004FEA83039B1801FA03F3BB60FA68BB686C
:103160001343FB607B68FA685A6351E0BB780C2B11
:1031700027D87B681B6BFB60BA7813464FEA830342
:103180009B18A3F123034FF01F0202FA03F3BB6065
:10319000BB686FEA0303FA681340FB60F978BA78FA
:1031A00013464FEA83039B18A3F1230301FA03F3A9
:1031B000BB60FA68BB681343FB607B68FA681A63FC
:1031C00026E07B68DB6AFB60BA7813464FEA83032C
:1031D0009B18A3F141034FF01F0202FA03F3BB60F7
:1031E000BB686FEA0303FA681340FB60F978BA78AA
:1031F00013464FEA83039B18A3F1410301FA03F33B
:10320000BB60FA68BB681343FB607B68FA68DA62EC
:1032100007F11407BD4680BC704700BF80B483B07F
:1032200000AF78607B689B6843F080427B689A605F
:1032300007F10C07BD4680BC704700BF80B483B067
:1032400000AF78600B46FB70FB78002B06D07B68E4
:103250009B6843F480727B689A6005E07B689B689A
:1032600023F480727B689A6007F10C07BD4680BC2E
:10327000704700BF80B483B000AF78600B46FB702E
:10328000FB78002B06D07B689B6843F400727B6858
:103290009A6005E07B689B6823F400727B689A6003
:1032A00007F10C07BD4680BC704700BF80B582B0F7
:1032B00000AF4FF48050C4F202004FF008014FF00D
:1032C000010200F0A3FA4FF48050C4F202004FF064
:1032D00009014FF0010200F099FA4FF40060C4F2C6
:1032E00002004FF008014FF0030200F08FFA4FF494
:1032F00040733B604FF002033B714FF003037B715F
:103300004FF00003BB714FF00003FB713B464FF4DD
:103310008050C4F20200194600F09CF94FF480730B
:103320003B604FF002033B714FF003037B714FF0A2
:103330000003BB714FF00003FB713B464FF400608C
:10334000C4F20200194600F085F94FF040033B60DB
:103350004FF001033B714FF00003BB714FF00303CB
:103360007B714FF00003FB713B464FF44060C4F2A9
:103370000200194600F06EF94FF080033B604FF0F9
:1033800000033B714FF003037B714FF00003FB71AF
:103390003B464FF44060C4F20200194600F05AF96F
:1033A0004FF00000C4F202004FF009014FF0070295
:1033B00000F02CFA4FF00000C4F202004FF00A01B6
:1033C0004FF0070200F022FA4FF400733B604FF019
:1033D0000003BB714FF00103FB714FF002033B711F
:1033E0004FF003037B713B464FF00000C4F2020034
:1033F000194600F02FF94FF480633B604FF0000353
:10340000BB714FF00103FB714FF002033B714FF0B2
:1034100003037B713B464FF00000C4F202001946E3
:1034200000F018F94FF00000C4F202004FF0020162
:103430004FF0070200F0EAF94FF00000C4F202007A
:103440004FF003014FF0070200F0E0F94FF00403E2
:103450003B604FF00003BB714FF00103FB714FF075
:1034600002033B714FF003037B713B464FF00000BA
:10347000C4F20200194600F0EDF84FF008033B607B
:103480004FF00003BB714FF00103FB714FF00203DB
:103490003B714FF003037B713B464FF00000C4F2D9
:1034A0000200194600F0D6F84FF002033B604FF0DF
:1034B00001033B714FF00003BB714FF003037B71BD
:1034C0004FF00003FB713B464FF00000C4F20200D6
:1034D000194600F0BFF84FF0C1033B604FF0030303
:1034E0003B714FF00003FB713B464FF00000C4F20C
:1034F0000200194600F0AEF84FF03F033B604FF07A
:1035000003033B714FF00003FB713B464FF4006037
:10351000C4F20200194600F09DF84FF003033B602F
:103520004FF003033B714FF00003FB713B464FF438
:103530008060C4F20200194600F08CF84FF03003AE
:103540003B604FF003033B714FF00003FB713B46C0
:103550004FF00000C4F20200194600F07BF84FF073
:10356000C0033B604FF000033B714FF003037B71DE
:103570004FF00003FB713B464FF48060C4F2020041
:10358000194600F067F84FF020033B604FF001034D
:103590003B714FF00003BB714FF003037B714FF0A1
:1035A0000003FB713B464FF48060C4F202001946F1
:1035B00000F050F84FF03F033B604FF001033B71C8
:1035C0004FF00003BB714FF003037B714FF000031A
:1035D000FB713B464FF44060C4F20200194600F014
:1035E00039F84FF40060C4F202004FF00A014FF0C6
:1035F000060200F00BF94FF40060C4F202004FF035
:103600000B014FF0060200F001F94FF40060C4F224
:1036100002004FF00C014FF0060200F0F7F84FF4F3
:10362000E0533B604FF002033B714FF00003BB716E
:103630004FF003037B714FF00203FB713B464FF4E5
:103640000060C4F20200194600F004F807F1080710
:10365000BD4680BD80B487B000AF786039604FF060
:1036600000037B614FF000033B614FF00003FB6000
:103670004FF000037B6186E07B694FF0010202FAA4
:1036800003F33B613B681A683B691340FB60FA68CF
:103690003B699A4273D17B681A687B694FEA43039E
:1036A0004FF0030101FA03F36FEA03031A407B684A
:1036B0001A607B681A683B681B7919467B694FEA78
:1036C000430301FA03F31A437B681A603B681B79D2
:1036D000012B03D03B681B79022B34D17B689A689D
:1036E0007B694FEA43034FF0030101FA03F36FEAEA
:1036F00003031A407B689A607B689A683B685B7931
:1037000019467B694FEA430301FA03F31A437B68C6
:103710009A607B685A687B699BB24FF0010101FA9D
:1037200003F36FEA03031A407B685A607B685A68A8
:103730003B689B7919467B699BB201FA03F39BB204
:103740001A437B685A607B68DA687B699BB24FEAF0
:1037500043034FF0030101FA03F36FEA03031A4036
:103760007B68DA607B68DA683B68DB7919467B69DD
:103770004FEA430301FA03F31A437B68DA607B697B
:1037800003F101037B617B690F2B7FF675AF07F1B6
:103790001C07BD4680BC704780B485B000AF786020
:1037A0000B467B804FF00003FB737B681A697B88B4
:1037B0001340002B03D04FF00103FB7302E04FF0E6
:1037C0000003FB73FB7B184607F11407BD4680BC62
:1037D000704700BF80B483B000AF78600B467B8039
:1037E0007B687A881A8307F10C07BD4680BC704756
:1037F00080B483B000AF78600B467B807B687A88AA
:103800005A8307F10C07BD4680BC704780B485B071
:1038100000AF786013460A467A807B704FF0000351
:10382000FB604FF00003BB607A787B8803F00703EE
:103830004FEA830302FA03F3FB607B884FEAD3036A
:103840009BB21A467B884FEAD3039BB219467B682A
:1038500001F1080153F821107B8803F007034FEAB8
:1038600083034FF00F0000FA03F36FEA03031940DC
:103870007B6802F1080243F822107B884FEAD303E9
:103880009BB21A467B6802F1080253F82220FB68BB
:103890001343BB607B884FEAD3039BB21A467B6815
:1038A00002F10802B96843F8221007F11407BD4677
:1038B00080BC704780B500AF4FF46053C4F2020380
:1038C0004FF46052C4F20202126842F001021A6020
:1038D0004FF46053C4F202034FF000029A604FF4B9
:1038E0006053C4F202034FF46052C4F20202126841
:1038F00022F0847222F480321A604FF46053C4F2D2
:10390000020343F21002C2F200425A604FF46053C5
:10391000C4F202034FF46052C4F20202126822F4AD
:1039200080221A604FF46053C4F202034FF0000289
:10393000DA6000F009F84FF46D43CEF200034FF067
:1039400000629A6080BD00BF80B483B000AF4FF0CA
:1039500000037B604FF000033B604FF46053C4F200
:1039600002034FF46052C4F20202126842F4803241
:103970001A604FF46053C4F202031B6803F400336F
:103980003B607B6803F101037B603B68002B03D144
:103990007B68B3F5A06FECD14FF46053C4F202031F
:1039A0001B6803F40033002B03D04FF001033B608E
:1039B00002E04FF000033B603B68012B40F0828047
:1039C0004FF46053C4F202034FF46052C4F2020297
:1039D000126C42F080521A644FF4E043C4F20003C8
:1039E0004FF4E042C4F20002126842F480421A60CE
:1039F0004FF46053C4F202034FF46052C4F2020267
:103A000092689A604FF46053C4F202034FF460521C
:103A1000C4F20202926842F400429A604FF460538A
:103A2000C4F202034FF46052C4F20202926842F4FC
:103A3000C0529A604FF46053C4F2020345F2084248
:103A4000C0F240725A604FF46053C4F202034FF464
:103A50006052C4F20202126842F080721A6000BF23
:103A60004FF46053C4F202031B6803F00073002B91
:103A7000F6D04FF47053C4F2020340F205621A60AC
:103A80004FF46053C4F202034FF46052C4F20202D6
:103A9000926822F003029A604FF46053C4F202036A
:103AA0004FF46052C4F20202926842F002029A603D
:103AB00000BF4FF46053C4F202039B6803F00C0391
:103AC000082BF6D107F10C07BD4680BC704700BF3C
:103AD00080B485B000AF786039604FF00003FB60C0
:103AE0007B681B68FB60FA6848F23F03CFF21C0357
:103AF0001340FB603B681A683B68DB681A433B680D
:103B00005B691A433B689B691A433B68DB691A434C
:103B10003B681B6A1A433B685B6A1A433B689B6AB3
:103B20001A433B685B6B1A433B689B6B1343FA6811
:103B30001343FB607B68FA681A607B685B69FB6013
:103B4000FB6823F00703FB603B68DA6A3B681B6B8A
:103B50001343FA681343FB607B68FA685A613B6859
:103B60001A697B685A603B685A687B689A603B6850
:103B70009A687B68DA6007F11407BD4680BC70471D
:103B800080B483B000AF78600B46FB70FB78002BED
:103B900006D07B681B6843F001027B681A6005E071
:103BA0007B681B6823F001027B681A6007F10C0731
:103BB000BD4680BC704700BF80B485B000AFF860E0
:103BC000B9601346FB71BB6803F08003002B0FD074
:103BD000FB79002B06D0FB685B6943F08002FB6831
:103BE0005A6105E0FB685B6923F08002FB685A615B
:103BF000BB68802B15D0FB79002B08D0FB681A68B6
:103C0000BB6803F01E031A43FB681A6009E0FB68F7
:103C10001A68BB6803F01E036FEA03031A40FB68CF
:103C20001A6007F11407BD4680BC704780B485B0A8
:103C300000AF786039607A6846F20F43C4F202033D
:103C40009A4205D84FF4C043C4F20203FB6004E07B
:103C50004FF4C843C4F20203FB603B6803F0005317
:103C6000002B07D03B6823F0F02323F08213FA687F
:103C7000D36006E03B6823F0F02323F08213FA6858
:103C8000936007F11407BD4680BC704780B59AB0B9
:103C900000AF4FF000037B660CE042F6EC53C2F23B
:103CA00000037A6E4FF0000123F812107B6E03F1CF
:103CB00001037B667B6E3F2BEFD94FF000033B6027
:103CC00042F6EC53C2F20003BB6042F24C03C4F272
:103CD00001037B604FF00003FB604FF040033B614A
:103CE0004FF000037B614FF48063BB614FF40063CE
:103CF000FB614FF400533B624FF480737B624FF4DF
:103D00000033BB624FF00403FB624FF001033B63DF
:103D10004FF000037B634FF00003BB633B4646F26A
:103D20001040C4F202001946FFF7D2FE46F21040DE
:103D3000C4F202004FF00101FFF722FF4FF0000331
:103D40007B654FF00003BB654FF00003FB654FF050
:103D500000033B6607F154031846FFF737F94FF0AD
:103D60000003FB634FF0010387F840304FF001037D
:103D700087F841304FF000037B644FF06063BB6411
:103D80004FF00003FB644FF0080387F8503007F151
:103D90003C034FF40050C4F201001946FFF7BAF893
:103DA0004FF40050C4F201004FF00F014FF0010238
:103DB0004FF00003FFF754F94FF40050C4F2010034
:103DC0004FF00E014FF002024FF00003FFF748F9E9
:103DD0004FF40050C4F201004FF009014FF003020C
:103DE0004FF00003FFF73CF94FF40050C4F201001C
:103DF0004FF008014FF004024FF00003FFF730F9D5
:103E00004FF40050C4F201004FF00A014FF00502D8
:103E10004FF00003FFF724F94FF40050C4F2010003
:103E20004FF00B014FF006024FF00003FFF718F9B7
:103E30004FF40050C4F201004FF00C014FF00702A4
:103E40004FF00003FFF70CF94FF40050C4F20100EB
:103E50004FF00D014FF008024FF00003FFF700F99B
:103E60004FF40050C4F201004FF00101FFF702FAD5
:103E70004FF40050C4F201004FF00101FFF7DEF9EA
:103E800046F21040C4F202004FF010014FF0010260
:103E9000FFF792FE4FF40050C4F201004FF0010111
:103EA000FFF7C2F84FF40050C4F20100FFF7B6F973
:103EB00007F16807BD4680BD80B485B000AF0346FA
:103EC000FB714FF00003BB60FB79BB814FF0000337
:103ED000FB7312E0BA8942F6EC53C2F2000333F8E6
:103EE00012309BB2BA68D318BB60BB8903F10803D8
:103EF000BB81FB7B03F10103FB73FB7B072BE9D940
:103F0000BB684FEAD303BB60BB68184607F11407D0
:103F1000BD4680BC704700BF80B483B000AF7860FE
:103F200039607B683A6802FB03F37B607A6844F689
:103F3000D353C1F26203A3FB02134FEA93137B60D6
:103F40007B6840F6C41202FB03F37B607A6840F2A0
:103F50000113C0F21003A3FB0213D21A4FEA52025C
:103F60009B184FEAD3237B607B68184607F10C0748
:103F7000BD4680BC704700BF80B500AF4FF0000069
:103F8000FFF79AFF0346184640F2F671FFF7C4FFA9
:103F9000024640F6DC43C2F200031A604FF0010013
:103FA000FFF78AFF0346184640F2F671FFF7B4FFA9
:103FB000024640F6DC43C2F200035A604FF00200B2
:103FC000FFF77AFF0346184640F2F671FFF7A4FFA9
:103FD000024640F6DC43C2F200039A604FF0030051
:103FE000FFF76AFF0346184640F2F671FFF794FFA9
:103FF000024640F6DC43C2F20003DA6080BD00BF37
:1040000080B500AF4FF00400FFF756FF0346184697
:1040100040F26D61FFF780FF024640F6DC43C2F2DA
:1040200000031A614FF00500FFF746FF03461846EC
:1040300040F23D61FFF770FF024640F6DC43C2F2FA
:1040400000035A6180BD00BF80B500AF4FF006008D
:10405000FFF732FF034618464FF47A71FFF75CFF13
:1040600003461A4640F6DC43C2F200039A614FF061
:104070000700FFF721FF034618464FF47A71FFF758
:104080004BFF03461A4640F6DC43C2F20003DA61F6
:1040900080BD00BF80B582B000AF78607A684FF411
:1040A0004053C4F201039A420CD14FF480504FF0B8
:1040B0000101FEF705FF4FF480504FF00001FEF7BD
:1040C000FFFE26E07A684FF46053C4F200039A4280
:1040D0000CD14FF480404FF00101FEF7C7FE4FF4C2
:1040E00080404FF00001FEF7C1FE12E07A684FF405
:1040F0007053C4F200039A420BD14FF400404FF0CA
:104100000101FEF7B3FE4FF400404FF00001FEF74F
:10411000ADFE07F10807BD4680BD00BF80B485B085
:1041200000AF786039604FF00003FB817B681B882B
:10413000FB81FB8903F44153FB813B681A883B6890
:104140005B8813439AB23B689B8813439AB23B68DF
:10415000DB8813439AB23B681B8913439AB23B68CE
:104160005B8913439AB23B689B8913439AB23B68BD
:10417000DB8913439AB2FB891343FB817B68FA897D
:104180001A807B689B8B9BB223F400639AB27B6896
:104190009A833B681A8A7B681A8207F11407BD4626
:1041A00080BC704780B483B000AF78600B46FB7072
:1041B000FB78002B08D07B681B889BB243F0400340
:1041C0009AB27B681A8007E07B681B889BB223F059
:1041D00040039AB27B681A8007F10C07BD4680BC89
:1041E000704700BF80B483B000AF78607B689B8964
:1041F0009BB2184607F10C07BD4680BC704700BF54
:1042000080B483B000AF78600B467B807B687A888F
:104210009A8107F10C07BD4680BC704780B485B019
:1042200000AF78600B467B804FF00003FB737B6828
:104230001B899AB27B8813409BB2002B03D04FF0AE
:104240000103FB7302E04FF00003FB73FB7B184696
:1042500007F11407BD4680BC704700BF80B483B02F
:1042600000AF78604FF46D43CEF200037A6842F0FD
:10427000BF6242F40032DA6007F10C07BD4680BC31
:10428000704700BF80B485B000AF78604FF0000386
:10429000FB734FF00003BB734FF00F037B737B681E
:1042A000DB78002B45D04FF46D43CEF20003DB6882
:1042B0006FEA030303F4E0634FEA1323FB73FB7B12
:1042C000C3F10403BB737A7BFB7B42FA03F37B737A
:1042D0007B685B781A46BB7B02FA03F3FB737B684F
:1042E0009A787B7B1340DAB2FB7B1343FB73FB7B37
:1042F0004FEA0313FB734FF46143CEF200037A6875
:1043000012789B18FA7B83F800234FF46143CEF2B6
:1043100000037A6812784FEA5212D2B279680978AB
:1043200001F01F014FF0010000FA01F143F82210E3
:1043300014E04FF46143CEF200037A6812784FEA3A
:104340005212D2B27968097801F01F014FF00100D2
:1043500000FA01F102F1200243F8221007F11407DC
:10436000BD4680BC704700BF80B483B000AF7860AA
:1043700039604FF46D43CEF200033A6822F0604298
:1043800022F07F0279680A439A6007F10C07BD4664
:1043900080BC704780B400AF40F6FC43C2F200031B
:1043A0004FF000021A7040F6FC43C2F200034FF0D7
:1043B00000029A7040F6FC43C2F200034FF0000284
:1043C0005A7040F6FC43C2F200034FF00002DA706C
:1043D000BD4680BC704700BF80B500AF40F6FC43CF
:1043E000C2F200031B78DBB2002B2BD140F6FC435A
:1043F000C2F20003DB78DBB2002B56D040F6FC4360
:10440000C2F20003DB78DBB2184601F035FF40F65C
:10441000FC43C2F20003DB78DBB2184601F02CFF4C
:104420004FF48050C4F2010040F227714FF00102B6
:10443000FDF70AFF40F6FC43C2F200034FF0000212
:10444000DA7032E040F6FC43C2F200031B78DBB2C4
:10445000012B2AD140F6FC43C2F20003DB78DBB229
:10446000002B22D040F6FC43C2F20003DB78DBB223
:10447000184601F001FF40F6FC43C2F20003DB786E
:10448000DBB2184601F0F8FE4FF48050C4F2010090
:1044900040F227714FF00102FDF7D6FE40F6FC43D3
:1044A000C2F200034FF00002DA7080BD80B582B026
:1044B00000AF40F6FC43C2F200031B78DBB2002BD6
:1044C00040F07C8101F030FE0346002B00F0B28208
:1044D00001F052FE0346BB7140F6FC43C2F20003FA
:1044E0005B78DBB2062B00F2618101A252F823F067
:1044F0000D4500082545000859450008A14500085C
:10450000E94500083146000879460008BB79FF2BD1
:1045100040F0968240F6FC43C2F200034FF00102E5
:104520005A708DE2BB79FF2B0ED140F6FC43C2F2EC
:1045300000034FF002025A7040F26843C2F20003D7
:104540004FF000021A7088E240F6FC43C2F200030A
:104550004FF000025A7080E240F26843C2F200035A
:104560001A78114640F26C43C2F20003B8795854ED
:1045700002F10103DAB240F26843C2F200031A709A
:1045800040F26843C2F200031B78032B40F25A82C8
:1045900040F6FC43C2F200034FF003025A7051E2AE
:1045A00040F6FC43C2F20003BA799A70BB79092B3A
:1045B00007D840F6FC43C2F200034FF004025A70E1
:1045C0004BE2BB790A2B07D140F6FC43C2F2000351
:1045D0004FF005025A7040E240F6FC43C2F200037D
:1045E0004FF000025A7038E240F26843C2F2000312
:1045F0001A78114640F26C43C2F20003B87958545D
:1046000002F10103DAB240F26843C2F200031A7009
:1046100040F26843C2F200031B78132B40F214826D
:1046200040F6FC43C2F200034FF006025A700BE260
:1046300040F26843C2F200031A78114640F26C431C
:10464000C2F20003B879585402F10103DAB240F221
:104650006843C2F200031A7040F26843C2F20003DA
:104660001B78072B40F2F28140F6FC43C2F20003B4
:104670004FF006025A70E9E140F28043C2F20003B3
:104680004FF000021A704FF00003FB7115E0FA7949
:1046900040F26C43C2F200039A5C40F28043C2F2E3
:1046A00000031B78D318DAB240F28043C2F2000351
:1046B0001A70FB7903F10103FB7140F26843C2F207
:1046C00000031B78FA799A42E1D340F28043C2F2A8
:1046D00000031B78BA799A425FD140F60053C2F2C8
:1046E000000303F5035303F120031B78DBB2002B17
:1046F00053D0D14B3B6040F26C43C2F200031A78B6
:104700003B681A703B6803F1010240F26C43C2F24D
:1047100000035B781370C94B3B6040F26C43C2F2FC
:1047200000039A783B681A703B6803F1010240F27B
:104730006C43C2F20003DB78137040F60053C2F200
:1047400000033B6040F6FC43C2F200039B78DBB2FF
:104750004FEA03133A68D3183B603B6803F1A403A4
:104760003B604FF00403FB710FE0FB79A3F10403FE
:104770003A68D218F97940F26C43C2F200035B5CEC
:104780001370FB7903F10103FB7140F26843C2F23D
:1047900000031B78FA799A42E7D340F6FC43C2F251
:1047A00000034FF000025A7000BF56E140F6FC4390
:1047B000C2F200034FF000025A703BE140F6FC43A6
:1047C000C2F200031B78DBB2012B40F0468101F0FE
:1047D000ABFC0346002B00F0408101F0CDFC03460A
:1047E000BB7140F6FC43C2F200035B78DBB2062BE0
:1047F00000F2178101A252F823F000BF1948000807
:1048000031480008234A000865480008AD48000800
:10481000F54800083D490008BB79FF2B40F018819E
:1048200040F6FC43C2F200034FF001025A700FE160
:10483000BB79FF2B0ED140F6FC43C2F200034FF0D0
:1048400003025A7040F26843C2F200034FF00002C4
:104850001A7002E140F6FC43C2F200034FF000027E
:104860005A70FAE040F6FC43C2F20003BA799A703B
:10487000BB79092B07D840F6FC43C2F200034FF086
:1048800004025A70E9E0BB790A2B07D140F6FC43D9
:10489000C2F200034FF005025A70DEE040F6FC431E
:1048A000C2F200034FF000025A70D6E040F26843B3
:1048B000C2F200031A78114640F26C43C2F20003C0
:1048C000B879585402F10103DAB240F26843C2F2F7
:1048D00000031A7040F26843C2F200031B780F2BEA
:1048E00040F2B88040F6FC43C2F200034FF00602EB
:1048F0005A70AFE040F26843C2F200031A781146E2
:1049000040F26C43C2F20003B879585402F101033B
:10491000DAB240F26843C2F200031A7040F2684310
:10492000C2F200031B78032B40F2968040F6FC4352
:10493000C2F200034FF006025A708DE040F280434D
:10494000C2F200034FF000021A704FF00003FB7137
:1049500015E0FA7940F26C43C2F200039A5C40F22F
:104960008043C2F200031B78D318DAB240F28043CE
:10497000C2F200031A70FB7903F10103FB7140F2EC
:104980006843C2F200031B78FA799A42E1D340F2FD
:104990008043C2F200031B78BA799A4239D140F6BB
:1049A0000053C2F2000303F5035303F120031B7805
:1049B000DBB2002B2DD040F60053C2F200033B6067
:1049C00040F6FC43C2F200039B78DBB24FEA0313CC
:1049D0003A68D3183B603B6803F1A4033B604FF097
:1049E0000003FB710DE0FB793A68D218F97940F2C7
:1049F0006C43C2F200035B5C1370FB7903F10103AB
:104A0000FB7140F26843C2F200031B78FA799A42C4
:104A1000E9D340F6FC43C2F200034FF000025A70A3
:104A20001BE040F6FC43C2F200034FF000025A7054
:104A300000BF12E000BF10E07E2E00207C2E002080
:104A400000BF0AE000BF08E000BF06E000BF04E0CE
:104A500000BF02E000BF00E000BF07F10807BD464D
:104A600080BD00BF98B500AF40F60053C2F200030E
:104A700003F5035303F120031B78DBB2002B00F096
:104A8000468540F60053C2F2000303F5035303F1D9
:104A900018031A6849F63F439A4200F2388540F6F7
:104AA0000053C2F200035A6840F6DC43C2F200032E
:104AB0001B68D21840F60053C2F200035A6040F659
:104AC0000053C2F200031A6940F6DC43C2F200034D
:104AD0005B68D21840F60053C2F200031A6140F638
:104AE0000053C2F20003DA6940F6DC43C2F200036D
:104AF0009B68D21840F60053C2F20003DA6140F618
:104B00000053C2F200039A6A40F6DC43C2F200038B
:104B1000DB68D21840F60053C2F200039A6240F6F6
:104B20000053C2F200035A6E40F6DC43C2F20003A7
:104B30001B69D21840F60053C2F200035A6640F6D1
:104B40000053C2F200031A6F40F6DC43C2F20003C6
:104B50005B69D21840F60053C2F200031A6740F6B0
:104B60000053C2F200035A6B40F28443C2F20003C6
:104B70005B899BB2D21840F60053C2F200035A631D
:104B800040F60053C2F200031A6C40F28443C2F2B2
:104B900000039B899BB2D21840F60053C2F2000377
:104BA0001A6440F60053C2F20003DA6C40F2844308
:104BB000C2F20003DB899BB2D21840F60053C2F266
:104BC0000003DA6440F60053C2F200039A6D40F22B
:104BD0008443C2F200031B8A9BB2D21840F60053F2
:104BE000C2F200039A6540F60053C2F20003DA6F86
:104BF00042F66C63C2F200039B68D21840F6005381
:104C0000C2F20003DA6740F60053C2F20003D3F8A1
:104C1000882042F66C63C2F20003DB68D21840F6CB
:104C20000053C2F20003C3F8882040F60053C2F2DA
:104C30000003D3F8902040F6DC43C2F200039B69E6
:104C4000D21840F60053C2F20003C3F8902040F699
:104C50000053C2F20003D3F8942040F6DC43C2F2C2
:104C60000003DB69D21840F60053C2F20003C3F818
:104C7000942040F60053C2F20003D3F84C4140F2B6
:104C80008443C2F200035B6B184604F05FFC0346EA
:104C9000E21840F60053C2F20003C3F84C2140F67C
:104CA0000053C2F20003D3F8644140F28443C2F2DD
:104CB0000003DB6B184604F049FC0346E21840F69B
:104CC0000053C2F20003C3F8642140F60053C2F25D
:104CD0000003D3F87C4140F28443C2F200035B6CD2
:104CE000184604F033FC0346E21840F60053C2F2C3
:104CF0000003C3F87C2140F60053C2F20003D3F84E
:104D0000584140F28443C2F200039B6B184604F002
:104D10001DFC0346E21840F60053C2F20003C3F83C
:104D2000582140F60053C2F20003D3F8704140F21C
:104D30008443C2F200031B6C184604F007FC0346D0
:104D4000E21840F60053C2F20003C3F8702140F6A7
:104D50000053C2F20003D3F8884140F28443C2F208
:104D600000039B6C184604F0F1FB0346E21840F682
:104D70000053C2F20003C3F8882140F6DC43C2F2BC
:104D800000031A6840F60053C2F200031B689A42FF
:104D900009D940F6DC43C2F200031A6840F600531A
:104DA000C2F200031A6040F6DC43C2F200035A6804
:104DB00040F60053C2F20003DB689A4209D940F67C
:104DC000DC43C2F200035A6840F60053C2F200030B
:104DD000DA6040F6DC43C2F200039A6840F6005302
:104DE000C2F200039B699A4209D940F6DC43C2F241
:104DF00000039A6840F60053C2F200039A6140F63D
:104E0000DC43C2F20003DA6840F60053C2F200034A
:104E10005B6A9A4209D940F6DC43C2F20003DA68C1
:104E200040F60053C2F200035A6240F6DC43C2F27D
:104E300000031A6940F60053C2F200031B6E9A4247
:104E400009D940F6DC43C2F200031A6940F6005368
:104E5000C2F200031A6640F6DC43C2F200035A694C
:104E600040F60053C2F20003DB6E9A4209D940F6C5
:104E7000DC43C2F200035A6940F60053C2F2000359
:104E8000DA6640F28443C2F200035B899BB21A46A1
:104E900040F60053C2F200031B6B9A420BD940F25A
:104EA0008443C2F200035B899BB21A4640F600536A
:104EB000C2F200031A6340F28443C2F200039B89EA
:104EC0009BB21A4640F60053C2F20003DB6B9A42D3
:104ED0000BD940F28443C2F200039B899BB21A466D
:104EE00040F60053C2F20003DA6340F28443C2F298
:104EF0000003DB899BB21A4640F60053C2F200035E
:104F00009B6C9A420BD940F28443C2F20003DB89C6
:104F10009BB21A4640F60053C2F200039A6440F274
:104F20008443C2F200031B8A9BB21A4640F6005328
:104F3000C2F200035B6D9A420BD940F28443C2F285
:104F400000031B8A9BB21A4640F60053C2F20003CC
:104F50005A6542F66C63C2F200039A6840F6005349
:104F6000C2F200039B6F9A4209D942F66C63C2F207
:104F700000039A6840F60053C2F200039A6742F6B3
:104F80006C63C2F20003DA6840F60053C2F2000319
:104F9000D3F884309A420AD942F66C63C2F2000315
:104FA000DA6840F60053C2F20003C3F8842040F2EE
:104FB0008443C2F200035B6B184604F0C7FA024652
:104FC00040F60053C2F20003D3F848319A420EDD96
:104FD00040F28443C2F200035B6B184604F0B6FA59
:104FE000024640F60053C2F20003C3F8482140F2E3
:104FF0008443C2F20003DB6B184604F0A7FA0246B2
:1050000040F60053C2F20003D3F860319A420EDD3D
:1050100040F28443C2F20003DB6B184604F096FAB8
:10502000024640F60053C2F20003C3F8602140F28A
:105030008443C2F200035B6C184604F087FA024610
:1050400040F60053C2F20003D3F878319A420EDDE5
:1050500040F28443C2F200035B6C184604F076FA17
:10506000024640F60053C2F20003C3F8782140F232
:105070008443C2F200031B6C184604F067FA024630
:1050800040F60053C2F20003D3F86C319A420EDDB1
:1050900040F28443C2F200031B6C184604F056FA37
:1050A000024640F60053C2F20003C3F86C2140F2FE
:1050B0008443C2F200039B6B184604F047FA024691
:1050C00040F60053C2F20003D3F854319A420EDD89
:1050D00040F28443C2F200039B6B184604F036FA98
:1050E000024640F60053C2F20003C3F8542140F2D6
:1050F0008443C2F200039B6C184604F027FA024670
:1051000040F60053C2F20003D3F884319A420EDD18
:1051100040F28443C2F200039B6C184604F016FA76
:10512000024640F60053C2F20003C3F8842140F661
:10513000DC43C2F200031A6840F60053C2F20003D7
:105140009B689A4209D240F6DC43C2F200031A6817
:1051500040F60053C2F200039A6040F6DC43C2F20C
:1051600000035A6840F60053C2F200035B699A429A
:1051700009D240F6DC43C2F200035A6840F60053FD
:10518000C2F200035A6140F6DC43C2F200039A689F
:1051900040F60053C2F200031B6A9A4209D240F65D
:1051A000DC43C2F200039A6840F60053C2F20003E7
:1051B0001A6240F6DC43C2F20003DA6840F600539C
:1051C000C2F20003DB6A9A4209D240F6DC43C2F223
:1051D0000003DA6840F60053C2F20003DA6240F6D8
:1051E000DC43C2F200031A6940F60053C2F2000326
:1051F0009B6E9A4209D240F6DC43C2F200031A6960
:1052000040F60053C2F200039A6640F6DC43C2F255
:1052100000035A6940F60053C2F200035B6F9A42E2
:1052200009D240F6DC43C2F200035A6940F600534B
:10523000C2F200035A6740F28443C2F200035B8962
:105240009BB21A4640F60053C2F200039B6B9A428F
:105250000BD240F28443C2F200035B899BB21A4630
:1052600040F60053C2F200039A6340F28443C2F254
:1052700000039B899BB21A4640F60053C2F200031A
:105280005B6C9A420BD240F28443C2F200039B89CA
:105290009BB21A4640F60053C2F200035A6440F231
:1052A0008443C2F20003DB899BB21A4640F60053E6
:1052B000C2F200031B6D9A420BD240F28443C2F249
:1052C0000003DB899BB21A4640F60053C2F200038A
:1052D0001A6540F28443C2F200031B8A9BB21A464D
:1052E00040F60053C2F20003DB6D9A420BD240F24B
:1052F0008443C2F200031B8A9BB21A4640F6005355
:10530000C2F20003DA6542F66C63C2F200039A68E7
:1053100040F60053C2F20003D3F880309A420AD21A
:1053200042F66C63C2F200039A6840F60053C2F280
:105330000003C3F8802042F66C63C2F20003DA680F
:1053400040F60053C2F20003D3F88C309A420AD2DE
:1053500042F66C63C2F20003DA6840F60053C2F210
:105360000003C3F88C2040F28443C2F200035B6B5D
:10537000184604F0EBF8024640F60053C2F2000370
:10538000D3F850319A420EDA40F28443C2F200035D
:105390005B6B184604F0DAF8024640F60053C2F29E
:1053A0000003C3F8502140F28443C2F20003DB6BD8
:1053B000184604F0CBF8024640F60053C2F2000350
:1053C000D3F868319A420EDA40F28443C2F2000305
:1053D000DB6B184604F0BAF8024640F60053C2F2FE
:1053E0000003C3F8682140F28443C2F200035B6CFF
:1053F000184604F0ABF8024640F60053C2F2000330
:10540000D3F880319A420EDA40F28443C2F20003AC
:105410005B6C184604F09AF8024640F60053C2F25C
:105420000003C3F8802140F28443C2F200039B6B67
:10543000184604F08BF8024640F60053C2F200030F
:10544000D3F85C319A420EDA40F28443C2F2000390
:105450009B6B184604F07AF8024640F60053C2F2FD
:105460000003C3F85C2140F28443C2F200031B6CCA
:10547000184604F06BF8024640F60053C2F20003EF
:10548000D3F874319A420EDA40F28443C2F2000338
:105490001B6C184604F05AF8024640F60053C2F25C
:1054A0000003C3F8742140F28443C2F200039B6CF2
:1054B000184604F04BF8024640F60053C2F20003CF
:1054C000D3F88C319A420EDA40F28443C2F20003E0
:1054D0009B6C184604F03AF8024640F60053C2F2BC
:1054E0000003C3F88C2140F60053C2F2000303F519
:1054F000035303F118031B6803F1010240F6005344
:10550000C2F2000303F5035303F118031A6098BDB8
:1055100080B400AF40F60053C2F200034FF0000227
:105520005A6040F60053C2F200034FF000021A61C5
:1055300040F60053C2F200034FF00002DA6140F679
:105540000053C2F200034FF000029A6240F600538B
:10555000C2F200034FF000025A6640F60053C2F256
:1055600000034FF000021A6740F60053C2F2000336
:105570004FF000025A6340F60053C2F200034FF0AE
:1055800000021A6440F60053C2F200034FF000021A
:10559000DA6440F60053C2F200034FF000029A654D
:1055A00040F60053C2F200034FF00002DA6740F603
:1055B0000053C2F200034FF00002C3F8882040F607
:1055C0000053C2F200034FF00002C3F8902040F6EF
:1055D0000053C2F200034FF00002C3F8942040F6DB
:1055E0000053C2F200034FF00002C3F84C2140F612
:1055F0000053C2F200034FF00002C3F8642140F6EA
:105600000053C2F200034FF00002C3F87C2140F6C1
:105610000053C2F200034FF00002C3F8582140F6D5
:105620000053C2F200034FF00002C3F8702140F6AD
:105630000053C2F200034FF00002C3F8882140F685
:105640000053C2F200034FF000021A6040F600530C
:10565000C2F200034FF00002DA6040F60053C2F2DB
:1056600000034FF000029A6140F60053C2F20003BB
:105670004FF000025A6240F60053C2F200034FF0AE
:1056800000021A6640F60053C2F200034FF0000217
:10569000DA6640F60053C2F200034FF000021A63CC
:1056A00040F60053C2F200034FF00002DA6340F606
:1056B0000053C2F200034FF000029A6440F6005318
:1056C000C2F200034FF000025A6540F60053C2F2E6
:1056D00000034FF000029A6740F60053C2F2000345
:1056E0004FF00002C3F8842040F60053C2F20003DA
:1056F0004FF00002C3F8482140F60053C2F2000305
:105700004FF00002C3F8602140F60053C2F20003DC
:105710004FF00002C3F8782140F60053C2F20003B4
:105720004FF00002C3F8542140F60053C2F20003C8
:105730004FF00002C3F86C2140F60053C2F20003A0
:105740004FF00002C3F8842140F60053C2F2000378
:105750006FF000429A6040F60053C2F200036FF00F
:1057600000425A6140F60053C2F200036FF000425B
:105770001A6240F60053C2F200036FF00042DA6290
:1057800040F60053C2F200036FF000429A6640F602
:105790000053C2F200036FF000425A6740F6005314
:1057A000C2F200036FF000429A6340F60053C2F267
:1057B00000036FF000425A6440F60053C2F2000347
:1057C0006FF000421A6540F60053C2F200036FF01A
:1057D0000042DA6540F60053C2F200036FF0004267
:1057E000C3F8802040F60053C2F200036FF000427D
:1057F000C3F88C2040F60053C2F200036FF0004261
:10580000C3F8502140F60053C2F200036FF000428B
:10581000C3F8682140F60053C2F200036FF0004263
:10582000C3F8802140F60053C2F200036FF000423B
:10583000C3F85C2140F60053C2F200036FF000424F
:10584000C3F8742140F60053C2F200036FF0004227
:10585000C3F88C2140F60053C2F2000303F5035352
:1058600003F118034FF000021A6040F60053C2F231
:10587000000303F5035303F120034FF001021A70F4
:10588000BD4680BC704700BF80B400AF40F60053F7
:10589000C2F2000303F5035303F120034FF00002AB
:1058A0001A7040F60053C2F200035A6840F60053E3
:1058B000C2F2000303F5035303F118031B68B2FBA4
:1058C000F3F240F60053C2F200035A6040F6005370
:1058D000C2F200031A6940F60053C2F2000303F556
:1058E000035303F118031B68B2FBF3F240F60053B5
:1058F000C2F200031A6140F60053C2F20003DA69F3
:1059000040F60053C2F2000303F5035303F11803FA
:105910001B68B2FBF3F240F60053C2F20003DA61F7
:1059200040F60053C2F200039A6A40F60053C2F2F6
:10593000000303F5035303F118031B68B2FBF3F2F2
:1059400040F60053C2F200039A6240F60053C2F2DE
:1059500000035A6E40F60053C2F2000303F50353EE
:1059600003F118031B68B2FBF3F240F60053C2F2D6
:1059700000035A6640F60053C2F200031A6F40F665
:105980000053C2F2000303F5035303F118031B682D
:10599000B2FBF3F240F60053C2F200031A6740F67E
:1059A0000053C2F200035A6B40F60053C2F20003E8
:1059B00003F5035303F118031B68B2FBF3F240F63F
:1059C0000053C2F200035A6340F60053C2F20003D0
:1059D0001A6C40F60053C2F2000303F5035303F1BF
:1059E00018031B68B2FBF3F240F60053C2F2000347
:1059F0001A6440F60053C2F20003DA6C40F600531A
:105A0000C2F2000303F5035303F118031B68B2FB52
:105A1000F3F240F60053C2F20003DA6440F600539A
:105A2000C2F200039A6D40F60053C2F2000303F580
:105A3000035303F118031B68B2FBF3F240F6005363
:105A4000C2F200039A6540F60053C2F20003DA6F17
:105A500040F60053C2F2000303F5035303F11803A9
:105A60001B68B2FBF3F240F60053C2F20003DA67A0
:105A700040F60053C2F20003D3F8882040F60053EA
:105A8000C2F2000303F5035303F118031B68B2FBD2
:105A9000F3F240F60053C2F20003C3F8882040F648
:105AA0000053C2F20003D3F890301A4640F6005378
:105AB000C2F2000303F5035303F118031B68B2FBA2
:105AC000F3F31A4640F60053C2F20003C3F89020E5
:105AD00040F60053C2F20003D3F894301A4640F661
