:020000040800F2
:1000000024760020C134000831350008313500085D
:100010003135000831350008313500080000000096
:100020000000000000000000000000003135000862
:10003000313500080000000031350008292800088B
:1000400031350008313500083135000831350008F8
:1000500031350008313500083135000831350008E8
:1000600031350008313500083135000831350008D8
:1000700031350008313500083135000831350008C8
:1000800031350008313500083135000831350008B8
:1000900031350008313500083135000831350008A8
:1000A0003135000855120008313500083135000897
:1000B0003135000831350008313500083135000888
:1000C0003135000831350008313500083135000878
:1000D0003135000821790008857A0008313500089B
:1000E0003135000831350008313500083135000858
:1000F0006D1200083135000831350008313500082F
:100100003135000831350008313500083135000837
:100110003135000831350008313500083135000827
:1001200085120008313500083135000831350008E6
:100130003135000831350008313500083135000807
:1001400031350008313500083135000831350008F7
:1001500031350008313500083135000831350008E7
:1001600031350008313500083135000831350008D7
:1001700031350008313500083135000831350008C7
:10018000313500083135000880B586B000AF00F089
:1001900073FB4FF47050C4F2000005F093F94FF078
:1001A0000003BB804FF48273FB804FF400633B81FC
:1001B0004FF000037B814FF00103BB814FF40073CC
:1001C000FB814FF000033B824FF000037B8207F17D
:1001D00004034FF47050C4F20000194605F0B6F95C
:1001E0004FF47050C4F200004FF0010105F0F2F935
:1001F0004FF44060C4F202004FF0010104F002FD30
:1002000000F05CFA07F11807BD4680BD80B485B0E8
:1002100000AF0346FB71FB7903F00103FB73FB7B2B
:10022000002B07D04FF44063C4F202034FF00202E8
:100230001A8306E04FF44063C4F202034FF0020257
:100240005A83FB794FEA5303FB71FB7903F00103F7
:10025000FB73FB7B002B07D04FF44063C4F2020317
:100260004FF004021A8306E04FF44063C4F2020325
:100270004FF004025A83FB794FEA5303FB71FB7979
:1002800003F00103FB73FB7B002B07D04FF44063AB
:10029000C4F202034FF008021A8306E04FF44063F1
:1002A000C4F202034FF008025A83FB794FEA53036A
:1002B000FB71FB7903F00103FB73FB7B002B07D081
:1002C0004FF44063C4F202034FF010021A8306E0B9
:1002D0004FF44063C4F202034FF010025A83FB79DB
:1002E0004FEA5303FB71FB7903F00103FB73FB7BC4
:1002F000002B07D04FF44063C4F202034FF02002FA
:100300001A8306E04FF44063C4F202034FF0200268
:100310005A8307F11407BD4680BC704780B582B090
:1003200000AF4FF40043FB8040F2B843C2F2000339
:1003300093F83230DBB2002B03D0FB8803F5804307
:10034000FB8040F2B843C2F200031B8DBB804FF02C
:100350000100FFF75BFF4FF44060C4F202004FF072
:10036000010104F05DFCFB884FF47050C4F2000002
:10037000194605F05DF900BF4FF47050C4F200005B
:100380004FF0800105F062F90346002BF4D14FF4E1
:100390007050C4F2000005F03DF90346FB80BB88B5
:1003A0004FF47050C4F20000194605F041F900BF47
:1003B0004FF47050C4F200004FF0800105F046F990
:1003C0000346002BF4D14FF47050C4F2000005F046
:1003D00021F90346BB804FF44060C4F202004FF0A5
:1003E000010104F00FFC07F10807BD4680BD00BF06
:1003F00080B582B000AF40F2B843C2F20003DB8D9B
:10040000FB8040F2B843C2F200035B8DBB804FF02B
:100410000200FFF7FBFE4FF44060C4F202004FF011
:10042000010104F0FDFBFB884FF47050C4F20000A2
:10043000194605F0FDF800BF4FF47050C4F20000FB
:100440004FF0800105F002F90346002BF4D14FF480
:100450007050C4F2000005F0DDF80346FB80BB8855
:100460004FF47050C4F20000194605F0E1F800BFE7
:100470004FF47050C4F200004FF0800105F0E6F830
:100480000346002BF4D14FF47050C4F2000005F085
:10049000C1F80346BB804FF44060C4F202004FF045
:1004A000010104F0AFFB07F10807BD4680BD00BFA6
:1004B00080B582B000AF40F2B843C2F200031B8E99
:1004C000FB8040F2B843C2F200039B8DBB804FF02B
:1004D0000300FFF79BFE4FF44060C4F202004FF0B0
:1004E000010104F09DFBFB884FF47050C4F2000042
:1004F000194605F09DF800BF4FF47050C4F200009B
:100500004FF0800105F0A2F80346002BF4D14FF420
:100510007050C4F2000005F07DF80346FB80BB88F4
:100520004FF47050C4F20000194605F081F800BF86
:100530004FF47050C4F200004FF0800105F086F8CF
:100540000346002BF4D14FF47050C4F2000005F0C4
:1005500061F80346BB804FF44060C4F202004FF0E4
:10056000010104F04FFB07F10807BD4680BD00BF45
:1005700080B500AFFFF73CFFFFF79AFFFFF7CEFE15
:1005800080BD00BF80B485B000AF02460B46FA8044
:10059000BB80FB884FEA5303FB81BA88FB889A42F1
:1005A00003D3FB8803F1FF33BB8040F2B843C2F2B0
:1005B0000003FA881A8540F2B843C2F20003FA89B0
:1005C0005A85FA89BB88D3189AB240F2B843C2F26E
:1005D00000039A8540F2B843C2F200035B8D9AB2E1
:1005E00040F2B843C2F200031B8D9BB24FEA5303A3
:1005F0009BB2D3189AB240F2B843C2F20003DA8534
:1006000040F2B843C2F200039B8D9AB240F2B84365
:10061000C2F200031B8D9BB24FEA53039BB2D31867
:100620009AB240F2B843C2F200031A8640F2B843CD
:10063000C2F20003DB8D9AB240F2B843C2F200036B
:100640001B8D9BB29A4212D340F2B843C2F2000310
:10065000DB8D9AB240F2B843C2F200031B8D9BB20D
:10066000D31A9AB240F2B843C2F20003DA8540F2DC
:10067000B843C2F200031B8E9AB240F2B843C2F2F2
:1006800000031B8D9BB29A4212D340F2B843C2F2D0
:1006900000031B8E9AB240F2B843C2F200031B8DD6
:1006A0009BB2D31A9AB240F2B843C2F200031A8640
:1006B00007F11407BD4680BC704700BF80B582B00B
:1006C00000AF4FF00000FFF7A1FD4FF44060C4F20F
:1006D00002004FF0010104F0A3FA4FF47050C4F28D
:1006E00000004FF0000104F0A3FF00BF4FF4705072
:1006F000C4F200004FF0800104F0A8FF0346002B75
:10070000F4D14FF47050C4F2000004F083FF0346AC
:10071000FB804FF47050C4F200004FF0000104F071
:1007200087FF00BF4FF47050C4F200004FF080010B
:1007300004F08CFF0346002BF4D14FF47050C4F248
:10074000000004F067FF0346BB80FA8840F2B8431C
:10075000C2F200035A6040F2B843C2F200035B6881
:100760004FEA034240F2B843C2F200035A6040F23B
:10077000B843C2F200035A68BB88D21840F2B843AB
:10078000C2F200035A604FF44060C4F202004FF01E
:10079000010104F037FA07F10807BD4680BD00BF2C
:1007A00080B584B000AF0346FB71FB7903F00F0303
:1007B000FB71FB7903F11003DBB21846FFF726FD4E
:1007C0004FF44060C4F202004FF0010104F028FA37
:1007D0004FF47050C4F200004FF0000104F028FF05
:1007E00000BF4FF47050C4F200004FF0800104F0DD
:1007F0002DFF0346002BF4D14FF47050C4F20000DB
:1008000004F008FF0346FB814FF47050C4F200006F
:100810004FF0000104F00CFF00BF4FF47050C4F221
:1008200000004FF0800104F011FF0346002BF4D1CB
:100830004FF47050C4F2000004F0ECFE0346BB819C
:10084000FA79BB894FEA03534FEA135399B240F246
:10085000B843C2F2000302F1040223F812104FF46D
:100860004060C4F202004FF0010104F0CBF907F13F
:100870001007BD4680BD00BF80B500AF4FF440609B
:10088000C4F202004FF0400104F0BCF94FF44060A4
:10089000C4F202004FF0400104F0C2F980BD00BF75
:1008A00080B500AF4FF44060C4F202004FF0800109
:1008B00004F08AF903461A4640F2B843C2F2000334
:1008C0001A7040F2B843C2F200031B78DBB218463C
:1008D00080BD00BF80B500AF40F25C43C2F20003B0
:1008E0001B78042B66D801A252F823F001090008F6
:1008F00025090008490900086D0900089109000848
:100900004FF00000FFF74CFF40F25C43C2F20003DF
:100910001B7803F10103DAB240F25C43C2F2000338
:100920001A704FE04FF00100FFF73AFF40F25C43CE
:10093000C2F200031B7803F10103DAB240F25C4318
:10094000C2F200031A703DE04FF00200FFF728FFEB
:1009500040F25C43C2F200031B7803F10103DAB2F8
:1009600040F25C43C2F200031A702BE04FF0030028
:10097000FFF716FF40F25C43C2F200031B7803F15D
:100980000103DAB240F25C43C2F200031A7019E0CC
:100990004FF00400FFF704FF40F25C43C2F2000393
:1009A0001B7803F10103DAB240F25C43C2F20003A8
:1009B0001A7007E040F25C43C2F200034FF00002FD
:1009C0001A7000BF80BD00BF80B483B000AF034683
:1009D0003960FB7197F90730002B10DA4FF46D4343
:1009E000CEF20003FA7902F00F02A2F104013A6894
:1009F000D2B24FEA0212D2B25B181A760DE04FF46F
:100A00006143CEF2000397F907103A68D2B24FEA79
:100A10000212D2B25B1883F8002307F10C07BD461F
:100A200080BC704780B582B000AF78607A686FF0A4
:100A30007F439A4202D94FF001031FE04EF21003A8
:100A4000CEF200037A6822F07F4202F1FF325A6050
:100A50004FF0FF304FF00F01FFF7B6FF4EF21003DB
:100A6000CEF200034FF000029A604EF21003CEF275
:100A700000034FF007021A604FF00003184607F119
:100A80000807BD4680BD00BF80B58CB000AF44F6FE
:100A90006823C2F2000340F2E3329A604FF0000391
:100AA000BB844FF00003FB844FF00703BB624FF0A1
:100AB0000003BB854FF0000387F82E3007F12403B5
:100AC0004FF48060C4F20100194606F0D1FB4FF0EC
:100AD00070033B824FF001037B824FF00003BB8227
:100AE0004FF00403BB614FF00003BB834FF00003E2
:100AF000FB834FF480733B844FF000037B8407F14A
:100B000010034FF48060C4F20100194606F04AFC5D
:100B10004FF400633B804FF480637B804FF480731D
:100B2000BB804FF00003FB804FF000033B814FF48C
:100B300000537B814FF48043BB813B464FF4806080
:100B4000C4F20100194606F0BDFC4FF48060C4F207
:100B500001004FF0010106F005FC4FF48060C4F283
:100B600001004FF0010106F0D5FC44F66823C2F203
:100B700000034FF00002DA6040F2B843C2F2000313
:100B80004FF0000283F8322044F66823C2F20003DB
:100B90009B689AB244F66823C2F20003DB689BB2FA
:100BA00010461946FFF7EEFCFFF7E2FC07F13007AD
:100BB000BD4680BD80B582B000AF0346FB8044F6E1
:100BC0006823C2F200031B78DBB2032B07D044F684
:100BD0006823C2F200031B78DBB2042B36D144F643
:100BE0006823C2F200039A68FB889A420BD944F644
:100BF0006823C2F200039A68FB88D21A44F668237D
:100C0000C2F200039A6044F66823C2F200039A68B5
:100C100040F21F339A4206D844F66823C2F200031A
:100C20004FF448729A6044F66823C2F200039B684E
:100C30009AB244F66823C2F20003DB689BB2104606
:100C40001946FFF79FFCFFF793FC00E000BF07F198
:100C50000807BD4680BD00BF80B582B000AF034627
:100C6000FB8044F66823C2F200031B78DBB2032B3F
:100C700007D044F66823C2F200031B78DBB2042BD2
:100C800037D144F66823C2F200039A6840F6E203C3
:100C90009A421BD844F66823C2F200039A68FB8884
:100CA000D21844F66823C2F200039A6044F668231F
:100CB000C2F200039A6840F6E3039A4206D944F66A
:100CC0006823C2F2000340F6E3029A6044F6682308
:100CD000C2F200039B689AB244F66823C2F2000392
:100CE000DB689BB210461946FFF74CFCFFF740FC4F
:100CF00000E000BF07F10807BD4680BD80B582B0A7
:100D000000AF0346FB8044F66823C2F200031B7861
:100D1000DBB2032B07D044F66823C2F200031B7832
:100D2000DBB2042B38D144F66823C2F20003DA6840
:100D3000FB88D21844F66823C2F20003DA6044F656
:100D40006823C2F20003DA6844F66823C2F20003A3
:100D50009B684FEA53039A420BD944F66823C2F2C8
:100D600000039B684FEA530244F66823C2F2000373
:100D7000DA6044F66823C2F200039B689AB244F634
:100D80006823C2F20003DB689BB210461946FFF7E6
:100D9000F9FBFFF7EDFB00E000BF07F10807BD46D8
:100DA00080BD00BF80B582B000AF0346FB8044F633
:100DB0006823C2F200031B78DBB2032B07D044F692
:100DC0006823C2F200031B78DBB2042B2ED144F659
:100DD0006823C2F20003DA68FB889A420CD944F611
:100DE0006823C2F20003DA68FB88D21A44F668234B
:100DF000C2F20003DA6006E044F66823C2F20003A0
:100E00004FF00002DA6044F66823C2F200039B68E8
:100E10009AB244F66823C2F20003DB689BB2104624
:100E20001946FFF7AFFBFFF7A3FB00E000BF07F198
:100E30000807BD4680BD00BF80B500AFFFF730FD9D
:100E40000346002B0BD0FFF739FC44F66823C2F2AF
:100E500000034FF00A021A704FF0010301E04FF057
:100E60000003184680BD00BF80B500AF44F668237C
:100E7000C2F200031B78DBB20E2B00F2CA8101A282
:100E800052F823F0C10E000813120008C30F000827
:100E9000111000085F100008131200081312000858
:100EA000131200081312000813120008AD100008F6
:100EB000F71000084111000887110008CD11000843
:100EC00040F2B843C2F200034FF0000283F8322030
:100ED00044F66823C2F2000340F2E3329A6044F61B
:100EE0006823C2F200034FF00002DA6042F6D0033A
:100EF000C2F200034FF07E521A6142F6D003C2F2F2
:100F000000034FF00002C4F2A0021A6042F6D003C0
:100F1000C2F200034FF00002C4F220125A6042F6FF
:100F2000D003C2F2000344F65212C3F69D129A6037
:100F300042F6D003C2F200034CF6CD42C3F6CC42D7
:100F4000DA6044F66823C2F200039B689AB244F662
:100F50006823C2F20003DB689BB210461946FFF714
:100F600011FBFFF705FBFFF767FF0346002B40F07F
:100F7000588144F66823C2F200035B78DBB2652B2C
:100F800011D140F2B843C2F200034FF0010283F8DE
:100F90003220FFF7EDFA44F66823C2F200034FF067
:100FA00002021A703DE144F66823C2F200035B7846
:100FB000DBB2722B40F03581FFF75EFCFFF77EFB62
:100FC0002FE1FFF739FF0346002B40F02C8144F658
:100FD0006823C2F200035B78DBB2642B07D144F6CE
:100FE0006823C2F200034FF000021A701BE144F6BE
:100FF0006823C2F200035B78DBB2452B40F013811B
:1010000044F66823C2F200034FF003021A700AE1AB
:10101000FFF712FF0346002B40F0078144F66823D8
:10102000C2F200035B78DBB2642B07D144F668237D
:10103000C2F200034FF000021A70F6E044F6682393
:10104000C2F200035B78DBB2452B40F0EE8044F641
:101050006823C2F200034FF004021A70E5E0FFF7C4
:10106000EBFE0346002B40F0E28044F66823C2F218
:1010700000035B78DBB2642B07D144F66823C2F22D
:1010800000034FF000021A70D1E044F66823C2F268
:1010900000035B78DBB2452B40F0C98044F668233F
:1010A000C2F200034FF003021A70C0E040F2B843EE
:1010B000C2F200034FF0000283F83220FFF758FA23
:1010C00044F66823C2F200035B78DBB2722B40F077
:1010D000B080FFF7D1FBFFF7F1FAFFF7ADFE034653
:1010E000002B40F0A68044F66823C2F200034FF0C4
:1010F00000021A709DE040F2B843C2F200034FF0C4
:10110000000283F83220FFF733FA44F66823C2F274
:1011100000035B78DBB2722B40F08D80FFF7ACFBF5
:10112000FFF7CCFAFFF788FE0346002B40F08380E0
:1011300044F66823C2F200034FF000021A707AE00E
:1011400040F2B843C2F200034FF0000283F83220AD
:10115000FFF70EFA44F66823C2F200035B78DBB2B5
:10116000722B6AD1FFF788FBFFF7A8FAFFF764FE3E
:101170000346002B61D144F66823C2F200034FF00E
:1011800000021A7059E040F2B843C2F200034FF077
:10119000000283F83220FFF7EBF944F66823C2F22D
:1011A00000035B78DBB2722B49D1FFF765FBFFF7D9
:1011B00085FAFFF741FE0346002B40D144F6682331
:1011C000C2F200034FF000021A7038E040F2B84358
:1011D000C2F200034FF0000283F83220FFF7C8F993
:1011E00044F66823C2F200035B78DBB2722B28D18D
:1011F000FFF742FBFFF762FAFFF71EFE0346002BE4
:101200001FD144F66823C2F200034FF000021A70A7
:1012100017E044F66823C2F200034FF000021A7090
:1012200010E000BF0EE000BF0CE000BF0AE000BF0E
:1012300008E000BF06E000BF04E000BF02E000BF1E
:1012400000E000BF44F66823C2F200034FF0000242
:101250005A7080BD80B500AF4FF00000C4F20100AD
:101260004FF0010106F07EF980BD00BF80B500AFF0
:101270004FF48060C4F201004FF0010106F072F9F2
:1012800080BD00BF80B500AF46F21040C4F202003E
:101290004FF02001C1F2000103F0E0FE04F084F8F9
:1012A00004F0C6F804F0E8F842F6E803C2F20003DE
:1012B00003F5035303F130031B6803F1010242F607
:1012C000E803C2F2000303F5035303F130031A608D
:1012D00080BD00BF80B582B000AF786044F20E20C0
:1012E000C4F63E50796809F033FB034618464FF0C8
:1012F000804109F06FF90346184609F061FC034686
:101300009AB240F29043C2F200031A8044F6682376
:10131000C2F200031B78DBB2042B4FD140F29043A2
:10132000C2F200031B88B3F5487F14D940F2904302
:10133000C2F200031A8840F6E2039A420BD840F248
:101340009043C2F200031B881A4644F66823C2F297
:1013500000039A601FE040F29043C2F200031B8832
:10136000B3F5487F07D844F66823C2F200034FF470
:1013700048729A600FE040F29043C2F200031A886C
:1013800040F6E2039A4206D944F66823C2F200030B
:1013900040F6E3029A6044F66823C2F200039B68B9
:1013A0009AB244F66823C2F20003DB689BB210468F
:1013B0001946FFF7E7F8FFF7DBF800E000BF07F199
:1013C0000807BD4680BD00BF80B582B000AF0346B0
:1013D000FB8044F66823C2F200031B78DBB2042BC7
:1013E00047D1FB88002B10D0FA8844F66823C2F25C
:1013F00000039B684FEA53039A4206D2FA8844F6E8
:101400006823C2F20003DA6020E0FB88002B07D1DA
:1014100044F66823C2F200034FF00002DA6015E0E0
:10142000FA8844F66823C2F200039B684FEA53032C
:101430009A420BD344F66823C2F200039B684FEA3A
:10144000530244F66823C2F20003DA6044F66823CC
:10145000C2F200039B689AB244F66823C2F200030A
:10146000DB689BB210461946FFF78CF8FFF780F84F
:1014700000E000BF07F10807BD4680BD80B500AFA2
:1014800042F6D003C2F200031B6918464FF0000178
:10149000C4F27A4109F046FB0346002B13D042F612
:1014A000D003C2F200031B6918464FF00001C4F2DA
:1014B000201109F099F903461A4642F6D003C2F208
:1014C00000031A6117E042F6D003C2F200031B6961
:1014D00018464FF00001C4F27A4109F037FB034689
:1014E000002B08D042F6D003C2F200034FF00002F6
:1014F000C4F27A421A6180BD80B500AF42F6D003D3
:10150000C2F200031B69184608F0FAFC02460B46BB
:10151000104619461CA3D3E9002308F0D5FF034663
:10152000002B13D042F6D003C2F200031B69184609
:101530004FF00001C4F2201109F00AFA03461A46DE
:1015400042F6D003C2F200031A611CE042F6D00357
:10155000C2F200031B69184608F0D2FC02460B4693
:101560001046194608A3D3E9002308F099FF034663
:10157000002B08D042F6D003C2F200034BF21772E0
:10158000C3F6D1021A6180BD2D431CEBE2361A3F2F
:1015900080B500AF42F6D003C2F200031B681846C4
:1015A0004FF48041C4F21C6109F0BCFA0346002BE1
:1015B00015D042F6D003C2F200031A6842F6D003F7
:1015C000C2F200031B691046194609F005F80346EC
:1015D0001A4642F6D003C2F200031A6017E042F640
:1015E000D003C2F200031B6818464FF48041C4F2D6
:1015F0001C6109F0ABFA0346002B08D042F6D00379
:10160000C2F200034FF48042C4F21C621A6080BD33
:1016100080B500AF42F6D003C2F200031B68184643
:1016200008F06EFC02460B46104619461EA3D3E98D
:10163000002308F03FFF0346002B15D042F6D003ED
:10164000C2F200031A6842F6D003C2F200031B691B
:101650001046194608F0BEFF03461A4642F6D0036C
:10166000C2F200031A601CE042F6D003C2F200038B
:101670001B68184608F044FC02460B461046194603
:1016800009A3D3E9002308F001FF0346002B08D08B
:1016900042F6D003C2F200034BF21772C3F6D10236
:1016A0001A6080BDAFF300802D431CEBE2361A3F79
:1016B00080B500AF42F6D003C2F200035B68184663
:1016C0004FF48041C4F21C6109F02CFA0346002B50
:1016D00015D042F6D003C2F200035A6842F6D00396
:1016E000C2F200031B691046194608F075FF034655
:1016F0001A4642F6D003C2F200035A6017E042F6DF
:10170000D003C2F200035B6818464FF48041C4F274
:101710001C6109F01BFA0346002B08D042F6D003E7
:10172000C2F200034FF48042C4F21C625A6080BDD2
:1017300080B500AF42F6D003C2F200035B681846E2
:1017400008F0DEFB02460B46104619461EA3D3E9FD
:10175000002308F0B9FE0346002B15D042F6D00353
:10176000C2F200035A6842F6D003C2F200031B69BA
:101770001046194608F02EFF03461A4642F6D003DB
:10178000C2F200035A601CE042F6D003C2F200032A
:101790005B68184608F0B4FB02460B461046194633
:1017A00009A3D3E9002308F07BFE0346002B08D0F1
:1017B00042F6D003C2F200034BF21772C3F6D10215
:1017C0005A6080BDAFF300802D431CEBE2361A3F18
:1017D00080B500AF42F6D003C2F200039B68184602
:1017E0004FF48041C4F21C6109F09CF90346002BC0
:1017F00015D042F6D003C2F200039A6842F6D00335
:10180000C2F200031B691046194608F0E5FE0346C4
:101810001A4642F6D003C2F200039A6017E042F67D
:10182000D003C2F200039B6818464FF48041C4F213
:101830001C6109F08BF90346002B08D042F6D00357
:10184000C2F200034FF48042C4F21C629A6080BD71
:1018500080B500AF42F6D003C2F200039B68184681
:1018600008F04EFB02460B46104619461EA3D3E96C
:10187000002308F029FE0346002B15D042F6D003C2
:10188000C2F200039A6842F6D003C2F200031B6959
:101890001046194608F09EFE03461A4642F6D0034B
:1018A000C2F200039A601CE042F6D003C2F20003C9
:1018B0009B68184608F024FB02460B461046194662
:1018C00009A3D3E9002308F0EBFD0346002B08D061
:1018D00042F6D003C2F200034BF21772C3F6D102F4
:1018E0009A6080BDAFF300802D431CEBE2361A3FB7
:1018F00080B500AF42F6D003C2F20003DB681846A1
:101900004FF48041C4F21C6109F00CF90346002B2E
:1019100015D042F6D003C2F20003DA6842F6D003D3
:10192000C2F200031B691046194608F055FE034633
:101930001A4642F6D003C2F20003DA6017E042F61C
:10194000D003C2F20003DB6818464FF48041C4F2B2
:101950001C6109F0FBF80346002B08D042F6D003C7
:10196000C2F200034FF48042C4F21C62DA6080BD10
:1019700080B500AF42F6D003C2F20003DB68184620
:1019800008F0BEFA02460B46104619461EA3D3E9DC
:10199000002308F099FD0346002B15D042F6D00332
:1019A000C2F20003DA6842F6D003C2F200031B69F8
:1019B0001046194608F00EFE03461A4642F6D003BA
:1019C000C2F20003DA601CE042F6D003C2F2000368
:1019D000DB68184608F094FA02460B461046194692
:1019E00009A3D3E9002308F05BFD0346002B08D0D0
:1019F00042F6D003C2F200034BF21772C3F6D102D3
:101A0000DA6080BDAFF300802D431CEBE2361A3F55
:101A10002DE9B0438AB000AFF860B9607A603B60EE
:101A2000F86808F06DFA04460D467B6818461946BA
:101A300008F0D2FD0346184608F062FA02460B464B
:101A4000104619468AA3D3E9002308F0ADFA0246EE
:101A50000B4690469946786C08F052FA02460B46BF
:101A60004046494608F0CAFB02460B461046194656
:101A700006F092FA02460B462046294608F094FAF0
:101A800002460B461046194608F050FD03467B629D
:101A9000F86808F035FA04460D467B681846194682
:101AA00008F09AFD0346184608F02AFA02460B464B
:101AB000104619466EA3D3E9002308F075FA0246D2
:101AC0000B4690469946786C08F01AFA02460B4687
:101AD0004046494608F092FB02460B46104619461E
:101AE00006F0A6FA02460B462046294608F05CFAA4
:101AF00002460B461046194608F018FD03463B62A5
:101B0000B86808F0FDF904460D463868396C08F0ED
:101B100063FD03461846194608F05EFD0346184665
:101B200008F0EEF902460B461046194650A3D3E9D9
:101B3000002308F039FA02460B4690469946786C25
:101B400008F0DEF902460B464046494608F056FBCF
:101B500002460B461046194606F01EFA02460B4690
:101B60002046294608F020FA02460B461046194640
:101B700008F0DCFC0346FB61B86808F0C1F90446D4
:101B80000D463868396C08F027FD0346184619469B
:101B900008F022FD0346184608F0B2F902460B464B
:101BA0001046194632A3D3E9002308F0FDF9024696
:101BB0000B4690469946786C08F0A2F902460B460F
:101BC0004046494608F01AFB02460B4610461946A5
:101BD00006F02EFA02460B462046294608F0E4F9A4
:101BE00002460B461046194608F0A0FC0346BB61AE
:101BF000786AF96908F0F0FC03461C46786AF969CE
:101C000008F0EAFC03462046194608F0EDFD0346BD
:101C10001C46386AB96908F0DFFC03461D46386A7D
:101C2000B96908F0D9FC03462846194608F0DCFDDE
:101C300003462046194608F0CFFC0346184608F034
:101C40005FF902460B461046194606F03DFA024679
:101C50000B461046194608F069FC03467B617B6918
:101C6000184607F12807BD46BDE8B083AFF30080F2
:101C7000182D4454FB2109402DE9B0438AB000AF30
:101C8000F860B9607A603B60F86808F039F904469A
:101C90000D467B681846194608F09EFC0346184618
:101CA00008F02EF902460B461046194692A3D3E9D6
:101CB000002308F079F902460B4690469946786C65
:101CC00008F01EF902460B464046494608F096FACF
:101CD00002460B461046194606F05EF902460B46D0
:101CE0002046294608F060F902460B461046194680
:101CF00008F01CFC03463B62F86808F001F9044652
:101D00000D467B681846194608F066FC03461846DF
:101D100008F0F6F802460B461046194676A3D3E9BA
:101D2000002308F041F902460B4690469946786C2C
:101D300008F0E6F802460B464046494608F05EFACF
:101D400002460B461046194606F072F902460B464B
:101D50002046294608F028F902460B461046194647
:101D600008F0E4FB0346FB61B86808F0C9F80446D4
:101D70000D463868396C08F02FFC034618461946A2
:101D800008F02AFC0346184608F0BAF802460B464B
:101D90001046194658A3D3E9002308F005F9024676
:101DA0000B4690469946786C08F0AAF802460B4616
:101DB0004046494608F022FA02460B4610461946AC
:101DC00006F0EAF802460B462046294608F0ECF8F1
:101DD00002460B461046194608F0A8FB0346BB61B5
:101DE000B86808F08DF804460D463868396C08F07C
:101DF000F3FB03461846194608F0EEFB0346184667
:101E000008F07EF802460B46104619463AA3D3E97D
:101E1000002308F0C9F802460B4690469946786CB4
:101E200008F06EF802460B464046494608F0E6F9CF
:101E300002460B461046194606F0FAF802460B46D3
:101E40002046294608F0B0F802460B4610461946CF
:101E500008F06CFB03467B61386AB96908F0BCFB8B
:101E6000034618464FF0000108F07AFE0346002BA7
:101E70004AD0F869796908F0AFFB034618464FF07D
:101E8000000108F06DFE0346002B3DD0F86979692A
:101E900008F0A2FB03461C46386AB96908F09CFBAF
:101EA00003462046194608F053FD0346184608F03D
:101EB00027F802460B461046194605F0B9FE0446BF
:101EC0000D46786C08F01CF802460B462046294661
:101ED00008F06AF802460B461046194608A3D3E9F3
:101EE000002308F08BF902460B461046194608F00D
:101EF0001DFB03467B62FFE0182D4454FB21094083
:101F0000182D4454FB211940386AB96908F064FB64
:101F1000034618464FF0000108F004FE0346002B6C
:101F20004ED0F869796908F057FB034618464FF020
:101F3000000108F015FE0346002B41D0F8697969CD
:101F400008F04AFB03461C463B6A83F000431846F0
:101F5000B96908F03FFB03462046194608F0F8FC33
:101F60000346184607F0CCFF02460B4610461946BA
:101F700005F05EFE02460B4663A1D1E9000107F0C1
:101F80005FFE02460B4614461D46786C07F0B8FF0C
:101F900002460B462046294608F006F802460B4644
:101FA000104619465AA3D3E9002308F027F9024640
:101FB0000B461046194608F0B9FA03467B629BE0CF
:101FC000386AB96908F008FB034618464FF000016B
:101FD00008F0A8FD0346002B4DD0F869796908F098
:101FE000FBFA034618464FF0000108F09BFD03463C
:101FF000002B40D0F869796908F0EEFA03461C46D8
:10200000386AB96908F0E8FA03462046194608F02C
:102010009FFC0346184607F073FF02460B46104626
:10202000194605F005FE02460B461046194636A332
:10203000D3E9002307F006FE02460B4614461D4670
:10204000786C07F05DFF02460B462046294607F0F4
:10205000ABFF02460B46104619462DA3D3E90023D9
:1020600008F0CCF802460B461046194608F05EFA16
:1020700003467B6240E0FB6983F0004318467969C0
:1020800008F0A8FA03461C46386AB96908F0A4FAB1
:1020900003462046194608F05BFC0346184607F045
:1020A0002FFF02460B461046194605F0C1FD0246B9
:1020B0000B4617A1D1E9000107F0C2FD02460B460D
:1020C00014461D46786C07F01BFF02460B4620465F
:1020D000294607F069FF02460B46104619460CA335
:1020E000D3E9002308F08AF802460B461046194649
:1020F00008F01CFA03467B627B6A184607F1280742
:10210000BD46BDE8B08300BF182D4454FB210940F3
:10211000182D4454FB2119402DE9B0438AB000AF7B
:10212000F860B9607A603B60F86807F0E9FE044641
:102130000D467B681846194608F04EFA03461846C5
:1021400007F0DEFE02460B461046194686A3D3E989
:10215000002307F029FF02460B4690469946386C4B
:1021600007F0CEFE02460B464046494608F046F8C8
:1021700002460B461046194605F00EFF02460B4676
:102180002046294607F010FF02460B461046194626
:1021900008F0CCF903467B62F86807F0B1FE04460C
:1021A0000D467B681846194608F016FA034618468D
:1021B00007F0A6FE02460B46104619466AA3D3E96D
:1021C000002307F0F1FE02460B4690469946386C14
:1021D00007F096FE02460B464046494608F00EF8C8
:1021E00002460B461046194605F022FF02460B46F2
:1021F0002046294607F0D8FE02460B4610461946EF
:1022000008F094F903463B62B86807F079FE04468B
:102210000D463B681846194608F0DEF90346184695
:1022200007F06EFE02460B46104619464EA3D3E950
:10223000002307F0B9FE02460B4690469946386CDB
:1022400007F05EFE02460B464046494607F0D6FFC1
:1022500002460B461046194605F09EFE02460B4606
:102260002046294607F0A0FE02460B4610461946B6
:1022700008F05CF90346FB61B86807F041FE0446CC
:102280000D463B681846194608F0A6F9034618465D
:1022900007F036FE02460B461046194632A3D3E934
:1022A000002307F081FE02460B4690469946386CA3
:1022B00007F026FE02460B464046494607F09EFFC1
:1022C00002460B461046194605F0B2FE02460B4682
:1022D0002046294607F068FE02460B46104619467E
:1022E00008F024F90346BB61786AF96908F074F9CB
:1022F00003461C46786AF96908F06EF903462046E1
:10230000194608F071FA03461C46386AB96908F0A4
:1023100063F903461D46386AB96908F05DF903465A
:102320002846194608F060FA03462046194608F088
:1023300053F90346184607F0E3FD02460B461046E4
:10234000194605F0C1FE02460B461046194608F034
:10235000EDF803467B617B69184607F12807BD4607
:10236000BDE8B083AFF30080182D4454FB21094031
:102370002DE9B0438AB000AFF860B9607A603B6085
:10238000F86807F0BDFD04460D467B6818461946FF
:1023900008F022F90346184607F0B2FD02460B4644
:1023A000104619468EA3D3E9002307F0FDFD02462F
:1023B0000B4690469946386C07F0A2FD02460B4644
:1023C0004046494607F01AFF02460B46104619469A
:1023D00005F0E2FD02460B462046294607F0E4FDE3
:1023E00002460B461046194608F0A0F803463B6229
:1023F000F86807F085FD04460D467B6818461946C7
:1024000008F0EAF80346184607F07AFD02460B4644
:102410001046194672A3D3E9002307F0C5FD024612
:102420000B4690469946386C07F06AFD02460B460B
:102430004046494607F0E2FE02460B461046194662
:1024400005F0F6FD02460B462046294607F0ACFD96
:1024500002460B461046194608F068F80346FB6131
:10246000B86807F04DFD04460D463B68184619460E
:1024700008F0B2F80346184607F042FD02460B4644
:102480001046194656A3D3E9002307F08DFD0246F6
:102490000B4690469946386C07F032FD02460B46D3
:1024A0004046494607F0AAFE02460B46104619462A
:1024B00005F072FD02460B462046294607F074FDE2
:1024C00002460B461046194608F030F80346BB6139
:1024D000B86807F015FD04460D463B6818461946D6
:1024E00008F07AF80346184607F00AFD02460B4644
:1024F000104619463AA3D3E9002307F055FD0246DA
:102500000B4690469946386C07F0FAFC02460B469B
:102510004046494607F072FE02460B4610461946F1
:1025200005F086FD02460B462046294607F03CFD95
:1025300002460B461046194607F0F8FF03467B613A
:10254000386AB96908F048F8034618464FF00001A8
:1025500008F006FB0346002B4AD0F869796908F0B9
:102560003BF8034618464FF0000108F0F9FA03461D
:10257000002B3DD0F869796908F02EF803461C4617
:10258000386AB96908F028F803462046194608F069
:10259000DFF90346184607F0B3FC02460B46104627
:1025A000194605F045FB04460D46386C07F0A8FCBB
:1025B00002460B462046294607F0F6FC02460B462B
:1025C0001046194608A3D3E9002307F017FE024678
:1025D0000B461046194607F0A9FF03467B62FFE051
:1025E000182D4454FB210940182D4454FB21194057
:1025F000386AB96907F0F0FF034618464FF000014A
:1026000008F090FA0346002B4ED0F869796907F07C
:10261000E3FF034618464FF0000108F0A1FA034615
:10262000002B41D0F869796907F0D6FF03461C46B4
:102630003B6A83F000431846B96907F0CBFF0346B5
:102640002046194608F084F90346184607F058FC5E
:1026500002460B461046194605F0EAFA02460B46BA
:1026600063A1D1E9000107F0EBFA02460B461446DC
:102670001D46386C07F044FC02460B4620462946AE
:1026800007F092FC02460B46104619465AA3D3E9BE
:10269000002307F0B3FD02460B461046194607F02B
:1026A00045FF03467B629BE0386AB96907F094FFF7
:1026B000034618464FF0000108F034FA0346002B99
:1026C0004DD0F869796907F087FF034618464FF047
:1026D000000108F027FA0346002B40D0F869796919
:1026E00007F07AFF03461C46386AB96907F074FFA1
:1026F00003462046194608F02BF90346184607F012
:10270000FFFB02460B461046194605F091FA0246B9
:102710000B461046194636A3D3E9002307F092FA78
:1027200002460B4614461D46386C07F0E9FB02468C
:102730000B462046294607F037FC02460B4610465A
:1027400019462DA3D3E9002307F058FD02460B4696
:102750001046194607F0EAFE03467B6240E0FB693B
:1027600083F000431846796907F034FF03461C469E
:10277000386AB96907F030FF03462046194608F069
:10278000E7F80346184607F0BBFB02460B46104627
:10279000194605F04DFA02460B4617A1D1E9000192
:1027A00007F04EFA02460B4614461D46386C07F0F9
:1027B000A7FB02460B462046294607F0F5FB0246DA
:1027C0000B46104619460CA3D3E9002307F016FD6B
:1027D00002460B461046194607F0A8FE03467B62E8
:1027E0007B6A184607F12807BD46BDE8B08300BFE5
:1027F000182D4454FB210940182D4454FB21194045
:1028000080B500AF40F21803C2F200031A6841F22B
:102810005973CDF2B713A3FB02134FEA5333184693
:10282000FEF700F980BD00BF2DE9F04383B002AF91
:1028300040F26043C2F200031B7803F10103DAB2F5
:1028400040F26043C2F200031A7003F023FBFEF76C
:1028500041F840F26043C2F200031B78092B40F2BA
:102860000D8440F26043C2F200034FF000021A7080
:1028700044F6E013C2F200034FF001021A7040F276
:102880000003C2F200031B7803F10103DAB240F245
:102890000003C2F200031A7040F20103C2F2000307
:1028A0001B7803F10103DAB240F20103C2F2000324
:1028B0001A7040F20203C2F200031B7803F1010315
:1028C000DAB240F20203C2F200031A7040F20403CB
:1028D000C2F200031B8803F101039AB240F2040321
:1028E000C2F200031A8040F26243C2F200031B8866
:1028F00003F101039AB240F26243C2F200031A806C
:1029000040F20003C2F200031B78092B40F28081E1
:1029100040F20003C2F200034FF000021A7044F6C6
:10292000E013C2F200034FF001025A7042F6B00306
:10293000C2F200031B68184607F0FEFE804642F60E
:10294000B003C2F200035B68184607F0F5FE0646C6
:1029500040F2B843C2F200035B899BB2184607F00D
:10296000EBFE054640F2B843C2F200039B899BB2DE
:10297000184607F0E1FE044644F66823C2F200035D
:10298000DB68184607F0D8FE814644F66823C2F299
:1029900000039B68184607F0CFFE0346CDF8009071
:1029A0000193404631462A462346FFF731F8024656
:1029B00040F2B843C2F200035A6342F6B003C2F2D7
:1029C00000031B68184607F0B7FE804642F6B003C6
:1029D000C2F200035B68184607F0AEFE064640F2FE
:1029E000B843C2F200035B899BB2184607F0A4FE0D
:1029F000054640F2B843C2F200039B899BB21846D9
:102A000007F09AFE044644F66823C2F20003DB682E
:102A1000184607F091FE814644F66823C2F200038F
:102A20009B68184607F088FE0346CDF80090019396
:102A3000404631462A462346FFF71EF9024640F239
:102A4000B843C2F200039A6342F6B003C2F2000335
:102A50009B68184607F070FE804642F6B003C2F24B
:102A60000003DB68184607F067FE064640F2B843ED
:102A7000C2F20003DB899BB2184607F05DFE0546F3
:102A800040F2B843C2F200031B8A9BB2184607F01B
:102A900053FE044644F66823C2F20003DB6818467E
:102AA00007F04AFE814644F66823C2F200039B68A1
:102AB000184607F041FE0346CDF8009001934046CA
:102AC00031462A462346FEF7A3FF024640F2B843AA
:102AD000C2F20003DA6342F6B003C2F200039B685D
:102AE000184607F029FE804642F6B003C2F2000302
:102AF000DB68184607F020FE064640F2B843C2F2F3
:102B00000003DB899BB2184607F016FE054640F22B
:102B1000B843C2F200031B8A9BB2184607F00CFEB2
:102B2000044644F66823C2F20003DB68184607F047
:102B300003FE814644F66823C2F200039B681846F0
:102B400007F0FAFD0346CDF8009001934046314668
:102B50002A462346FFF790F8024640F2B843C2F2F5
:102B600000031A6440F2B843C2F20003D3F8348081
:102B700040F2B843C2F20003DE6B40F2B843C2F247
:102B800000039D6B40F2B843C2F200031C6C44F694
:102B90006823C2F200039B68184607F0CDFD034688
:102BA0000093404631462A462346FFF7B5FA0246CF
:102BB00040F2B843C2F200035A6440F2B843C2F292
:102BC0000003D3F8348040F2B843C2F20003DE6B56
:102BD00040F2B843C2F200039D6B40F2B843C2F228
:102BE00000031C6C44F66823C2F200039B6818467D
:102BF00007F0A2FD03460093404631462A4623468D
:102C0000FFF7B6FB024640F2B843C2F200039A64F3
:102C100040F20103C2F200031B78632B40F2D18122
:102C200040F20103C2F200034FF000021A7044F6B2
:102C3000E013C2F200034FF001029A7044F66823D9
:102C4000C2F200031B78DBB2042B40F0648144F62F
:102C50006823C2F200039B68184607F06DFD034627
:102C600018464FF00001C4F2B43107F071FE03467C
:102C700018464FF00001C4F2F02107F0B5FD0346FD
:102C80001A4640F26443C2F200031A6040F2644301
:102C9000C2F200031A6840F2B843C2F200039B6C10
:102CA0001046194607F096FC03461A4640F2684360
:102CB000C2F200031A6042F6D003C2F200035A685F
:102CC00040F26843C2F200031B681046194607F041
:102CD0008BFD03461A4640F26C43C2F200031A60B1
:102CE00042F6D003C2F200031C6840F26843C2F20D
:102CF00000031A6840F27043C2F200031B681046DA
:102D0000194607F067FC03462046194607F06CFD9C
:102D100003461A4640F26C43C2F200031B68104699
:102D2000194607F059FC03461A4640F26C43C2F2BA
:102D300000031A6040F26C43C2F200031A6840F2CA
:102D40007443C2F200031B681046194607F044FCA6
:102D500003461A4640F26C43C2F200031A6040F286
:102D60006C43C2F200031B681846FEF7B3FA40F248
:102D70006C43C2F200031A6840F27443C2F20003CB
:102D80001A6040F26843C2F200031A6840F27043CE
:102D9000C2F200031A6040F27843C2F200034FF01F
:102DA0000002C4F22F421A6040F27843C2F20003DC
:102DB0001A6840F2B843C2F200035B6C1046194631
:102DC00007F008FC03461A4640F27C43C2F20003B7
:102DD0001A6042F6D003C2F20003DA6840F27C4384
:102DE000C2F200031B681046194607F0FDFC0346BB
:102DF0001A4640F28043C2F200031A6042F6D00342
:102E0000C2F200039C6840F27C43C2F200031A68DD
:102E100040F28443C2F200031B681046194607F0D3
:102E2000D9FB03462046194607F0DEFC03461A4646
:102E300040F28043C2F200031B681046194607F0B7
:102E4000CBFB03461A4640F28043C2F200031A60ED
:102E500040F28043C2F200031A6840F28843C2F293
:102E600000031B681046194607F0B6FB03461A46D6
:102E700040F28043C2F200031A6040F28043C2F283
:102E800000031B68184607F09BFE03469BB21846DA
:102E9000FEF79AFA40F28043C2F200031C6844F63F
:102EA0006823C2F200039B68184607F045FC0346FE
:102EB0002046194607F04CFD034618464FF0000126
:102EC000C4F2B43107F090FC0346184607F052FEF6
:102ED000044640F27C43C2F200031B68184607F028
:102EE00049FE03462046194604F046F940F2804365
:102EF000C2F200031A6840F28843C2F200031A606B
:102F000040F27C43C2F200031A6840F28443C2F2EA
:102F100000031A6055E044F66823C2F200031B78F0
:102F2000DBB2032B4DD144F66823C2F200039B6849
:102F300003F1020242F2E003C0F6E433B3FBF2F322
:102F4000184607F0F9FB024640F27443C2F2000350
:102F50001A6044F66823C2F20003DB68184607F0E3
:102F6000EBFB024640F28843C2F200031A6040F2D3
:102F70007043C2F200034FF000021A6040F2844333
:102F8000C2F200034FF000021A6040F26C43C2F23A
:102F900000034FF000021A6040F28043C2F20003C7
:102FA0004FF000021A6040F26843C2F200034FF093
:102FB00000021A6040F27C43C2F200034FF00002AC
:102FC0001A6040F20203C2F200031B78C72B0DD92E
:102FD00040F20203C2F200034FF000021A7044F6FE
:102FE000E013C2F200034FF00102DA7040F2040372
:102FF000C2F200031A8840F2E7339A4227D942F618
:10300000E803C2F2000303F5035303F130031A6827
:1030100042F6E803C2F20003C3F8A02042F6E80338
:10302000C2F2000303F5035303F130034FF0000233
:103030001A6040F20403C2F200034FF000021A804B
:1030400044F6E013C2F200034FF001021A7140F29D
:103050006243C2F200031A8842F20F739A420DD9FA
:1030600040F26243C2F200034FF000021A8044F6BD
:10307000E013C2F200034FF001025A7107F1040796
:10308000BD46BDE8F08300BF80B58AB000AF786070
:1030900039604FF000037B624FF000033B624FF05A
:1030A0000003FB614FF00003BB617B681B8A9BB28E
:1030B0007B627B6A23F440537B623B68DB887A6ADD
:1030C00013437B627B6A9AB27B681A827B689B8916
:1030D0009BB27B627B6A23F4B05323F00C037B62C8
:1030E0003B689A883B681B8913439AB23B685B89AB
:1030F00013439BB27A6A13437B627B6A9AB27B6802
:103100009A817B689B8A9BB27B627B6A23F44073C3
:103110007B623B689B897A6A13437B627B6A9AB2C3
:103120007B689A8207F10803184600F053FF7A681B
:103130004FF48053C4F201039A4206D07A684FF4E8
:10314000A053C4F201039A4202D17B693B6201E0C1
:103150003B693B627B689B899BB29BB21BB2002B95
:103160000FDA3A6A13464FEA83039B184FEA830249
:103170009A183B681B684FEA4303B2FBF3F3FB6109
:103180000EE03A6A13464FEA83039B184FEA830224
:103190009A183B681B684FEA8303B2FBF3F3FB61A9
:1031A000FA6948F21F53C5F2EB13A3FB02134FEA6F
:1031B00053134FEA03137B627B6A4FEA13134FF0FA
:1031C000640202FB03F3FA69D31ABB617B689B8933
:1031D0009BB29BB21BB2002B12DABB694FEAC3034E
:1031E00003F1320248F21F53C5F2EB13A3FB0213A3
:1031F0004FEA531303F007037A6A13437B6211E02B
:10320000BB694FEA031303F1320248F21F53C5F2C0
:10321000EB13A3FB02134FEA531303F00F037A6A75
:1032200013437B627B6A9AB27B681A8107F1280795
:10323000BD4680BD80B483B000AF78600B46FB70A4
:10324000FB78002B08D07B689B899BB243F400532A
:103250009AB27B689A8107E07B689B899BB223F4D2
:1032600000539AB27B689A8107F10C07BD4680BC77
:10327000704700BF80B483B000AF78600B467B809E
:103280007B884FEAC3534FEAD3539AB27B689A8044
:1032900007F10C07BD4680BC704700BF80B487B003
:1032A00000AF786013460A467A807B704FF00003C7
:1032B0003B614FF00003FB604FF00003BB604FF039
:1032C00000037B617B687B617B88DBB24FEA531331
:1032D000DBB23B617B8803F01F03FB60FB684FF0B0
:1032E000010202FA03F3BB603B69012B04D17B6945
:1032F00003F10C037B610BE03B69022B04D17B697A
:1033000003F110037B6103E07B6903F114037B612C
:103310007B78002B06D07B697A691168BA680A430A
:103320001A6007E07B697A691168BA686FEA02027D
:103330000A401A6007F11C07BD4680BC704700BFF9
:1033400080B487B000AF78600B467B804FF00003FD
:10335000FB604FF000037B614FF00003BB604FF058
:103360000003FB747B88DBB24FEA5313DBB2BB6014
:103370007B8803F01F037B617B694FF0010202FA37
:1033800003F37B61BB68012B06D17B689B899BB2F1
:103390007A6913407B610FE0BB68022B06D17B6822
:1033A0001B8A9BB27A6913407B6105E07B689B8A2C
:1033B0009BB27A6913407B617B884FEA13239BB2EF
:1033C000FB60FB684FF0010202FA03F3FB607B68CD
:1033D0001B889BB2FA681340FB607B69002B06D008
:1033E000FB68002B03D04FF00103FB7402E04FF0A9
:1033F0000003FB74FB7C184607F11C07BD4680BC2C
:10340000704700BF80B500AF4FF01F00C0F2400012
:103410004FF0010100F0C4FE4FF40040C2F2020080
:103420004FF0010100F0E6FE40F213504FF00101B1
:1034300000F00AFF80BD00BF80B582B000AF4FF042
:1034400000604FF0000102F0A7F94FF4E06002F0D5
:103450001DF94FF026033B714FF000037B714FF0D5
:103460000703BB714FF00103FB7107F1040318461A
:1034700002F020F94FF025033B714FF000037B7100
:103480004FF00603BB714FF00103FB7107F104031A
:10349000184602F00FF94FF038033B714FF000036C
:1034A0007B714FF00003BB714FF00103FB7107F11B
:1034B0000403184602F0FEF807F10807BD4680BD78
:1034C00080B582B000AF4AF63463C0F600037B607B
:1034D00040F20003C2F200033B600BE07B681A6815
:1034E0003B681A603B6803F104033B607B6803F1AF
:1034F00004037B603A6840F25C43C2F200039A42E4
:10350000ECD3094809494FF000028842B8BF40F89F
:10351000042BFFF6FAAF01F0E5FB00F00DF807F120
:103520000807BD4680BD00005C040020286E002016
:1035300080B400AFFEE700BF80B500AFFFF762FFC9
:10354000FFF77AFF01F0CAF8FFF75AF901F0B6FD6C
:10355000FDF79AFAFCF718FE04F016F804F072F87A
:1035600002F030F900E000BF00F034F802F0B6F9E4
:1035700044F6E013C2F200031B79DBB2002B06D045
:1035800044F6E013C2F200034FF000021A7144F651
:10359000E013C2F200039B78DBB2002B06D044F6A6
:1035A000E013C2F200034FF000029A7044F6E013F9
:1035B000C2F200035B78DBB2002BD4D044F6E013F8
:1035C000C2F200034FF000025A7002F01DF9FDF73D
:1035D0004BFCC8E780B582B000AF04F0BFF80346EB
:1035E000002B00F0558304F011F90346FB7140F203
:1035F0009443C2F200031B78002B40F03982FB7920
:10360000A3F12B034F2B00F22C8201A252F823F0DE
:1036100051370008233800087B370008F9370008C5
:10362000633A0008153A0008633A0008633A000854
:10363000633A0008633A0008633A0008633A0008F6
:103640000F3A0008093A00081B3A0008633A0008DC
:10365000633A000877380008633A00084D380008DC
:10366000633A0008633A0008A1380008A738000848
:10367000633A0008F5380008C5380008633A0008C6
:10368000633A0008633A0008AD380008633A00085E
:10369000633A0008633A0008633A0008633A000896
:1036A000633A0008633A0008413A000813390008F9
:1036B000633A0008633A0008633A0008633A000876
:1036C000513A0008633A0008633A0008633A000878
:1036D000A3390008633A000861390008633A00081A
:1036E000633A0008633A0008873C0008633A000820
:1036F000033A0008CF370008633A0008633A00082D
:10370000633A0008633A0008A5370008633A0008E6
:10371000633A0008EB390008E5390008633A00080D
:10372000633A0008633A0008213A00084339000868
:10373000633A0008633A0008633A0008FD3900085C
:10374000313A0008F1390008633A0008F7390008F7
:1037500042F6E403C2F200031B78DBB2002B04D173
:103760004FF00100FDF726FA92E242F6E403C2F2BE
:1037700000034FF02B02DA708AE242F6E403C2F251
:1037800000031B78DBB2002B04D14FF00100FDF7E2
:1037900063FA7DE242F6E403C2F200034FF02D0229
:1037A000DA7075E242F6E403C2F200031B78DBB282
:1037B000002B04D14FF00A00FDF7FCF968E242F655
:1037C000E403C2F200034FF06902DA7060E242F6ED
:1037D000E403C2F200031B78DBB2002B04D14FF0EC
:1037E0000A00FDF739FA53E242F6E403C2F200039D
:1037F0004FF06402DA704BE242F6E403C2F20003D7
:103800001B78DBB2002B04D14FF00100FDF776FAF4
:103810003EE242F6E403C2F200034FF02E02DA70F9
:1038200036E242F6E403C2F200031B78DBB2002B5F
:1038300004D14FF00100FDF7B5FA29E242F6E403A6
:10384000C2F200034FF02C02DA7021E242F6E403E8
:10385000C2F200031B78DBB2002B04D14FF00A0048
:10386000FDF74CFA14E242F6E403C2F200034FF013
:103870003E02DA700CE242F6E403C2F200031B7867
:10388000DBB2002B04D14FF00A00FDF78BFAFFE109
:1038900042F6E403C2F200034FF03C02DA70F7E1B3
:1038A00000F0FAF9F4E100F0D9FAF1E142F6E803A8
:1038B000C2F2000303F5035303F128034FF00102A2
:1038C0001A70E5E142F6E403C2F200031B78DBB2B2
:1038D000012B07D142F6E403C2F200034FF0450288
:1038E000DA70D5E144F66823C2F200034FF06502B6
:1038F0005A70CDE144F66823C2F200034FF064022F
:103900005A7042F6E403C2F200034FF04402DA7048
:10391000BEE142F6E403C2F200031B78DBB2012BE6
:1039200007D142F6E403C2F200034FF05202DA700C
:10393000AEE144F66823C2F200034FF045025A702C
:10394000A6E144F66823C2F200034FF072025A70F7
:1039500042F6E403C2F200034FF07202DA7097E11C
:1039600042F6E803C2F20003D3F89C30002B40F08B
:103970008C8142F6E803C2F20003D3F84031002BF9
:1039800040F0838142F6E403C2F200034FF00002EC
:103990001A7042F6E403C2F200034FF06D02DA70CF
:1039A00073E142F6E803C2F20003D3F89C30002B27
:1039B00040F06D8142F6E803C2F20003D3F84031D3
:1039C000002B40F0648142F6E403C2F200034FF0A2
:1039D00001021A7042F6E403C2F200034FF07302D0
:1039E000DA7054E1FDF74AFD52E1FDF785FD4FE144
:1039F000FDF7CEFD4CE1FDF70BFE49E1FDF758FE6A
:103A000046E1FDF795FE43E1FDF7E2FE40E1FDF7FB
:103A10001FFF3DE1FDF76CFF3AE1FDF7A9FF37E13C
:103A200040F29443C2F200034FF071021A702FE18A
:103A300040F29443C2F200034FF077021A7027E17C
:103A400040F29443C2F200034FF051021A701FE19A
:103A500040F29443C2F200034FF057021A7000BFC5
:103A600016E144F66823C2F20003FA795A700FE1B6
:103A7000FB792F2B22D9FB79392B1FD840F29843A1
:103A8000C2F200031A6813464FEA83039B184FEAF9
:103A900043031A4640F29843C2F200031A60FA79CF
:103AA00040F29843C2F200031B68D318A3F130021E
:103AB00040F29843C2F200031A60E9E0FB79582B08
:103AC00040F0E68040F29443C2F200031B78A3F179
:103AD0005103262B00F2CE8001A252F823F000BF42
:103AE000F93B0008753C0008753C0008753C00086F
:103AF000753C0008753C0008373C0008753C000820
:103B0000753C0008753C0008753C0008753C0008D1
:103B1000753C0008753C0008753C0008753C0008C1
:103B2000753C0008753C0008753C0008753C0008B1
:103B3000753C0008753C0008753C0008753C0008A1
:103B4000753C0008753C0008753C0008753C000891
:103B5000753C0008753C0008753C0008753C000881
:103B60007D3B0008753C0008753C0008753C00086A
:103B7000753C0008753C0008BB3B000840F29843C8
:103B8000C2F200031B68184606F0D6FD034618462D
:103B90004FF48041C4F21C6106F0DAFE03461A4677
:103BA00042F6D003C2F200031A6040F29843C2F218
:103BB00000034FF000021A605DE040F29843C2F249
:103BC00000031B68184606F0B7FD034618464FF47D
:103BD0008041C4F21C6106F0BBFE03461A4642F661
:103BE000D003C2F200035A6040F29843C2F20003CD
:103BF0004FF000021A603EE040F29843C2F2000328
:103C00001B68184606F098FD034618464FF480419D
:103C1000C4F21C6106F09CFE03461A4642F6D0032D
:103C2000C2F200039A6040F29843C2F200034FF0E0
:103C300000021A601FE040F29843C2F200031B68C2
:103C4000184606F079FD034618464FF48041C4F249
:103C50001C6106F07DFE03461A4642F6D003C2F20E
:103C60000003DA6040F29843C2F200034FF0000212
:103C70001A6000E000BF40F29443C2F200034FF02C
:103C800000021A7004E000BF02E000BF00E000BFC5
:103C900007F10807BD4680BD80B584B000AF4FF086
:103CA00000037B6003F008F842F6E803C2F2000369
:103CB000D3F89C2042F6E403C2F200031B78DBB287
:103CC0004FEAC373D21842F6E803C2F20003C3F806
:103CD0009C2042F6E803C2F20003BB604FF00003F1
:103CE000FB6049E040F20453C2F200031B889BB220
:103CF0001946BB681A7840F20453C2F200035B18FD
:103D00001A73BB681B781A467B68D3187B60BB6844
:103D100003F10103BB6040F20453C2F200039B882D
:103D20009BB203F101039AB240F20453C2F20003C2
:103D30009A8040F20453C2F200031B889BB203F145
:103D400001039AB240F20453C2F200031A8040F217
:103D50000453C2F200031B889AB241F69F739A4241
:103D600006D940F20453C2F200034FF000021A8059
:103D7000FB6803F10103FB60FA6840F2A3139A4267
:103D8000B0D942F6E803C2F20003D3F89C30DAB2AD
:103D900042F6E803C2F20003C3F89C2002F0D0FD13
:103DA00007F10403BB604FF00003FB6043E040F207
:103DB0000453C2F200031B889BB21946BB681A78F1
:103DC00040F20453C2F200035B181A73BB6803F19C
:103DD0000103BB6040F20453C2F200039B889BB214
:103DE00003F101039AB240F20453C2F200039A8035
:103DF00040F20453C2F200031B889BB203F101039B
:103E00009AB240F20453C2F200031A8040F2045303
:103E1000C2F200031B889AB241F69F739A4206D9F8
:103E200040F20453C2F200034FF000021A80FB6814
:103E300003F10103FB60FB68032BB8D903F062FCBC
:103E40004FF48840C4F2000040F227714FF00102A5
:103E5000FFF724FA07F11007BD4680BD80B584B096
:103E600000AF4FF000037B60594BBB604FF0000385
:103E7000FB6049E040F20453C2F200031B889BB28E
:103E80001946BB681A7840F20453C2F200035B186B
:103E90001A73BB681B781A467B68D3187B60BB68B3
:103EA00003F10103BB6040F20453C2F200039B889C
:103EB0009BB203F101039AB240F20453C2F2000331
:103EC0009A8040F20453C2F200031B889BB203F1B4
:103ED00001039AB240F20453C2F200031A8040F286
:103EE0000453C2F200031B889AB241F69F739A42B0
:103EF00006D940F20453C2F200034FF000021A80C8
:103F0000FB6803F10103FB60FA6841F63F739A42D4
:103F1000B0D907F10403BB604FF00003FB6043E03E
:103F200040F20453C2F200031B889BB21946BB68DF
:103F30001A7840F20453C2F200035B181A73BB688C
:103F400003F10103BB6040F20453C2F200039B88FB
:103F50009BB203F101039AB240F20453C2F2000390
:103F60009A8040F20453C2F200031B889BB203F113
:103F700001039AB240F20453C2F200031A8040F2E5
:103F80000453C2F200031B889AB241F69F739A420F
:103F900006D940F20453C2F200034FF000021A8027
:103FA000FB6803F10103FB60FB68032BB8D903F046
:103FB000A9FB4FF48840C4F2000040F227714FF093
:103FC0000102FFF76BF907F11007BD4680BD00BF86
:103FD0008C2A002080B489B000AF78604FF00003D5
:103FE000BB614FF000037B614FF00003FB614FF0BA
:103FF00002033B614FF00003FB604FF00203BB6024
:104000004FF46053C4F202039B6803F00C03BB61DE
:10401000BB69042B0AD0082B0FD0002B60D17A6823
:104020004FF41053C0F2F403136060E07A684FF469
:104030009053C0F27A03136059E04FF46053C4F216
:1040400002035B6803F480034FEA9353FB604FF471
:104050006053C4F202035B6803F03F03BB60FB687C
:10406000002B14D04FF49053C0F27A03BA68B3FB1C
:10407000F2F24FF46053C4F20203596847F6C0737A
:104080000B404FEA931303FB02F3FB6113E04FF481
:104090001053C0F2F403BA68B3FBF2F24FF460536A
:1040A000C4F20203596847F6C0730B404FEA9313FA
:1040B00003FB02F3FB614FF46053C4F202035B683D
:1040C00003F440334FEA134303F101034FEA430380
:1040D0003B61FA693B69B2FBF3F27B681A6006E068
:1040E0007A684FF41053C0F2F403136000BF4FF42A
:1040F0006053C4F202039B6803F0F003BB61BB6929
:104100004FEA1313BB6140F20803C2F20003BA691D
:104110009B181B78DBB27B617B681A687B6922FA8B
:1041200003F27B685A604FF46053C4F202039B6849
:1041300003F4E053BB61BB694FEA9323BB6140F2D8
:104140000803C2F20003BA699B181B78DBB27B61DB
:104150007B685A687B6922FA03F27B689A604FF4A5
:104160006053C4F202039B6803F46043BB61BB6904
:104170004FEA5333BB6140F20803C2F20003BA694D
:104180009B181B78DBB27B617B685A687B6922FADB
:1041900003F27B68DA6007F12407BD4680BC7047F4
:1041A00080B483B000AF78600B46FB70FB78002BC7
:1041B0000CD04FF46053C4F202034FF46052C4F2C7
:1041C0000202116B7A680A431A630DE04FF46053E0
:1041D000C4F202034FF46052C4F20202116B7A6817
:1041E0006FEA02020A401A6307F10C07BD4680BC61
:1041F000704700BF80B483B000AF78600B46FB709F
:10420000FB78002B0CD04FF46053C4F202034FF440
:104210006052C4F20202116C7A680A431A640DE01B
:104220004FF46053C4F202034FF46052C4F202022E
:10423000116C7A686FEA02020A401A6407F10C07EF
:10424000BD4680BC704700BF80B483B000AF7860CB
:104250000B46FB70FB78002B0CD04FF46053C4F27C
:1042600002034FF46052C4F20202516C7A680A43AE
:104270005A640DE04FF46053C4F202034FF46052ED
:10428000C4F20202516C7A686FEA02020A405A6470
:1042900007F10C07BD4680BC704700BF80B483B0F7
:1042A00000AF78600B46FB70FB78002B0CD04FF40E
:1042B0006053C4F202034FF46052C4F20202116A66
:1042C0007A680A431A620DE04FF46053C4F20203A5
:1042D0004FF46052C4F20202116A7A686FEA020275
:1042E0000A401A6207F10C07BD4680BC704700BF48
:1042F00080B483B000AF78600B46FB70FB78002B76
:104300000CD04FF46053C4F202034FF46052C4F275
:104310000202516A7A680A435A620DE04FF4605310
:10432000C4F202034FF46052C4F20202516A7A6886
:104330006FEA02020A405A6207F10C07BD4680BCD0
:10434000704700BF80B485B000AF786039604FF02F
:104350000003FB604FF00003FB727B685B68FB604F
:10436000FB6823F0407323F48073FB603B681B7988
:104370004FEA03223B681B681343FA681343FB6050
:104380007B68FA685A607B689B68FB60FA684FF24A
:10439000FD73CCF2FF031340FB603B681A693B6876
:1043A000DB681A433B689B681A433B685B794FEABA
:1043B00043031343FA681343FB607B68FA689A600F
:1043C0007B68DB6AFB60FB6823F47003FB603B687F
:1043D0001B7D03F1FF33DAB2FB7A1343FB72FB7AE6
:1043E0004FEA0353FA681343FB607B68FA68DA62AA
:1043F00007F11407BD4680BC704700BF80B485B08C
:1044000000AF78604FF00003FB604FF40C53C4F230
:1044100001035B68FB60FA6843F2E003CFF6FC73CC
:104420001340FB607B681A687B685B681A437B6893
:104430009B681A437B68DB681343FA681343FB608D
:104440004FF40C53C4F20103FA685A6007F11407E1
:10445000BD4680BC704700BF80B483B000AF7860B9
:104460000B46FB70FB78002B06D07B689B6843F003
:1044700001027B689A6005E07B689B6823F001027B
:104480007B689A6007F10C07BD4680BC704700BF8F
:1044900080B485B000AF7860F970BA707B704FF06F
:1044A0000003FB604FF00003BB60FB78092B27D9AA
:1044B0007B68DB68FB60FA7813464FEA43039B187E
:1044C000A3F11E034FF0070202FA03F3BB60BB68BF
:1044D0006FEA0303FA681340FB607978FA781346B1
:1044E0004FEA43039B18A3F11E0301FA03F3BB60D9
:1044F000FA68BB681343FB607B68FA68DA6022E005
:104500007B681B69FB60FA7813464FEA43039B18EC
:104510004FF0070202FA03F3BB60BB686FEA0303C4
:10452000FA681340FB607978FA7813464FEA430340
:104530009B1801FA03F3BB60FA68BB681343FB6086
:104540007B68FA681A61BB78062B27D87B685B6B9F
:10455000FB60BB7803F1FF3213464FEA83039B18DD
:104560004FF01F0202FA03F3BB60BB686FEA03035C
:10457000FA681340FB60F978BB7803F1FF32134609
:104580004FEA83039B1801FA03F3BB60FA68BB6828
:104590001343FB607B68FA685A6351E0BB780C2BCD
:1045A00027D87B681B6BFB60BA7813464FEA8303FE
:1045B0009B18A3F123034FF01F0202FA03F3BB6021
:1045C000BB686FEA0303FA681340FB60F978BA78B6
:1045D00013464FEA83039B18A3F1230301FA03F365
:1045E000BB60FA68BB681343FB607B68FA681A63B8
:1045F00026E07B68DB6AFB60BA7813464FEA8303E8
:104600009B18A3F141034FF01F0202FA03F3BB60B2
:10461000BB686FEA0303FA681340FB60F978BA7865
:1046200013464FEA83039B18A3F1410301FA03F3F6
:10463000BB60FA68BB681343FB607B68FA68DA62A8
:1046400007F11407BD4680BC704700BF80B483B03B
:1046500000AF78607B689B6843F080427B689A601B
:1046600007F10C07BD4680BC704700BF80B483B023
:1046700000AF78600B46FB70FB78002B06D07B68A0
:104680009B6843F480727B689A6005E07B689B6856
:1046900023F480727B689A6007F10C07BD4680BCEA
:1046A000704700BF80B483B000AF78600B46FB70EA
:1046B000FB78002B06D07B689B6843F400727B6814
:1046C0009A6005E07B689B6823F400727B689A60BF
:1046D00007F10C07BD4680BC704700BF80B582B0B3
:1046E00000AF4FF48050C4F202004FF008014FF0C9
:1046F000010200F0A3FA4FF48050C4F202004FF020
:1047000009014FF0010200F099FA4FF40060C4F281
:1047100002004FF008014FF0030200F08FFA4FF44F
:1047200040733B604FF002033B714FF003037B711A
:104730004FF00003BB714FF00003FB713B464FF499
:104740008050C4F20200194600F09CF94FF48073C7
:104750003B604FF002033B714FF003037B714FF05E
:104760000003BB714FF00003FB713B464FF4006048
:10477000C4F20200194600F085F94FF040033B6097
:104780004FF001033B714FF00003BB714FF0030387
:104790007B714FF00003FB713B464FF44060C4F265
:1047A0000200194600F06EF94FF080033B604FF0B5
:1047B00000033B714FF003037B714FF00003FB716B
:1047C0003B464FF44060C4F20200194600F05AF92B
:1047D0004FF00000C4F202004FF009014FF0070251
:1047E00000F02CFA4FF00000C4F202004FF00A0172
:1047F0004FF0070200F022FA4FF400733B604FF0D5
:104800000003BB714FF00103FB714FF002033B71DA
:104810004FF003037B713B464FF00000C4F20200EF
:10482000194600F02FF94FF480633B604FF000030E
:10483000BB714FF00103FB714FF002033B714FF06E
:1048400003037B713B464FF00000C4F2020019469F
:1048500000F018F94FF00000C4F202004FF002011E
:104860004FF0070200F0EAF94FF00000C4F2020036
:104870004FF003014FF0070200F0E0F94FF004039E
:104880003B604FF00003BB714FF00103FB714FF031
:1048900002033B714FF003037B713B464FF0000076
:1048A000C4F20200194600F0EDF84FF008033B6037
:1048B0004FF00003BB714FF00103FB714FF0020397
:1048C0003B714FF003037B713B464FF00000C4F295
:1048D0000200194600F0D6F84FF002033B604FF09B
:1048E00001033B714FF00003BB714FF003037B7179
:1048F0004FF00003FB713B464FF00000C4F2020092
:10490000194600F0BFF84FF0C1033B604FF00303BE
:104910003B714FF00003FB713B464FF00000C4F2C7
:104920000200194600F0AEF84FF03F033B604FF035
:1049300003033B714FF00003FB713B464FF40060F3
:10494000C4F20200194600F09DF84FF003033B60EB
:104950004FF003033B714FF00003FB713B464FF4F4
:104960008060C4F20200194600F08CF84FF030036A
:104970003B604FF003033B714FF00003FB713B467C
:104980004FF00000C4F20200194600F07BF84FF02F
:10499000C0033B604FF000033B714FF003037B719A
:1049A0004FF00003FB713B464FF48060C4F20200FD
:1049B000194600F067F84FF020033B604FF0010309
:1049C0003B714FF00003BB714FF003037B714FF05D
:1049D0000003FB713B464FF48060C4F202001946AD
:1049E00000F050F84FF03F033B604FF001033B7184
:1049F0004FF00003BB714FF003037B714FF00003D6
:104A0000FB713B464FF44060C4F20200194600F0CF
:104A100039F84FF40060C4F202004FF00A014FF081
:104A2000060200F00BF94FF40060C4F202004FF0F0
:104A30000B014FF0060200F001F94FF40060C4F2E0
:104A400002004FF00C014FF0060200F0F7F84FF4AF
:104A5000E0533B604FF002033B714FF00003BB712A
:104A60004FF003037B714FF00203FB713B464FF4A1
:104A70000060C4F20200194600F004F807F10807CC
:104A8000BD4680BD80B487B000AF786039604FF01C
:104A900000037B614FF000033B614FF00003FB60BC
:104AA0004FF000037B6186E07B694FF0010202FA60
:104AB00003F33B613B681A683B691340FB60FA688B
:104AC0003B699A4273D17B681A687B694FEA43035A
:104AD0004FF0030101FA03F36FEA03031A407B6806
:104AE0001A607B681A683B681B7919467B694FEA34
:104AF000430301FA03F31A437B681A603B681B798E
:104B0000012B03D03B681B79022B34D17B689A6858
:104B10007B694FEA43034FF0030101FA03F36FEAA5
:104B200003031A407B689A607B689A683B685B79EC
:104B300019467B694FEA430301FA03F31A437B6882
:104B40009A607B685A687B699BB24FF0010101FA59
:104B500003F36FEA03031A407B685A607B685A6864
:104B60003B689B7919467B699BB201FA03F39BB2C0
:104B70001A437B685A607B68DA687B699BB24FEAAC
:104B800043034FF0030101FA03F36FEA03031A40F2
:104B90007B68DA607B68DA683B68DB7919467B6999
:104BA0004FEA430301FA03F31A437B68DA607B6937
:104BB00003F101037B617B690F2B7FF675AF07F172
:104BC0001C07BD4680BC704780B485B000AF7860DC
:104BD0000B467B804FF00003FB737B681A697B8870
:104BE0001340002B03D04FF00103FB7302E04FF0A2
:104BF0000003FB73FB7B184607F11407BD4680BC1E
:104C0000704700BF80B483B000AF78600B467B80F4
:104C10007B687A881A8307F10C07BD4680BC704711
:104C200080B483B000AF78600B467B807B687A8865
:104C30005A8307F10C07BD4680BC704780B485B02D
:104C400000AF786013460A467A807B704FF000030D
:104C5000FB604FF00003BB607A787B8803F00703AA
:104C60004FEA830302FA03F3FB607B884FEAD30326
:104C70009BB21A467B884FEAD3039BB219467B68E6
:104C800001F1080153F821107B8803F007034FEA74
:104C900083034FF00F0000FA03F36FEA0303194098
:104CA0007B6802F1080243F822107B884FEAD303A5
:104CB0009BB21A467B6802F1080253F82220FB6877
:104CC0001343BB607B884FEAD3039BB21A467B68D1
:104CD00002F10802B96843F8221007F11407BD4633
:104CE00080BC704780B500AF4FF46053C4F202033C
:104CF0004FF46052C4F20202126842F001021A60DC
:104D00004FF46053C4F202034FF000029A604FF474
:104D10006053C4F202034FF46052C4F202021268FC
:104D200022F0847222F480321A604FF46053C4F28D
:104D3000020343F21002C2F200425A604FF4605381
:104D4000C4F202034FF46052C4F20202126822F469
:104D500080221A604FF46053C4F202034FF0000245
:104D6000DA6000F009F84FF46D43CEF200034FF023
:104D700000629A6080BD00BF80B483B000AF4FF086
:104D800000037B604FF000033B604FF46053C4F2BC
:104D900002034FF46052C4F20202126842F48032FD
:104DA0001A604FF46053C4F202031B6803F400332B
:104DB0003B607B6803F101037B603B68002B03D100
:104DC0007B68B3F5A06FECD14FF46053C4F20203DB
:104DD0001B6803F40033002B03D04FF001033B604A
:104DE00002E04FF000033B603B68012B40F0828003
:104DF0004FF46053C4F202034FF46052C4F2020253
:104E0000126C42F080521A644FF4E043C4F2000383
:104E10004FF4E042C4F20002126842F480421A6089
:104E20004FF46053C4F202034FF46052C4F2020222
:104E300092689A604FF46053C4F202034FF46052D8
:104E4000C4F20202926842F400429A604FF4605346
:104E5000C4F202034FF46052C4F20202926842F4B8
:104E6000C0529A604FF46053C4F2020345F2084204
:104E7000C0F240725A604FF46053C4F202034FF420
:104E80006052C4F20202126842F080721A6000BFDF
:104E90004FF46053C4F202031B6803F00073002B4D
:104EA000F6D04FF47053C4F2020340F205621A6068
:104EB0004FF46053C4F202034FF46052C4F2020292
:104EC000926822F003029A604FF46053C4F2020326
:104ED0004FF46052C4F20202926842F002029A60F9
:104EE00000BF4FF46053C4F202039B6803F00C034D
:104EF000082BF6D107F10C07BD4680BC704700BFF8
:104F000080B485B000AF786039604FF00003FB607B
:104F10007B681B68FB60FA6848F23F03CFF21C0312
:104F20001340FB603B681A683B68DB681A433B68C8
:104F30005B691A433B689B691A433B68DB691A4308
:104F40003B681B6A1A433B685B6A1A433B689B6A6F
:104F50001A433B685B6B1A433B689B6B1343FA68CD
:104F60001343FB607B68FA681A607B685B69FB60CF
:104F7000FB6823F00703FB603B68DA6A3B681B6B46
:104F80001343FA681343FB607B68FA685A613B6815
:104F90001A697B685A603B685A687B689A603B680C
:104FA0009A687B68DA6007F11407BD4680BC7047D9
:104FB00080B483B000AF78600B46FB70FB78002BA9
:104FC00006D07B681B6843F001027B681A6005E02D
:104FD0007B681B6823F001027B681A6007F10C07ED
:104FE000BD4680BC704700BF80B485B000AFF8609C
:104FF000B9601346FB71BB6803F08003002B0FD030
:10500000FB79002B06D0FB685B6943F08002FB68EC
:105010005A6105E0FB685B6923F08002FB685A6116
:10502000BB68802B15D0FB79002B08D0FB681A6871
:10503000BB6803F01E031A43FB681A6009E0FB68B3
:105040001A68BB6803F01E036FEA03031A40FB688B
:105050001A6007F11407BD4680BC704780B485B064
:1050600000AF786039607A6846F20F43C4F20203F9
:105070009A4205D84FF4C043C4F20203FB6004E037
:105080004FF4C843C4F20203FB603B6803F00053D3
:10509000002B07D03B6823F0F02323F08213FA683B
:1050A000D36006E03B6823F0F02323F08213FA6814
:1050B000936007F11407BD4680BC704780B59AB075
:1050C00000AF4FF000037B660CE044F6E813C2F239
:1050D00000037A6E4FF0000123F812107B6E03F18B
:1050E00001037B667B6E3F2BEFD94FF000033B60E3
:1050F00044F6E813C2F20003BB6042F24C03C4F270
:1051000001037B604FF00003FB604FF040033B6105
:105110004FF000037B614FF48063BB614FF4006389
:10512000FB614FF400533B624FF480737B624FF49A
:105130000033BB624FF00403FB624FF001033B639B
:105140004FF000037B634FF00003BB633B4646F226
:105150001040C4F202001946FFF7D2FE46F210409A
:10516000C4F202004FF00101FFF722FF4FF00003ED
:105170007B654FF00003BB654FF00003FB654FF00C
:1051800000033B6607F154031846FFF737F94FF069
:105190000003FB634FF0010387F840304FF0010339
:1051A00087F841304FF000037B644FF06063BB64CD
:1051B0004FF00003FB644FF0080387F8503007F10D
:1051C0003C034FF40050C4F201001946FFF7BAF84F
:1051D0004FF40050C4F201004FF00F014FF00102F4
:1051E0004FF00003FFF754F94FF40050C4F20100F0
:1051F0004FF00E014FF002024FF00003FFF748F9A5
:105200004FF40050C4F201004FF009014FF00302C7
:105210004FF00003FFF73CF94FF40050C4F20100D7
:105220004FF008014FF004024FF00003FFF730F990
:105230004FF40050C4F201004FF00A014FF0050294
:105240004FF00003FFF724F94FF40050C4F20100BF
:105250004FF00B014FF006024FF00003FFF718F973
:105260004FF40050C4F201004FF00C014FF0070260
:105270004FF00003FFF70CF94FF40050C4F20100A7
:105280004FF00D014FF008024FF00003FFF700F957
:105290004FF40050C4F201004FF00101FFF702FA91
:1052A0004FF40050C4F201004FF00101FFF7DEF9A6
:1052B00046F21040C4F202004FF010014FF001021C
:1052C000FFF792FE4FF40050C4F201004FF00101CD
:1052D000FFF7C2F84FF40050C4F20100FFF7B6F92F
:1052E00007F16807BD4680BD80B485B000AF0346B6
:1052F000FB714FF00003BB60FB79BB814FF00003F3
:10530000FB7312E0BA8944F6E813C2F2000333F8E3
:1053100012309BB2BA68D318BB60BB8903F1080393
:10532000BB81FB7B03F10103FB73FB7B072BE9D9FB
:10533000BB684FEAD303BB60BB68184607F114078C
:10534000BD4680BC704700BF80B483B000AF7860BA
:1053500039607B683A6802FB03F37B607A6844F645
:10536000D353C1F26203A3FB02134FEA93137B6092
:105370007B6840F6C41202FB03F37B607A6840F25C
:105380000113C0F21003A3FB0213D21A4FEA520218
:105390009B184FEAD3237B607B68184607F10C0704
:1053A000BD4680BC704700BF80B500AF4FF0000025
:1053B000FFF79AFF0346184640F2F671FFF7C4FF65
:1053C000024642F6B003C2F200031A604FF0010039
:1053D000FFF78AFF0346184640F2F671FFF7B4FF65
:1053E000024642F6B003C2F200035A604FF00200D8
:1053F000FFF77AFF0346184640F2F671FFF7A4FF65
:10540000024642F6B003C2F200039A604FF0030076
:10541000FFF76AFF0346184640F2F671FFF794FF64
:10542000024642F6B003C2F20003DA6080BD00BF5C
:1054300080B500AF4FF00400FFF756FF0346184653
:1054400040F26D61FFF780FF024642F6B003C2F200
:1054500000031A614FF00500FFF746FF03461846A8
:1054600040F23D61FFF770FF024642F6B003C2F220
:1054700000035A6180BD00BF80B500AF4FF0060049
:10548000FFF732FF034618464FF47A71FFF75CFFCF
:1054900003461A4642F6B003C2F200039A614FF087
:1054A0000700FFF721FF034618464FF47A71FFF714
:1054B0004BFF03461A4642F6B003C2F20003DA611C
:1054C00080BD00BF80B582B000AF78607A684FF4CD
:1054D0004053C4F201039A420CD14FF480504FF074
:1054E0000101FEF705FF4FF480504FF00001FEF779
:1054F000FFFE26E07A684FF46053C4F200039A423C
:105500000CD14FF480404FF00101FEF7C7FE4FF47D
:1055100080404FF00001FEF7C1FE12E07A684FF4C0
:105520007053C4F200039A420BD14FF400404FF085
:105530000101FEF7B3FE4FF400404FF00001FEF70B
:10554000ADFE07F10807BD4680BD00BF80B485B041
:1055500000AF786039604FF00003FB817B681B88E7
:10556000FB81FB8903F44153FB813B681A883B684C
:105570005B8813439AB23B689B8813439AB23B689B
:10558000DB8813439AB23B681B8913439AB23B688A
:105590005B8913439AB23B689B8913439AB23B6879
:1055A000DB8913439AB2FB891343FB817B68FA8939
:1055B0001A807B689B8B9BB223F400639AB27B6852
:1055C0009A833B681A8A7B681A8207F11407BD46E2
:1055D00080BC704780B483B000AF78600B46FB702E
:1055E000FB78002B08D07B681B889BB243F04003FC
:1055F0009AB27B681A8007E07B681B889BB223F015
:1056000040039AB27B681A8007F10C07BD4680BC44
:10561000704700BF80B483B000AF78607B689B891F
:105620009BB2184607F10C07BD4680BC704700BF0F
:1056300080B483B000AF78600B467B807B687A884B
:105640009A8107F10C07BD4680BC704780B485B0D5
:1056500000AF78600B467B804FF00003FB737B68E4
:105660001B899AB27B8813409BB2002B03D04FF06A
:105670000103FB7302E04FF00003FB73FB7B184652
:1056800007F11407BD4680BC704700BF80B483B0EB
:1056900000AF78604FF46D43CEF200037A6842F0B9
:1056A000BF6242F40032DA6007F10C07BD4680BCED
:1056B000704700BF80B485B000AF78604FF0000342
:1056C000FB734FF00003BB734FF00F037B737B68DA
:1056D000DB78002B45D04FF46D43CEF20003DB683E
:1056E0006FEA030303F4E0634FEA1323FB73FB7BCE
:1056F000C3F10403BB737A7BFB7B42FA03F37B7336
:105700007B685B781A46BB7B02FA03F3FB737B680A
:105710009A787B7B1340DAB2FB7B1343FB73FB7BF2
:105720004FEA0313FB734FF46143CEF200037A6830
:1057300012789B18FA7B83F800234FF46143CEF272
:1057400000037A6812784FEA5212D2B27968097867
:1057500001F01F014FF0010000FA01F143F822109F
:1057600014E04FF46143CEF200037A6812784FEAF6
:105770005212D2B27968097801F01F014FF001008E
:1057800000FA01F102F1200243F8221007F1140798
:10579000BD4680BC704700BF80B483B000AF786066
:1057A00039604FF46D43CEF200033A6822F0604254
:1057B00022F07F0279680A439A6007F10C07BD4620
:1057C00080BC704780B400AF42F6E403C2F200032D
:1057D0004FF000021A7042F6E403C2F200034FF0E9
:1057E00000029A7042F6E403C2F200034FF0000296
:1057F0005A7042F6E403C2F200034FF00002DA707E
:10580000BD4680BC704700BF80B500AF42F6E403E0
:10581000C2F200031B78DBB2002B2BD142F6E4036B
:10582000C2F20003DB78DBB2002B56D042F6E40371
:10583000C2F20003DB78DBB2184602F02BF842F626
:10584000E403C2F20003DB78DBB2184602F022F870
:105850004FF48050C4F2010040F227714FF0010272
:10586000FDF71CFD42F6E403C2F200034FF0000214
:10587000DA7032E042F6E403C2F200031B78DBB2D6
:10588000012B2AD142F6E403C2F20003DB78DBB23B
:10589000002B22D042F6E403C2F20003DB78DBB235
:1058A000184601F0F7FF42F6E403C2F20003DB788A
:1058B000DBB2184601F0EEFF4FF48050C4F2010055
:1058C00040F227714FF00102FDF7E8FC42F6E403D5
:1058D000C2F200034FF00002DA7080BD80B582B0E2
:1058E00000AF42F6E403C2F200031B78DBB2002BE8
:1058F00040F07C8101F01EFF0346002B00F0B282D5
:1059000001F040FF0346BB7142F6E403C2F200031C
:105910005B78DBB2062B00F2618101A252F823F022
:105920003D5900085559000889590008D159000807
:10593000195A0008615A0008A95A0008BB79FF2BC0
:1059400040F0968242F6E403C2F200034FF00102F7
:105950005A708DE2BB79FF2B0ED142F6E403C2F2FE
:1059600000034FF002025A7040F29C43C2F200035F
:105970004FF000021A7088E242F6E403C2F200031C
:105980004FF000025A7080E240F29C43C2F20003E2
:105990001A78114640F2A043C2F20003B879585475
:1059A00002F10103DAB240F29C43C2F200031A7022
:1059B00040F29C43C2F200031B78032B40F25A8250
:1059C00042F6E403C2F200034FF003025A7051E2C0
:1059D00042F6E403C2F20003BA799A70BB79092B4C
:1059E00007D842F6E403C2F200034FF004025A70F3
:1059F0004BE2BB790A2B07D142F6E403C2F2000363
:105A00004FF005025A7040E242F6E403C2F200038E
:105A10004FF000025A7038E240F29C43C2F2000399
:105A20001A78114640F2A043C2F20003B8795854E4
:105A300002F10103DAB240F29C43C2F200031A7091
:105A400040F29C43C2F200031B78132B40F21482F5
:105A500042F6E403C2F200034FF006025A700BE272
:105A600040F29C43C2F200031A78114640F2A04370
:105A7000C2F20003B879585402F10103DAB240F2DD
:105A80009C43C2F200031A7040F29C43C2F200032E
:105A90001B78072B40F2F28142F6E403C2F20003C6
:105AA0004FF006025A70E9E140F2B443C2F200033B
:105AB0004FF000021A704FF00003FB7115E0FA7905
:105AC00040F2A043C2F200039A5C40F2B443C2F237
:105AD00000031B78D318DAB240F2B443C2F20003D9
