:020000040800F2
:100000009C3E0020712A0008E12A0008E12A00082D
:10001000E12A0008E12A0008E12A000800000000A7
:10002000000000000000000000000000E12A0008BD
:10003000E12A000800000000E12A000899200008D9
:10004000E12A0008E12A0008E12A0008E12A000864
:10005000E12A0008E12A0008E12A0008E12A000854
:10006000E12A0008E12A0008E12A0008E12A000844
:10007000E12A0008E12A0008E12A0008E12A000834
:10008000E12A0008E12A0008E12A0008E12A000824
:10009000E12A0008E12A0008E12A0008E12A000814
:1000A000E12A000801120008E12A0008E12A0008FC
:1000B000E12A0008E12A0008E12A0008E12A0008F4
:1000C000E12A0008E12A0008E12A0008E12A0008E4
:1000D000E12A000809690008696A0008E12A0008A5
:1000E000E12A0008E12A0008E12A0008E12A0008C4
:1000F00019120008E12A0008E12A0008E12A000894
:10010000E12A0008E12A0008E12A0008E12A0008A3
:10011000E12A0008E12A0008E12A0008E12A000893
:1001200031120008E12A0008E12A0008E12A00084B
:10013000E12A0008E12A0008E12A0008E12A000873
:10014000E12A0008E12A0008E12A0008E12A000863
:10015000E12A0008E12A0008E12A0008E12A000853
:10016000E12A0008E12A0008E12A0008E12A000843
:10017000E12A0008E12A0008E12A0008E12A000833
:10018000E12A0008E12A000880B586B000AF00F03F
:1001900073FB4FF47050C4F2000004F07DFA4FF08E
:1001A0000003BB804FF48273FB804FF400633B81FC
:1001B0004FF000037B814FF00103BB814FF40073CC
:1001C000FB814FF000033B824FF000037B8207F17D
:1001D00004034FF47050C4F20000194604F0A0FA72
:1001E0004FF47050C4F200004FF0010104F0DCFA4B
:1001F0004FF44060C4F202004FF0010103F0ECFD47
:1002000000F05CFA07F11807BD4680BD80B485B0E8
:1002100000AF0346FB71FB7903F00103FB73FB7B2B
:10022000002B07D04FF44063C4F202034FF00202E8
:100230001A8306E04FF44063C4F202034FF0020257
:100240005A83FB794FEA5303FB71FB7903F00103F7
:10025000FB73FB7B002B07D04FF44063C4F2020317
:100260004FF004021A8306E04FF44063C4F2020325
:100270004FF004025A83FB794FEA5303FB71FB7979
:1002800003F00103FB73FB7B002B07D04FF44063AB
:10029000C4F202034FF008021A8306E04FF44063F1
:1002A000C4F202034FF008025A83FB794FEA53036A
:1002B000FB71FB7903F00103FB73FB7B002B07D081
:1002C0004FF44063C4F202034FF010021A8306E0B9
:1002D0004FF44063C4F202034FF010025A83FB79DB
:1002E0004FEA5303FB71FB7903F00103FB73FB7BC4
:1002F000002B07D04FF44063C4F202034FF02002FA
:100300001A8306E04FF44063C4F202034FF0200268
:100310005A8307F11407BD4680BC704780B582B090
:1003200000AF4FF40043FB8040F29443C2F200035D
:1003300093F83230DBB2002B03D0FB8803F5804307
:10034000FB8040F29443C2F200031B8DBB804FF050
:100350000100FFF75BFF4FF44060C4F202004FF072
:10036000010103F047FDFB884FF47050C4F2000018
:10037000194604F047FA00BF4FF47050C4F2000071
:100380004FF0800104F04CFA0346002BF4D14FF4F7
:100390007050C4F2000004F027FA0346FB80BB88CB
:1003A0004FF47050C4F20000194604F02BFA00BF5D
:1003B0004FF47050C4F200004FF0800104F030FAA6
:1003C0000346002BF4D14FF47050C4F2000004F047
:1003D0000BFA0346BB804FF44060C4F202004FF0BA
:1003E000010103F0F9FC07F10807BD4680BD00BF1D
:1003F00080B582B000AF40F29443C2F20003DB8DBF
:10040000FB8040F29443C2F200035B8DBB804FF04F
:100410000200FFF7FBFE4FF44060C4F202004FF011
:10042000010103F0E7FCFB884FF47050C4F20000B8
:10043000194604F0E7F900BF4FF47050C4F2000011
:100440004FF0800104F0ECF90346002BF4D14FF497
:100450007050C4F2000004F0C7F90346FB80BB886B
:100460004FF47050C4F20000194604F0CBF900BFFD
:100470004FF47050C4F200004FF0800104F0D0F946
:100480000346002BF4D14FF47050C4F2000004F086
:10049000ABF90346BB804FF44060C4F202004FF05A
:1004A000010103F099FC07F10807BD4680BD00BFBC
:1004B00080B582B000AF40F29443C2F200031B8EBD
:1004C000FB8040F29443C2F200039B8DBB804FF04F
:1004D0000300FFF79BFE4FF44060C4F202004FF0B0
:1004E000010103F087FCFB884FF47050C4F2000058
:1004F000194604F087F900BF4FF47050C4F20000B1
:100500004FF0800104F08CF90346002BF4D14FF436
:100510007050C4F2000004F067F90346FB80BB880A
:100520004FF47050C4F20000194604F06BF900BF9C
:100530004FF47050C4F200004FF0800104F070F9E5
:100540000346002BF4D14FF47050C4F2000004F0C5
:100550004BF90346BB804FF44060C4F202004FF0F9
:10056000010103F039FC07F10807BD4680BD00BF5B
:1005700080B500AFFFF73CFFFFF79AFFFFF7CEFE15
:1005800080BD00BF80B485B000AF02460B46FA8044
:10059000BB80FB884FEA5303FB81BA88FB889A42F1
:1005A00003D3FB8803F1FF33BB8040F29443C2F2D4
:1005B0000003FA881A8540F29443C2F20003FA89D4
:1005C0005A85FA89BB88D3189AB240F29443C2F292
:1005D00000039A8540F29443C2F200035B8D9AB205
:1005E00040F29443C2F200031B8D9BB24FEA5303C7
:1005F0009BB2D3189AB240F29443C2F20003DA8558
:1006000040F29443C2F200039B8D9AB240F29443AD
:10061000C2F200031B8D9BB24FEA53039BB2D31867
:100620009AB240F29443C2F200031A8640F2944315
:10063000C2F20003DB8D9AB240F29443C2F200038F
:100640001B8D9BB29A4212D340F29443C2F2000334
:10065000DB8D9AB240F29443C2F200031B8D9BB231
:10066000D31A9AB240F29443C2F20003DA8540F200
:100670009443C2F200031B8E9AB240F29443C2F23A
:1006800000031B8D9BB29A4212D340F29443C2F2F4
:1006900000031B8E9AB240F29443C2F200031B8DFA
:1006A0009BB2D31A9AB240F29443C2F200031A8664
:1006B00007F11407BD4680BC704700BF80B582B00B
:1006C00000AF4FF00000FFF7A1FD4FF44060C4F20F
:1006D00002004FF0010103F08DFB4FF47050C4F2A3
:1006E00000004FF0000104F08DF800BF4FF470508F
:1006F000C4F200004FF0800104F092F80346002B92
:10070000F4D14FF47050C4F2000004F06DF80346C9
:10071000FB804FF47050C4F200004FF0000104F071
:1007200071F800BF4FF47050C4F200004FF0800128
:1007300004F076F80346002BF4D14FF47050C4F265
:10074000000004F051F80346BB80FA8840F294435D
:10075000C2F200035A6040F29443C2F200035B68A5
:100760004FEA034240F29443C2F200035A6040F25F
:100770009443C2F200035A68BB88D21840F29443F3
:10078000C2F200035A604FF44060C4F202004FF01E
:10079000010103F021FB07F10807BD4680BD00BF42
:1007A00080B584B000AF0346FB71FB7903F00F0303
:1007B000FB71FB7903F11003DBB21846FFF726FD4E
:1007C0004FF44060C4F202004FF0010103F012FB4D
:1007D0004FF47050C4F200004FF0000104F012F822
:1007E00000BF4FF47050C4F200004FF0800104F0DD
:1007F00017F80346002BF4D14FF47050C4F20000F8
:1008000003F0F2FF0346FB814FF47050C4F2000086
:100810004FF0000103F0F6FF00BF4FF47050C4F238
:1008200000004FF0800103F0FBFF0346002BF4D1E2
:100830004FF47050C4F2000003F0D6FF0346BB81B2
:10084000FA79BB894FEA03534FEA135399B240F246
:100850009443C2F2000302F1040223F812104FF491
:100860004060C4F202004FF0010103F0B5FA07F155
:100870001007BD4680BD00BF80B500AF4FF440609B
:10088000C4F202004FF0400103F0A6FA4FF44060BA
:10089000C4F202004FF0400103F0ACFA80BD00BF8B
:1008A00080B500AF4FF44060C4F202004FF0800109
:1008B00003F074FA03461A4640F29443C2F200036E
:1008C0001A7040F29443C2F200031B78DBB2184660
:1008D00080BD00BF80B500AF40F26443C2F20003A8
:1008E0001B78042B66D801A252F823F001090008F6
:1008F00025090008490900086D0900089109000848
:100900004FF00000FFF74CFF40F26443C2F20003D7
:100910001B7803F10103DAB240F26443C2F2000330
:100920001A704FE04FF00100FFF73AFF40F26443C6
:10093000C2F200031B7803F10103DAB240F2644310
:10094000C2F200031A703DE04FF00200FFF728FFEB
:1009500040F26443C2F200031B7803F10103DAB2F0
:1009600040F26443C2F200031A702BE04FF0030020
:10097000FFF716FF40F26443C2F200031B7803F155
:100980000103DAB240F26443C2F200031A7019E0C4
:100990004FF00400FFF704FF40F26443C2F200038B
:1009A0001B7803F10103DAB240F26443C2F20003A0
:1009B0001A7007E040F26443C2F200034FF00002F5
:1009C0001A7000BF80BD00BF80B483B000AF034683
:1009D0003960FB7197F90730002B10DA4FF46D4343
:1009E000CEF20003FA7902F00F02A2F104013A6894
:1009F000D2B24FEA0212D2B25B181A760DE04FF46F
:100A00006143CEF2000397F907103A68D2B24FEA79
:100A10000212D2B25B1883F8002307F10C07BD461F
:100A200080BC704780B582B000AF78607A686FF0A4
:100A30007F439A4202D94FF001031FE04EF21003A8
:100A4000CEF200037A6822F07F4202F1FF325A6050
:100A50004FF0FF304FF00F01FFF7B6FF4EF21003DB
:100A6000CEF200034FF000029A604EF21003CEF275
:100A700000034FF007021A604FF00003184607F119
:100A80000807BD4680BD00BF80B58CB000AF42F600
:100A90007C63C2F200034FF462729A604FF000036D
:100AA000BB844FF00003FB844FF00703BB624FF0A1
:100AB0000003BB854FF0000387F82E3007F12403B5
:100AC0004FF48060C4F20100194605F0CDFB4FF0F1
:100AD00070033B824FF001037B824FF00003BB8227
:100AE0004FF00403BB614FF00003BB834FF00003E2
:100AF000FB834FF480733B844FF000037B8407F14A
:100B000010034FF48060C4F20100194605F046FC62
:100B10004FF400633B804FF480637B804FF480731D
:100B2000BB804FF00003FB804FF000033B814FF48C
:100B300000537B814FF48043BB813B464FF4806080
:100B4000C4F20100194605F0B9FC4FF48060C4F20C
:100B500001004FF0010105F001FC4FF48060C4F288
:100B600001004FF0010105F0D1FC42F67C63C2F2B6
:100B700000034FF00002DA6040F29443C2F2000337
:100B80004FF0000283F8322042F67C63C2F2000389
:100B90009B689AB242F67C63C2F20003DB689BB2A8
:100BA00010461946FFF7EEFCFFF7E2FC07F13007AD
:100BB000BD4680BD80B582B000AF0346FB8042F6E3
:100BC0007C63C2F200031B78DBB2032B07D042F632
:100BD0007C63C2F200031B78DBB2042B36D142F6F1
:100BE0007C63C2F200039A68FB889A420BD942F6F2
:100BF0007C63C2F200039A68FB88D21A42F67C63D7
:100C0000C2F200039A6042F67C63C2F200039A6863
:100C100040F21F339A4206D842F67C63C2F20003C8
:100C20004FF448729A6042F67C63C2F200039B68FC
:100C30009AB242F67C63C2F20003DB689BB21046B4
:100C40001946FFF79FFCFFF793FC00E000BF07F198
:100C50000807BD4680BD00BF80B582B000AF034627
:100C6000FB8042F67C63C2F200031B78DBB2032BED
:100C700007D042F67C63C2F200031B78DBB2042B80
:100C800037D142F67C63C2F200039A6840F6E20371
:100C90009A421BD842F67C63C2F200039A68FB8832
:100CA000D21842F67C63C2F200039A6042F67C637B
:100CB000C2F200039A6840F6E3039A4206D942F66C
:100CC0007C63C2F2000340F6E3029A6042F67C6362
:100CD000C2F200039B689AB242F67C63C2F2000340
:100CE000DB689BB210461946FFF74CFCFFF740FC4F
:100CF00000E000BF07F10807BD4680BD80B582B0A7
:100D000000AF0346FB8042F67C63C2F200031B780F
:100D1000DBB2032B07D042F67C63C2F200031B78E0
:100D2000DBB2042B38D142F67C63C2F20003DA68EE
:100D3000FB88D21842F67C63C2F20003DA6042F606
:100D40007C63C2F20003DA6842F67C63C2F20003FD
:100D50009B684FEA53039A420BD942F67C63C2F276
:100D600000039B684FEA530242F67C63C2F2000321
:100D7000DA6042F67C63C2F200039B689AB242F6E4
:100D80007C63C2F20003DB689BB210461946FFF792
:100D9000F9FBFFF7EDFB00E000BF07F10807BD46D8
:100DA00080BD00BF80B582B000AF0346FB8042F635
:100DB0007C63C2F200031B78DBB2032B07D042F640
:100DC0007C63C2F200031B78DBB2042B2ED142F607
:100DD0007C63C2F20003DA68FB889A420CD942F6BF
:100DE0007C63C2F20003DA68FB88D21A42F67C63A5
:100DF000C2F20003DA6006E042F67C63C2F200034E
:100E00004FF00002DA6042F67C63C2F200039B6896
:100E10009AB242F67C63C2F20003DB689BB21046D2
:100E20001946FFF7AFFBFFF7A3FB00E000BF07F198
:100E30000807BD4680BD00BF80B500AFFFF730FD9D
:100E40000346002B0BD0FFF739FC42F67C63C2F25D
:100E500000034FF00A021A704FF0010301E04FF057
:100E60000003184680BD00BF80B500AF42F67C632A
:100E7000C2F200031B78DBB20E2B00F29F8101A2AD
:100E800052F823F0C10E0008BD1100086D0F0008D4
:100E9000BB0F000809100008BD110008BD110008B3
:100EA000BD110008BD110008BD1100085710000851
:100EB000A1100008EB10000831110008771100089C
:100EC00040F29443C2F200034FF0000283F8322054
:100ED00042F67C63C2F200034FF462729A6042F6FB
:100EE0007C63C2F200034FF00002DA6042F67C63DA
:100EF000C2F200039B689AB242F67C63C2F200031E
:100F0000DB689BB210461946FFF73CFBFFF730FB4E
:100F1000FFF792FF0346002B40F0588142F67C63B6
:100F2000C2F200035B78DBB2652B11D140F294432F
:100F3000C2F200034FF0010283F83220FFF718FBE2
:100F400042F67C63C2F200034FF002021A703DE1E8
:100F500042F67C63C2F200035B78DBB2722B40F096
:100F60003581FFF789FCFFF7A9FB2FE1FFF764FF4D
:100F70000346002B40F02C8142F67C63C2F2000352
:100F80005B78DBB2642B07D142F67C63C2F20003CC
:100F90004FF000021A701BE142F67C63C2F20003BC
:100FA0005B78DBB2452B40F0138142F67C63C2F2E2
:100FB00000034FF003021A700AE1FFF73DFF0346FA
:100FC000002B40F0078142F67C63C2F200035B789D
:100FD000DBB2642B07D142F67C63C2F200034FF010
:100FE00000021A70F6E042F67C63C2F200035B78FE
:100FF000DBB2452B40F0EE8042F67C63C2F2000388
:101000004FF004021A70E5E0FFF716FF0346002BCD
:1010100040F0E28042F67C63C2F200035B78DBB210
:10102000642B07D142F67C63C2F200034FF000024A
:101030001A70D1E042F67C63C2F200035B78DBB247
:10104000452B40F0C98042F67C63C2F200034FF0AA
:1010500003021A70C0E040F29443C2F200034FF062
:10106000000283F83220FFF783FA42F67C63C2F273
:1010700000035B78DBB2722B40F0B080FFF7FCFB23
:10108000FFF71CFBFFF7D8FE0346002B40F0A680BD
:1010900042F67C63C2F200034FF000021A709DE03A
:1010A00040F29443C2F200034FF0000283F8322072
:1010B000FFF75EFA42F67C63C2F200035B78DBB2B4
:1010C000722B40F08D80FFF7D7FBFFF7F7FAFFF7A1
:1010D000B3FE0346002B40F0838042F67C63C2F2ED
:1010E00000034FF000021A707AE040F29443C2F21B
:1010F00000034FF0000283F83220FFF739FA42F67E
:101100007C63C2F200035B78DBB2722B6AD1FFF71B
:10111000B3FBFFF7D3FAFFF78FFE0346002B61D135
:1011200042F67C63C2F200034FF000021A7059E0ED
:1011300040F29443C2F200034FF0000283F83220E1
:10114000FFF716FA42F67C63C2F200035B78DBB26B
:10115000722B49D1FFF790FBFFF7B0FAFFF76CFE57
:101160000346002B40D142F67C63C2F200034FF0ED
:1011700000021A7038E040F29443C2F200034FF0CC
:10118000000283F83220FFF7F3F942F67C63C2F2E3
:1011900000035B78DBB2722B28D1FFF76DFBFFF702
:1011A0008DFAFFF749FE0346002B1FD142F67C6300
:1011B000C2F200034FF000021A7017E042F67C639F
:1011C000C2F200034FF000021A7010E000BF0EE000
:1011D00000BF0CE000BF0AE000BF08E000BF06E06F
:1011E00000BF04E000BF02E000BF00E000BF42F625
:1011F0007C63C2F200034FF000025A7080BD00BF52
:1012000080B500AF4FF00000C4F201004FF00101C3
:1012100005F0A4F980BD00BF80B500AF4FF4806039
:10122000C4F201004FF0010105F098F980BD00BF44
:1012300080B500AF46F21040C4F202004FF020012A
:10124000C1F2000102F0F4FF03F098F903F0DAF9BB
:1012500003F0FCF940F61053C2F2000303F5035308
:1012600003F11C031B6803F1010240F61053C2F2A4
:10127000000303F5035303F11C031A6080BD00BF94
:1012800080B500AF40F21C03C2F200031A6841F2BD
:101290005973CDF2B713A3FB02134FEA5333184629
:1012A000FFF7C0FB80BD00BF2DE9B0438AB000AF9F
:1012B000F860B9607A603B60F86807F00DFE04469C
:1012C0000D467B681846194608F072F90346184621
:1012D00007F002FE02460B46104619468AA3D3E9E0
:1012E000002307F04DFE02460B4690469946786C67
:1012F00007F0F2FD02460B464046494607F06AFFFA
:1013000002460B461046194605F032FE02460B46D1
:101310002046294607F034FE02460B461046194681
:1013200008F0F0F803467B62F86807F0D5FD044644
:101330000D467B681846194608F03AF903461846E8
:1013400007F0CAFD02460B46104619466EA3D3E9C4
:10135000002307F015FE02460B4690469946786C2E
:1013600007F0BAFD02460B464046494607F032FFF9
:1013700002460B461046194605F046FE02460B464D
:101380002046294607F0FCFD02460B46104619464A
:1013900008F0B8F803463B62B86807F09DFD0446C4
:1013A0000D463868396C08F003F9034618461946AB
:1013B00008F0FEF80346184607F08EFD02460B467D
:1013C0001046194650A3D3E9002307F0D9FD024681
:1013D0000B4690469946786C07F07EFD02460B4618
:1013E0004046494607F0F6FE02460B4610461946AF
:1013F00005F0BEFD02460B462046294607F0C0FD1B
:1014000002460B461046194608F07CF80346FB617D
:10141000B86807F061FD04460D463868396C08F07D
:10142000C7F803461846194608F0C2F8034618469E
:1014300007F052FD02460B461046194632A3D3E987
:10144000002307F09DFD02460B4690469946786CB6
:1014500007F042FD02460B464046494607F0BAFEF9
:1014600002460B461046194605F0CEFD02460B46D5
:101470002046294607F084FD02460B4610461946D1
:1014800008F040F80346BB61786AF96908F090F803
:1014900003461C46786AF96908F08AF80346204634
:1014A000194608F08DF903461C46386AB96908F0F8
:1014B0007FF803461D46386AB96908F079F8034693
:1014C0002846194608F07CF903462046194608F0DC
:1014D0006FF80346184607F0FFFC02460B4610461D
:1014E000194605F0DDFD02460B461046194608F088
:1014F00009F803467B617B69184607F12807BD465A
:10150000BDE8B083AFF30080182D4454FB2109409F
:101510002DE9B0438AB000AFF860B9607A603B60F3
:10152000F86807F0D9FC04460D467B681846194652
:1015300008F03EF80346184607F0CEFC02460B467C
:101540001046194692A3D3E9002307F019FD02467D
:101550000B4690469946786C07F0BEFC02460B4657
:101560004046494607F036FE02460B4610461946ED
:1015700005F0FEFC02460B462046294607F000FD1A
:1015800002460B461046194607F0BCFF03463B6275
:10159000F86807F0A1FC04460D467B68184619461A
:1015A00008F006F80346184607F096FC02460B467C
:1015B0001046194676A3D3E9002307F0E1FC024662
:1015C0000B4690469946786C07F086FC02460B461F
:1015D0004046494607F0FEFD02460B4610461946B6
:1015E00005F012FD02460B462046294607F0C8FCCE
:1015F00002460B461046194607F084FF0346FB617E
:10160000B86807F069FC04460D463868396C07F085
:10161000CFFF03461846194607F0CAFF034618468F
:1016200007F05AFC02460B461046194658A3D3E968
:10163000002307F0A5FC02460B4690469946786CBD
:1016400007F04AFC02460B464046494607F0C2FDF9
:1016500002460B461046194605F08AFC02460B4628
:101660002046294607F08CFC02460B4610461946D8
:1016700007F048FF0346BB61B86807F02DFC04463D
:101680000D463868396C07F093FF03461846194633
:1016900007F08EFF0346184607F01EFC02460B4675
:1016A000104619463AA3D3E9002307F069FC024625
:1016B0000B4690469946786C07F00EFC02460B46A6
:1016C0004046494607F086FD02460B46104619463D
:1016D00005F09AFC02460B462046294607F050FCCE
:1016E00002460B461046194607F00CFF03467B6185
:1016F000386AB96907F05CFF034618464FF00001ED
:1017000008F01AFA0346002B4AD0F869796907F005
:101710004FFF034618464FF0000108F00DFA03464C
:10172000002B3DD0F869796907F042FF03461C465B
:10173000386AB96907F03CFF03462046194608F0AD
:10174000F3F80346184607F0C7FB02460B4610465F
:10175000194605F059FA04460D46786C07F0BCFBB3
:1017600002460B462046294607F00AFC02460B4675
:101770001046194608A3D3E9002307F02BFD0246C3
:101780000B461046194607F0BDFE03467B62FFE09C
:10179000182D4454FB210940182D4454FB211940B5
:1017A000386AB96907F004FF034618464FF0000194
:1017B00008F0A4F90346002B4ED0F869796907F0C8
:1017C000F7FE034618464FF0000108F0B5F903464E
:1017D000002B41D0F869796907F0EAFE03461C4600
:1017E0003B6A83F000431846B96907F0DFFE034601
:1017F0002046194608F098F80346184607F06CFB97
:1018000002460B461046194605F0FEF902460B4605
:1018100063A1D1E9000107F0FFF902460B46144627
:101820001D46786C07F058FB02460B4620462946B9
:1018300007F0A6FB02460B46104619465AA3D3E909
:10184000002307F0C7FC02460B461046194607F076
:1018500059FE03467B629BE0386AB96907F0A8FE2F
:10186000034618464FF0000108F048F90346002BE4
:101870004DD0F869796907F09BFE034618464FF092
:10188000000108F03BF90346002B40D0F869796964
:1018900007F08EFE03461C46386AB96907F088FED9
:1018A00003462046194608F03FF80346184607F05D
:1018B00013FB02460B461046194605F0A5F90246F1
:1018C0000B461046194636A3D3E9002307F0A6F9C4
:1018D00002460B4614461D46786C07F0FDFA024698
:1018E0000B462046294607F04BFB02460B461046A6
:1018F00019462DA3D3E9002307F06CFC02460B46E2
:101900001046194607F0FEFD03467B6240E0FB6986
:1019100083F000431846796907F048FE03461C46E9
:10192000386AB96907F044FE03462046194607F0B5
:10193000FBFF0346184607F0CFFA02460B46104657
:10194000194605F061F902460B4617A1D1E90001DD
:1019500007F062F902460B4614461D46786C07F004
:10196000BBFA02460B462046294607F009FB024611
:101970000B46104619460CA3D3E9002307F02AFCB6
:1019800002460B461046194607F0BCFD03467B6233
:101990007B6A184607F12807BD46BDE8B08300BF43
:1019A000182D4454FB210940182D4454FB211940A3
:1019B0002DE9B0438AB000AFF860B9607A603B604F
:1019C000F86807F089FA04460D467B681846194600
:1019D00007F0EEFD0346184607F07EFA02460B4676
:1019E0001046194686A3D3E9002307F0C9FA024638
:1019F0000B4690469946386C07F06EFA02460B4645
:101A00004046494607F0E6FB02460B46104619469B
:101A100005F0AEFA02460B462046294607F0B0FA1A
:101A200002460B461046194607F06CFD03467B62E2
:101A3000F86807F051FA04460D467B6818461946C7
:101A400007F0B6FD0346184607F046FA02460B4675
:101A5000104619466AA3D3E9002307F091FA02461B
:101A60000B4690469946386C07F036FA02460B460C
:101A70004046494607F0AEFB02460B461046194663
:101A800005F0C2FA02460B462046294607F078FACE
:101A900002460B461046194607F034FD03463B62EA
:101AA000B86807F019FA04460D463B68184619460F
:101AB00007F07EFD0346184607F00EFA02460B4675
:101AC000104619464EA3D3E9002307F059FA0246FF
:101AD0000B4690469946386C07F0FEF902460B46D5
:101AE0004046494607F076FB02460B46104619462B
:101AF00005F03EFA02460B462046294607F040FA1A
:101B000002460B461046194607F0FCFC0346FB61F3
:101B1000B86807F0E1F904460D463B6818461946D7
:101B200007F046FD0346184607F0D6F902460B4675
:101B30001046194632A3D3E9002307F021FA0246E2
:101B40000B4690469946386C07F0C6F902460B469C
:101B50004046494607F03EFB02460B4610461946F2
:101B600005F052FA02460B462046294607F008FACD
:101B700002460B461046194607F0C4FC0346BB61FB
:101B8000786AF96907F014FD03461C46786AF9691A
:101B900007F00EFD03462046194607F011FE0346E6
:101BA0001C46386AB96907F003FD03461D46386ACA
:101BB000B96907F0FDFC03462846194607F000FE08
:101BC00003462046194607F0F3FC0346184607F083
:101BD00083F902460B461046194605F061FA0246A3
:101BE0000B461046194607F08DFC03467B617B6966
:101BF000184607F12807BD46BDE8B083AFF3008063
:101C0000182D4454FB2109402DE9B0438AB000AFA0
:101C1000F860B9607A603B60F86807F05DF90446E7
:101C20000D467B681846194607F0C2FC0346184665
:101C300007F052F902460B46104619468EA3D3E927
:101C4000002307F09DF902460B4690469946386CF2
:101C500007F042F902460B464046494607F0BAFAF9
:101C600002460B461046194605F082F902460B461D
:101C70002046294607F084F902460B4610461946CD
:101C800007F040FC03463B62F86807F025F904467C
:101C90000D467B681846194607F08AFC034618462D
:101CA00007F01AF902460B461046194672A3D3E90B
:101CB000002307F065F902460B4690469946386CBA
:101CC00007F00AF902460B464046494607F082FAF9
:101CD00002460B461046194605F096F902460B4699
:101CE0002046294607F04CF902460B461046194695
:101CF00007F008FC0346FB61B86807F0EDF80446FE
:101D00000D463B681846194607F052FC0346184634
:101D100007F0E2F802460B461046194656A3D3E9EF
:101D2000002307F02DF902460B4690469946386C81
:101D300007F0D2F802460B464046494607F04AFAF9
:101D400002460B461046194605F012F902460B46AC
:101D50002046294607F014F902460B46104619465C
:101D600007F0D0FB0346BB61B86807F0B5F804463E
:101D70000D463B681846194607F01AFC03461846FC
:101D800007F0AAF802460B46104619463AA3D3E9D3
:101D9000002307F0F5F802460B4690469946386C4A
:101DA00007F09AF802460B464046494607F012FAF9
:101DB00002460B461046194605F026F902460B4628
:101DC0002046294607F0DCF802460B461046194625
:101DD00007F098FB03467B61386AB96907F0E8FBB6
:101DE000034618464FF0000107F0A6FE0346002BFD
:101DF0004AD0F869796907F0DBFB034618464FF0D3
:101E0000000107F099FE0346002B3DD0F86979697F
:101E100007F0CEFB03461C46386AB96907F0C8FBD9
:101E200003462046194607F07FFD0346184607F093
:101E300053F802460B461046194604F0E5FE0446E8
:101E40000D46386C07F048F802460B4620462946F6
:101E500007F096F802460B461046194608A3D3E948
:101E6000002307F0B7F902460B461046194607F063
:101E700049FB03467B62FFE0182D4454FB210940D7
:101E8000182D4454FB211940386AB96907F090FBBA
:101E9000034618464FF0000107F030FE0346002BC2
:101EA0004ED0F869796907F083FB034618464FF076
:101EB000000107F041FE0346002B41D0F869796923
:101EC00007F076FB03461C463B6A83F00043184646
:101ED000B96907F06BFB03462046194607F024FD5D
:101EE0000346184606F0F8FF02460B461046194610
:101EF00004F08AFE02460B4663A1D1E9000106F018
:101F00008BFE02460B4614461D46386C06F0E4FF75
:101F100002460B462046294607F032F802460B4699
:101F2000104619465AA3D3E9002307F053F9024695
:101F30000B461046194607F0E5FA03467B629BE024
:101F4000386AB96907F034FB034618464FF00001C0
:101F500007F0D4FD0346002B4DD0F869796907F0EE
:101F600027FB034618464FF0000107F0C7FD034664
:101F7000002B40D0F869796907F01AFB03461C462C
:101F8000386AB96907F014FB03462046194607F082
:101F9000CBFC0346184606F09FFF02460B46104650
:101FA000194604F031FE02460B461046194636A388
:101FB000D3E9002306F032FE02460B4614461D46C6
:101FC000386C06F089FF02460B462046294606F08B
:101FD000D7FF02460B46104619462DA3D3E900232E
:101FE00007F0F8F802460B461046194607F08AFA41
:101FF00003467B6240E0FB6983F000431846796941
:1020000007F0D4FA03461C46386AB96907F0D0FADB
:1020100003462046194607F087FC0346184606F09B
:102020005BFF02460B461046194604F0EDFD0246E2
:102030000B4617A1D1E9000106F0EEFD02460B4662
:1020400014461D46386C06F047FF02460B462046F4
:10205000294606F095FF02460B46104619460CA38A
:10206000D3E9002307F0B6F802460B46104619469E
:1020700007F048FA03467B627B6A184607F1280797
:10208000BD46BDE8B08300BF182D4454FB21094074
:10209000182D4454FB2119402DE9F04387B002AFBD
:1020A00040F26C43C2F200031B7803F10103DAB281
:1020B00040F26C43C2F200031A7002F0D5FFFEF743
:1020C00009FC40F26C43C2F200031B78092B40F27A
:1020D000AE8240F26C43C2F200034FF000021A706D
:1020E00042F6F453C2F200034FF001021A7040F2BC
:1020F0000403C2F200031B7803F10103DAB240F2D9
:102100000403C2F200031A7040F20503C2F2000396
:102110001B7803F10103DAB240F20503C2F20003B7
:102120001A7040F20603C2F200031B7803F10103A8
:10213000DAB240F20603C2F200031A7040F208035A
:10214000C2F200031B8803F101039AB240F20803B4
:10215000C2F200031A8040F26E43C2F200031B88F1
:1021600003F101039AB240F26E43C2F200031A80F7
:1021700042F67C63C2F200031B78DBB2042B5CD115
:102180004FF00003FB6042F67C63C2F200039B68E1
:10219000184607F0BDFA034618464FF00001C4F296
:1021A000B43107F0C1FB034618464FF00001C4F2FA
:1021B000F02107F005FB0346BB6040F29443C2F2F6
:1021C00000039B6CB868194607F0F0F903467B6082
:1021D000F868796807F0F4FA03463B6040F20003C0
:1021E000C2F200031B683868194607F0E1F903469C
:1021F0003B6044F20E20C4F63E50396807F094FB71
:10220000034618464FF0804107F0D0F903461846C0
:1022100007F0C2FC03469AB240F29443C2F20003B4
:102220001A8540F20003C2F200033A681A6040F2D5
:102230006843C2F200037A681A6040F20403C2F2F3
:1022400000031B78092B40F2808140F20403C2F2A4
:1022500000034FF000021A7042F6F453C2F200037A
:102260004FF001025A7040F6EC43C2F200031B68C3
:10227000184607F04DFA804640F6EC43C2F20003E0
:102280005B68184607F044FA064640F29443C2F2EF
:1022900000035B899BB2184607F03AFA054640F204
:1022A0009443C2F200039B899BB2184607F030FAB0
:1022B000044642F67C63C2F20003DB68184607F06E
:1022C00027FA814642F67C63C2F200039B681846F7
:1022D00007F01EFA0346CDF80090019340463146C0
:1022E0002A462346FEF7E0FF024640F29443C2F23C
:1022F00000035A6340F6EC43C2F200031B68184621
:1023000007F006FA804640F6EC43C2F200035B6831
:10231000184607F0FDF9064640F29443C2F2000366
:102320005B899BB2184607F0F3F9054640F29443E7
:10233000C2F200039B899BB2184607F0E9F90446F4
:1023400042F67C63C2F20003DB68184607F0E0F94E
:10235000814642F67C63C2F200039B68184607F090
:10236000D7F90346CDF800900193404631462A46FE
:102370002346FFF7CDF8024640F29443C2F2000331
:102380009A6340F6EC43C2F200039B68184607F0DC
:10239000BFF9804640F6EC43C2F20003DB68184602
:1023A00007F0B6F9064640F29443C2F20003DB8917
:1023B0009BB2184607F0ACF9054640F29443C2F2CE
:1023C00000031B8A9BB2184607F0A2F9044642F6A6
:1023D0007C63C2F20003DB68184607F099F9814676
:1023E00042F67C63C2F200039B68184607F090F93E
:1023F0000346CDF800900193404631462A462346D5
:10240000FEF752FF024640F29443C2F20003DA6341
:1024100040F6EC43C2F200039B68184607F078F9D7
:10242000804640F6EC43C2F20003DB68184607F032
:102430006FF9064640F29443C2F20003DB899BB277
:10244000184607F065F9054640F29443C2F20003CE
:102450001B8A9BB2184607F05BF9044642F67C6380
:10246000C2F20003DB68184607F052F9814642F6D3
:102470007C63C2F200039B68184607F049F90346E3
:10248000CDF800900193404631462A462346FFF797
:102490003FF8024640F29443C2F200031A6440F24D
:1024A0009443C2F20003D3F8348040F29443C2F262
:1024B0000003DE6B40F29443C2F200039D6B40F2D6
:1024C0009443C2F200031C6C42F67C63C2F2000328
:1024D0009B68184607F01CF90346009340463146B6
:1024E0002A462346FFF764FA024640F29443C2F2BA
:1024F00000035A6440F29443C2F20003D3F83480DC
:1025000040F29443C2F20003DE6B40F29443C2F205
:1025100000039D6B40F29443C2F200031C6C42F630
:102520007C63C2F200039B68184607F0F1F803468B
:102530000093404631462A462346FFF765FB024694
:1025400040F29443C2F200039A6440F20503C2F2DF
:1025500000031B78632B0DD940F20503C2F2000380
:102560004FF000021A7042F6F453C2F200034FF02B
:1025700001029A7040F20603C2F200031B78C72BD7
:102580000DD940F20603C2F200034FF000021A70A8
:1025900042F6F453C2F200034FF00102DA7040F247
:1025A0000803C2F200031A8840F2E7339A4227D99F
:1025B00040F61053C2F2000303F5035303F11C036A
:1025C0001A6840F61053C2F20003C3F8A02040F688
:1025D0001053C2F2000303F5035303F11C034FF041
:1025E00000021A6040F20803C2F200034FF000023A
:1025F0001A8042F6F453C2F200034FF001021A713E
:1026000040F26E43C2F200031A8842F20F739A42FC
:102610000DD940F26E43C2F200034FF000021A805F
:1026200042F6F453C2F200034FF001025A7107F16F
:102630001407BD46BDE8F08380B58AB000AF78606E
:1026400039604FF000037B624FF000033B624FF0B4
:102650000003FB614FF00003BB617B681B8A9BB2E8
:102660007B627B6A23F440537B623B68DB887A6A37
:1026700013437B627B6A9AB27B681A827B689B8970
:102680009BB27B627B6A23F4B05323F00C037B6222
:102690003B689A883B681B8913439AB23B685B8905
:1026A00013439BB27A6A13437B627B6A9AB27B685C
:1026B0009A817B689B8A9BB27B627B6A23F440731E
:1026C0007B623B689B897A6A13437B627B6A9AB21E
:1026D0007B689A8207F10803184600F065FD7A6866
:1026E0004FF48053C4F201039A4206D07A684FF443
:1026F000A053C4F201039A4202D17B693B6201E01C
:102700003B693B627B689B899BB29BB21BB2002BEF
:102710000FDA3A6A13464FEA83039B184FEA8302A3
:102720009A183B681B684FEA4303B2FBF3F3FB6163
:102730000EE03A6A13464FEA83039B184FEA83027E
:102740009A183B681B684FEA8303B2FBF3F3FB6103
:10275000FA6948F21F53C5F2EB13A3FB02134FEAC9
:1027600053134FEA03137B627B6A4FEA13134FF054
:10277000640202FB03F3FA69D31ABB617B689B898D
:102780009BB29BB21BB2002B12DABB694FEAC303A8
:1027900003F1320248F21F53C5F2EB13A3FB0213FD
:1027A0004FEA531303F007037A6A13437B6211E085
:1027B000BB694FEA031303F1320248F21F53C5F21B
:1027C000EB13A3FB02134FEA531303F00F037A6AD0
:1027D00013437B627B6A9AB27B681A8107F12807F0
:1027E000BD4680BD80B483B000AF78600B46FB70FF
:1027F000FB78002B08D07B689B899BB243F4005385
:102800009AB27B689A8107E07B689B899BB223F42C
:1028100000539AB27B689A8107F10C07BD4680BCD1
:10282000704700BF80B483B000AF78600B467B80F8
:102830007B884FEAC3534FEAD3539AB27B689A809E
:1028400007F10C07BD4680BC704700BF80B487B05D
:1028500000AF786013460A467A807B704FF0000321
:102860003B614FF00003FB604FF00003BB604FF093
:1028700000037B617B687B617B88DBB24FEA53138B
:10288000DBB23B617B8803F01F03FB60FB684FF00A
:10289000010202FA03F3BB603B69012B04D17B699F
:1028A00003F10C037B610BE03B69022B04D17B69D4
:1028B00003F110037B6103E07B6903F114037B6187
:1028C0007B78002B06D07B697A691168BA680A4365
:1028D0001A6007E07B697A691168BA686FEA0202D8
:1028E0000A401A6007F11C07BD4680BC704700BF54
:1028F00080B487B000AF78600B467B804FF0000358
:10290000FB604FF000037B614FF00003BB604FF0B2
:102910000003FB747B88DBB24FEA5313DBB2BB606E
:102920007B8803F01F037B617B694FF0010202FA91
:1029300003F37B61BB68012B06D17B689B899BB24B
:102940007A6913407B610FE0BB68022B06D17B687C
:102950001B8A9BB27A6913407B6105E07B689B8A86
:102960009BB27A6913407B617B884FEA13239BB249
:10297000FB60FB684FF0010202FA03F3FB607B6827
:102980001B889BB2FA681340FB607B69002B06D062
:10299000FB68002B03D04FF00103FB7402E04FF003
:1029A0000003FB74FB7C184607F11C07BD4680BC86
:1029B000704700BF80B500AF4FF01F00C0F240006D
:1029C0004FF0010100F0D6FC4FF40040C2F20200CB
:1029D0004FF0010100F0F8FC40F213504FF00101FC
:1029E00000F01CFD80BD00BF80B582B000AF4FF08D
:1029F00000604FF0000101F0B9FF4FF4E06001F01A
:102A00002FFF4FF026033B714FF000037B714FF017
:102A10000703BB714FF00103FB7107F10403184674
:102A200001F032FF4FF025033B714FF000037B7143
:102A30004FF00603BB714FF00103FB7107F1040374
:102A4000184601F021FF4FF038033B714FF00003AF
:102A50007B714FF00003BB714FF00103FB7107F175
:102A60000403184601F010FF07F10807BD4680BDBA
:102A700080B582B000AF49F60C63C0F600037B60FE
:102A800040F20003C2F200033B600BE07B681A686F
:102A90003B681A603B6803F104033B607B6803F109
:102AA00004037B603A6840F26443C2F200039A4236
:102AB000ECD3094809494FF000028842B8BF40F8FA
:102AC000042BFFF6FAAF01F0F7F900F00DF807F16B
:102AD0000807BD4680BD0000640400209C3600202D
:102AE00080B400AFFEE700BF80B500AFFFF762FF24
:102AF000FFF77AFF00F0DCFEFEF7C2FB01F0C8FB37
:102B0000FDF7C2FFFDF740FB03F03AFD03F096FD31
:102B100001F042FF00E000BF00F034F801F0C8FF10
:102B200042F6F453C2F200031B79DBB2002B06D04D
:102B300042F6F453C2F200034FF000021A7142F65B
:102B4000F453C2F200039B78DBB2002B06D042F6AE
:102B5000F453C2F200034FF000029A7042F6F453AD
:102B6000C2F200035B78DBB2002BD4D042F6F45300
:102B7000C2F200034FF000025A7001F02FFFFEF77F
:102B800073F9C8E780B582B000AF03F0E3FD0346F8
:102B9000002B00F0238203F031FE0346FB7140F26C
:102BA0007043C2F200031B78002B40F0D881FB7900
:102BB000A3F12B03472B00F2CB8101A252F823F0A3
:102BC000E12C0008B32D00080B2D0008892D00080A
:102BD000512F0008512F0008512F0008512F0008D5
:102BE000512F0008512F0008512F0008512F0008C5
:102BF000512F0008512F0008512F0008512F0008B5
:102C0000512F0008072E0008512F0008DD2D000865
:102C1000512F0008512F0008312E0008512F0008B5
:102C2000512F0008672E0008372E0008512F00088A
:102C3000512F0008512F0008512F0008512F000874
:102C4000512F0008512F0008512F0008512F000864
:102C5000512F0008512F0008512F0008852E000821
:102C6000512F0008512F0008512F0008512F000844
:102C7000512F0008512F0008512F0008512F000834
:102C8000112F0008512F0008D32E0008512F0008E3
:102C9000512F0008512F0008D32F0008512F000892
:102CA000512F00085F2D0008512F0008512F0008F8
:102CB000512F0008512F0008352D0008512F000812
:102CC000512F0008512F0008512F0008512F0008E4
:102CD000512F0008512F0008512F0008B52E000871
:102CE00040F60C53C2F200031B78DBB2002B04D178
:102CF0004FF00100FDF75EFF70E140F60C53C2F2A9
:102D000000034FF02B02DA7068E140F60C53C2F278
:102D100000031B78DBB2002B04D14FF00100FDF75C
:102D20009BFF5BE140F60C53C2F200034FF02D0213
:102D3000DA7053E140F60C53C2F200031B78DBB2A9
:102D4000002B04D14FF00A00FDF734FF46E140F6B6
:102D50000C53C2F200034FF06902DA703EE140F614
:102D60000C53C2F200031B78DBB2002B04D14FF0EE
:102D70000A00FDF771FF31E140F60C53C2F2000387
:102D80004FF06402DA7029E140F60C53C2F20003FE
:102D90001B78DBB2002B04D14FF00100FDF7AEFF32
:102DA0001CE140F60C53C2F200034FF02E02DA7021
:102DB00014E140F60C53C2F200031B78DBB2002B87
:102DC00004D14FF00100FDF7EDFF07E140F60C5391
:102DD000C2F200034FF02C02DA70FFE040F60C5311
:102DE000C2F200031B78DBB2002B04D14FF00A00C3
:102DF000FDF784FFF2E040F60C53C2F200034FF0FF
:102E00003E02DA70EAE040F60C53C2F200031B788F
:102E1000DBB2002B04D14FF00A00FDF7C3FFDDE069
:102E200040F60C53C2F200034FF03C02DA70D5E0DA
:102E300000F0D8F8D2E040F60C53C2F200031B7841
:102E4000DBB2012B07D140F60C53C2F200034FF066
:102E50004502DA70C2E042F67C63C2F200034FF032
:102E600065025A70BAE042F67C63C2F200034FF08A
:102E700064025A7040F60C53C2F200034FF0440251
:102E8000DA70ABE040F60C53C2F200031B78DBB201
:102E9000012B07D140F60C53C2F200034FF052024F
:102EA000DA709BE042F67C63C2F200034FF0450209
:102EB0005A7093E042F67C63C2F200034FF0720254
:102EC0005A7040F60C53C2F200034FF07202DA70EF
:102ED00084E040F61053C2F20003D3F89C30002B7C
:102EE00079D140F61053C2F20003D3F84031002BE1
:102EF00071D140F60C53C2F200034FF000021A7079
:102F000040F60C53C2F200034FF06D02DA7062E03B
:102F100040F61053C2F20003D3F89C30002B5CD172
:102F200040F61053C2F20003D3F84031002B54D1C5
:102F300040F60C53C2F200034FF001021A7040F643
:102F40000C53C2F200034FF07302DA7000BF44E08A
:102F500042F67C63C2F20003FA795A703EE0FB79D4
:102F60002F2B22D9FB79392B1FD840F27443C2F2A0
:102F700000031A6813464FEA83039B184FEA430382
:102F80001A4640F27443C2F200031A60FA7940F222
:102F90007443C2F200031B68D318A3F1300240F25D
:102FA0007443C2F200031A6018E0FB79582B15D164
:102FB00040F27043C2F200031B78332B00D000E0D4
:102FC00000BF40F27043C2F200034FF000021A70DB
:102FD00004E000BF02E000BF00E000BF07F1080707
:102FE000BD4680BD80B584B000AF4FF000037B606C
:102FF00002F04CFF40F61053C2F20003D3F89C20BD
:1030000040F60C53C2F200031B78DBB24FEAC373E5
:10301000D21840F61053C2F20003C3F89C2040F6C9
:103020001053C2F20003BB604FF00003FB6049E0A5
:1030300040F2E043C2F200031B889BB21946BB6812
:103040001A7840F2E043C2F200035B181A73BB68BF
:103050001B781A467B68D3187B60BB6803F10103B9
:10306000BB6040F2E043C2F200039B889BB203F1D5
:1030700001039AB240F2E043C2F200039A8040F2A8
:10308000E043C2F200031B889BB203F101039AB232
:1030900040F2E043C2F200031A8040F2E043C2F281
:1030A00000031B889AB240F2FF339A4206D940F2DD
:1030B000E043C2F200034FF000021A80FB6803F104
:1030C0000103FB60FA6840F28F139A42B0D940F6D0
:1030D0001053C2F20003D3F89C30DAB240F610531A
:1030E000C2F20003C3F89C2002F014FD07F10403B0
:1030F000BB604FF00003FB6043E040F2E043C2F2EC
:1031000000031B889BB21946BB681A7840F2E04363
:10311000C2F200035B181A73BB6803F10103BB60C2
:1031200040F2E043C2F200039B889BB203F101032B
:103130009AB240F2E043C2F200039A8040F2E043C8
:10314000C2F200031B889BB203F101039AB240F262
:10315000E043C2F200031A8040F2E043C2F20003EF
:103160001B889AB240F2FF339A4206D940F2E043FC
:10317000C2F200034FF000021A80FB6803F1010362
:10318000FB60FB68032BB8D903F0B8FA4FF4884012
:10319000C4F2000040F227714FF00102FFF756FB26
:1031A00007F11007BD4680BD80B489B000AF7860DC
:1031B0004FF00003BB614FF000037B614FF0000351
:1031C000FB614FF002033B614FF00003FB604FF0E7
:1031D0000203BB604FF46053C4F202039B6803F028
:1031E0000C03BB61BB69042B0AD0082B0FD0002B4A
:1031F00060D17A684FF41053C0F2F403136060E0BA
:103200007A684FF49053C0F27A03136059E04FF498
:103210006053C4F202035B6803F480034FEA9353E4
:10322000FB604FF46053C4F202035B6803F03F039A
:10323000BB60FB68002B14D04FF49053C0F27A03AC
:10324000BA68B3FBF2F24FF46053C4F20203596858
:1032500047F6C0730B404FEA931303FB02F3FB6185
:1032600013E04FF41053C0F2F403BA68B3FBF2F268
:103270004FF46053C4F20203596847F6C0730B4021
:103280004FEA931303FB02F3FB614FF46053C4F264
:1032900002035B6803F440334FEA134303F1010375
:1032A0004FEA43033B61FA693B69B2FBF3F27B6887
:1032B0001A6006E07A684FF41053C0F2F40313600A
:1032C00000BF4FF46053C4F202039B6803F0F003A5
:1032D000BB61BB694FEA1313BB6140F20C03C2F23E
:1032E0000003BA699B181B78DBB27B617B681A68A4
:1032F0007B6922FA03F27B685A604FF46053C4F290
:1033000002039B6803F4E053BB61BB694FEA93235C
:10331000BB6140F20C03C2F20003BA699B181B7830
:10332000DBB27B617B685A687B6922FA03F27B68B7
:103330009A604FF46053C4F202039B6803F4604345
:10334000BB61BB694FEA5333BB6140F20C03C2F26D
:103350000003BA699B181B78DBB27B617B685A68F3
:103360007B6922FA03F27B68DA6007F12407BD4625
:1033700080BC704780B483B000AF78600B46FB70B0
:10338000FB78002B0CD04FF46053C4F202034FF4CF
:103390006052C4F20202116B7A680A431A630DE0AC
:1033A0004FF46053C4F202034FF46052C4F20202BD
:1033B000116B7A686FEA02020A401A6307F10C0780
:1033C000BD4680BC704700BF80B483B000AF78605A
:1033D0000B46FB70FB78002B0CD04FF46053C4F20B
:1033E00002034FF46052C4F20202116C7A680A437D
:1033F0001A640DE04FF46053C4F202034FF46052BC
:10340000C4F20202116C7A686FEA02020A401A647E
:1034100007F10C07BD4680BC704700BF80B483B085
:1034200000AF78600B46FB70FB78002B0CD04FF49C
:103430006053C4F202034FF46052C4F20202516CB2
:103440007A680A435A640DE04FF46053C4F20203F1
:103450004FF46052C4F20202516C7A686FEA0202C1
:103460000A405A6407F10C07BD4680BC704700BF94
:1034700080B483B000AF78600B46FB70FB78002B04
:103480000CD04FF46053C4F202034FF46052C4F204
:103490000202116A7A680A431A620DE04FF460531F
:1034A000C4F202034FF46052C4F20202116A7A6855
:1034B0006FEA02020A401A6207F10C07BD4680BC9F
:1034C000704700BF80B483B000AF78600B46FB70DC
:1034D000FB78002B0CD04FF46053C4F202034FF47E
:1034E0006052C4F20202516A7A680A435A620DE0DD
:1034F0004FF46053C4F202034FF46052C4F202026C
:10350000516A7A686FEA02020A405A6207F10C07B0
:10351000BD4680BC704700BF80B485B000AF786006
:1035200039604FF00003FB604FF00003FB727B68D3
:103530005B68FB60FB6823F0407323F48073FB60DF
:103540003B681B794FEA03223B681B681343FA6808
:103550001343FB607B68FA685A607B689B68FB607A
:10356000FA684FF2FD73CCF2FF031340FB603B6837
:103570001A693B68DB681A433B689B681A433B68DF
:103580005B794FEA43031343FA681343FB607B689C
:10359000FA689A607B68DB6AFB60FB6823F470035F
:1035A000FB603B681B7D03F1FF33DAB2FB7A134308
:1035B000FB72FB7A4FEA0353FA681343FB607B68A4
:1035C000FA68DA6207F11407BD4680BC704700BF95
:1035D00080B485B000AF78604FF00003FB604FF41B
:1035E0000C53C4F201035B68FB60FA6843F2E0032A
:1035F000CFF6FC731340FB607B681A687B685B68DE
:103600001A437B689B681A437B68DB681343FA683C
:103610001343FB604FF40C53C4F20103FA685A6081
:1036200007F11407BD4680BC704700BF80B483B06B
:1036300000AF78600B46FB70FB78002B06D07B68F0
:103640009B6843F001027B689A6005E07B689B6899
:1036500023F001027B689A6007F10C07BD4680BC2D
:10366000704700BF80B485B000AF7860F970BA7061
:103670007B704FF00003FB604FF00003BB60FB78F2
:10368000092B27D97B68DB68FB60FA7813464FEA81
:1036900043039B18A3F11E034FF0070202FA03F342
:1036A000BB60BB686FEA0303FA681340FB6079787C
:1036B000FA7813464FEA43039B18A3F11E0301FA5D
:1036C00003F3BB60FA68BB681343FB607B68FA686E
:1036D000DA6022E07B681B69FB60FA7813464FEAE8
:1036E00043039B184FF0070202FA03F3BB60BB6869
:1036F0006FEA0303FA681340FB607978FA7813469F
:103700004FEA43039B1801FA03F3BB60FA68BB68F6
:103710001343FB607B68FA681A61BB78062B27D8D5
:103720007B685B6BFB60BB7803F1FF3213464FEAAB
:1037300083039B184FF01F0202FA03F3BB60BB68C0
:103740006FEA0303FA681340FB60F978BB7803F172
:10375000FF3213464FEA83039B1801FA03F3BB6061
:10376000FA68BB681343FB607B68FA685A6351E0F0
:10377000BB780C2B27D87B681B6BFB60BA78134691
:103780004FEA83039B18A3F123034FF01F0202FAB1
:1037900003F3BB60BB686FEA0303FA681340FB6086
:1037A000F978BA7813464FEA83039B18A3F12303F1
:1037B00001FA03F3BB60FA68BB681343FB607B68E4
:1037C000FA681A6326E07B68DB6AFB60BA78134606
:1037D0004FEA83039B18A3F141034FF01F0202FA43
:1037E00003F3BB60BB686FEA0303FA681340FB6036
:1037F000F978BA7813464FEA83039B18A3F1410383
:1038000001FA03F3BB60FA68BB681343FB607B6893
:10381000FA68DA6207F11407BD4680BC704700BF42
:1038200080B483B000AF78607B689B6843F08042CF
:103830007B689A6007F10C07BD4680BC704700BFEB
:1038400080B483B000AF78600B46FB70FB78002B30
:1038500006D07B689B6843F480727B689A6005E0C1
:103860007B689B6823F480727B689A6007F10C0781
:10387000BD4680BC704700BF80B483B000AF7860A5
:103880000B46FB70FB78002B06D07B689B6843F4EB
:1038900000727B689A6005E07B689B6823F4007285
:1038A0007B689A6007F10C07BD4680BC704700BF7B
:1038B00080B582B000AF4FF48050C4F202004FF0E8
:1038C00008014FF0010200F0A3FA4FF48050C4F257
:1038D00002004FF009014FF0010200F099FA4FF495
:1038E0000060C4F202004FF008014FF0030200F044
:1038F0008FFA4FF440733B604FF002033B714FF07F
:1039000003037B714FF00003BB714FF00003FB71A9
:103910003B464FF48050C4F20200194600F09CF977
:103920004FF480733B604FF002033B714FF0030391
:103930007B714FF00003BB714FF00003FB713B46FE
:103940004FF40060C4F20200194600F085F94FF010
:1039500040033B604FF001033B714FF00003BB712C
:103960004FF003037B714FF00003FB713B464FF4B4
:103970004060C4F20200194600F06EF94FF0800377
:103980003B604FF000033B714FF003037B714FF03E
:103990000003FB713B464FF44060C4F2020019463D
:1039A00000F05AF94FF00000C4F202004FF0090194
:1039B0004FF0070200F02CFA4FF00000C4F20200B2
:1039C0004FF00A014FF0070200F022FA4FF40073A3
:1039D0003B604FF00003BB714FF00103FB714FF0F0
:1039E00002033B714FF003037B713B464FF0000035
:1039F000C4F20200194600F02FF94FF480633B60D7
:103A00004FF00003BB714FF00103FB714FF0020355
:103A10003B714FF003037B713B464FF00000C4F253
:103A20000200194600F018F94FF00000C4F202003D
:103A30004FF002014FF0070200F0EAF94FF00000EA
:103A4000C4F202004FF003014FF0070200F0E0F96A
:103A50004FF004033B604FF00003BB714FF00103D4
:103A6000FB714FF002033B714FF003037B713B4648
:103A70004FF00000C4F20200194600F0EDF84FF0DC
:103A800008033B604FF00003BB714FF00103FB7173
:103A90004FF002033B714FF003037B713B464FF045
:103AA0000000C4F20200194600F0D6F84FF00203FD
:103AB0003B604FF001033B714FF00003BB714FF0CF
:103AC00003037B714FF00003FB713B464FF0000096
:103AD000C4F20200194600F0BFF84FF0C1033B608A
:103AE0004FF003033B714FF00003FB713B464FF077
:103AF0000000C4F20200194600F0AEF84FF03F0398
:103B00003B604FF003033B714FF00003FB713B46FA
:103B10004FF40060C4F20200194600F09DF84FF027
:103B200003033B604FF003033B714FF00003FB7155
:103B30003B464FF48060C4F20200194600F08CF856
:103B40004FF030033B604FF003033B714FF0000335
:103B5000FB713B464FF00000C4F20200194600F032
:103B60007BF84FF0C0033B604FF000033B714FF018
:103B700003037B714FF00003FB713B464FF4806001
:103B8000C4F20200194600F067F84FF020033B60D2
:103B90004FF001033B714FF00003BB714FF0030383
:103BA0007B714FF00003FB713B464FF48060C4F221
:103BB0000200194600F050F84FF03F033B604FF011
:103BC00001033B714FF00003BB714FF003037B71A6
:103BD0004FF00003FB713B464FF44060C4F202001B
:103BE000194600F039F84FF40060C4F202004FF0BB
:103BF0000A014FF0060200F00BF94FF40060C4F226
:103C000002004FF00B014FF0060200F001F94FF4F3
:103C10000060C4F202004FF00C014FF0060200F009
:103C2000F7F84FF4E0533B604FF002033B714FF065
:103C30000003BB714FF003037B714FF00203FB7174
:103C40003B464FF40060C4F20200194600F004F84D
:103C500007F10807BD4680BD80B487B000AF78602B
:103C600039604FF000037B614FF000033B614FF080
:103C70000003FB604FF000037B6186E07B694FF03F
:103C8000010202FA03F33B613B681A683B69134087
:103C9000FB60FA683B699A4273D17B681A687B695A
:103CA0004FEA43034FF0030101FA03F36FEA030302
:103CB0001A407B681A607B681A683B681B79194652
:103CC0007B694FEA430301FA03F31A437B681A60E6
:103CD0003B681B79012B03D03B681B79022B34D145
:103CE0007B689A687B694FEA43034FF0030101FA4E
:103CF00003F36FEA03031A407B689A607B689A6853
:103D00003B685B7919467B694FEA430301FA03F389
:103D10001A437B689A607B685A687B699BB24FF054
:103D2000010101FA03F36FEA03031A407B685A604A
:103D30007B685A683B689B7919467B699BB201FA9C
:103D400003F39BB21A437B685A607B68DA687B692D
:103D50009BB24FEA43034FF0030101FA03F36FEA0A
:103D600003031A407B68DA607B68DA683B68DB79BA
:103D700019467B694FEA430301FA03F31A437B6850
:103D8000DA607B6903F101037B617B690F2B7FF6AE
:103D900075AF07F11C07BD4680BC704780B485B085
:103DA00000AF78600B467B804FF00003FB737B68AD
:103DB0001A697B881340002B03D04FF00103FB737B
:103DC00002E04FF00003FB73FB7B184607F114077A
:103DD000BD4680BC704700BF80B483B000AF786040
:103DE0000B467B807B687A881A8307F10C07BD46F7
:103DF00080BC704780B483B000AF78600B467B8096
:103E00007B687A885A8307F10C07BD4680BC7047EF
:103E100080B485B000AF786013460A467A807B7024
:103E20004FF00003FB604FF00003BB607A787B88A3
:103E300003F007034FEA830302FA03F3FB607B8876
:103E40004FEAD3039BB21A467B884FEAD3039BB257
:103E500019467B6801F1080153F821107B8803F0B3
:103E600007034FEA83034FF00F0000FA03F36FEAF2
:103E7000030319407B6802F1080243F822107B8893
:103E80004FEAD3039BB21A467B6802F1080253F84B
:103E90002220FB681343BB607B884FEAD3039BB2AD
:103EA0001A467B6802F10802B96843F8221007F14C
:103EB0001407BD4680BC704780B500AF4FF4605317
:103EC000C4F202034FF46052C4F20202126842F0DC
:103ED00001021A604FF46053C4F202034FF0000273
:103EE0009A604FF46053C4F202034FF46052C4F27C
:103EF0000202126822F0847222F480321A604FF4B7
:103F00006053C4F2020343F21002C2F200425A604C
:103F10004FF46053C4F202034FF46052C4F2020241
:103F2000126822F480221A604FF46053C4F2020334
:103F30004FF00002DA6000F009F84FF46D43CEF262
:103F400000034FF000629A6080BD00BF80B483B070
:103F500000AF4FF000037B604FF000033B604FF475
:103F60006053C4F202034FF46052C4F202021268BA
:103F700042F480321A604FF46053C4F202031B68AB
:103F800003F400333B607B6803F101037B603B6813
:103F9000002B03D17B68B3F5A06FECD14FF46053D5
:103FA000C4F202031B6803F40033002B03D04FF06C
:103FB00001033B6002E04FF000033B603B68012BD4
:103FC00040F082804FF46053C4F202034FF4605219
:103FD000C4F20202126C42F080521A644FF4E043C1
:103FE000C4F200034FF4E042C4F20002126842F44B
:103FF00080421A604FF46053C4F202034FF46052DF
:10400000C4F2020292689A604FF46053C4F2020351
:104010004FF46052C4F20202926842F400429A6085
:104020004FF46053C4F202034FF46052C4F2020230
:10403000926842F4C0529A604FF46053C4F2020393
:1040400045F20842C0F240725A604FF46053C4F225
:1040500002034FF46052C4F20202126842F080720E
:104060001A6000BF4FF46053C4F202031B6803F0F0
:104070000073002BF6D04FF47053C4F2020340F2E9
:1040800005621A604FF46053C4F202034FF46052A9
:10409000C4F20202926822F003029A604FF4605365
:1040A000C4F202034FF46052C4F20202926842F07A
:1040B00002029A6000BF4FF46053C4F202039B688F
:1040C00003F00C03082BF6D107F10C07BD4680BCAA
:1040D000704700BF80B485B000AF786039604FF0A2
:1040E0000003FB607B681B68FB60FA6848F23F03D3
:1040F000CFF21C031340FB603B681A683B68DB6827
:104100001A433B685B691A433B689B691A433B68E7
:10411000DB691A433B681B6A1A433B685B6A1A43B4
:104120003B689B6A1A433B685B6B1A433B689B6B1B
:104130001343FA681343FB607B68FA681A607B6874
:104140005B69FB60FB6823F00703FB603B68DA6A8E
:104150003B681B6B1343FA681343FB607B68FA6888
:104160005A613B681A697B685A603B685A687B6889
:104170009A603B689A687B68DA6007F11407BD466D
:1041800080BC704780B483B000AF78600B46FB7092
:10419000FB78002B06D07B681B6843F001027B682C
:1041A0001A6005E07B681B6823F001027B681A60D7
:1041B00007F10C07BD4680BC704700BF80B485B0D6
:1041C00000AFF860B9601346FB71BB6803F0800371
:1041D000002B0FD0FB79002B06D0FB685B6943F006
:1041E0008002FB685A6105E0FB685B6923F080028E
:1041F000FB685A61BB68802B15D0FB79002B08D077
:10420000FB681A68BB6803F01E031A43FB681A6058
:1042100009E0FB681A68BB6803F01E036FEA03033A
:104220001A40FB681A6007F11407BD4680BC70474E
:1042300080B485B000AF786039607A6846F20F4389
:10424000C4F202039A4205D84FF4C043C4F20203F9
:10425000FB6004E04FF4C843C4F20203FB603B6818
:1042600003F00053002B07D03B6823F0F02323F02A
:104270008213FA68D36006E03B6823F0F02323F052
:104280008213FA68936007F11407BD4680BC70473B
:1042900080B59AB000AF4FF000037B660CE042F6A9
:1042A000FC53C2F200037A6E4FF0000123F81210A3
:1042B0007B6E03F101037B667B6E3F2BEFD94FF0E2
:1042C00000033B6042F6FC53C2F20003BB6042F2C3
:1042D0004C03C4F201037B604FF00003FB604FF01E
:1042E00040033B614FF000037B614FF48063BB618F
:1042F0004FF40063FB614FF400533B624FF4807353
:104300007B624FF40033BB624FF00403FB624FF05B
:1043100001033B634FF000037B634FF00003BB637B
:104320003B4646F21040C4F202001946FFF7D2FEA7
:1043300046F21040C4F202004FF00101FFF722FFE5
:104340004FF000037B654FF00003BB654FF00003A7
:10435000FB654FF000033B6607F154031846FFF777
:1043600037F94FF00003FB634FF0010387F840304B
:104370004FF0010387F841304FF000037B644FF0AA
:104380006063BB644FF00003FB644FF0080387F8E1
:10439000503007F13C034FF40050C4F201001946BD
:1043A000FFF7BAF84FF40050C4F201004FF00F01CC
:1043B0004FF001024FF00003FFF754F94FF40050A3
:1043C000C4F201004FF00E014FF002024FF0000363
:1043D000FFF748F94FF40050C4F201004FF0090113
:1043E0004FF003024FF00003FFF73CF94FF4005089
:1043F000C4F201004FF008014FF004024FF0000337
:10440000FFF730F94FF40050C4F201004FF00A01F9
:104410004FF005024FF00003FFF724F94FF400506E
:10442000C4F201004FF00B014FF006024FF0000301
:10443000FFF718F94FF40050C4F201004FF00C01DF
:104440004FF007024FF00003FFF70CF94FF4005054
:10445000C4F201004FF00D014FF008024FF00003CD
:10446000FFF700F94FF40050C4F201004FF00101D2
:10447000FFF702FA4FF40050C4F201004FF00101BF
:10448000FFF7DEF946F21040C4F202004FF01001CF
:104490004FF00102FFF792FE4FF40050C4F201000A
:1044A0004FF00101FFF7C2F84FF40050C4F20100D1
:1044B000FFF7B6F907F16807BD4680BD80B485B047
:1044C00000AF0346FB714FF00003BB60FB79BB817B
:1044D0004FF00003FB7312E0BA8942F6FC53C2F2BC
:1044E000000333F812309BB2BA68D318BB60BB89A3
:1044F00003F10803BB81FB7B03F10103FB73FB7B2F
:10450000072BE9D9BB684FEAD303BB60BB681846E9
:1045100007F11407BD4680BC704700BF80B483B06C
:1045200000AF786039607B683A6802FB03F37B6018
:104530007A6844F6D353C1F26203A3FB02134FEA35
:1045400093137B607B6840F6C41202FB03F37B602D
:104550007A6840F20113C0F21003A3FB0213D21ACF
:104560004FEA52029B184FEAD3237B607B681846C0
:1045700007F10C07BD4680BC704700BF80B500AF97
:104580004FF00000FFF79AFF0346184640F2F6711D
:10459000FFF7C4FF024640F6EC43C2F200031A6084
:1045A0004FF00100FFF78AFF0346184640F2F6710C
:1045B000FFF7B4FF024640F6EC43C2F200035A6034
:1045C0004FF00200FFF77AFF0346184640F2F671FB
:1045D000FFF7A4FF024640F6EC43C2F200039A60E4
:1045E0004FF00300FFF76AFF0346184640F2F671EA
:1045F000FFF794FF024640F6EC43C2F20003DA6094
:1046000080BD00BF80B500AF4FF00400FFF756FF3C
:104610000346184640F26D61FFF780FF024640F600
:10462000EC43C2F200031A614FF00500FFF746FFAA
:104630000346184640F23D61FFF770FF024640F620
:10464000EC43C2F200035A6180BD00BF80B500AFE9
:104650004FF00600FFF732FF034618464FF47A7119
:10466000FFF75CFF03461A4640F6EC43C2F2000334
:104670009A614FF00700FFF721FF034618464FF4F9
:104680007A71FFF74BFF03461A4640F6EC43C2F23D
:104690000003DA6180BD00BF80B582B000AF7860F2
:1046A0007A684FF44053C4F201039A420CD14FF49C
:1046B00080504FF00101FEF705FF4FF480504FF09E
:1046C0000001FEF7FFFE26E07A684FF46053C4F263
:1046D00000039A420CD14FF480404FF00101FEF7E5
:1046E000C7FE4FF480404FF00001FEF7C1FE12E01C
:1046F0007A684FF47053C4F200039A420BD14FF41E
:1047000000404FF00101FEF7B3FE4FF400404FF0C0
:104710000001FEF7ADFE07F10807BD4680BD00BFF2
:1047200080B485B000AF786039604FF00003FB8142
:104730007B681B88FB81FB8903F44153FB813B6849
:104740001A883B685B8813439AB23B689B88134383
:104750009AB23B68DB8813439AB23B681B891343C8
:104760009AB23B685B8913439AB23B689B891343B7
:104770009AB23B68DB8913439AB2FB891343FB81EE
:104780007B68FA891A807B689B8B9BB223F4006359
:104790009AB27B689A833B681A8A7B681A8207F10F
:1047A0001407BD4680BC704780B483B000AF78600A
:1047B0000B46FB70FB78002B08D07B681B889BB2F4
:1047C00043F040039AB27B681A8007E07B681B883D
:1047D0009BB223F040039AB27B681A8007F10C0762
:1047E000BD4680BC704700BF80B483B000AF786026
:1047F0007B689B899BB2184607F10C07BD4680BCBD
:10480000704700BF80B483B000AF78600B467B80F8
:104810007B687A889A8107F10C07BD4680BC704797
:1048200080B485B000AF78600B467B804FF000030A
:10483000FB737B681B899AB27B8813409BB2002B69
:1048400003D04FF00103FB7302E04FF00003FB7352
:10485000FB7B184607F11407BD4680BC704700BFBC
:1048600080B483B000AF78604FF46D43CEF20003A4
:104870007A6842F0BF6242F40032DA6007F10C0756
:10488000BD4680BC704700BF80B485B000AF786083
:104890004FF00003FB734FF00003BB734FF00F03A7
:1048A0007B737B68DB78002B45D04FF46D43CEF2F1
:1048B0000003DB686FEA030303F4E0634FEA1323AA
:1048C000FB73FB7BC3F10403BB737A7BFB7B42FA74
:1048D00003F37B737B685B781A46BB7B02FA03F3B6
:1048E000FB737B689A787B7B1340DAB2FB7B1343C4
:1048F000FB73FB7B4FEA0313FB734FF46143CEF270
:1049000000037A6812789B18FA7B83F800234FF42F
:104910006143CEF200037A6812784FEA5212D2B2A3
:104920007968097801F01F014FF0010000FA01F1E8
:1049300043F8221014E04FF46143CEF200037A688A
:1049400012784FEA5212D2B27968097801F01F0149
:104950004FF0010000FA01F102F1200243F82210A9
:1049600007F11407BD4680BC704700BF80B483B018
:1049700000AF786039604FF46D43CEF200033A68BF
:1049800022F0604222F07F0279680A439A6007F1C0
:104990000C07BD4680BC704780B400AF40F60C5396
:1049A000C2F200034FF000021A7040F60C53C2F23C
:1049B00000034FF000029A7040F60C53C2F200035D
:1049C0004FF000025A7040F60C53C2F200034FF051
:1049D0000002DA70BD4680BC704700BF80B500AFF2
:1049E00040F60C53C2F200031B78DBB2002B2BD134
:1049F00040F60C53C2F20003DB78DBB2002B56D03A
:104A000040F60C53C2F20003DB78DBB2184601F02B
:104A100035FF40F60C53C2F20003DB78DBB21846D8
:104A200001F02CFF4FF48050C4F2010040F22771D6
:104A30004FF00102FDF70AFF40F60C53C2F20003EB
:104A40004FF00002DA7032E040F60C53C2F200037D
:104A50001B78DBB2012B2AD140F60C53C2F20003C3
:104A6000DB78DBB2002B22D040F60C53C2F20003FD
:104A7000DB78DBB2184601F001FF40F60C53C2F2BE
:104A80000003DB78DBB2184601F0F8FE4FF48050EB
:104A9000C4F2010040F227714FF00102FDF7D6FE8B
:104AA00040F60C53C2F200034FF00002DA7080BDF2
:104AB00080B582B000AF40F60C53C2F200031B7801
:104AC000DBB2002B40F07C8101F030FE0346002B6E
:104AD00000F0B28201F052FE0346BB7140F60C5367
:104AE000C2F200035B78DBB2062B00F2618101A207
:104AF00052F823F0114B0008294B00085D4B0008C9
:104B0000A54B0008ED4B0008354C00087D4C000813
:104B1000BB79FF2B40F0968240F60C53C2F20003A3
:104B20004FF001025A708DE2BB79FF2B0ED140F697
:104B30000C53C2F200034FF002025A7040F2784365
:104B4000C2F200034FF000021A7088E240F60C53E4
:104B5000C2F200034FF000025A7080E240F2784344
:104B6000C2F200031A78114640F27C43C2F20003FD
:104B7000B879585402F10103DAB240F27843C2F234
:104B800000031A7040F27843C2F200031B78032B33
:104B900040F25A8240F60C53C2F200034FF0030277
:104BA0005A7051E240F60C53C2F20003BA799A707F
:104BB000BB79092B07D840F60C53C2F200034FF023
:104BC00004025A704BE2BB790A2B07D140F60C5312
:104BD000C2F200034FF005025A7040E240F60C5357
:104BE000C2F200034FF000025A7038E240F27843FC
:104BF000C2F200031A78114640F27C43C2F200036D
:104C0000B879585402F10103DAB240F27843C2F2A3
:104C100000031A7040F27843C2F200031B78132B92
:104C200040F2148240F60C53C2F200034FF0060229
:104C30005A700BE240F27843C2F200031A78114630
:104C400040F27C43C2F20003B879585402F10103E8
:104C5000DAB240F27843C2F200031A7040F27843AD
:104C6000C2F200031B78072B40F2F28140F60C538E
:104C7000C2F200034FF006025A70E9E140F290439D
:104C8000C2F200034FF000021A704FF00003FB71F4
:104C900015E0FA7940F27C43C2F200039A5C40F2DC
:104CA0009043C2F200031B78D318DAB240F290436B
:104CB000C2F200031A70FB7903F10103FB7140F2A9
:104CC0007843C2F200031B78FA799A42E1D340F2AA
:104CD0009043C2F200031B78BA799A425FD140F642
:104CE0001053C2F2000303F5035303F120031B78B2
:104CF000DBB2002B53D0D14B3B6040F27C43C2F27D
:104D000000031A783B681A703B6803F1010240F215
:104D10007C43C2F200035B781370C94B3B6040F2E6
:104D20007C43C2F200039A783B681A703B6803F137
:104D3000010240F27C43C2F20003DB78137040F6BC
:104D40001053C2F200033B6040F60C53C2F2000362
:104D50009B78DBB24FEA03133A68D3183B603B6899
:104D600003F1A4033B604FF00403FB710FE0FB79F8
:104D7000A3F104033A68D218F97940F27C43C2F2F5
:104D800000035B5C1370FB7903F10103FB7140F2DC
:104D90007843C2F200031B78FA799A42E7D340F6CF
:104DA0000C53C2F200034FF000025A7000BF56E1EC
:104DB00040F60C53C2F200034FF000025A703BE180
:104DC00040F60C53C2F200031B78DBB2012B40F01B
:104DD000468101F0ABFC0346002B00F0408101F05E
:104DE000CDFC0346BB7140F60C53C2F200035B7866
:104DF000DBB2062B00F2178101A252F823F000BFAC
:104E00001D4E0008354E000827500008694E000866
:104E1000B14E0008F94E0008414F0008BB79FF2B46
:104E200040F0188140F60C53C2F200034FF001022B
:104E30005A700FE1BB79FF2B0ED140F60C53C2F232
:104E400000034FF003025A7040F27843C2F20003AD
:104E50004FF000021A7002E140F60C53C2F2000358
:104E60004FF000025A70FAE040F60C53C2F2000311
:104E7000BA799A70BB79092B07D840F60C53C2F265
:104E800000034FF004025A70E9E0BB790A2B07D106
:104E900040F60C53C2F200034FF005025A70DEE0F8
:104EA00040F60C53C2F200034FF000025A70D6E0F5
:104EB00040F27843C2F200031A78114640F27C4374
:104EC000C2F20003B879585402F10103DAB240F299
:104ED0007843C2F200031A7040F27843C2F2000332
:104EE0001B780F2B40F2B88040F60C53C2F200033F
:104EF0004FF006025A70AFE040F27843C2F200036E
:104F00001A78114640F27C43C2F20003B879585433
:104F100002F10103DAB240F27843C2F200031A70E0
:104F200040F27843C2F200031B78032B40F29680D4
:104F300040F60C53C2F200034FF006025A708DE0A7
:104F400040F29043C2F200034FF000021A704FF09B
:104F50000003FB7115E0FA7940F27C43C2F20003D2
:104F60009A5C40F29043C2F200031B78D318DAB285
:104F700040F29043C2F200031A70FB7903F101037F
:104F8000FB7140F27843C2F200031B78FA799A422F
:104F9000E1D340F29043C2F200031B78BA799A42FF
:104FA00039D140F61053C2F2000303F5035303F165
:104FB00020031B78DBB2002B2DD040F61053C2F239
:104FC00000033B6040F60C53C2F200039B78DBB257
:104FD0004FEA03133A68D3183B603B6803F1A4031C
:104FE0003B604FF00003FB710DE0FB793A68D2188B
:104FF000F97940F27C43C2F200035B5C1370FB79E9
:1050000003F10103FB7140F27843C2F200031B7805
:10501000FA799A42E9D340F60C53C2F200034FF0FA
:1050200000025A701BE040F60C53C2F200034FF02E
:1050300000025A7000BF12E000BF10E08E2E002068
:105040008C2E002000BF0AE000BF08E000BF06E091
:1050500000BF04E000BF02E000BF00E000BF07F1B6
:105060000807BD4680BD00BF98B500AF40F610539D
:10507000C2F2000303F5035303F120031B78DBB2F4
:10508000002B00F0468540F61053C2F2000303F5F2
:10509000035303F118031A6849F63F439A4200F29A
:1050A000388540F61053C2F200035A6840F6EC43CC
:1050B000C2F200031B68D21840F61053C2F200037C
:1050C0005A6040F61053C2F200031A6940F6EC43EE
:1050D000C2F200035B68D21840F61053C2F200031C
:1050E0001A6140F61053C2F20003DA6940F6EC434D
:1050F000C2F200039B68D21840F61053C2F20003BC
:10510000DA6140F61053C2F200039A6A40F6EC43AB
:10511000C2F20003DB68D21840F61053C2F200035B
:105120009A6240F61053C2F200035A6E40F6EC4306
:10513000C2F200031B69D21840F61053C2F20003FA
:105140005A6640F61053C2F200031A6F40F6EC4361
:10515000C2F200035B69D21840F61053C2F200039A
:105160001A6740F61053C2F200035A6B40F29443A0
:10517000C2F200035B899BB2D21840F61053C2F210
:1051800000035A6340F61053C2F200031A6C40F257
:105190009443C2F200039B899BB2D21840F610538D
:1051A000C2F200031A6440F61053C2F20003DA6C34
:1051B00040F29443C2F20003DB899BB2D21840F65E
:1051C0001053C2F20003DA6440F61053C2F2000337
:1051D0009A6D40F29443C2F200031B8A9BB2D2182C
:1051E00040F61053C2F200039A6540F61053C2F223
:1051F0000003DA6F42F67C63C2F200039B68D218A8
:1052000040F61053C2F20003DA6740F61053C2F2C0
:105210000003D3F8882042F67C63C2F20003DB6807
:10522000D21840F61053C2F20003C3F8882040F6AB
:105230001053C2F20003D3F8902040F6EC43C2F2C0
:1052400000039B69D21840F61053C2F20003C3F862
:10525000902040F61053C2F20003D3F8942040F699
:10526000EC43C2F20003DB69D21840F61053C2F2DD
:105270000003C3F8942040F61053C2F20003D3F8A1
:105280004C4140F29443C2F200035B6B184604F0B9
:105290005DFC0346E21840F61053C2F20003C3F867
:1052A0004C2140F61053C2F20003D3F8644140F29F
:1052B0009443C2F20003DB6B184604F047FC03463C
:1052C000E21840F61053C2F20003C3F8642140F61E
:1052D0001053C2F20003D3F87C4140F29443C2F26F
:1052E00000035B6C184604F031FC0346E21840F6FC
:1052F0001053C2F20003C3F87C2140F61053C2F2EF
:105300000003D3F8584140F29443C2F200039B6B70
:10531000184604F01BFC0346E21840F61053C2F294
:105320000003C3F8582140F61053C2F20003D3F82B
:10533000704140F29443C2F200031B6C184604F023
:1053400005FC0346E21840F61053C2F20003C3F80E
:10535000702140F61053C2F20003D3F8884140F2A6
:105360009443C2F200039B6C184604F0EFFB034623
:10537000E21840F61053C2F20003C3F8882140F649
:10538000EC43C2F200031A6840F61053C2F2000365
:105390001B689A4209D940F6EC43C2F200031A682E
:1053A00040F61053C2F200031A6040F6EC43C2F21A
:1053B00000035A6840F61053C2F20003DB689A42B9
:1053C00009D940F6EC43C2F200035A6840F6105384
:1053D000C2F20003DA6040F6EC43C2F200039A68BE
:1053E00040F61053C2F200039B699A4209D940F675
:1053F000EC43C2F200039A6840F61053C2F2000375
:105400009A6140F6EC43C2F20003DA6840F61053AA
:10541000C2F200035B6A9A4209D940F6EC43C2F239
:105420000003DA6840F61053C2F200035A6240F6F5
:10543000EC43C2F200031A6940F61053C2F20003B3
:105440001B6E9A4209D940F6EC43C2F200031A6976
:1054500040F61053C2F200031A6640F6EC43C2F263
:1054600000035A6940F61053C2F20003DB6E9A4201
:1054700009D940F6EC43C2F200035A6940F61053D2
:10548000C2F20003DA6640F29443C2F200035B8981
:105490009BB21A4640F61053C2F200031B6B9A42AD
:1054A0000BD940F29443C2F200035B899BB21A46C7
:1054B00040F61053C2F200031A6340F29443C2F262
:1054C00000039B899BB21A4640F61053C2F20003B8
:1054D000DB6B9A420BD940F29443C2F200039B89E2
:1054E0009BB21A4640F61053C2F20003DA6340F250
:1054F0009443C2F20003DB899BB21A4640F6105374
:10550000C2F200039B6C9A420BD940F29443C2F260
:105510000003DB899BB21A4640F61053C2F2000327
:105520009A6440F29443C2F200031B8A9BB21A466B
:1055300040F61053C2F200035B6D9A420BD940F261
:105540009443C2F200031B8A9BB21A4640F61053E2
:10555000C2F200035A6542F67C63C2F200039A6805
:1055600040F61053C2F200039B6F9A4209D942F6EB
:105570007C63C2F200039A6840F61053C2F2000343
:105580009A6742F67C63C2F20003DA6840F6105371
:10559000C2F20003D3F884309A420AD942F67C63FF
:1055A000C2F20003DA6840F61053C2F20003C3F8F7
:1055B000842040F29443C2F200035B6B184604F06F
:1055C000C5FA024640F61053C2F20003D3F8483140
:1055D0009A420EDD40F29443C2F200035B6B184620
:1055E00004F0B4FA024640F61053C2F20003C3F8C6
:1055F000482140F29443C2F20003DB6B184604F0EA
:10560000A5FA024640F61053C2F20003D3F8603107
:105610009A420EDD40F29443C2F20003DB6B18465F
:1056200004F094FA024640F61053C2F20003C3F8A5
:10563000602140F29443C2F200035B6C184604F010
:1056400085FA024640F61053C2F20003D3F87831CF
:105650009A420EDD40F29443C2F200035B6C18469E
:1056600004F074FA024640F61053C2F20003C3F885
:10567000782140F29443C2F200031B6C184604F0F8
:1056800065FA024640F61053C2F20003D3F86C31BB
:105690009A420EDD40F29443C2F200031B6C18469E
:1056A00004F054FA024640F61053C2F20003C3F865
:1056B0006C2140F29443C2F200039B6B184604F045
:1056C00045FA024640F61053C2F20003D3F85431B3
:1056D0009A420EDD40F29443C2F200039B6B1846DF
:1056E00004F034FA024640F61053C2F20003C3F845
:1056F000542140F29443C2F200039B6C184604F01C
:1057000025FA024640F61053C2F20003D3F8843162
:105710009A420EDD40F29443C2F200039B6C18469D
:1057200004F014FA024640F61053C2F20003C3F824
:10573000842140F6EC43C2F200031A6840F610538D
:10574000C2F200039B689A4209D240F6EC43C2F2CF
:1057500000031A6840F61053C2F200039A6040F644
:10576000EC43C2F200035A6840F61053C2F2000341
:105770005B699A4209D240F6EC43C2F200035A68D0
:1057800040F61053C2F200035A6140F6EC43C2F2F5
:1057900000039A6840F61053C2F200031B6A9A4253
:1057A00009D240F6EC43C2F200039A6840F6105367
:1057B000C2F200031A6240F6EC43C2F20003DA6858
:1057C00040F61053C2F20003DB6A9A4209D240F657
:1057D000EC43C2F20003DA6840F61053C2F2000351
:1057E000DA6240F6EC43C2F200031A6940F6105345
:1057F000C2F200039B6E9A4209D240F6EC43C2F219
:1058000000031A6940F61053C2F200039A6640F68C
:10581000EC43C2F200035A6940F61053C2F200038F
:105820005B6F9A4209D240F6EC43C2F200035A6918
:1058300040F61053C2F200035A6740F29443C2F29A
:1058400000035B899BB21A4640F61053C2F2000374
:105850009B6B9A420BD240F29443C2F200035B89E5
:105860009BB21A4640F61053C2F200039A6340F20C
:105870009443C2F200039B899BB21A4640F6105330
:10588000C2F200035B6C9A420BD240F29443C2F224
:1058900000039B899BB21A4640F61053C2F20003E4
:1058A0005A6440F29443C2F20003DB899BB21A4669
:1058B00040F61053C2F200031B6D9A420BD240F225
:1058C0009443C2F20003DB899BB21A4640F61053A0
:1058D000C2F200031A6540F29443C2F200031B8A2D
:1058E0009BB21A4640F61053C2F20003DB6D9A4297
:1058F0000BD240F29443C2F200031B8A9BB21A46B9
:1059000040F61053C2F20003DA6542F67C63C2F23D
:1059100000039A6840F61053C2F20003D3F88030B7
:105920009A420AD242F67C63C2F200039A6840F6B9
:105930001053C2F20003C3F8802042F67C63C2F227
:105940000003DA6840F61053C2F20003D3F88C303B
:105950009A420AD242F67C63C2F20003DA6840F649
:105960001053C2F20003C3F88C2040F29443C2F2F9
:1059700000035B6B184604F0E9F8024640F610534A
:10598000C2F20003D3F850319A420EDA40F2944347
:10599000C2F200035B6B184604F0D8F8024640F6EA
:1059A0001053C2F20003C3F8502140F29443C2F2F4
:1059B0000003DB6B184604F0C9F8024640F61053AA
:1059C000C2F20003D3F868319A420EDA40F29443EF
:1059D000C2F20003DB6B184604F0B8F8024640F64A
:1059E0001053C2F20003C3F8682140F29443C2F29C
:1059F00000035B6C184604F0A9F8024640F6105309
:105A0000C2F20003D3F880319A420EDA40F2944396
:105A1000C2F200035B6C184604F098F8024640F6A8
:105A20001053C2F20003C3F8802140F29443C2F243
:105A300000039B6B184604F089F8024640F61053A9
:105A4000C2F20003D3F85C319A420EDA40F294437A
:105A5000C2F200039B6B184604F078F8024640F649
:105A60001053C2F20003C3F85C2140F29443C2F227
:105A700000031B6C184604F069F8024640F6105308
:105A8000C2F20003D3F874319A420EDA40F2944322
:105A9000C2F200031B6C184604F058F8024640F6A8
:105AA0001053C2F20003C3F8742140F29443C2F2CF
:105AB00000039B6C184604F049F8024640F6105368
:105AC000C2F20003D3F88C319A420EDA40F29443CA
:105AD000C2F200039B6C184604F038F8024640F608
