:020000040800F2
:10000000E43E002031320008A1320008A13200088D
:10001000A1320008A1320008A1320008000000004F
:10002000000000000000000000000000A1320008F5
:10003000A132000800000000A132000839270008A2
:10004000A1320008A1320008A1320008A132000844
:10005000A1320008A1320008A1320008A132000834
:10006000A1320008A1320008A1320008A132000824
:10007000A1320008A1320008A1320008A132000814
:10008000A1320008A1320008A1320008A132000804
:10009000A1320008A1320008A1320008A1320008F4
:1000A000A132000855120008A1320008A132000850
:1000B000A1320008A1320008A1320008A1320008D4
:1000C000A1320008A1320008A1320008A1320008C4
:1000D000A13200080D7200086D730008A1320008FB
:1000E000A1320008A1320008A1320008A1320008A4
:1000F0006D120008A1320008A1320008A1320008E8
:10010000A1320008A1320008A1320008A132000883
:10011000A1320008A1320008A1320008A132000873
:1001200085120008A1320008A1320008A13200089F
:10013000A1320008A1320008A1320008A132000853
:10014000A1320008A1320008A1320008A132000843
:10015000A1320008A1320008A1320008A132000833
:10016000A1320008A1320008A1320008A132000823
:10017000A1320008A1320008A1320008A132000813
:10018000A1320008A132000880B586B000AF00F0AF
:1001900073FB4FF47050C4F2000004F08DFE4FF07A
:1001A0000003BB804FF48273FB804FF400633B81FC
:1001B0004FF000037B814FF00103BB814FF40073CC
:1001C000FB814FF000033B824FF000037B8207F17D
:1001D00004034FF47050C4F20000194604F0B0FE5E
:1001E0004FF47050C4F200004FF0010104F0ECFE37
:1001F0004FF44060C4F202004FF0010104F0FCF93A
:1002000000F05CFA07F11807BD4680BD80B485B0E8
:1002100000AF0346FB71FB7903F00103FB73FB7B2B
:10022000002B07D04FF44063C4F202034FF00202E8
:100230001A8306E04FF44063C4F202034FF0020257
:100240005A83FB794FEA5303FB71FB7903F00103F7
:10025000FB73FB7B002B07D04FF44063C4F2020317
:100260004FF004021A8306E04FF44063C4F2020325
:100270004FF004025A83FB794FEA5303FB71FB7979
:1002800003F00103FB73FB7B002B07D04FF44063AB
:10029000C4F202034FF008021A8306E04FF44063F1
:1002A000C4F202034FF008025A83FB794FEA53036A
:1002B000FB71FB7903F00103FB73FB7B002B07D081
:1002C0004FF44063C4F202034FF010021A8306E0B9
:1002D0004FF44063C4F202034FF010025A83FB79DB
:1002E0004FEA5303FB71FB7903F00103FB73FB7BC4
:1002F000002B07D04FF44063C4F202034FF02002FA
:100300001A8306E04FF44063C4F202034FF0200268
:100310005A8307F11407BD4680BC704780B582B090
:1003200000AF4FF40043FB8040F2B843C2F2000339
:1003300093F83230DBB2002B03D0FB8803F5804307
:10034000FB8040F2B843C2F200031B8DBB804FF02C
:100350000100FFF75BFF4FF44060C4F202004FF072
:10036000010104F057F9FB884FF47050C4F200000B
:10037000194604F057FE00BF4FF47050C4F200005D
:100380004FF0800104F05CFE0346002BF4D14FF4E3
:100390007050C4F2000004F037FE0346FB80BB88B7
:1003A0004FF47050C4F20000194604F03BFE00BF49
:1003B0004FF47050C4F200004FF0800104F040FE92
:1003C0000346002BF4D14FF47050C4F2000004F047
:1003D0001BFE0346BB804FF44060C4F202004FF0A6
:1003E000010104F009F907F10807BD4680BD00BF0F
:1003F00080B582B000AF40F2B843C2F20003DB8D9B
:10040000FB8040F2B843C2F200035B8DBB804FF02B
:100410000200FFF7FBFE4FF44060C4F202004FF011
:10042000010104F0F7F8FB884FF47050C4F20000AB
:10043000194604F0F7FD00BF4FF47050C4F20000FD
:100440004FF0800104F0FCFD0346002BF4D14FF483
:100450007050C4F2000004F0D7FD0346FB80BB8857
:100460004FF47050C4F20000194604F0DBFD00BFE9
:100470004FF47050C4F200004FF0800104F0E0FD32
:100480000346002BF4D14FF47050C4F2000004F086
:10049000BBFD0346BB804FF44060C4F202004FF046
:1004A000010104F0A9F807F10807BD4680BD00BFAF
:1004B00080B582B000AF40F2B843C2F200031B8E99
:1004C000FB8040F2B843C2F200039B8DBB804FF02B
:1004D0000300FFF79BFE4FF44060C4F202004FF0B0
:1004E000010104F097F8FB884FF47050C4F200004B
:1004F000194604F097FD00BF4FF47050C4F200009D
:100500004FF0800104F09CFD0346002BF4D14FF422
:100510007050C4F2000004F077FD0346FB80BB88F6
:100520004FF47050C4F20000194604F07BFD00BF88
:100530004FF47050C4F200004FF0800104F080FDD1
:100540000346002BF4D14FF47050C4F2000004F0C5
:100550005BFD0346BB804FF44060C4F202004FF0E5
:10056000010104F049F807F10807BD4680BD00BF4E
:1005700080B500AFFFF73CFFFFF79AFFFFF7CEFE15
:1005800080BD00BF80B485B000AF02460B46FA8044
:10059000BB80FB884FEA5303FB81BA88FB889A42F1
:1005A00003D3FB8803F1FF33BB8040F2B843C2F2B0
:1005B0000003FA881A8540F2B843C2F20003FA89B0
:1005C0005A85FA89BB88D3189AB240F2B843C2F26E
:1005D00000039A8540F2B843C2F200035B8D9AB2E1
:1005E00040F2B843C2F200031B8D9BB24FEA5303A3
:1005F0009BB2D3189AB240F2B843C2F20003DA8534
:1006000040F2B843C2F200039B8D9AB240F2B84365
:10061000C2F200031B8D9BB24FEA53039BB2D31867
:100620009AB240F2B843C2F200031A8640F2B843CD
:10063000C2F20003DB8D9AB240F2B843C2F200036B
:100640001B8D9BB29A4212D340F2B843C2F2000310
:10065000DB8D9AB240F2B843C2F200031B8D9BB20D
:10066000D31A9AB240F2B843C2F20003DA8540F2DC
:10067000B843C2F200031B8E9AB240F2B843C2F2F2
:1006800000031B8D9BB29A4212D340F2B843C2F2D0
:1006900000031B8E9AB240F2B843C2F200031B8DD6
:1006A0009BB2D31A9AB240F2B843C2F200031A8640
:1006B00007F11407BD4680BC704700BF80B582B00B
:1006C00000AF4FF00000FFF7A1FD4FF44060C4F20F
:1006D00002004FF0010103F09DFF4FF47050C4F28F
:1006E00000004FF0000104F09DFC00BF4FF470507B
:1006F000C4F200004FF0800104F0A2FC0346002B7E
:10070000F4D14FF47050C4F2000004F07DFC0346B5
:10071000FB804FF47050C4F200004FF0000104F071
:1007200081FC00BF4FF47050C4F200004FF0800114
:1007300004F086FC0346002BF4D14FF47050C4F251
:10074000000004F061FC0346BB80FA8840F2B84325
:10075000C2F200035A6040F2B843C2F200035B6881
:100760004FEA034240F2B843C2F200035A6040F23B
:10077000B843C2F200035A68BB88D21840F2B843AB
:10078000C2F200035A604FF44060C4F202004FF01E
:10079000010103F031FF07F10807BD4680BD00BF2E
:1007A00080B584B000AF0346FB71FB7903F00F0303
:1007B000FB71FB7903F11003DBB21846FFF726FD4E
:1007C0004FF44060C4F202004FF0010103F022FF39
:1007D0004FF47050C4F200004FF0000104F022FC0E
:1007E00000BF4FF47050C4F200004FF0800104F0DD
:1007F00027FC0346002BF4D14FF47050C4F20000E4
:1008000004F002FC0346FB814FF47050C4F2000078
:100810004FF0000104F006FC00BF4FF47050C4F22A
:1008200000004FF0800104F00BFC0346002BF4D1D4
:100830004FF47050C4F2000004F0E6FB0346BB81A5
:10084000FA79BB894FEA03534FEA135399B240F246
:10085000B843C2F2000302F1040223F812104FF46D
:100860004060C4F202004FF0010103F0C5FE07F141
:100870001007BD4680BD00BF80B500AF4FF440609B
:10088000C4F202004FF0400103F0B6FE4FF44060A6
:10089000C4F202004FF0400103F0BCFE80BD00BF77
:1008A00080B500AF4FF44060C4F202004FF0800109
:1008B00003F084FE03461A4640F2B843C2F2000336
:1008C0001A7040F2B843C2F200031B78DBB218463C
:1008D00080BD00BF80B500AF40F25C43C2F20003B0
:1008E0001B78042B66D801A252F823F001090008F6
:1008F00025090008490900086D0900089109000848
:100900004FF00000FFF74CFF40F25C43C2F20003DF
:100910001B7803F10103DAB240F25C43C2F2000338
:100920001A704FE04FF00100FFF73AFF40F25C43CE
:10093000C2F200031B7803F10103DAB240F25C4318
:10094000C2F200031A703DE04FF00200FFF728FFEB
:1009500040F25C43C2F200031B7803F10103DAB2F8
:1009600040F25C43C2F200031A702BE04FF0030028
:10097000FFF716FF40F25C43C2F200031B7803F15D
:100980000103DAB240F25C43C2F200031A7019E0CC
:100990004FF00400FFF704FF40F25C43C2F2000393
:1009A0001B7803F10103DAB240F25C43C2F20003A8
:1009B0001A7007E040F25C43C2F200034FF00002FD
:1009C0001A7000BF80BD00BF80B483B000AF034683
:1009D0003960FB7197F90730002B10DA4FF46D4343
:1009E000CEF20003FA7902F00F02A2F104013A6894
:1009F000D2B24FEA0212D2B25B181A760DE04FF46F
:100A00006143CEF2000397F907103A68D2B24FEA79
:100A10000212D2B25B1883F8002307F10C07BD461F
:100A200080BC704780B582B000AF78607A686FF0A4
:100A30007F439A4202D94FF001031FE04EF21003A8
:100A4000CEF200037A6822F07F4202F1FF325A6050
:100A50004FF0FF304FF00F01FFF7B6FF4EF21003DB
:100A6000CEF200034FF000029A604EF21003CEF275
:100A700000034FF007021A604FF00003184607F119
:100A80000807BD4680BD00BF80B58CB000AF42F600
:100A9000C863C2F200034FF462729A604FF0000321
:100AA000BB844FF00003FB844FF00703BB624FF0A1
:100AB0000003BB854FF0000387F82E3007F12403B5
:100AC0004FF48060C4F20100194606F04FF84FF071
:100AD00070033B824FF001037B824FF00003BB8227
:100AE0004FF00403BB614FF00003BB834FF00003E2
:100AF000FB834FF480733B844FF000037B8407F14A
:100B000010034FF48060C4F20100194606F0C8F8E3
:100B10004FF400633B804FF480637B804FF480731D
:100B2000BB804FF00003FB804FF000033B814FF48C
:100B300000537B814FF48043BB813B464FF4806080
:100B4000C4F20100194606F03BF94FF48060C4F28C
:100B500001004FF0010106F083F84FF48060C4F209
:100B600001004FF0010106F053F942F6C863C2F2EA
:100B700000034FF00002DA6040F2B843C2F2000313
:100B80004FF0000283F8322042F6C863C2F200033D
:100B90009B689AB242F6C863C2F20003DB689BB25C
:100BA00010461946FFF7EEFCFFF7E2FC07F13007AD
:100BB000BD4680BD80B582B000AF0346FB8042F6E3
:100BC000C863C2F200031B78DBB2032B07D042F6E6
:100BD000C863C2F200031B78DBB2042B36D142F6A5
:100BE000C863C2F200039A68FB889A420BD942F6A6
:100BF000C863C2F200039A68FB88D21A42F6C8633F
:100C0000C2F200039A6042F6C863C2F200039A6817
:100C100040F21F339A4206D842F6C863C2F200037C
:100C20004FF448729A6042F6C863C2F200039B68B0
:100C30009AB242F6C863C2F20003DB689BB2104668
:100C40001946FFF79FFCFFF793FC00E000BF07F198
:100C50000807BD4680BD00BF80B582B000AF034627
:100C6000FB8042F6C863C2F200031B78DBB2032BA1
:100C700007D042F6C863C2F200031B78DBB2042B34
:100C800037D142F6C863C2F200039A6840F6E20325
:100C90009A421BD842F6C863C2F200039A68FB88E6
:100CA000D21842F6C863C2F200039A6042F6C863E3
:100CB000C2F200039A6840F6E3039A4206D942F66C
:100CC000C863C2F2000340F6E3029A6042F6C863CA
:100CD000C2F200039B689AB242F6C863C2F20003F4
:100CE000DB689BB210461946FFF74CFCFFF740FC4F
:100CF00000E000BF07F10807BD4680BD80B582B0A7
:100D000000AF0346FB8042F6C863C2F200031B78C3
:100D1000DBB2032B07D042F6C863C2F200031B7894
:100D2000DBB2042B38D142F6C863C2F20003DA68A2
:100D3000FB88D21842F6C863C2F20003DA6042F6BA
:100D4000C863C2F20003DA6842F6C863C2F2000365
:100D50009B684FEA53039A420BD942F6C863C2F22A
:100D600000039B684FEA530242F6C863C2F20003D5
:100D7000DA6042F6C863C2F200039B689AB242F698
:100D8000C863C2F20003DB689BB210461946FFF746
:100D9000F9FBFFF7EDFB00E000BF07F10807BD46D8
:100DA00080BD00BF80B582B000AF0346FB8042F635
:100DB000C863C2F200031B78DBB2032B07D042F6F4
:100DC000C863C2F200031B78DBB2042B2ED142F6BB
:100DD000C863C2F20003DA68FB889A420CD942F673
:100DE000C863C2F20003DA68FB88D21A42F6C8630D
:100DF000C2F20003DA6006E042F6C863C2F2000302
:100E00004FF00002DA6042F6C863C2F200039B684A
:100E10009AB242F6C863C2F20003DB689BB2104686
:100E20001946FFF7AFFBFFF7A3FB00E000BF07F198
:100E30000807BD4680BD00BF80B500AFFFF730FD9D
:100E40000346002B0BD0FFF739FC42F6C863C2F211
:100E500000034FF00A021A704FF0010301E04FF057
:100E60000003184680BD00BF80B500AF42F6C863DE
:100E7000C2F200031B78DBB20E2B00F2CA8101A282
:100E800052F823F0C10E000813120008C30F000827
:100E9000111000085F100008131200081312000858
:100EA000131200081312000813120008AD100008F6
:100EB000F71000084111000887110008CD11000843
:100EC00040F2B843C2F200034FF0000283F8322030
:100ED00042F6C863C2F200034FF462729A6042F6AF
:100EE000C863C2F200034FF00002DA6040F63053EC
:100EF000C2F200034FF07E521A6140F63053C2F244
:100F000000034FF00002C4F296321A6040F63053EC
:100F1000C2F200034FF00002C4F2F0125A6040F631
:100F20003053C2F200034DF20A72C3F6A3429A6034
:100F300040F63053C2F2000341F26F22C3F603328F
:100F4000DA6042F6C863C2F200039B689AB242F6C6
:100F5000C863C2F20003DB689BB210461946FFF774
:100F600011FBFFF705FBFFF767FF0346002B40F07F
:100F7000588142F6C863C2F200035B78DBB2652B8E
:100F800011D140F2B843C2F200034FF0010283F8DE
:100F90003220FFF7EDFA42F6C863C2F200034FF0C9
:100FA00002021A703DE142F6C863C2F200035B78A8
:100FB000DBB2722B40F03581FFF75EFCFFF77EFB62
:100FC0002FE1FFF739FF0346002B40F02C8142F65A
:100FD000C863C2F200035B78DBB2642B07D142F630
:100FE000C863C2F200034FF000021A701BE142F620
:100FF000C863C2F200035B78DBB2452B40F013817B
:1010000042F6C863C2F200034FF003021A700AE10D
:10101000FFF712FF0346002B40F0078142F6C8633A
:10102000C2F200035B78DBB2642B07D142F6C863DF
:10103000C2F200034FF000021A70F6E042F6C863F5
:10104000C2F200035B78DBB2452B40F0EE8042F643
:10105000C863C2F200034FF004021A70E5E0FFF724
:10106000EBFE0346002B40F0E28042F6C863C2F27A
:1010700000035B78DBB2642B07D142F6C863C2F28F
:1010800000034FF000021A70D1E042F6C863C2F2CA
:1010900000035B78DBB2452B40F0C98042F6C863A1
:1010A000C2F200034FF003021A70C0E040F2B843EE
:1010B000C2F200034FF0000283F83220FFF758FA23
:1010C00042F6C863C2F200035B78DBB2722B40F0D9
:1010D000B080FFF7D1FBFFF7F1FAFFF7ADFE034653
:1010E000002B40F0A68042F6C863C2F200034FF026
:1010F00000021A709DE040F2B843C2F200034FF0C4
:10110000000283F83220FFF733FA42F6C863C2F2D6
:1011100000035B78DBB2722B40F08D80FFF7ACFBF5
:10112000FFF7CCFAFFF788FE0346002B40F08380E0
:1011300042F6C863C2F200034FF000021A707AE070
:1011400040F2B843C2F200034FF0000283F83220AD
:10115000FFF70EFA42F6C863C2F200035B78DBB217
:10116000722B6AD1FFF788FBFFF7A8FAFFF764FE3E
:101170000346002B61D142F6C863C2F200034FF070
:1011800000021A7059E040F2B843C2F200034FF077
:10119000000283F83220FFF7EBF942F6C863C2F28F
:1011A00000035B78DBB2722B49D1FFF765FBFFF7D9
:1011B00085FAFFF741FE0346002B40D142F6C86393
:1011C000C2F200034FF000021A7038E040F2B84358
:1011D000C2F200034FF0000283F83220FFF7C8F993
:1011E00042F6C863C2F200035B78DBB2722B28D1EF
:1011F000FFF742FBFFF762FAFFF71EFE0346002BE4
:101200001FD142F6C863C2F200034FF000021A7009
:1012100017E042F6C863C2F200034FF000021A70F2
:1012200010E000BF0EE000BF0CE000BF0AE000BF0E
:1012300008E000BF06E000BF04E000BF02E000BF1E
:1012400000E000BF42F6C863C2F200034FF00002A4
:101250005A7080BD80B500AF4FF00000C4F20100AD
:101260004FF0010105F0FCFD80BD00BF80B500AF6F
:101270004FF48060C4F201004FF0010105F0F0FD71
:1012800080BD00BF80B500AF46F21040C4F202003E
:101290004FF02001C1F2000103F0DAFB03F07EFD04
:1012A00003F0C0FD03F0E2FD40F64853C2F2000334
:1012B00003F5035303F130031B6803F1010240F609
:1012C0004853C2F2000303F5035303F130031A60DD
:1012D00080BD00BF80B582B000AF0346FB8042F600
:1012E000C863C2F200031B78DBB2042B47D1FB8832
:1012F000002B10D0FA8842F6C863C2F200039B6844
:101300004FEA53039A4206D2FA8842F6C863C2F201
:101310000003DA6020E0FB88002B07D142F6C863A7
:10132000C2F200034FF00002DA6015E0FA8842F6DC
:10133000C863C2F200039B684FEA53039A420BD37F
:1013400042F6C863C2F200039B684FEA530242F6BA
:10135000C863C2F20003DA6042F6C863C2F2000357
:101360009B689AB242F6C863C2F20003DB689BB284
:1013700010461946FFF706F9FFF7FAF800E000BF3C
:1013800007F10807BD4680BD80B500AF40F6305379
:10139000C2F200031B6918464FF00001C4F27A4103
:1013A00009F030F80346002B13D040F63053C2F258
:1013B00000031B6918464FF00001C4F2201108F029
:1013C00083FE03461A4640F63053C2F200031A6108
:1013D00017E040F63053C2F200031B6918464FF085
:1013E0000001C4F27A4109F021F80346002B08D02D
:1013F00040F63053C2F200034FF00002C4F27A42CA
:101400001A6180BD0000000080B500AF40F6305387
:10141000C2F200031B69184608F0E2F902460B46C7
:10142000104619461CA3D3E9002308F0BDFC03466F
:10143000002B13D040F63053C2F200031B6918464C
:101440004FF00001C4F2201108F0F2FE03461A46E4
:1014500040F63053C2F200031A611CE040F63053EC
:10146000C2F200031B69184608F0BAF902460B469F
:101470001046194608A3D3E9002308F081FC03466F
:10148000002B08D040F63053C2F200034BF2177223
:10149000C3F6D1021A6180BD2D431CEBE2361A3F20
:1014A00080B500AF40F63053C2F200031B68184607
:1014B0004FF48041C4F21C6108F0A4FF0346002BE6
:1014C00015D040F63053C2F200031A6840F630538C
:1014D000C2F200031B691046194608F0EDFC0346F2
:1014E0001A4640F63053C2F200031A6017E040F685
:1014F0003053C2F200031B6818464FF48041C4F217
:101500001C6108F093FF0346002B08D040F63053CF
:10151000C2F200034FF48042C4F21C621A6080BD24
:1015200080B500AF40F63053C2F200031B68184686
:1015300008F056F902460B46104619461EA3D3E999
:10154000002308F027FC0346002B15D040F630534B
:10155000C2F200031A6840F63053C2F200031B695E
:101560001046194608F0A6FC03461A4640F63053CA
:10157000C2F200031A601CE040F63053C2F20003CE
:101580001B68184608F02CF902460B46104619460F
:1015900009A3D3E9002308F0E9FB0346002B08D098
:1015A00040F63053C2F200034BF21772C3F6D10279
:1015B0001A6080BDAFF300802D431CEBE2361A3F6A
:1015C00080B500AF40F63053C2F200035B681846A6
:1015D0004FF48041C4F21C6108F014FF0346002B55
:1015E00015D040F63053C2F200035A6840F630532B
:1015F000C2F200031B691046194608F05DFC034661
:101600001A4640F63053C2F200035A6017E040F623
:101610003053C2F200035B6818464FF48041C4F2B5
:101620001C6108F003FF0346002B08D040F630533E
:10163000C2F200034FF48042C4F21C625A6080BDC3
:1016400080B500AF40F63053C2F200035B68184625
:1016500008F0C6F802460B46104619461EA3D3E909
:10166000002308F0A1FB0346002B15D040F63053B1
:10167000C2F200035A6840F63053C2F200031B69FD
:101680001046194608F016FC03461A4640F6305339
:10169000C2F200035A601CE040F63053C2F200036D
:1016A0005B68184608F09CF802460B46104619463F
:1016B00009A3D3E9002308F063FB0346002B08D0FD
:1016C00040F63053C2F200034BF21772C3F6D10258
:1016D0005A6080BDAFF300802D431CEBE2361A3F09
:1016E00080B500AF40F63053C2F200039B68184645
:1016F0004FF48041C4F21C6108F084FE0346002BC5
:1017000015D040F63053C2F200039A6840F63053C9
:10171000C2F200031B691046194608F0CDFB0346D0
:101720001A4640F63053C2F200039A6017E040F6C2
:101730003053C2F200039B6818464FF48041C4F254
:101740001C6108F073FE0346002B08D040F63053AE
:10175000C2F200034FF48042C4F21C629A6080BD62
:1017600080B500AF40F63053C2F200039B681846C4
:1017700008F036F802460B46104619461EA3D3E978
:10178000002308F011FB0346002B15D040F6305320
:10179000C2F200039A6840F63053C2F200031B699C
:1017A0001046194608F086FB03461A4640F63053A9
:1017B000C2F200039A601CE040F63053C2F200030C
:1017C0009B68184608F00CF802460B46104619466E
:1017D00009A3D3E9002308F0D3FA0346002B08D06D
:1017E00040F63053C2F200034BF21772C3F6D10237
:1017F0009A6080BDAFF300802D431CEBE2361A3FA8
:1018000080B500AF40F63053C2F20003DB681846E3
:101810004FF48041C4F21C6108F0F4FD0346002B34
:1018200015D040F63053C2F20003DA6840F6305368
:10183000C2F200031B691046194608F03DFB03463F
:101840001A4640F63053C2F20003DA6017E040F661
:101850003053C2F20003DB6818464FF48041C4F2F3
:101860001C6108F0E3FD0346002B08D040F630531E
:10187000C2F200034FF48042C4F21C62DA6080BD01
:1018800080B500AF40F63053C2F20003DB68184663
:1018900007F0A6FF02460B46104619461EA3D3E9E1
:1018A000002308F081FA0346002B15D040F6305390
:1018B000C2F20003DA6840F63053C2F200031B693B
:1018C0001046194608F0F6FA03461A4640F6305319
:1018D000C2F20003DA601CE040F63053C2F20003AB
:1018E000DB68184607F07CFF02460B461046194697
:1018F00009A3D3E9002308F043FA0346002B08D0DC
:1019000040F63053C2F200034BF21772C3F6D10215
:10191000DA6080BDAFF300802D431CEBE2361A3F46
:101920002DE9B0438AB000AFF860B9607A603B60DF
:10193000F86807F055FF04460D467B6818461946BF
:1019400008F0BAFA0346184607F04AFF02460B466B
:10195000104619468AA3D3E9002307F095FF0246F3
:101960000B4690469946786C07F03AFF02460B46C4
:101970004046494608F0B2F802460B461046194662
:1019800005F07AFF02460B462046294607F07CFF09
:1019900002460B461046194608F038FA03467B62A9
:1019A000F86807F01DFF04460D467B681846194687
:1019B00008F082FA0346184607F012FF02460B466B
:1019C000104619466EA3D3E9002307F05DFF0246D7
:1019D0000B4690469946786C07F002FF02460B468C
:1019E0004046494608F07AF802460B46104619462A
:1019F00005F08EFF02460B462046294607F044FFBD
:101A000002460B461046194608F000FA03463B62B0
:101A1000B86807F0E5FE04460D463868396C08F0F2
:101A20004BFA03461846194608F046FA034618468C
:101A300007F0D6FE02460B461046194650A3D3E9DE
:101A4000002307F021FF02460B4690469946786C2A
:101A500007F0C6FE02460B464046494608F03EF8EF
:101A600002460B461046194605F006FF02460B4695
:101A70002046294607F008FF02460B461046194645
:101A800008F0C4F90346FB61B86807F0A9FE0446F4
:101A90000D463868396C08F00FFA034618461946A7
:101AA00008F00AFA0346184607F09AFE02460B466B
:101AB0001046194632A3D3E9002307F0E5FE02469B
:101AC0000B4690469946786C07F08AFE02460B4614
:101AD0004046494608F002F802460B4610461946B1
:101AE00005F016FF02460B462046294607F0CCFEBD
:101AF00002460B461046194608F088F90346BB61BA
:101B0000786AF96908F0D8F903461C46786AF969D9
:101B100008F0D2F903462046194608F0D5FA0346E4
:101B20001C46386AB96908F0C7F903461D46386A89
:101B3000B96908F0C1F903462846194608F0C4FA05
:101B400003462046194608F0B7F90346184607F041
:101B500047FE02460B461046194605F025FF024691
:101B60000B461046194608F051F903467B617B6924
:101B7000184607F12807BD46BDE8B083AFF30080E3
:101B8000182D4454FB2109402DE9B0438AB000AF21
:101B9000F860B9607A603B60F86807F021FE04469F
:101BA0000D467B681846194608F086F90346184624
:101BB00007F016FE02460B461046194692A3D3E9DB
:101BC000002307F061FE02460B4690469946786C6A
:101BD00007F006FE02460B464046494607F07EFFE8
:101BE00002460B461046194605F046FE02460B46D5
:101BF0002046294607F048FE02460B461046194685
:101C000008F004F903463B62F86807F0E9FD044672
:101C10000D467B681846194608F04EF903461846EB
:101C200007F0DEFD02460B461046194676A3D3E9BF
:101C3000002307F029FE02460B4690469946786C31
:101C400007F0CEFD02460B464046494607F046FFE8
:101C500002460B461046194605F05AFE02460B4650
:101C60002046294607F010FE02460B46104619464C
:101C700008F0CCF80346FB61B86807F0B1FD0446F4
:101C80000D463868396C08F017F9034618461946AE
:101C900008F012F90346184607F0A2FD02460B466B
:101CA0001046194658A3D3E9002307F0EDFD02467C
:101CB0000B4690469946786C07F092FD02460B461B
:101CC0004046494607F00AFF02460B4610461946B1
:101CD00005F0D2FD02460B462046294607F0D4FD0A
:101CE00002460B461046194608F090F80346BB61C1
:101CF000B86807F075FD04460D463868396C08F081
:101D0000DBF803461846194608F0D6F8034618468D
:101D100007F066FD02460B46104619463AA3D3E982
:101D2000002307F0B1FD02460B4690469946786CB9
:101D300007F056FD02460B464046494607F0CEFEE8
:101D400002460B461046194605F0E2FD02460B46D8
:101D50002046294607F098FD02460B4610461946D4
:101D600008F054F803467B61386AB96908F0A4F8B2
:101D7000034618464FF0000108F062FB0346002BB3
:101D80004AD0F869796908F097F8034618464FF089
:101D9000000108F055FB0346002B3DD0F869796936
:101DA00008F08AF803461C46386AB96908F084F8D6
:101DB00003462046194608F03BFA0346184607F04A
:101DC0000FFD02460B461046194605F0A1FB0446DE
:101DD0000D46786C07F004FD02460B462046294666
:101DE00007F052FD02460B461046194608A3D3E9F8
:101DF000002307F073FE02460B461046194608F012
:101E000005F803467B62FFE0182D4454FB2109408E
:101E1000182D4454FB211940386AB96908F04CF870
:101E2000034618464FF0000108F0ECFA0346002B79
:101E30004ED0F869796908F03FF8034618464FF02C
:101E4000000108F0FDFA0346002B41D0F8697969DA
:101E500008F032F803461C463B6A83F000431846FC
:101E6000B96908F027F803462046194608F0E0F95A
:101E70000346184607F0B4FC02460B4610461946C6
:101E800005F046FB02460B4663A1D1E9000107F0CD
:101E900047FB02460B4614461D46786C07F0A0FC33
:101EA00002460B462046294607F0EEFC02460B464A
:101EB000104619465AA3D3E9002307F00FFE024645
:101EC0000B461046194607F0A1FF03467B629BE0D4
:101ED000386AB96907F0F0FF034618464FF0000171
:101EE00008F090FA0346002B4DD0F869796907F0A5
:101EF000E3FF034618464FF0000108F083FA03465B
:101F0000002B40D0F869796907F0D6FF03461C46DC
:101F1000386AB96907F0D0FF03462046194608F031
:101F200087F90346184607F05BFC02460B4610464D
:101F3000194605F0EDFA02460B461046194636A33F
:101F4000D3E9002307F0EEFA02460B4614461D467D
:101F5000786C07F045FC02460B462046294607F000
:101F600093FC02460B46104619462DA3D3E90023E5
:101F700007F0B4FD02460B461046194607F046FF2F
:101F800003467B6240E0FB6983F0004318467969B1
:101F900007F090FF03461C46386AB96907F08CFFCA
:101FA00003462046194608F043F90346184607F051
:101FB00017FC02460B461046194605F0A9FA0246E0
:101FC0000B4617A1D1E9000107F0AAFA02460B4619
:101FD00014461D46786C07F003FC02460B4620466B
:101FE000294607F051FC02460B46104619460CA341
:101FF000D3E9002307F072FD02460B46104619464E
:1020000007F004FF03467B627B6A184607F1280746
:10201000BD46BDE8B08300BF182D4454FB210940E4
:10202000182D4454FB2119402DE9B0438AB000AF6C
:10203000F860B9607A603B60F86807F0D1FB04464D
:102040000D467B681846194607F036FF03461846CA
:1020500007F0C6FB02460B461046194686A3D3E995
:10206000002307F011FC02460B4690469946386C57
:1020700007F0B6FB02460B464046494607F02EFDE8
:1020800002460B461046194605F0F6FB02460B4683
:102090002046294607F0F8FB02460B461046194633
:1020A00007F0B4FE03467B62F86807F099FB04462C
:1020B0000D467B681846194607F0FEFE0346184693
:1020C00007F08EFB02460B46104619466AA3D3E979
:1020D000002307F0D9FB02460B4690469946386C20
:1020E00007F07EFB02460B464046494607F0F6FCE9
:1020F00002460B461046194605F00AFC02460B46FE
:102100002046294607F0C0FB02460B4610461946FA
:1021100007F07CFE03463B62B86807F061FB0446AB
:102120000D463B681846194607F0C6FE034618469A
:1021300007F056FB02460B46104619464EA3D3E95C
:10214000002307F0A1FB02460B4690469946386CE7
:1021500007F046FB02460B464046494607F0BEFCE8
:1021600002460B461046194605F086FB02460B4612
:102170002046294607F088FB02460B4610461946C2
:1021800007F044FE0346FB61B86807F029FB0446EC
:102190000D463B681846194607F08EFE0346184662
:1021A00007F01EFB02460B461046194632A3D3E940
:1021B000002307F069FB02460B4690469946386CAF
:1021C00007F00EFB02460B464046494607F086FCE8
:1021D00002460B461046194605F09AFB02460B468E
:1021E0002046294607F050FB02460B46104619468A
:1021F00007F00CFE0346BB61786AF96907F05CFEE4
:1022000003461C46786AF96907F056FE03462046E5
:10221000194607F059FF03461C46386AB96907F0AA
:102220004BFE03461D46386AB96907F045FE034672
:102230002846194607F048FF03462046194607F08E
:102240003BFE0346184607F0CBFA02460B46104603
:10225000194605F0A9FB02460B461046194607F041
:10226000D5FD03467B617B69184607F12807BD460B
:10227000BDE8B083AFF30080182D4454FB21094022
:102280002DE9B0438AB000AFF860B9607A603B6076
:10229000F86807F0A5FA04460D467B68184619460B
:1022A00007F00AFE0346184607F09AFA02460B4664
:1022B000104619468EA3D3E9002307F0E5FA02463B
:1022C0000B4690469946386C07F08AFA02460B4650
:1022D0004046494607F002FC02460B4610461946A6
:1022E00005F0CAFA02460B462046294607F0CCFA0A
:1022F00002460B461046194607F088FD03463B622E
:10230000F86807F06DFA04460D467B6818461946D2
:1023100007F0D2FD0346184607F062FA02460B4664
:102320001046194672A3D3E9002307F0ADFA02461E
:102330000B4690469946386C07F052FA02460B4617
:102340004046494607F0CAFB02460B46104619466E
:1023500005F0DEFA02460B462046294607F094FABD
:1023600002460B461046194607F050FD0346FB6136
:10237000B86807F035FA04460D463B68184619461A
:1023800007F09AFD0346184607F02AFA02460B4664
:102390001046194656A3D3E9002307F075FA024602
:1023A0000B4690469946386C07F01AFA02460B46DF
:1023B0004046494607F092FB02460B461046194636
:1023C00005F05AFA02460B462046294607F05CFA09
:1023D00002460B461046194607F018FD0346BB613E
:1023E000B86807F0FDF904460D463B6818461946E3
:1023F00007F062FD0346184607F0F2F902460B4665
:10240000104619463AA3D3E9002307F03DFA0246E5
:102410000B4690469946386C07F0E2F902460B46A7
:102420004046494607F05AFB02460B4610461946FD
:1024300005F06EFA02460B462046294607F024FABC
:1024400002460B461046194607F0E0FC03467B6146
:10245000386AB96907F030FD034618464FF00001AD
:1024600007F0EEFF0346002B4AD0F869796907F0C0
:1024700023FD034618464FF0000107F0E1FF034635
:10248000002B3DD0F869796907F016FD03461C461C
:10249000386AB96907F010FD03462046194607F06F
:1024A000C7FE0346184607F09BF902460B46104646
:1024B000194605F02DF804460D46386C07F090F9E2
:1024C00002460B462046294607F0DEF902460B4637
:1024D0001046194608A3D3E9002307F0FFFA024685
:1024E0000B461046194607F091FC03467B62FFE05D
:1024F000182D4454FB210940182D4454FB21194048
:10250000386AB96907F0D8FC034618464FF0000155
:1025100007F078FF0346002B4ED0F869796907F081
:10252000CBFC034618464FF0000107F089FF034635
:10253000002B41D0F869796907F0BEFC03461C46C0
:102540003B6A83F000431846B96907F0B3FC0346C1
:102550002046194607F06CFE0346184607F040F97E
:1025600002460B461046194604F0D2FF02460B46BF
:1025700063A1D1E9000106F0D3FF02460B461446E1
:102580001D46386C07F02CF902460B4620462946BA
:1025900007F07AF902460B46104619465AA3D3E9CA
:1025A000002307F09BFA02460B461046194607F037
:1025B0002DFC03467B629BE0386AB96907F07CFC1E
:1025C000034618464FF0000107F01CFF0346002B9E
:1025D0004DD0F869796907F06FFC034618464FF053
:1025E000000107F00FFF0346002B40D0F86979691E
:1025F00007F062FC03461C46386AB96907F05CFCC8
:1026000003462046194607F013FE0346184607F016
:10261000E7F802460B461046194604F079FF0246D9
:102620000B461046194636A3D3E9002306F07AFF7D
:1026300002460B4614461D46386C07F0D1F8024698
:102640000B462046294607F01FF902460B46104666
:1026500019462DA3D3E9002307F040FA02460B46A2
:102660001046194607F0D2FB03467B6240E0FB6947
:1026700083F000431846796907F01CFC03461C46AA
:10268000386AB96907F018FC03462046194607F076
:10269000CFFD0346184607F0A3F802460B46104646
:1026A000194604F035FF02460B4617A1D1E9000197
:1026B00006F036FF02460B4614461D46386C07F0FE
:1026C0008FF802460B462046294607F0DDF8024601
:1026D0000B46104619460CA3D3E9002307F0FEF978
:1026E00002460B461046194607F090FB03467B62F4
:1026F0007B6A184607F12807BD46BDE8B08300BFD6
:10270000182D4454FB210940182D4454FB21194035
:1027100080B500AF40F21803C2F200031A6841F21C
:102720005973CDF2B713A3FB02134FEA5333184684
:10273000FEF778F980BD00BF2DE9F04383B002AF0A
:1027400040F26043C2F200031B7803F10103DAB2E6
:1027500040F26043C2F200031A7003F095F8FEF7EE
:10276000B9F840F26043C2F200031B78092B40F233
:102770003D8340F26043C2F200034FF000021A7042
:1027800042F64063C2F200034FF001021A7040F2B9
:102790000003C2F200031B7803F10103DAB240F236
:1027A0000003C2F200031A7040F20103C2F20003F8
:1027B0001B7803F10103DAB240F20103C2F2000315
:1027C0001A7040F20203C2F200031B7803F1010306
:1027D000DAB240F20203C2F200031A7040F20403BC
:1027E000C2F200031B8803F101039AB240F2040312
:1027F000C2F200031A8040F26243C2F200031B8857
:1028000003F101039AB240F26243C2F200031A805C
:1028100040F20003C2F200031B78092B40F28081D2
:1028200040F20003C2F200034FF000021A7042F6B9
:102830004063C2F200034FF001025A7040F6105399
:10284000C2F200031B68184607F0E6FB804640F61C
:102850001053C2F200035B68184607F0DDFB064622
:1028600040F2B843C2F200035B899BB2184607F0FE
:10287000D3FB054640F2B843C2F200039B899BB2EA
:10288000184607F0C9FB044642F6C863C2F20003CB
:10289000DB68184607F0C0FB814642F6C863C2F207
:1028A00000039B68184607F0B7FB0346CDF800907D
:1028B0000193404631462A462346FFF731F8024647
:1028C00040F2B843C2F200035A6340F61053C2F21A
:1028D00000031B68184607F09FFB804640F6105324
:1028E000C2F200035B68184607F096FB064640F20A
:1028F000B843C2F200035B899BB2184607F08CFB19
:10290000054640F2B843C2F200039B899BB21846C9
:1029100007F082FB044642F6C863C2F20003DB689C
:10292000184607F079FB814642F6C863C2F20003FD
:102930009B68184607F070FB0346CDF800900193A2
:10294000404631462A462346FFF71EF9024640F22A
:10295000B843C2F200039A6340F61053C2F2000378
:102960009B68184607F058FB804640F61053C2F2A9
:102970000003DB68184607F04FFB064640F2B843F9
:10298000C2F20003DB899BB2184607F045FB0546FF
:1029900040F2B843C2F200031B8A9BB2184607F00C
:1029A0003BFB044642F6C863C2F20003DB681846EC
:1029B00007F032FB814642F6C863C2F200039B680F
:1029C000184607F029FB0346CDF8009001934046D6
:1029D00031462A462346FEF7A3FF024640F2B8439B
:1029E000C2F20003DA6340F61053C2F200039B68A0
:1029F000184607F011FB804640F61053C2F2000360
:102A0000DB68184607F008FB064640F2B843C2F2FE
:102A10000003DB899BB2184607F0FEFA054640F238
:102A2000B843C2F200031B8A9BB2184607F0F4FABF
:102A3000044642F6C863C2F20003DB68184607F09A
:102A4000EBFA814642F6C863C2F200039B6818465F
:102A500007F0E2FA0346CDF8009001934046314674
:102A60002A462346FFF790F8024640F2B843C2F2E6
:102A700000031A6440F2B843C2F20003D3F8348072
:102A800040F2B843C2F20003DE6B40F2B843C2F238
:102A900000039D6B40F2B843C2F200031C6C42F687
:102AA000C863C2F200039B68184607F0B5FA0346F4
:102AB0000093404631462A462346FFF7B5FA0246C0
:102AC00040F2B843C2F200035A6440F2B843C2F283
:102AD0000003D3F8348040F2B843C2F20003DE6B47
:102AE00040F2B843C2F200039D6B40F2B843C2F219
:102AF00000031C6C42F6C863C2F200039B681846D0
:102B000007F08AFA03460093404631462A46234698
:102B1000FFF7B6FB024640F2B843C2F200039A64E4
:102B200040F20103C2F200031B78632B40F20181E3
:102B300040F20103C2F200034FF000021A7042F6A5
:102B40004063C2F200034FF001029A7042F6C8637C
:102B5000C2F200031B78DBB2042B40F0948040F2F9
:102B60006443C2F200034FF00002C4F22F421A6025
:102B700040F26443C2F200031A6840F2B843C2F262
:102B800000035B6C1046194607F094F903461A4699
:102B900040F26843C2F200031A6040F63053C2F2BA
:102BA0000003DA6840F26843C2F200031B68104673
:102BB000194607F089FA03461A4640F26C43C2F2FE
:102BC00000031A6040F63053C2F200039C6840F2E2
:102BD0006843C2F200031A6840F27043C2F2000375
:102BE0001B681046194607F065F90346204619464A
:102BF00007F06AFA03461A4640F26C43C2F2000339
:102C00001B681046194607F057F903461A4640F26A
:102C10006C43C2F200031A6040F26C43C2F200033C
:102C20001A6840F27443C2F200031B68104619464A
:102C300007F042F903461A4640F26C43C2F2000321
:102C40001A6040F26C43C2F200031B68184607F09A
:102C500027FC03469BB21846FEF73CFB40F26C4350
:102C6000C2F200031A6840F27443C2F200031A6011
:102C700040F26843C2F200031A6840F27043C2F2A5
:102C800000031A6055E042F6C863C2F200031B78E5
:102C9000DBB2032B4DD142F6C863C2F200039B683E
:102CA00003F1020242F2E003C0F6E433B3FBF2F3B5
:102CB000184607F0B1F9024640F27843C2F2000329
:102CC0001A6042F6C863C2F20003DB68184607F0D8
:102CD000A3F9024640F27443C2F200031A6040F2C4
:102CE0007C43C2F200034FF000021A6040F27043CE
:102CF000C2F200034FF000021A6040F28043C2F2B9
:102D000000034FF000021A6040F26C43C2F200036D
:102D10004FF000021A6040F28443C2F200034FF009
:102D200000021A6040F26843C2F200034FF0000252
:102D30001A6040F20203C2F200031B78C72B0DD9C0
:102D400040F20203C2F200034FF000021A7042F692
:102D50004063C2F200034FF00102DA7040F2040354
:102D6000C2F200031A8840F2E7339A4227D940F6AC
:102D70004853C2F2000303F5035303F130031A680A
:102D800040F64853C2F20003C3F8A02040F648536F
:102D9000C2F2000303F5035303F130034FF00002C6
:102DA0001A6040F20403C2F200034FF000021A80DE
:102DB00042F64063C2F200034FF001021A7140F282
:102DC0006243C2F200031A8842F20F739A420DD98D
:102DD00040F26243C2F200034FF000021A8042F652
:102DE0004063C2F200034FF001025A7107F1040779
:102DF000BD46BDE8F08300BF80B58AB000AF786003
:102E000039604FF000037B624FF000033B624FF0EC
:102E10000003FB614FF00003BB617B681B8A9BB220
:102E20007B627B6A23F440537B623B68DB887A6A6F
:102E300013437B627B6A9AB27B681A827B689B89A8
:102E40009BB27B627B6A23F4B05323F00C037B625A
:102E50003B689A883B681B8913439AB23B685B893D
:102E600013439BB27A6A13437B627B6A9AB27B6894
:102E70009A817B689B8A9BB27B627B6A23F4407356
:102E80007B623B689B897A6A13437B627B6A9AB256
:102E90007B689A8207F10803184600F095FD7A686E
:102EA0004FF48053C4F201039A4206D07A684FF47B
:102EB000A053C4F201039A4202D17B693B6201E054
:102EC0003B693B627B689B899BB29BB21BB2002B28
:102ED0000FDA3A6A13464FEA83039B184FEA8302DC
:102EE0009A183B681B684FEA4303B2FBF3F3FB619C
:102EF0000EE03A6A13464FEA83039B184FEA8302B7
:102F00009A183B681B684FEA8303B2FBF3F3FB613B
:102F1000FA6948F21F53C5F2EB13A3FB02134FEA01
:102F200053134FEA03137B627B6A4FEA13134FF08C
:102F3000640202FB03F3FA69D31ABB617B689B89C5
:102F40009BB29BB21BB2002B12DABB694FEAC303E0
:102F500003F1320248F21F53C5F2EB13A3FB021335
:102F60004FEA531303F007037A6A13437B6211E0BD
:102F7000BB694FEA031303F1320248F21F53C5F253
:102F8000EB13A3FB02134FEA531303F00F037A6A08
:102F900013437B627B6A9AB27B681A8107F1280728
:102FA000BD4680BD80B483B000AF78600B46FB7037
:102FB000FB78002B08D07B689B899BB243F40053BD
:102FC0009AB27B689A8107E07B689B899BB223F465
:102FD00000539AB27B689A8107F10C07BD4680BC0A
:102FE000704700BF80B483B000AF78600B467B8031
:102FF0007B884FEAC3534FEAD3539AB27B689A80D7
:1030000007F10C07BD4680BC704700BF80B487B095
:1030100000AF786013460A467A807B704FF0000359
:103020003B614FF00003FB604FF00003BB604FF0CB
:1030300000037B617B687B617B88DBB24FEA5313C3
:10304000DBB23B617B8803F01F03FB60FB684FF042
:10305000010202FA03F3BB603B69012B04D17B69D7
:1030600003F10C037B610BE03B69022B04D17B690C
:1030700003F110037B6103E07B6903F114037B61BF
:103080007B78002B06D07B697A691168BA680A439D
:103090001A6007E07B697A691168BA686FEA020210
:1030A0000A401A6007F11C07BD4680BC704700BF8C
:1030B00080B487B000AF78600B467B804FF0000390
:1030C000FB604FF000037B614FF00003BB604FF0EB
:1030D0000003FB747B88DBB24FEA5313DBB2BB60A7
:1030E0007B8803F01F037B617B694FF0010202FACA
:1030F00003F37B61BB68012B06D17B689B899BB284
:103100007A6913407B610FE0BB68022B06D17B68B4
:103110001B8A9BB27A6913407B6105E07B689B8ABE
:103120009BB27A6913407B617B884FEA13239BB281
:10313000FB60FB684FF0010202FA03F3FB607B685F
:103140001B889BB2FA681340FB607B69002B06D09A
:10315000FB68002B03D04FF00103FB7402E04FF03B
:103160000003FB74FB7C184607F11C07BD4680BCBE
:10317000704700BF80B500AF4FF01F00C0F24000A5
:103180004FF0010100F006FD4FF40040C2F20200D2
:103190004FF0010100F028FD40F213504FF0010103
:1031A00000F04CFD80BD00BF80B582B000AF4FF095
:1031B00000604FF0000101F0E9FF4FF4E06001F022
:1031C0005FFF4FF026033B714FF000037B714FF020
:1031D0000703BB714FF00103FB7107F104031846AD
:1031E00001F062FF4FF025033B714FF000037B714C
:1031F0004FF00603BB714FF00103FB7107F10403AD
:10320000184601F051FF4FF038033B714FF00003B7
:103210007B714FF00003BB714FF00103FB7107F1AD
:103220000403184601F040FF07F10807BD4680BDC2
:1032300080B582B000AF4AF21473C0F600037B6021
:1032400040F20003C2F200033B600BE07B681A68A7
:103250003B681A603B6803F104033B607B6803F141
:1032600004037B603A6840F25C43C2F200039A4276
:10327000ECD3094809494FF000028842B8BF40F832
:10328000042BFFF6FAAF01F027FA00F00DF807F172
:103290000807BD4680BD00005C040020E836002021
:1032A00080B400AFFEE700BF80B500AFFFF762FF5C
:1032B000FFF77AFF00F00CFFFFF72AFA01F0F8FBA6
:1032C000FDF7E2FBFCF760FF03F0DCFD03F038FEE6
:1032D00001F072FF00E000BF00F034F801F0F8FFE9
:1032E00042F64063C2F200031B79DBB2002B06D02A
:1032F00042F64063C2F200034FF000021A7142F638
:103300004063C2F200039B78DBB2002B06D042F68A
:103310004063C2F200034FF000029A7042F640632D
:10332000C2F200035B78DBB2002BD4D042F64063DC
:10333000C2F200034FF000025A7001F05FFFFDF788
:1033400093FDC8E780B582B000AF03F085FE034669
:10335000002B00F0538203F0D3FE0346FB7140F2D2
:103360009443C2F200031B78002B40F00882FB79E3
:10337000A3F12B034F2B00F2FB8101A252F823F0A3
:10338000C134000893350008EB34000869350008A3
:10339000713700086337000871370008713700087B
:1033A000713700087137000871370008713700085D
:1033B0005D37000857370008693700087137000883
:1033C00071370008E735000871370008BD3500087F
:1033D000713700087137000811360008713700088E
:1033E00071370008473600081736000871370008A3
:1033F000713700087137000871370008713700080D
:1034000071370008713700087137000871370008FC
:1034100071370008713700087137000865360008F9
:1034200071370008713700087137000871370008DC
:1034300071370008713700087137000871370008CC
:10344000F536000871370008B336000871370008F8
:103450007137000871370008F3370008713700082A
:10346000513700083F3500087137000871370008F0
:1034700071370008713700081535000871370008EA
:1034800071370008393700083337000871370008F2
:103490007137000871370008713700089536000849
:1034A0007137000871370008713700084B37000882
:1034B000713700083F3700087137000845370008AA
:1034C00040F64453C2F200031B78DBB2002B04D158
:1034D0004FF00100FDF76EFB90E140F64453C2F25D
:1034E00000034FF02B02DA7088E140F64453C2F239
:1034F00000031B78DBB2002B04D14FF00100FDF775
:10350000ABFB7BE140F64453C2F200034FF02D02C7
:10351000DA7073E140F64453C2F200031B78DBB269
:10352000002B04D14FF00A00FDF744FB66E140F6A2
:103530004453C2F200034FF06902DA705EE140F6D4
:103540004453C2F200031B78DBB2002B04D14FF0CE
:103550000A00FDF781FB51E140F64453C2F200033B
:103560004FF06402DA7049E140F64453C2F20003BE
:103570001B78DBB2002B04D14FF00100FDF7BEFB3E
:103580003CE140F64453C2F200034FF02E02DA70E1
:1035900034E140F64453C2F200031B78DBB2002B47
:1035A00004D14FF00100FDF7FDFB27E140F6445345
:1035B000C2F200034FF02C02DA701FE140F64453D0
:1035C000C2F200031B78DBB2002B04D14FF00A00DB
:1035D000FDF794FB12E140F64453C2F200034FF0B2
:1035E0003E02DA700AE140F64453C2F200031B784F
:1035F000DBB2002B04D14FF00A00FDF7D3FBFDE056
:1036000040F64453C2F200034FF03C02DA70F5E09A
:1036100000F0F8F8F2E040F64453C2F200031B78E1
:10362000DBB2012B07D140F64453C2F200034FF046
:103630004502DA70E2E042F6C863C2F200034FF0DE
:1036400065025A70DAE042F6C863C2F200034FF036
:1036500064025A7040F64453C2F200034FF0440231
:10366000DA70CBE040F64453C2F200031B78DBB2C1
:10367000012B07D140F64453C2F200034FF052022F
:10368000DA70BBE042F6C863C2F200034FF04502B5
:103690005A70B3E042F6C863C2F200034FF0720200
:1036A0005A7040F64453C2F200034FF07202DA70CF
:1036B000A4E040F64853C2F20003D3F89C30002B3C
:1036C00040F0998040F64853C2F20003D3F84031ED
:1036D000002B40F0908040F64453C2F200034FF0BC
:1036E00000021A7040F64453C2F200034FF06D021C
:1036F000DA7080E040F64853C2F20003D3F89C3001
:10370000002B7AD140F64853C2F20003D3F840317F
:10371000002B72D140F64453C2F200034FF0010275
:103720001A7040F64453C2F200034FF07302DA708D
:1037300063E0FDF729FE61E0FDF766FE5EE0FDF760
:10374000AFFE5BE0FDF7ECFE58E0FDF739FF55E01A
:10375000FDF776FF52E0FDF7C3FF4FE0FEF700F8FC
:103760004CE0FEF74DF849E0FEF78AF800BF45E06F
:1037700042F6C863C2F20003FA795A703EE0FB7960
:103780002F2B22D9FB79392B1FD840F29843C2F254
:1037900000031A6813464FEA83039B184FEA43035A
:1037A0001A4640F29843C2F200031A60FA7940F2D6
:1037B0009843C2F200031B68D318A3F1300240F211
:1037C0009843C2F200031A6018E0FB79582B15D118
:1037D00040F29443C2F200031B78332B00D000E088
:1037E00000BF40F29443C2F200034FF000021A708F
:1037F00004E000BF02E000BF00E000BF07F10807DF
:10380000BD4680BD80B584B000AF4FF000037B6043
:1038100002F04CFF40F64853C2F20003D3F89C205C
:1038200040F64453C2F200031B78DBB24FEAC37385
:10383000D21840F64853C2F20003C3F89C2040F669
:103840004853C2F20003BB604FF00003FB6049E045
:1038500040F20453C2F200031B889BB21946BB68B6
:103860001A7840F20453C2F200035B181A73BB6863
:103870001B781A467B68D3187B60BB6803F1010391
:10388000BB6040F20453C2F200039B889BB203F179
:1038900001039AB240F20453C2F200039A8040F24C
:1038A0000453C2F200031B889BB203F101039AB2D6
:1038B00040F20453C2F200031A8040F20453C2F2F1
:1038C00000031B889AB240F2FF339A4206D940F2B5
:1038D0000453C2F200034FF000021A80FB6803F1A8
:1038E0000103FB60FA6840F2A3139A42B0D940F694
:1038F0004853C2F20003D3F89C30DAB240F6485382
:10390000C2F20003C3F89C2002F014FD07F1040387
:10391000BB604FF00003FB6043E040F20453C2F28F
:1039200000031B889BB21946BB681A7840F2045307
:10393000C2F200035B181A73BB6803F10103BB609A
:1039400040F20453C2F200039B889BB203F10103CF
:103950009AB240F20453C2F200039A8040F2045338
:10396000C2F200031B889BB203F101039AB240F23A
:103970000453C2F200031A8040F20453C2F200035F
:103980001B889AB240F2FF339A4206D940F20453A0
:10399000C2F200034FF000021A80FB6803F101033A
:1039A000FB60FB68032BB8D903F02AFB4FF4884077
:1039B000C4F2000040F227714FF00102FFF726FB2E
:1039C00007F11007BD4680BD80B489B000AF7860B4
:1039D0004FF00003BB614FF000037B614FF0000329
:1039E000FB614FF002033B614FF00003FB604FF0BF
:1039F0000203BB604FF46053C4F202039B6803F000
:103A00000C03BB61BB69042B0AD0082B0FD0002B21
:103A100060D17A684FF41053C0F2F403136060E091
:103A20007A684FF49053C0F27A03136059E04FF470
:103A30006053C4F202035B6803F480034FEA9353BC
:103A4000FB604FF46053C4F202035B6803F03F0372
:103A5000BB60FB68002B14D04FF49053C0F27A0384
:103A6000BA68B3FBF2F24FF46053C4F20203596830
:103A700047F6C0730B404FEA931303FB02F3FB615D
:103A800013E04FF41053C0F2F403BA68B3FBF2F240
:103A90004FF46053C4F20203596847F6C0730B40F9
:103AA0004FEA931303FB02F3FB614FF46053C4F23C
:103AB00002035B6803F440334FEA134303F101034D
:103AC0004FEA43033B61FA693B69B2FBF3F27B685F
:103AD0001A6006E07A684FF41053C0F2F4031360E2
:103AE00000BF4FF46053C4F202039B6803F0F0037D
:103AF000BB61BB694FEA1313BB6140F20803C2F21A
:103B00000003BA699B181B78DBB27B617B681A687B
:103B10007B6922FA03F27B685A604FF46053C4F267
:103B200002039B6803F4E053BB61BB694FEA932334
:103B3000BB6140F20803C2F20003BA699B181B780C
:103B4000DBB27B617B685A687B6922FA03F27B688F
:103B50009A604FF46053C4F202039B6803F460431D
:103B6000BB61BB694FEA5333BB6140F20803C2F249
:103B70000003BA699B181B78DBB27B617B685A68CB
:103B80007B6922FA03F27B68DA6007F12407BD46FD
:103B900080BC704780B483B000AF78600B46FB7088
:103BA000FB78002B0CD04FF46053C4F202034FF4A7
:103BB0006052C4F20202116B7A680A431A630DE084
:103BC0004FF46053C4F202034FF46052C4F2020295
:103BD000116B7A686FEA02020A401A6307F10C0758
:103BE000BD4680BC704700BF80B483B000AF786032
:103BF0000B46FB70FB78002B0CD04FF46053C4F2E3
:103C000002034FF46052C4F20202116C7A680A4354
:103C10001A640DE04FF46053C4F202034FF4605293
:103C2000C4F20202116C7A686FEA02020A401A6456
:103C300007F10C07BD4680BC704700BF80B483B05D
:103C400000AF78600B46FB70FB78002B0CD04FF474
:103C50006053C4F202034FF46052C4F20202516C8A
:103C60007A680A435A640DE04FF46053C4F20203C9
:103C70004FF46052C4F20202516C7A686FEA020299
:103C80000A405A6407F10C07BD4680BC704700BF6C
:103C900080B483B000AF78600B46FB70FB78002BDC
:103CA0000CD04FF46053C4F202034FF46052C4F2DC
:103CB0000202116A7A680A431A620DE04FF46053F7
:103CC000C4F202034FF46052C4F20202116A7A682D
:103CD0006FEA02020A401A6207F10C07BD4680BC77
:103CE000704700BF80B483B000AF78600B46FB70B4
:103CF000FB78002B0CD04FF46053C4F202034FF456
:103D00006052C4F20202516A7A680A435A620DE0B4
:103D10004FF46053C4F202034FF46052C4F2020243
:103D2000516A7A686FEA02020A405A6207F10C0788
:103D3000BD4680BC704700BF80B485B000AF7860DE
:103D400039604FF00003FB604FF00003FB727B68AB
:103D50005B68FB60FB6823F0407323F48073FB60B7
:103D60003B681B794FEA03223B681B681343FA68E0
:103D70001343FB607B68FA685A607B689B68FB6052
:103D8000FA684FF2FD73CCF2FF031340FB603B680F
:103D90001A693B68DB681A433B689B681A433B68B7
:103DA0005B794FEA43031343FA681343FB607B6874
:103DB000FA689A607B68DB6AFB60FB6823F4700337
:103DC000FB603B681B7D03F1FF33DAB2FB7A1343E0
:103DD000FB72FB7A4FEA0353FA681343FB607B687C
:103DE000FA68DA6207F11407BD4680BC704700BF6D
:103DF00080B485B000AF78604FF00003FB604FF4F3
:103E00000C53C4F201035B68FB60FA6843F2E00301
:103E1000CFF6FC731340FB607B681A687B685B68B5
:103E20001A437B689B681A437B68DB681343FA6814
:103E30001343FB604FF40C53C4F20103FA685A6059
:103E400007F11407BD4680BC704700BF80B483B043
:103E500000AF78600B46FB70FB78002B06D07B68C8
:103E60009B6843F001027B689A6005E07B689B6871
:103E700023F001027B689A6007F10C07BD4680BC05
:103E8000704700BF80B485B000AF7860F970BA7039
:103E90007B704FF00003FB604FF00003BB60FB78CA
:103EA000092B27D97B68DB68FB60FA7813464FEA59
:103EB00043039B18A3F11E034FF0070202FA03F31A
:103EC000BB60BB686FEA0303FA681340FB60797854
:103ED000FA7813464FEA43039B18A3F11E0301FA35
:103EE00003F3BB60FA68BB681343FB607B68FA6846
:103EF000DA6022E07B681B69FB60FA7813464FEAC0
:103F000043039B184FF0070202FA03F3BB60BB6840
:103F10006FEA0303FA681340FB607978FA78134676
:103F20004FEA43039B1801FA03F3BB60FA68BB68CE
:103F30001343FB607B68FA681A61BB78062B27D8AD
:103F40007B685B6BFB60BB7803F1FF3213464FEA83
:103F500083039B184FF01F0202FA03F3BB60BB6898
:103F60006FEA0303FA681340FB60F978BB7803F14A
:103F7000FF3213464FEA83039B1801FA03F3BB6039
:103F8000FA68BB681343FB607B68FA685A6351E0C8
:103F9000BB780C2B27D87B681B6BFB60BA78134669
:103FA0004FEA83039B18A3F123034FF01F0202FA89
:103FB00003F3BB60BB686FEA0303FA681340FB605E
:103FC000F978BA7813464FEA83039B18A3F12303C9
:103FD00001FA03F3BB60FA68BB681343FB607B68BC
:103FE000FA681A6326E07B68DB6AFB60BA781346DE
:103FF0004FEA83039B18A3F141034FF01F0202FA1B
:1040000003F3BB60BB686FEA0303FA681340FB600D
:10401000F978BA7813464FEA83039B18A3F141035A
:1040200001FA03F3BB60FA68BB681343FB607B686B
:10403000FA68DA6207F11407BD4680BC704700BF1A
:1040400080B483B000AF78607B689B6843F08042A7
:104050007B689A6007F10C07BD4680BC704700BFC3
:1040600080B483B000AF78600B46FB70FB78002B08
:1040700006D07B689B6843F480727B689A6005E099
:104080007B689B6823F480727B689A6007F10C0759
:10409000BD4680BC704700BF80B483B000AF78607D
:1040A0000B46FB70FB78002B06D07B689B6843F4C3
:1040B00000727B689A6005E07B689B6823F400725D
:1040C0007B689A6007F10C07BD4680BC704700BF53
:1040D00080B582B000AF4FF48050C4F202004FF0C0
:1040E00008014FF0010200F0A3FA4FF48050C4F22F
:1040F00002004FF009014FF0010200F099FA4FF46D
:104100000060C4F202004FF008014FF0030200F01B
:104110008FFA4FF440733B604FF002033B714FF056
:1041200003037B714FF00003BB714FF00003FB7181
:104130003B464FF48050C4F20200194600F09CF94F
:104140004FF480733B604FF002033B714FF0030369
:104150007B714FF00003BB714FF00003FB713B46D6
:104160004FF40060C4F20200194600F085F94FF0E8
:1041700040033B604FF001033B714FF00003BB7104
:104180004FF003037B714FF00003FB713B464FF48C
:104190004060C4F20200194600F06EF94FF080034F
:1041A0003B604FF000033B714FF003037B714FF016
:1041B0000003FB713B464FF44060C4F20200194615
:1041C00000F05AF94FF00000C4F202004FF009016C
:1041D0004FF0070200F02CFA4FF00000C4F202008A
:1041E0004FF00A014FF0070200F022FA4FF400737B
:1041F0003B604FF00003BB714FF00103FB714FF0C8
:1042000002033B714FF003037B713B464FF000000C
:10421000C4F20200194600F02FF94FF480633B60AE
:104220004FF00003BB714FF00103FB714FF002032D
:104230003B714FF003037B713B464FF00000C4F22B
:104240000200194600F018F94FF00000C4F2020015
:104250004FF002014FF0070200F0EAF94FF00000C2
:10426000C4F202004FF003014FF0070200F0E0F942
:104270004FF004033B604FF00003BB714FF00103AC
:10428000FB714FF002033B714FF003037B713B4620
:104290004FF00000C4F20200194600F0EDF84FF0B4
:1042A00008033B604FF00003BB714FF00103FB714B
:1042B0004FF002033B714FF003037B713B464FF01D
:1042C0000000C4F20200194600F0D6F84FF00203D5
:1042D0003B604FF001033B714FF00003BB714FF0A7
:1042E00003037B714FF00003FB713B464FF000006E
:1042F000C4F20200194600F0BFF84FF0C1033B6062
:104300004FF003033B714FF00003FB713B464FF04E
:104310000000C4F20200194600F0AEF84FF03F036F
:104320003B604FF003033B714FF00003FB713B46D2
:104330004FF40060C4F20200194600F09DF84FF0FF
:1043400003033B604FF003033B714FF00003FB712D
:104350003B464FF48060C4F20200194600F08CF82E
:104360004FF030033B604FF003033B714FF000030D
:10437000FB713B464FF00000C4F20200194600F00A
:104380007BF84FF0C0033B604FF000033B714FF0F0
:1043900003037B714FF00003FB713B464FF48060D9
:1043A000C4F20200194600F067F84FF020033B60AA
:1043B0004FF001033B714FF00003BB714FF003035B
:1043C0007B714FF00003FB713B464FF48060C4F2F9
:1043D0000200194600F050F84FF03F033B604FF0E9
:1043E00001033B714FF00003BB714FF003037B717E
:1043F0004FF00003FB713B464FF44060C4F20200F3
:10440000194600F039F84FF40060C4F202004FF092
:104410000A014FF0060200F00BF94FF40060C4F2FD
:1044200002004FF00B014FF0060200F001F94FF4CB
:104430000060C4F202004FF00C014FF0060200F0E1
:10444000F7F84FF4E0533B604FF002033B714FF03D
:104450000003BB714FF003037B714FF00203FB714C
:104460003B464FF40060C4F20200194600F004F825
:1044700007F10807BD4680BD80B487B000AF786003
:1044800039604FF000037B614FF000033B614FF058
:104490000003FB604FF000037B6186E07B694FF017
:1044A000010202FA03F33B613B681A683B6913405F
:1044B000FB60FA683B699A4273D17B681A687B6932
:1044C0004FEA43034FF0030101FA03F36FEA0303DA
:1044D0001A407B681A607B681A683B681B7919462A
:1044E0007B694FEA430301FA03F31A437B681A60BE
:1044F0003B681B79012B03D03B681B79022B34D11D
:104500007B689A687B694FEA43034FF0030101FA25
:1045100003F36FEA03031A407B689A607B689A682A
:104520003B685B7919467B694FEA430301FA03F361
:104530001A437B689A607B685A687B699BB24FF02C
:10454000010101FA03F36FEA03031A407B685A6022
:104550007B685A683B689B7919467B699BB201FA74
:1045600003F39BB21A437B685A607B68DA687B6905
:104570009BB24FEA43034FF0030101FA03F36FEAE2
:1045800003031A407B68DA607B68DA683B68DB7992
:1045900019467B694FEA430301FA03F31A437B6828
:1045A000DA607B6903F101037B617B690F2B7FF686
:1045B00075AF07F11C07BD4680BC704780B485B05D
:1045C00000AF78600B467B804FF00003FB737B6885
:1045D0001A697B881340002B03D04FF00103FB7353
:1045E00002E04FF00003FB73FB7B184607F1140752
:1045F000BD4680BC704700BF80B483B000AF786018
:104600000B467B807B687A881A8307F10C07BD46CE
:1046100080BC704780B483B000AF78600B467B806D
:104620007B687A885A8307F10C07BD4680BC7047C7
:1046300080B485B000AF786013460A467A807B70FC
:104640004FF00003FB604FF00003BB607A787B887B
:1046500003F007034FEA830302FA03F3FB607B884E
:104660004FEAD3039BB21A467B884FEAD3039BB22F
:1046700019467B6801F1080153F821107B8803F08B
:1046800007034FEA83034FF00F0000FA03F36FEACA
:10469000030319407B6802F1080243F822107B886B
:1046A0004FEAD3039BB21A467B6802F1080253F823
:1046B0002220FB681343BB607B884FEAD3039BB285
:1046C0001A467B6802F10802B96843F8221007F124
:1046D0001407BD4680BC704780B500AF4FF46053EF
:1046E000C4F202034FF46052C4F20202126842F0B4
:1046F00001021A604FF46053C4F202034FF000024B
:104700009A604FF46053C4F202034FF46052C4F253
:104710000202126822F0847222F480321A604FF48E
:104720006053C4F2020343F21002C2F200425A6024
:104730004FF46053C4F202034FF46052C4F2020219
:10474000126822F480221A604FF46053C4F202030C
:104750004FF00002DA6000F009F84FF46D43CEF23A
:1047600000034FF000629A6080BD00BF80B483B048
:1047700000AF4FF000037B604FF000033B604FF44D
:104780006053C4F202034FF46052C4F20202126892
:1047900042F480321A604FF46053C4F202031B6883
:1047A00003F400333B607B6803F101037B603B68EB
:1047B000002B03D17B68B3F5A06FECD14FF46053AD
:1047C000C4F202031B6803F40033002B03D04FF044
:1047D00001033B6002E04FF000033B603B68012BAC
:1047E00040F082804FF46053C4F202034FF46052F1
:1047F000C4F20202126C42F080521A644FF4E04399
:10480000C4F200034FF4E042C4F20002126842F422
:1048100080421A604FF46053C4F202034FF46052B6
:10482000C4F2020292689A604FF46053C4F2020329
:104830004FF46052C4F20202926842F400429A605D
:104840004FF46053C4F202034FF46052C4F2020208
:10485000926842F4C0529A604FF46053C4F202036B
:1048600045F20842C0F240725A604FF46053C4F2FD
:1048700002034FF46052C4F20202126842F08072E6
:104880001A6000BF4FF46053C4F202031B6803F0C8
:104890000073002BF6D04FF47053C4F2020340F2C1
:1048A00005621A604FF46053C4F202034FF4605281
:1048B000C4F20202926822F003029A604FF460533D
:1048C000C4F202034FF46052C4F20202926842F052
:1048D00002029A6000BF4FF46053C4F202039B6867
:1048E00003F00C03082BF6D107F10C07BD4680BC82
:1048F000704700BF80B485B000AF786039604FF07A
:104900000003FB607B681B68FB60FA6848F23F03AA
:10491000CFF21C031340FB603B681A683B68DB68FE
:104920001A433B685B691A433B689B691A433B68BF
:10493000DB691A433B681B6A1A433B685B6A1A438C
:104940003B689B6A1A433B685B6B1A433B689B6BF3
:104950001343FA681343FB607B68FA681A607B684C
:104960005B69FB60FB6823F00703FB603B68DA6A66
:104970003B681B6B1343FA681343FB607B68FA6860
:104980005A613B681A697B685A603B685A687B6861
:104990009A603B689A687B68DA6007F11407BD4645
:1049A00080BC704780B483B000AF78600B46FB706A
:1049B000FB78002B06D07B681B6843F001027B6804
:1049C0001A6005E07B681B6823F001027B681A60AF
:1049D00007F10C07BD4680BC704700BF80B485B0AE
:1049E00000AFF860B9601346FB71BB6803F0800349
:1049F000002B0FD0FB79002B06D0FB685B6943F0DE
:104A00008002FB685A6105E0FB685B6923F0800265
:104A1000FB685A61BB68802B15D0FB79002B08D04E
:104A2000FB681A68BB6803F01E031A43FB681A6030
:104A300009E0FB681A68BB6803F01E036FEA030312
:104A40001A40FB681A6007F11407BD4680BC704726
:104A500080B485B000AF786039607A6846F20F4361
:104A6000C4F202039A4205D84FF4C043C4F20203D1
:104A7000FB6004E04FF4C843C4F20203FB603B68F0
:104A800003F00053002B07D03B6823F0F02323F002
:104A90008213FA68D36006E03B6823F0F02323F02A
:104AA0008213FA68936007F11407BD4680BC704713
:104AB00080B59AB000AF4FF000037B660CE042F681
:104AC0004863C2F200037A6E4FF0000123F812101F
:104AD0007B6E03F101037B667B6E3F2BEFD94FF0BA
:104AE00000033B6042F64863C2F20003BB6042F23F
:104AF0004C03C4F201037B604FF00003FB604FF0F6
:104B000040033B614FF000037B614FF48063BB6166
:104B10004FF40063FB614FF400533B624FF480732A
:104B20007B624FF40033BB624FF00403FB624FF033
:104B300001033B634FF000037B634FF00003BB6353
:104B40003B4646F21040C4F202001946FFF7D2FE7F
:104B500046F21040C4F202004FF00101FFF722FFBD
:104B60004FF000037B654FF00003BB654FF000037F
:104B7000FB654FF000033B6607F154031846FFF74F
:104B800037F94FF00003FB634FF0010387F8403023
:104B90004FF0010387F841304FF000037B644FF082
:104BA0006063BB644FF00003FB644FF0080387F8B9
:104BB000503007F13C034FF40050C4F20100194695
:104BC000FFF7BAF84FF40050C4F201004FF00F01A4
:104BD0004FF001024FF00003FFF754F94FF400507B
:104BE000C4F201004FF00E014FF002024FF000033B
:104BF000FFF748F94FF40050C4F201004FF00901EB
:104C00004FF003024FF00003FFF73CF94FF4005060
:104C1000C4F201004FF008014FF004024FF000030E
:104C2000FFF730F94FF40050C4F201004FF00A01D1
:104C30004FF005024FF00003FFF724F94FF4005046
:104C4000C4F201004FF00B014FF006024FF00003D9
:104C5000FFF718F94FF40050C4F201004FF00C01B7
:104C60004FF007024FF00003FFF70CF94FF400502C
:104C7000C4F201004FF00D014FF008024FF00003A5
:104C8000FFF700F94FF40050C4F201004FF00101AA
:104C9000FFF702FA4FF40050C4F201004FF0010197
:104CA000FFF7DEF946F21040C4F202004FF01001A7
:104CB0004FF00102FFF792FE4FF40050C4F20100E2
:104CC0004FF00101FFF7C2F84FF40050C4F20100A9
:104CD000FFF7B6F907F16807BD4680BD80B485B01F
:104CE00000AF0346FB714FF00003BB60FB79BB8153
:104CF0004FF00003FB7312E0BA8942F64863C2F238
:104D0000000333F812309BB2BA68D318BB60BB897A
:104D100003F10803BB81FB7B03F10103FB73FB7B06
:104D2000072BE9D9BB684FEAD303BB60BB681846C1
:104D300007F11407BD4680BC704700BF80B483B044
:104D400000AF786039607B683A6802FB03F37B60F0
:104D50007A6844F6D353C1F26203A3FB02134FEA0D
:104D600093137B607B6840F6C41202FB03F37B6005
:104D70007A6840F20113C0F21003A3FB0213D21AA7
:104D80004FEA52029B184FEAD3237B607B68184698
:104D900007F10C07BD4680BC704700BF80B500AF6F
:104DA0004FF00000FFF79AFF0346184640F2F671F5
:104DB000FFF7C4FF024640F61053C2F200031A6028
:104DC0004FF00100FFF78AFF0346184640F2F671E4
:104DD000FFF7B4FF024640F61053C2F200035A60D8
:104DE0004FF00200FFF77AFF0346184640F2F671D3
:104DF000FFF7A4FF024640F61053C2F200039A6088
:104E00004FF00300FFF76AFF0346184640F2F671C1
:104E1000FFF794FF024640F61053C2F20003DA6037
:104E200080BD00BF80B500AF4FF00400FFF756FF14
:104E30000346184640F26D61FFF780FF024640F6D8
:104E40001053C2F200031A614FF00500FFF746FF4E
:104E50000346184640F23D61FFF770FF024640F6F8
:104E60001053C2F200035A6180BD00BF80B500AF8D
:104E70004FF00600FFF732FF034618464FF47A71F1
:104E8000FFF75CFF03461A4640F61053C2F20003D8
:104E90009A614FF00700FFF721FF034618464FF4D1
:104EA0007A71FFF74BFF03461A4640F61053C2F2E1
:104EB0000003DA6180BD00BF80B582B000AF7860CA
:104EC0007A684FF44053C4F201039A420CD14FF474
:104ED00080504FF00101FEF705FF4FF480504FF076
:104EE0000001FEF7FFFE26E07A684FF46053C4F23B
:104EF00000039A420CD14FF480404FF00101FEF7BD
:104F0000C7FE4FF480404FF00001FEF7C1FE12E0F3
:104F10007A684FF47053C4F200039A420BD14FF4F5
:104F200000404FF00101FEF7B3FE4FF400404FF098
:104F30000001FEF7ADFE07F10807BD4680BD00BFCA
:104F400080B485B000AF786039604FF00003FB811A
:104F50007B681B88FB81FB8903F44153FB813B6821
:104F60001A883B685B8813439AB23B689B8813435B
:104F70009AB23B68DB8813439AB23B681B891343A0
:104F80009AB23B685B8913439AB23B689B8913438F
:104F90009AB23B68DB8913439AB2FB891343FB81C6
:104FA0007B68FA891A807B689B8B9BB223F4006331
:104FB0009AB27B689A833B681A8A7B681A8207F1E7
:104FC0001407BD4680BC704780B483B000AF7860E2
:104FD0000B46FB70FB78002B08D07B681B889BB2CC
:104FE00043F040039AB27B681A8007E07B681B8815
:104FF0009BB223F040039AB27B681A8007F10C073A
:10500000BD4680BC704700BF80B483B000AF7860FD
:105010007B689B899BB2184607F10C07BD4680BC94
:10502000704700BF80B483B000AF78600B467B80D0
:105030007B687A889A8107F10C07BD4680BC70476F
:1050400080B485B000AF78600B467B804FF00003E2
:10505000FB737B681B899AB27B8813409BB2002B41
:1050600003D04FF00103FB7302E04FF00003FB732A
:10507000FB7B184607F11407BD4680BC704700BF94
:1050800080B483B000AF78604FF46D43CEF200037C
:105090007A6842F0BF6242F40032DA6007F10C072E
:1050A000BD4680BC704700BF80B485B000AF78605B
:1050B0004FF00003FB734FF00003BB734FF00F037F
:1050C0007B737B68DB78002B45D04FF46D43CEF2C9
:1050D0000003DB686FEA030303F4E0634FEA132382
:1050E000FB73FB7BC3F10403BB737A7BFB7B42FA4C
:1050F00003F37B737B685B781A46BB7B02FA03F38E
:10510000FB737B689A787B7B1340DAB2FB7B13439B
:10511000FB73FB7B4FEA0313FB734FF46143CEF247
:1051200000037A6812789B18FA7B83F800234FF407
:105130006143CEF200037A6812784FEA5212D2B27B
:105140007968097801F01F014FF0010000FA01F1C0
:1051500043F8221014E04FF46143CEF200037A6862
:1051600012784FEA5212D2B27968097801F01F0121
:105170004FF0010000FA01F102F1200243F8221081
:1051800007F11407BD4680BC704700BF80B483B0F0
:1051900000AF786039604FF46D43CEF200033A6897
:1051A00022F0604222F07F0279680A439A6007F198
:1051B0000C07BD4680BC704780B400AF40F6445336
:1051C000C2F200034FF000021A7040F64453C2F2DC
:1051D00000034FF000029A7040F64453C2F20003FD
:1051E0004FF000025A7040F64453C2F200034FF0F1
:1051F0000002DA70BD4680BC704700BF80B500AFCA
:1052000040F64453C2F200031B78DBB2002B2BD1D3
:1052100040F64453C2F20003DB78DBB2002B56D0D9
:1052200040F64453C2F20003DB78DBB2184601F0CB
:10523000A7FF40F64453C2F20003DB78DBB2184606
:1052400001F09EFF4FF48050C4F2010040F227713C
:105250004FF00102FDF7DAFE40F64453C2F20003BC
:105260004FF00002DA7032E040F64453C2F200031D
:105270001B78DBB2012B2AD140F64453C2F2000363
:10528000DB78DBB2002B22D040F64453C2F200039D
:10529000DB78DBB2184601F073FF40F64453C2F2EC
:1052A0000003DB78DBB2184601F06AFF4FF4805050
:1052B000C4F2010040F227714FF00102FDF7A6FE93
:1052C00040F64453C2F200034FF00002DA7080BD92
:1052D00080B582B000AF40F64453C2F200031B78A1
:1052E000DBB2002B40F07C8101F0A2FE0346002BD4
:1052F00000F0B28201F0C4FE0346BB7140F6445395
:10530000C2F200035B78DBB2062B00F2618101A2DE
:1053100052F823F031530008495300087D53000828
:10532000C55300080D540008555400089D5400084A
:10533000BB79FF2B40F0968240F64453C2F2000343
:105340004FF001025A708DE2BB79FF2B0ED140F66F
:105350004453C2F200034FF002025A7040F29C43E1
:10536000C2F200034FF000021A7088E240F6445384
:10537000C2F200034FF000025A7080E240F29C43F8
:10538000C2F200031A78114640F2A043C2F20003B1
:10539000B879585402F10103DAB240F29C43C2F2E8
:1053A00000031A7040F29C43C2F200031B78032BE7
:1053B00040F25A8240F64453C2F200034FF0030217
:1053C0005A7051E240F64453C2F20003BA799A701F
:1053D000BB79092B07D840F64453C2F200034FF0C3
:1053E00004025A704BE2BB790A2B07D140F64453B2
:1053F000C2F200034FF005025A7040E240F64453F7
:10540000C2F200034FF000025A7038E240F29C43AF
:10541000C2F200031A78114640F2A043C2F2000320
:10542000B879585402F10103DAB240F29C43C2F257
:1054300000031A7040F29C43C2F200031B78132B46
:1054400040F2148240F64453C2F200034FF00602C9
:105450005A700BE240F29C43C2F200031A781146E4
:1054600040F2A043C2F20003B879585402F101039C
:10547000DAB240F29C43C2F200031A7040F29C433D
:10548000C2F200031B78072B40F2F28140F644532E
:10549000C2F200034FF006025A70E9E140F2B44351
:1054A000C2F200034FF000021A704FF00003FB71CC
:1054B00015E0FA7940F2A043C2F200039A5C40F290
:1054C000B443C2F200031B78D318DAB240F2B443FB
:1054D000C2F200031A70FB7903F10103FB7140F281
:1054E0009C43C2F200031B78FA799A42E1D340F25E
:1054F000B443C2F200031B78BA799A425FD140F6F6
:105500004853C2F2000303F5035303F134031B783D
:10551000DBB2002B53D0D14B3B6040F2A043C2F230
:1055200000031A783B681A703B6803F1010240F2ED
:10553000A043C2F200035B781370C94B3B6040F29A
:10554000A043C2F200039A783B681A703B6803F1EB
:10555000010240F2A043C2F20003DB78137040F670
:105560004853C2F200033B6040F64453C2F20003CA
:105570009B78DBB24FEA03133A68D3183B603B6871
:1055800003F1A4033B604FF00403FB710FE0FB79D0
:10559000A3F104033A68D218F97940F2A043C2F2A9
:1055A00000035B5C1370FB7903F10103FB7140F2B4
:1055B0009C43C2F200031B78FA799A42E7D340F683
:1055C0004453C2F200034FF000025A7000BF56E18C
:1055D00040F64453C2F200034FF000025A703BE120
:1055E00040F64453C2F200031B78DBB2012B40F0BB
:1055F000468101F01DFD0346002B00F0408101F0C3
:105600003FFD0346BB7140F64453C2F200035B7892
:10561000DBB2062B00F2178101A252F823F000BF83
:105620003D5600085556000847580008895600089E
:10563000D15600081957000861570008BB79FF2BA5
:1056400040F0188140F64453C2F200034FF00102CB
:105650005A700FE1BB79FF2B0ED140F64453C2F2D2
:1056600000034FF003025A7040F29C43C2F2000361
:105670004FF000021A7002E140F64453C2F20003F8
:105680004FF000025A70FAE040F64453C2F20003B1
:10569000BA799A70BB79092B07D840F64453C2F205
:1056A00000034FF004025A70E9E0BB790A2B07D1DE
:1056B00040F64453C2F200034FF005025A70DEE098
:1056C00040F64453C2F200034FF000025A70D6E095
:1056D00040F29C43C2F200031A78114640F2A04304
:1056E000C2F20003B879585402F10103DAB240F271
:1056F0009C43C2F200031A7040F29C43C2F20003C2
:105700001B780F2B40F2B88040F64453C2F20003DE
:105710004FF006025A70AFE040F29C43C2F2000321
:105720001A78114640F2A043C2F20003B8795854E7
:1057300002F10103DAB240F29C43C2F200031A7094
:1057400040F29C43C2F200031B78032B40F2968088
:1057500040F64453C2F200034FF006025A708DE047
:1057600040F2B443C2F200034FF000021A704FF04F
:105770000003FB7115E0FA7940F2A043C2F2000386
:105780009A5C40F2B443C2F200031B78D318DAB239
:1057900040F2B443C2F200031A70FB7903F1010333
:1057A000FB7140F29C43C2F200031B78FA799A42E3
:1057B000E1D340F2B443C2F200031B78BA799A42B3
:1057C00039D140F64853C2F2000303F5035303F105
:1057D00034031B78DBB2002B2DD040F64853C2F2C5
:1057E00000033B6040F64453C2F200039B78DBB2F7
:1057F0004FEA03133A68D3183B603B6803F1A403F4
:105800003B604FF00003FB710DE0FB793A68D21862
:10581000F97940F2A043C2F200035B5C1370FB799C
:1058200003F10103FB7140F29C43C2F200031B78B9
:10583000FA799A42E9D340F64453C2F200034FF09A
:1058400000025A701BE040F64453C2F200034FF0CE
:1058500000025A7000BF12E000BF10E0DA2E0020F4
:10586000D82E002000BF0AE000BF08E000BF06E01D
:1058700000BF04E000BF02E000BF00E000BF07F18E
:105880000807BD4680BD00BF98B500AF40F648533D
:10589000C2F2000303F5035303F134031B78DBB2B8
:1058A000002B00F0468540F64853C2F2000303F592
:1058B000035303F12C031A6849F63F439A4200F25E
:1058C000388540F64853C2F200035A6840F6105338
:1058D000C2F200031B68D21840F64853C2F200031C
:1058E0005A6040F64853C2F200031A6940F610535A
:1058F000C2F200035B68D21840F64853C2F20003BC
:105900001A6140F64853C2F20003DA6940F61053B8
:10591000C2F200039B68D21840F64853C2F200035B
:10592000DA6140F64853C2F200039A6A40F6105317
:10593000C2F20003DB68D21840F64853C2F20003FB
:105940009A6240F64853C2F200035A6E40F6105372
:10595000C2F200031B69D21840F64853C2F200039A
:105960005A6640F64853C2F200031A6F40F61053CD
:10597000C2F200035B69D21840F64853C2F200033A
:105980001A6740F64853C2F200035A6B40F2B8431C
:10599000C2F200035B899BB2D21840F64853C2F2B0
:1059A00000035A6340F64853C2F200031A6C40F2F7
:1059B000B843C2F200039B899BB2D21840F6485309
:1059C000C2F200031A6440F64853C2F20003DA6CD4
:1059D00040F2B843C2F20003DB899BB2D21840F612
:1059E0004853C2F20003DA6440F64853C2F200039F
:1059F0009A6D40F2B843C2F200031B8A9BB2D218E0
:105A000040F64853C2F200039A6540F64853C2F28A
:105A10000003DA6F42F6C863C2F200039B68D21833
:105A200040F64853C2F20003DA6740F64853C2F228
:105A30000003D3F8882042F6C863C2F20003DB6893
:105A4000D21840F64853C2F20003C3F8882040F64B
:105A50004853C2F20003D3F8902040F61053C2F22C
:105A600000039B69D21840F64853C2F20003C3F802
:105A7000902040F64853C2F20003D3F8942040F639
:105A80001053C2F20003DB69D21840F64853C2F249
:105A90000003C3F8942040F64853C2F20003D3F841
:105AA0004C4140F2B843C2F200035B6B184604F06D
:105AB000D1FC0346E21840F64853C2F20003C3F893
:105AC0004C2140F64853C2F20003D3F8644140F23F
:105AD000B843C2F20003DB6B184604F0BBFC03467C
