:020000040800F2
:100000005C3E002041240008B1240008B12400080F
:10001000B1240008B1240008B12400080000000049
:10002000000000000000000000000000B1240008F3
:10003000B124000800000000B1240008591900088C
:10004000B1240008B1240008B1240008B12400083C
:10005000B1240008B1240008B1240008B12400082C
:10006000B1240008B1240008B1240008B12400081C
:10007000B1240008B1240008B1240008B12400080C
:10008000B1240008B1240008B1240008B1240008FC
:10009000B1240008B1240008B1240008B1240008EC
:1000A000B124000851120008B1240008B12400084E
:1000B000B1240008B1240008B1240008B1240008CC
:1000C000B1240008B1240008B1240008B1240008BC
:1000D000B1240008895C0008E95D0008B12400082B
:1000E000B1240008B1240008B1240008B12400089C
:1000F00069120008B1240008B1240008B1240008E6
:10010000B1240008B1240008B1240008B12400087B
:10011000B1240008B1240008B1240008B12400086B
:1001200081120008B1240008B1240008B12400089D
:10013000B1240008B1240008B1240008B12400084B
:10014000B1240008B1240008B1240008B12400083B
:10015000B1240008B1240008B1240008B12400082B
:10016000B1240008B1240008B1240008B12400081B
:10017000B1240008B1240008B1240008B12400080B
:10018000B1240008B124000880B586B000AF00F0AB
:1001900073FB4FF47050C4F2000003F065FF4FF0A2
:1001A0000003BB804FF48273FB804FF400633B81FC
:1001B0004FF000037B814FF00103BB814FF40073CC
:1001C000FB814FF000033B824FF000037B8207F17D
:1001D00004034FF47050C4F20000194603F088FF86
:1001E0004FF47050C4F200004FF0010103F0C4FF5F
:1001F0004FF44060C4F202004FF0010103F0D4FA62
:1002000000F05CFA07F11807BD4680BD80B485B0E8
:1002100000AF0346FB71FB7903F00103FB73FB7B2B
:10022000002B07D04FF44063C4F202034FF00202E8
:100230001A8306E04FF44063C4F202034FF0020257
:100240005A83FB794FEA5303FB71FB7903F00103F7
:10025000FB73FB7B002B07D04FF44063C4F2020317
:100260004FF004021A8306E04FF44063C4F2020325
:100270004FF004025A83FB794FEA5303FB71FB7979
:1002800003F00103FB73FB7B002B07D04FF44063AB
:10029000C4F202034FF008021A8306E04FF44063F1
:1002A000C4F202034FF008025A83FB794FEA53036A
:1002B000FB71FB7903F00103FB73FB7B002B07D081
:1002C0004FF44063C4F202034FF010021A8306E0B9
:1002D0004FF44063C4F202034FF010025A83FB79DB
:1002E0004FEA5303FB71FB7903F00103FB73FB7BC4
:1002F000002B07D04FF44063C4F202034FF02002FA
:100300001A8306E04FF44063C4F202034FF0200268
:100310005A8307F11407BD4680BC704780B582B090
:1003200000AF4FF40043FB8040F2B843C2F2000339
:1003300093F83230DBB2002B03D0FB8803F5804307
:10034000FB8040F2B843C2F200031B8DBB804FF02C
:100350000100FFF75BFF4FF44060C4F202004FF072
:10036000010103F02FFAFB884FF47050C4F2000033
:10037000194603F02FFF00BF4FF47050C4F2000085
:100380004FF0800103F034FF0346002BF4D14FF40B
:100390007050C4F2000003F00FFF0346FB80BB88DF
:1003A0004FF47050C4F20000194603F013FF00BF71
:1003B0004FF47050C4F200004FF0800103F018FFBA
:1003C0000346002BF4D14FF47050C4F2000003F048
:1003D000F3FE0346BB804FF44060C4F202004FF0CE
:1003E000010103F0E1F907F10807BD4680BD00BF38
:1003F00080B582B000AF40F2B843C2F20003DB8D9B
:10040000FB8040F2B843C2F200035B8DBB804FF02B
:100410000200FFF7FBFE4FF44060C4F202004FF011
:10042000010103F0CFF9FB884FF47050C4F20000D3
:10043000194603F0CFFE00BF4FF47050C4F2000025
:100440004FF0800103F0D4FE0346002BF4D14FF4AB
:100450007050C4F2000003F0AFFE0346FB80BB887F
:100460004FF47050C4F20000194603F0B3FE00BF11
:100470004FF47050C4F200004FF0800103F0B8FE5A
:100480000346002BF4D14FF47050C4F2000003F087
:1004900093FE0346BB804FF44060C4F202004FF06D
:1004A000010103F081F907F10807BD4680BD00BFD7
:1004B00080B582B000AF40F2B843C2F200031B8E99
:1004C000FB8040F2B843C2F200039B8DBB804FF02B
:1004D0000300FFF79BFE4FF44060C4F202004FF0B0
:1004E000010103F06FF9FB884FF47050C4F2000073
:1004F000194603F06FFE00BF4FF47050C4F20000C5
:100500004FF0800103F074FE0346002BF4D14FF44A
:100510007050C4F2000003F04FFE0346FB80BB881E
:100520004FF47050C4F20000194603F053FE00BFB0
:100530004FF47050C4F200004FF0800103F058FEF9
:100540000346002BF4D14FF47050C4F2000003F0C6
:1005500033FE0346BB804FF44060C4F202004FF00C
:10056000010103F021F907F10807BD4680BD00BF76
:1005700080B500AFFFF73CFFFFF79AFFFFF7CEFE15
:1005800080BD00BF80B485B000AF02460B46FA8044
:10059000BB80FB884FEA5303FB81BA88FB889A42F1
:1005A00003D3FB8803F1FF33BB8040F2B843C2F2B0
:1005B0000003FA881A8540F2B843C2F20003FA89B0
:1005C0005A85FA89BB88D3189AB240F2B843C2F26E
:1005D00000039A8540F2B843C2F200035B8D9AB2E1
:1005E00040F2B843C2F200031B8D9BB24FEA5303A3
:1005F0009BB2D3189AB240F2B843C2F20003DA8534
:1006000040F2B843C2F200039B8D9AB240F2B84365
:10061000C2F200031B8D9BB24FEA53039BB2D31867
:100620009AB240F2B843C2F200031A8640F2B843CD
:10063000C2F20003DB8D9AB240F2B843C2F200036B
:100640001B8D9BB29A4212D340F2B843C2F2000310
:10065000DB8D9AB240F2B843C2F200031B8D9BB20D
:10066000D31A9AB240F2B843C2F20003DA8540F2DC
:10067000B843C2F200031B8E9AB240F2B843C2F2F2
:1006800000031B8D9BB29A4212D340F2B843C2F2D0
:1006900000031B8E9AB240F2B843C2F200031B8DD6
:1006A0009BB2D31A9AB240F2B843C2F200031A8640
:1006B00007F11407BD4680BC704700BF80B582B00B
:1006C00000AF4FF00000FFF7A1FD4FF44060C4F20F
:1006D00002004FF0010103F075F84FF47050C4F2BE
:1006E00000004FF0000103F075FD00BF4FF47050A3
:1006F000C4F200004FF0800103F07AFD0346002BA6
:10070000F4D14FF47050C4F2000003F055FD0346DD
:10071000FB804FF47050C4F200004FF0000103F072
:1007200059FD00BF4FF47050C4F200004FF080013B
:1007300003F05EFD0346002BF4D14FF47050C4F279
:10074000000003F039FD0346BB80FA8840F2B8434D
:10075000C2F200035A6040F2B843C2F200035B6881
:100760004FEA034240F2B843C2F200035A6040F23B
:10077000B843C2F200035A68BB88D21840F2B843AB
:10078000C2F200035A604FF44060C4F202004FF01E
:10079000010103F009F807F10807BD4680BD00BF5D
:1007A00080B584B000AF0346FB71FB7903F00F0303
:1007B000FB71FB7903F11003DBB21846FFF726FD4E
:1007C0004FF44060C4F202004FF0010102F0FAFF62
:1007D0004FF47050C4F200004FF0000103F0FAFC37
:1007E00000BF4FF47050C4F200004FF0800103F0DE
:1007F000FFFC0346002BF4D14FF47050C4F200000C
:1008000003F0DAFC0346FB814FF47050C4F20000A1
:100810004FF0000103F0DEFC00BF4FF47050C4F253
:1008200000004FF0800103F0E3FC0346002BF4D1FD
:100830004FF47050C4F2000003F0BEFC0346BB81CD
:10084000FA79BB894FEA03534FEA135399B240F246
:10085000B843C2F2000302F1040223F812104FF46D
:100860004060C4F202004FF0010102F09DFF07F169
:100870001007BD4680BD00BF80B500AF4FF440609B
:10088000C4F202004FF0400102F08EFF4FF44060CE
:10089000C4F202004FF0400102F094FF80BD00BF9F
:1008A00080B500AF4FF44060C4F202004FF0800109
:1008B00002F05CFF03461A4640F2B843C2F200035E
:1008C0001A7040F2B843C2F200031B78DBB218463C
:1008D00080BD00BF80B500AF40F26043C2F20003AC
:1008E0001B78042B66D801A252F823F001090008F6
:1008F00025090008490900086D0900089109000848
:100900004FF00000FFF74CFF40F26043C2F20003DB
:100910001B7803F10103DAB240F26043C2F2000334
:100920001A704FE04FF00100FFF73AFF40F26043CA
:10093000C2F200031B7803F10103DAB240F2604314
:10094000C2F200031A703DE04FF00200FFF728FFEB
:1009500040F26043C2F200031B7803F10103DAB2F4
:1009600040F26043C2F200031A702BE04FF0030024
:10097000FFF716FF40F26043C2F200031B7803F159
:100980000103DAB240F26043C2F200031A7019E0C8
:100990004FF00400FFF704FF40F26043C2F200038F
:1009A0001B7803F10103DAB240F26043C2F20003A4
:1009B0001A7007E040F26043C2F200034FF00002F9
:1009C0001A7000BF80BD00BF80B483B000AF034683
:1009D0003960FB7197F90730002B10DA4FF46D4343
:1009E000CEF20003FA7902F00F02A2F104013A6894
:1009F000D2B24FEA0212D2B25B181A760DE04FF46F
:100A00006143CEF2000397F907103A68D2B24FEA79
:100A10000212D2B25B1883F8002307F10C07BD461F
:100A200080BC704780B582B000AF78607A686FF0A4
:100A30007F439A4202D94FF001031FE04EF21003A8
:100A4000CEF200037A6822F07F4202F1FF325A6050
:100A50004FF0FF304FF00F01FFF7B6FF4EF21003DB
:100A6000CEF200034FF000029A604EF21003CEF275
:100A700000034FF007021A604FF00003184607F119
:100A80000807BD4680BD00BF80B58CB000AF42F600
:100A90004063C2F2000340F272529A604FF00003CA
:100AA000BB844FF00003FB844FF00703BB624FF0A1
:100AB0000003BB854FF0000387F82E3007F12403B5
:100AC0004FF48060C4F20100194604F08DFD4FF030
:100AD00070033B824FF001037B824FF00003BB8227
:100AE0004FF00403BB614FF00003BB834FF00003E2
:100AF000FB834FF480733B844FF000037B8407F14A
:100B000010034FF48060C4F20100194604F006FEA1
:100B10004FF400633B804FF480637B804FF480731D
:100B2000BB804FF00003FB804FF000033B814FF48C
:100B300000537B814FF48043BB813B464FF4806080
:100B4000C4F20100194604F079FE4FF48060C4F24B
:100B500001004FF0010104F0C1FD4FF48060C4F2C8
:100B600001004FF0010104F091FE42F64063C2F231
:100B700000034FF00002DA6040F2B843C2F2000313
:100B80004FF0000283F8322042F64063C2F20003C5
:100B90009B689AB242F64063C2F20003DB689BB2E4
:100BA00010461946FFF7EEFCFFF7E2FC07F13007AD
:100BB000BD4680BD80B582B000AF0346FB8042F6E3
:100BC0004063C2F200031B78DBB2032B07D042F66E
:100BD0004063C2F200031B78DBB2042B36D142F62D
:100BE0004063C2F200039A68FB889A420BD942F62E
:100BF0004063C2F200039A68FB88D21A42F640634F
:100C0000C2F200039A6042F64063C2F200039A689F
:100C100040F21F339A4206D842F64063C2F2000304
:100C20004FF448729A6042F64063C2F200039B6838
:100C30009AB242F64063C2F20003DB689BB21046F0
:100C40001946FFF79FFCFFF793FC00E000BF07F198
:100C50000807BD4680BD00BF80B582B000AF034627
:100C6000FB8042F64063C2F200031B78DBB2032B29
:100C700007D042F64063C2F200031B78DBB2042BBC
:100C800037D142F64063C2F200039A6840F6E203AD
:100C90009A421BD842F64063C2F200039A68FB886E
:100CA000D21842F64063C2F200039A6042F64063F3
:100CB000C2F200039A6840F6E3039A4206D942F66C
:100CC0004063C2F2000340F6E3029A6042F64063DA
:100CD000C2F200039B689AB242F64063C2F200037C
:100CE000DB689BB210461946FFF74CFCFFF740FC4F
:100CF00000E000BF07F10807BD4680BD80B582B0A7
:100D000000AF0346FB8042F64063C2F200031B784B
:100D1000DBB2032B07D042F64063C2F200031B781C
:100D2000DBB2042B38D142F64063C2F20003DA682A
:100D3000FB88D21842F64063C2F20003DA6042F642
:100D40004063C2F20003DA6842F64063C2F2000375
:100D50009B684FEA53039A420BD942F64063C2F2B2
:100D600000039B684FEA530242F64063C2F200035D
:100D7000DA6042F64063C2F200039B689AB242F620
:100D80004063C2F20003DB689BB210461946FFF7CE
:100D9000F9FBFFF7EDFB00E000BF07F10807BD46D8
:100DA00080BD00BF80B582B000AF0346FB8042F635
:100DB0004063C2F200031B78DBB2032B07D042F67C
:100DC0004063C2F200031B78DBB2042B2ED142F643
:100DD0004063C2F20003DA68FB889A420CD942F6FB
:100DE0004063C2F20003DA68FB88D21A42F640631D
:100DF000C2F20003DA6006E042F64063C2F200038A
:100E00004FF00002DA6042F64063C2F200039B68D2
:100E10009AB242F64063C2F20003DB689BB210460E
:100E20001946FFF7AFFBFFF7A3FB00E000BF07F198
:100E30000807BD4680BD00BF80B500AFFFF730FD9D
:100E40000346002B0BD0FFF739FC42F64063C2F299
:100E500000034FF00A021A704FF0010301E04FF057
:100E60000003184680BD00BF80B500AF42F6406366
:100E7000C2F200031B78DBB20E2B00F2C68101A286
:100E800052F823F0C10E00080B1200086D0F000885
:100E9000BB0F000809100008571000080B120008CB
:100EA0000B1200080B1200080B120008A510000816
:100EB000EF100008391100087F110008C511000863
:100EC00040F2B843C2F200034FF0000283F8322030
:100ED00042F64063C2F2000340F272529A6042F658
:100EE0004063C2F200034FF00002DA6042F6406352
:100EF000C2F200039B689AB242F64063C2F200035A
:100F0000DB689BB210461946FFF73CFBFFF730FB4E
:100F1000FFF792FF0346002B40F07F8142F64063CB
:100F2000C2F200035B78DBB2652B11D140F2B8430B
:100F3000C2F200034FF0010283F83220FFF718FBE2
:100F400042F64063C2F200034FF002021A7064E1FD
:100F500042F64063C2F200035B78DBB2722B40F0D2
:100F60005C81FFF789FCFFF7A9FB56E1FFF764FFFF
:100F70000346002B40F0538142F64063C2F2000367
:100F80005B78DBB2642B07D142F64063C2F2000308
:100F90004FF000021A7042E142F64063C2F20003D1
:100FA0005B78DBB2452B40F03A8142F64063C2F2F7
:100FB00000034FF003021A7031E1FFF73DFF0346D3
:100FC000002B40F02E8142F64063C2F200035B78B2
:100FD000DBB2642B07D142F64063C2F200034FF04C
:100FE00000021A701DE142F64063C2F200035B7812
:100FF000DBB2452B40F0158142F64063C2F200039C
:101000004FF004021A700CE1FFF716FF0346002BA5
:1010100040F0098142F64063C2F200035B78DBB224
:10102000642B07D142F64063C2F200034FF0000286
:101030001A70F8E042F64063C2F200035B78DBB25C
:10104000452B40F0F08042F64063C2F200034FF0BF
:1010500005021A70E7E0FFF7EFFE0346002B40F0B1
:10106000E48042F64063C2F200035B78DBB2642B9B
:1010700007D142F64063C2F200034FF000021A703B
:10108000D3E042F64063C2F200035B78DBB2452B4B
:1010900040F0CB8042F64063C2F200034FF00302FF
:1010A0001A70C2E040F2B843C2F200034FF00002EF
:1010B00083F83220FFF75CFA42F64063C2F2000385
:1010C0005B78DBB2722B40F0B280FFF7D5FBFFF705
:1010D000F5FAFFF7B1FE0346002B40F0A88042F678
:1010E0004063C2F200034FF000021A709FE040F22A
:1010F000B843C2F200034FF0000283F83220FFF73A
:1011000037FA42F64063C2F200035B78DBB2722B1F
:1011100040F08F80FFF7B0FBFFF7D0FAFFF78CFEAF
:101120000346002B40F0858042F64063C2F2000384
:101130004FF000021A707CE040F2B843C2F20003A4
:101140004FF0000283F83220FFF712FA42F64063B4
:10115000C2F200035B78DBB2722B6CD1FFF78CFB21
:10116000FFF7ACFAFFF768FE0346002B63D142F6A7
:101170004063C2F200034FF000021A705BE040F2DD
:10118000B843C2F200034FF0000283F83220FFF7A9
:10119000EFF942F64063C2F200035B78DBB2722BD8
:1011A0004BD1FFF769FBFFF789FAFFF745FE0346CE
:1011B000002B42D142F64063C2F200034FF000021E
:1011C0001A703AE040F2B843C2F200034FF0000256
:1011D00083F83220FFF7CCF942F64063C2F20003F5
:1011E0005B78DBB2722B2AD1FFF746FBFFF766FA7A
:1011F000FFF722FE0346002B21D142F64063C2F2E4
:1012000000034FF000021A7019E042F64063C2F288
:1012100000034FF000021A7012E000BF10E000BFA0
:101220000EE000BF0CE000BF0AE000BF08E000BF16
:1012300006E000BF04E000BF02E000BF00E000BF26
:1012400042F64063C2F200034FF000025A7080BDC4
:1012500080B500AF4FF00000C4F201004FF0010173
:1012600004F03CFB80BD00BF80B500AF4FF4806050
:10127000C4F201004FF0010104F030FB80BD00BF5B
:1012800080B500AF46F21040C4F202004FF02001DA
:10129000C1F2000102F0B4FC02F058FE02F09AFE26
:1012A00002F0BCFE40F61C53C2F2000303F50253E9
:1012B00003F114031B6803F1010240F61C53C2F250
:1012C000000303F5025303F114031A6080BD00BF4D
:1012D00080B500AF40F21803C2F200031A6841F271
:1012E0005973CDF2B713A3FB02134FEA53331846D9
:1012F000FFF798FB80BD00BF2DE9B0438EB000AF73
:10130000C7E90201C7E90023D7E9142310461946AB
:1013100006F044FE02460B461046194676A3D3E972
:10132000002306F0EDFF02460B4610461946D7E9AA
:101330001A2307F00FF902460B461046194604F02F
:10134000D7FF02460B4610461946D7E9022306F09E
:10135000D7FF02460B46C7E90C23D7E914231046F2
:10136000194606F01BFE02460B461046194662A3BC
:10137000D3E9002306F0C4FF02460B461046194687
:10138000D7E91A2307F0E6F802460B46104619463D
:1013900004F0FAFF02460B4610461946D7E902232D
:1013A00006F0AEFF02460B46C7E90A23D7E916014D
:1013B000D7E9182306F0F2FD02460B4610461946FF
:1013C00006F0ECFD02460B46104619464AA3D3E947
:1013D000002306F095FF02460B4610461946D7E952
:1013E0001A2307F0B7F802460B461046194604F0D8
:1013F0007FFF02460B4610461946D7E9002306F048
:101400007FFF02460B46C7E90823D7E91601D7E953
:10141000182306F0C3FD02460B461046194606F097
:10142000BDFD02460B461046194633A3D3E90023FF
:1014300006F066FF02460B4610461946D7E91A2306
:1014400007F088F802460B461046194604F09CFF48
:1014500002460B4610461946D7E9002306F050FF16
:1014600002460B46C7E90623D7E90C01D7E9082352
:1014700006F094FD02460B4614461D46D7E90C01C2
:10148000D7E9082306F08AFD02460B462046294686
:1014900006F036FF02460B4614461D46D7E90A0100
:1014A000D7E9062306F07AFD02460B469046994698
:1014B000D7E90A01D7E9062306F070FD02460B467C
:1014C0004046494606F01CFF02460B462046294688
:1014D00006F064FD02460B461046194604F0A0FFD4
:1014E000C7E90401D7E904231046194607F1380774
:1014F000BD46BDE8B08300BF182D4454FB21094010
:101500002DE9B0438EB000AFC7E90201C7E900235F
:10151000D7E914231046194606F040FD02460B4653
:10152000104619467EA3D3E9002306F0E9FE0246E1
:101530000B4610461946D7E91A2307F00BF8024666
:101540000B461046194604F0D3FE02460B461046E1
:101550001946D7E9022306F0D3FE02460B46C7E937
:101560000A23D7E914231046194606F017FD024650
:101570000B46104619466AA3D3E9002306F0C0FEC5
:1015800002460B4610461946D7E91A2306F0E2FF39
:1015900002460B461046194604F0F6FE02460B467C
:1015A00010461946D7E9022306F0AAFE02460B466A
:1015B000C7E90823D7E91601D7E9182306F0EEFC9E
:1015C00002460B461046194606F0E8FC02460B465A
:1015D0001046194652A3D3E9002306F091FE0246B5
:1015E0000B4610461946D7E91A2306F0B3FF024608
:1015F0000B461046194604F07BFE02460B46104689
:101600001946D7E9002306F07BFE02460B46C7E9E0
:101610000623D7E91601D7E9182306F0BFFC0246D6
:101620000B461046194606F0B9FC02460B4610461A
:1016300019463BA3D3E9002306F062FE02460B469F
:1016400010461946D7E91A2306F084FF02460B46D6
:101650001046194604F098FE02460B4610461946FD
:10166000D7E9002306F04CFE02460B46C7E90423E7
:10167000D7E90A01D7E9062306F090FC02460B469B
:10168000104619464FF000024FF0000307F0C8F86B
:101690000346002B4CD0D7E90801D7E9042306F014
:1016A0007DFC02460B46104619464FF000024FF0F3
:1016B000000307F0B5F80346002B39D0D7E908013D
:1016C000D7E9042306F06AFC02460B4614461D4681
:1016D000D7E90A01D7E9062306F060FC02460B466B
:1016E0002046294606F036FF02460B4610461946AC
:1016F00004F04AFC02460B4610461946D7E91A2365
:1017000006F0FEFD02460B461046194606A3D3E935
:10171000002306F01FFF02460B46C7E90C2308E131
:10172000182D4454FB210940182D4454FB21194025
:10173000D7E90A01D7E9062306F030FC02460B463A
:10174000104619464FF000024FF0000307F04AF828
:101750000346002B50D0D7E90801D7E9042306F04F
:101760001DFC02460B46104619464FF000024FF092
:10177000000307F055F80346002B3DD0D7E90801D8
:10178000D7E9042306F00AFC02460B4614461D4620
:10179000D7F82880FB6A83F0004940464946D7E9DC
:1017A000062306F0F9FB02460B462046294606F0C2
:1017B000D1FE02460B461046194604F0E5FB0246F0
:1017C0000B4661A1D1E9000106F0E6FB02460B469B
:1017D00010461946D7E91A2306F092FD02460B4639
:1017E000104619465AA3D3E9002306F0B3FE024679
:1017F0000B46C7E90C239CE0D7E90A01D7E9062389
:1018000006F0CCFB02460B46104619464FF000028C
:101810004FF0000306F0E6FF0346002B4DD0D7E95A
:101820000801D7E9042306F0B9FB02460B4610462F
:1018300019464FF000024FF0000306F0D3FF0346B5
:10184000002B3AD0D7E90801D7E9042306F0A6FB1C
:1018500002460B4614461D46D7E90A01D7E906237E
:1018600006F09CFB02460B462046294606F072FE17
:1018700002460B461046194604F086FB02460B460C
:101880001046194630A3D3E9002306F087FB024631
:101890000B4610461946D7E91A2306F031FD0246D9
:1018A0000B46104619462AA3D3E9002306F052FE40
:1018B00002460B46C7E90C233BE03C6A7B6A83F097
:1018C000004520462946D7E9042306F065FB024679
:1018D0000B4614461D46D7E90A01D7E9062306F050
:1018E0005DFB02460B462046294606F033FE0246C3
:1018F0000B461046194604F047FB02460B4614A15E
:10190000D1E9000106F048FB02460B461046194695
:10191000D7E91A2306F0F4FC02460B461046194696
:101920000BA3D3E9002306F015FE02460B46C7E9D8
:101930000C23D7E90C231046194607F13807BD469A
:10194000BDE8B083AFF30080182D4454FB2109405B
:10195000182D4454FB2119402DE9B04FA0B008AF19
:1019600042F6B853C2F200034FF001021A7040F27F
:101970006143C2F200031B7803F10103DAB240F2C3
:101980006143C2F200031A7040F20003C2F2000386
:101990001B7803F10103DAB240F20003C2F2000344
:1019A0001A7040F20103C2F200031B7803F1010335
:1019B000DAB240F20103C2F200031A7040F20203ED
:1019C000C2F200031B7803F10103DAB240F2020312
:1019D000C2F200031A7040F20403C2F200031B8833
:1019E00003F101039AB240F20403C2F200031A8029
:1019F00003F022F8FEF76EFF40F26143C2F20003EB
:101A00001B78092B06D940F26143C2F200034FF064
:101A100000021A7040F20003C2F200031B78092B87
:101A200040F2F68140F20003C2F200034FF00002E0
:101A30001A7042F6B853C2F200034FF001025A7016
:101A400040F6F843C2F200031B68184606F0E2FBBA
:101A50008046894640F6F843C2F200035B681846A8
:101A600006F0D8FB04460D4640F2B843C2F200032C
:101A70005B899BB2184606F0CDFBC7E9160140F220
:101A8000B843C2F200039B899BB2184606F0C2FB22
:101A9000C7E9140142F64063C2F20003DB6818464E
:101AA00006F0B8FB82468B4642F64063C2F2000362
:101AB0009B68184606F0AEFB02460B46D7E91601B6
:101AC000CDE90001D7E91401CDE90201CDE904AB6C
:101AD000CDE906234046494622462B46FFF70CFC3B
:101AE00040F2A043C2F20003C3E9000140F6F8430C
:101AF000C2F200031B68184606F08CFB804689463C
:101B000040F6F843C2F200035B68184606F082FB19
:101B100004460D4640F2B843C2F200035B899BB213
:101B2000184606F077FBC7E9120140F2B843C2F24B
:101B300000039B899BB2184606F06CFBC7E91001B5
:101B400042F64063C2F20003DB68184606F062FB0F
:101B500082468B4642F64063C2F200039B681846F9
:101B600006F058FB02460B46D7E91201CDE9000109
:101B7000D7E91001CDE90201CDE904ABCDE9062397
:101B80004046494622462B46FFF7BAFC40F29843AE
:101B9000C2F20003C3E9000140F6F843C2F20003B9
:101BA0009B68184606F036FB8046894640F6F843A7
:101BB000C2F20003DB68184606F02CFB04460D4613
:101BC00040F2B843C2F20003DB899BB2184606F02C
:101BD00021FBC7E90E0140F2B843C2F200031B8AA1
:101BE0009BB2184606F016FBC7E90C0142F64063AB
:101BF000C2F20003DB68184606F00CFB82468B46F7
:101C000042F64063C2F200039B68184606F002FBEE
:101C100002460B46D7E90E01CDE90001D7E90C01D8
:101C2000CDE90201CDE904ABCDE9062340464946A2
:101C300022462B46FFF760FB40F28843C2F20003C6
:101C4000C3E9000140F6F843C2F200039B6818465E
:101C500006F0E0FA8046894640F6F843C2F20003F7
:101C6000DB68184606F0D6FA04460D4640F2B84343
:101C7000C2F20003DB899BB2184606F0CBFAC7E933
:101C80000A0140F2B843C2F200031B8A9BB2184615
:101C900006F0C0FAC7E9080142F64063C2F2000349
:101CA000DB68184606F0B6FA82468B4642F6406379
:101CB000C2F200039B68184606F0ACFA02460B46D7
:101CC000D7E90A01CDE90001D7E90801CDE9020110
:101CD000CDE904ABCDE906234046494622462B46D2
:101CE000FFF70EFC40F2B043C2F20003C3E900016B
:101CF00040F2A043C2F20003D3E9008940F28843D6
:101D0000C2F20003D3E9004540F29843C2F2000357
:101D1000D3E90001C7E9060140F2B043C2F2000373
:101D2000D3E90001C7E9040142F64063C2F20003AF
:101D3000DB68184606F06EFA82468B4642F6406330
:101D4000C2F200039B68184606F064FA02460B468E
:101D5000D7E90601CDE90001D7E90401CDE9020187
:101D6000CDE904ABCDE906234046494622462B4641
:101D7000FFF7C2FA40F29043C2F20003C3E9000148
:101D800040F2A043C2F20003D3E9008940F2884345
:101D9000C2F20003D3E9004540F29843C2F20003C7
:101DA000D3E90001C7E9020140F2B043C2F20003E7
:101DB000D3E90001C7E9000142F64063C2F2000323
:101DC000DB68184606F026FA82468B4642F64063E8
:101DD000C2F200039B68184606F01CFA02460B4646
:101DE000D7E90201CDE90001D7E90001CDE90201FF
:101DF000CDE904ABCDE906234046494622462B46B1
:101E0000FFF77EFB40F2A843C2F20003C3E90001E2
:101E100040F20103C2F200031B78632B40F2A28060
:101E200040F20103C2F200034FF000021A7042F6C2
:101E3000B853C2F200034FF001029A7042F64063B9
:101E4000C2F200031B78DBB2042B4AD142F6406396
:101E5000C2F200039B684FF05A0202FB03F34FEA01
:101E6000D30246F61743C1F2C163A3FB02134FEA44
:101E70009303184606F0CEF940F29843C2F20003ED
:101E8000D3E9002306F0AEFC0346002B04D04FF04C
:101E90000100FEF7E1FE24E042F64063C2F20003D7
:101EA0009B684FF05A0202FB03F34FEAD30246F657
:101EB0001743C1F2C163A3FB02034FEA9303184621
:101EC00006F0A8F940F29843C2F20003D3E90023D8
:101ED00006F0A6FC0346002B03D04FF00100FEF7EE
:101EE00069FE42F64063C2F200031B78DBB2052BA9
:101EF00038D140F29043C2F20003D3E900231046E8
:101F000019463FA3D3E9002306F08AFC0346002BC1
:101F10000CD042F64063C2F20003DB6803F1010219
:101F200042F64063C2F20003DA601BE040F29043E5
:101F3000C2F20003D3E900231046194630A3D3E9C7
:101F4000002306F04FFC0346002B0BD042F6406303
:101F5000C2F20003DB6803F1FF3242F64063C2F2D3
:101F60000003DA6040F20203C2F200031B78C72BC1
:101F70000DD940F20203C2F200034FF000021A70C2
:101F800042F6B853C2F200034FF00102DA7040F299
:101F90000403C2F200031A8840F2E7339A4227D9B9
:101FA00040F61C53C2F2000303F5025303F114037D
:101FB0001A6840F61C53C2F20003C3F8A02040F692
:101FC0001C53C2F2000303F5025303F114034FF054
:101FD00000021A6040F20403C2F200034FF0000254
:101FE0001A8042F6B853C2F200034FF001021A7190
:101FF00007F16007BD46BDE8B08F00BFAFF30080BA
:1020000000000000006AD84080B58AB000AF786058
:1020100039604FF000037B624FF000033B624FF0EA
:102020000003FB614FF00003BB617B681B8A9BB21E
:102030007B627B6A23F440537B623B68DB887A6A6D
:1020400013437B627B6A9AB27B681A827B689B89A6
:102050009BB27B627B6A23F4B05323F00C037B6258
:102060003B689A883B681B8913439AB23B685B893B
:1020700013439BB27A6A13437B627B6A9AB27B6892
:102080009A817B689B8A9BB27B627B6A23F4407354
:102090007B623B689B897A6A13437B627B6A9AB254
:1020A0007B689A8207F10803184600F065FD7A689C
:1020B0004FF48053C4F201039A4206D07A684FF479
:1020C000A053C4F201039A4202D17B693B6201E052
:1020D0003B693B627B689B899BB29BB21BB2002B26
:1020E0000FDA3A6A13464FEA83039B184FEA8302DA
:1020F0009A183B681B684FEA4303B2FBF3F3FB619A
:102100000EE03A6A13464FEA83039B184FEA8302B4
:102110009A183B681B684FEA8303B2FBF3F3FB6139
:10212000FA6948F21F53C5F2EB13A3FB02134FEAFF
:1021300053134FEA03137B627B6A4FEA13134FF08A
:10214000640202FB03F3FA69D31ABB617B689B89C3
:102150009BB29BB21BB2002B12DABB694FEAC303DE
:1021600003F1320248F21F53C5F2EB13A3FB021333
:102170004FEA531303F007037A6A13437B6211E0BB
:10218000BB694FEA031303F1320248F21F53C5F251
:10219000EB13A3FB02134FEA531303F00F037A6A06
:1021A00013437B627B6A9AB27B681A8107F1280726
:1021B000BD4680BD80B483B000AF78600B46FB7035
:1021C000FB78002B08D07B689B899BB243F40053BB
:1021D0009AB27B689A8107E07B689B899BB223F463
:1021E00000539AB27B689A8107F10C07BD4680BC08
:1021F000704700BF80B483B000AF78600B467B802F
:102200007B884FEAC3534FEAD3539AB27B689A80D4
:1022100007F10C07BD4680BC704700BF80B487B093
:1022200000AF786013460A467A807B704FF0000357
:102230003B614FF00003FB604FF00003BB604FF0C9
:1022400000037B617B687B617B88DBB24FEA5313C1
:10225000DBB23B617B8803F01F03FB60FB684FF040
:10226000010202FA03F3BB603B69012B04D17B69D5
:1022700003F10C037B610BE03B69022B04D17B690A
:1022800003F110037B6103E07B6903F114037B61BD
:102290007B78002B06D07B697A691168BA680A439B
:1022A0001A6007E07B697A691168BA686FEA02020E
:1022B0000A401A6007F11C07BD4680BC704700BF8A
:1022C00080B487B000AF78600B467B804FF000038E
:1022D000FB604FF000037B614FF00003BB604FF0E9
:1022E0000003FB747B88DBB24FEA5313DBB2BB60A5
:1022F0007B8803F01F037B617B694FF0010202FAC8
:1023000003F37B61BB68012B06D17B689B899BB281
:102310007A6913407B610FE0BB68022B06D17B68B2
:102320001B8A9BB27A6913407B6105E07B689B8ABC
:102330009BB27A6913407B617B884FEA13239BB27F
:10234000FB60FB684FF0010202FA03F3FB607B685D
:102350001B889BB2FA681340FB607B69002B06D098
:10236000FB68002B03D04FF00103FB7402E04FF039
:102370000003FB74FB7C184607F11C07BD4680BCBC
:10238000704700BF80B500AF4FF01F00C0F24000A3
:102390004FF0010100F0D6FC4FF40040C2F2020001
:1023A0004FF0010100F0F8FC40F213504FF0010132
:1023B00000F01CFD80BD00BF80B582B000AF4FF0C3
:1023C00000604FF0000101F0B9FF4FF4E06001F050
:1023D0002FFF4FF026033B714FF000037B714FF04E
:1023E0000703BB714FF00103FB7107F104031846AB
:1023F00001F032FF4FF025033B714FF000037B717A
:102400004FF00603BB714FF00103FB7107F10403AA
:10241000184601F021FF4FF038033B714FF00003E5
:102420007B714FF00003BB714FF00103FB7107F1AB
:102430000403184601F010FF07F10807BD4680BDF0
:1024400080B582B000AF48F6B423C0F600037B60CD
:1024500040F20003C2F200033B600BE07B681A68A5
:102460003B681A603B6803F104033B607B6803F13F
:1024700004037B603A6840F25C43C2F200039A4274
:10248000ECD3094809494FF000028842B8BF40F830
:10249000042BFFF6FAAF01F0F7F900F00DF807F1A1
:1024A0000807BD4680BD00006004002060360020A3
:1024B00080B400AFFEE700BF80B500AFFFF762FF5A
:1024C000FFF77AFF00F0DCFEFEF702FF01F0C8FB29
:1024D000FEF7DAFAFDF758FE03F012FA03F06EFA8F
:1024E00001F042FF00E000BF00F034F801F0C8FF47
:1024F00042F6B853C2F200031B79DBB2002B06D0C0
:1025000042F6B853C2F200034FF000021A7142F6CD
:10251000B853C2F200039B78DBB2002B06D042F620
:10252000B853C2F200034FF000029A7042F6B8535B
:10253000C2F200035B78DBB2002BD4D042F6B85372
:10254000C2F200034FF000025A7001F02FFFFEF7B5
:102550008BFCC8E780B582B000AF03F0BBFA03463E
:10256000002B00F0238203F009FB0346FB7140F2CD
:102570006443C2F200031B78002B40F0D881FB7942
:10258000A3F12B03472B00F2CB8101A252F823F0D9
:10259000B126000883270008DB2600085927000819
:1025A00021290008212900082129000821290008E3
:1025B00021290008212900082129000821290008D3
:1025C00021290008212900082129000821290008C3
:1025D00021290008D727000821290008AD27000875
:1025E00021290008212900080128000821290008C4
:1025F0002129000837280008072800082129000899
:102600002129000821290008212900082129000882
:102610002129000821290008212900082129000872
:10262000212900082129000821290008552800082F
:102630002129000821290008212900082129000852
:102640002129000821290008212900082129000842
:10265000E128000821290008A328000821290008F2
:102660002129000821290008A329000821290008A0
:10267000212900082F270008212900082129000806
:102680002129000821290008052700082129000820
:1026900021290008212900082129000821290008F2
:1026A000212900082129000821290008852800087F
:1026B00040F61853C2F200031B78DBB2002B04D1A2
:1026C0004FF00100FEF776FA70E140F61853C2F2BF
:1026D00000034FF02B02DA7068E140F61853C2F2A3
:1026E00000031B78DBB2002B04D14FF00100FEF792
:1026F000B3FA5BE140F61853C2F200034FF02D022B
:10270000DA7053E140F61853C2F200031B78DBB2D3
:10271000002B04D14FF00A00FEF74CFA46E140F6D8
:102720001853C2F200034FF06902DA703EE140F63E
:102730001853C2F200031B78DBB2002B04D14FF018
:102740000A00FEF789FA31E140F61853C2F200039D
:102750004FF06402DA7029E140F61853C2F2000328
:102760001B78DBB2002B04D14FF00100FEF7C6FA54
:102770001CE140F61853C2F200034FF02E02DA704B
:1027800014E140F61853C2F200031B78DBB2002BB1
:1027900004D14FF00100FEF705FB07E140F61853A6
:1027A000C2F200034FF02C02DA70FFE040F618533B
:1027B000C2F200031B78DBB2002B04D14FF00A00F9
:1027C000FEF79CFAF2E040F61853C2F200034FF015
:1027D0003E02DA70EAE040F61853C2F200031B78BA
:1027E000DBB2002B04D14FF00A00FEF7DBFADDE08C
:1027F00040F61853C2F200034FF03C02DA70D5E005
:1028000000F0D8F8D2E040F61853C2F200031B786B
:10281000DBB2012B07D140F61853C2F200034FF090
:102820004502DA70C2E042F64063C2F200034FF0A4
:1028300065025A70BAE042F64063C2F200034FF0FC
:1028400064025A7040F61853C2F200034FF044027B
:10285000DA70ABE040F61853C2F200031B78DBB22B
:10286000012B07D140F61853C2F200034FF0520279
:10287000DA709BE042F64063C2F200034FF045027B
:102880005A7093E042F64063C2F200034FF07202C6
:102890005A7040F61853C2F200034FF07202DA7019
:1028A00084E040F61C53C2F20003D3F89C30002BA6
:1028B00079D140F61C53C2F20003D3F84031002B0B
:1028C00071D140F61853C2F200034FF000021A70A3
:1028D00040F61853C2F200034FF06D02DA7062E066
:1028E00040F61C53C2F20003D3F89C30002B5CD19D
:1028F00040F61C53C2F20003D3F84031002B54D1F0
:1029000040F61853C2F200034FF001021A7040F66D
:102910001853C2F200034FF07302DA7000BF44E0B4
:1029200042F64063C2F20003FA795A703EE0FB7946
:102930002F2B22D9FB79392B1FD840F26843C2F2E2
:1029400000031A6813464FEA83039B184FEA4303B8
:102950001A4640F26843C2F200031A60FA7940F264
:102960006843C2F200031B68D318A3F1300240F29F
:102970006843C2F200031A6018E0FB79582B15D1A6
:1029800040F26443C2F200031B78332B00D000E016
:1029900000BF40F26443C2F200034FF000021A701D
:1029A00004E000BF02E000BF00E000BF07F108073D
:1029B000BD4680BD80B584B000AF4FF000037B60A2
:1029C00002F0BAFC40F61C53C2F20003D3F89C207C
:1029D00040F61853C2F200031B78DBB24FEAC37310
:1029E000D21840F61C53C2F20003C3F89C2040F6F4
:1029F0001C53C2F20003BB604FF00003FB6049E0D0
:102A000040F2EC43C2F200031B889BB21946BB683C
:102A10001A7840F2EC43C2F200035B181A73BB68E9
:102A20001B781A467B68D3187B60BB6803F10103EF
:102A3000BB6040F2EC43C2F200039B889BB203F1FF
:102A400001039AB240F2EC43C2F200039A8040F2D2
:102A5000EC43C2F200031B889BB203F101039AB25C
:102A600040F2EC43C2F200031A8040F2EC43C2F29F
:102A700000031B889AB240F2FF339A4206D940F213
:102A8000EC43C2F200034FF000021A80FB6803F12E
:102A90000103FB60FA6840F247139A42B0D940F64E
:102AA0001C53C2F20003D3F89C30DAB240F61C5338
:102AB000C2F20003C3F89C2002F012FB07F10403EA
:102AC000BB604FF00003FB6043E040F2EC43C2F216
:102AD00000031B889BB21946BB681A7840F2EC438E
:102AE000C2F200035B181A73BB6803F10103BB60F9
:102AF00040F2EC43C2F200039B889BB203F1010356
:102B00009AB240F2EC43C2F200039A8040F2EC43E6
:102B1000C2F200031B889BB203F101039AB240F298
:102B2000EC43C2F200031A8040F2EC43C2F200030D
:102B30001B889AB240F2FF339A4206D940F2EC4326
:102B4000C2F200034FF000021A80FB6803F1010398
:102B5000FB60FB68032BB8D902F090FF4FF488406C
:102B6000C4F2000040F227714FF00102FFF756FB5C
:102B700007F11007BD4680BD80B489B000AF786012
:102B80004FF00003BB614FF000037B614FF0000387
:102B9000FB614FF002033B614FF00003FB604FF01D
:102BA0000203BB604FF46053C4F202039B6803F05E
:102BB0000C03BB61BB69042B0AD0082B0FD0002B80
:102BC00060D17A684FF41053C0F2F403136060E0F0
:102BD0007A684FF49053C0F27A03136059E04FF4CF
:102BE0006053C4F202035B6803F480034FEA93531B
:102BF000FB604FF46053C4F202035B6803F03F03D1
:102C0000BB60FB68002B14D04FF49053C0F27A03E2
:102C1000BA68B3FBF2F24FF46053C4F2020359688E
:102C200047F6C0730B404FEA931303FB02F3FB61BB
:102C300013E04FF41053C0F2F403BA68B3FBF2F29E
:102C40004FF46053C4F20203596847F6C0730B4057
:102C50004FEA931303FB02F3FB614FF46053C4F29A
:102C600002035B6803F440334FEA134303F10103AB
:102C70004FEA43033B61FA693B69B2FBF3F27B68BD
:102C80001A6006E07A684FF41053C0F2F403136040
:102C900000BF4FF46053C4F202039B6803F0F003DB
:102CA000BB61BB694FEA1313BB6140F20803C2F278
:102CB0000003BA699B181B78DBB27B617B681A68DA
:102CC0007B6922FA03F27B685A604FF46053C4F2C6
:102CD00002039B6803F4E053BB61BB694FEA932393
:102CE000BB6140F20803C2F20003BA699B181B786B
:102CF000DBB27B617B685A687B6922FA03F27B68EE
:102D00009A604FF46053C4F202039B6803F460437B
:102D1000BB61BB694FEA5333BB6140F20803C2F2A7
:102D20000003BA699B181B78DBB27B617B685A6829
:102D30007B6922FA03F27B68DA6007F12407BD465B
:102D400080BC704780B483B000AF78600B46FB70E6
:102D5000FB78002B0CD04FF46053C4F202034FF405
:102D60006052C4F20202116B7A680A431A630DE0E2
:102D70004FF46053C4F202034FF46052C4F20202F3
:102D8000116B7A686FEA02020A401A6307F10C07B6
:102D9000BD4680BC704700BF80B483B000AF786090
:102DA0000B46FB70FB78002B0CD04FF46053C4F241
:102DB00002034FF46052C4F20202116C7A680A43B3
:102DC0001A640DE04FF46053C4F202034FF46052F2
:102DD000C4F20202116C7A686FEA02020A401A64B5
:102DE00007F10C07BD4680BC704700BF80B483B0BC
:102DF00000AF78600B46FB70FB78002B0CD04FF4D3
:102E00006053C4F202034FF46052C4F20202516CE8
:102E10007A680A435A640DE04FF46053C4F2020327
:102E20004FF46052C4F20202516C7A686FEA0202F7
:102E30000A405A6407F10C07BD4680BC704700BFCA
:102E400080B483B000AF78600B46FB70FB78002B3A
:102E50000CD04FF46053C4F202034FF46052C4F23A
:102E60000202116A7A680A431A620DE04FF4605355
:102E7000C4F202034FF46052C4F20202116A7A688B
:102E80006FEA02020A401A6207F10C07BD4680BCD5
:102E9000704700BF80B483B000AF78600B46FB7012
:102EA000FB78002B0CD04FF46053C4F202034FF4B4
:102EB0006052C4F20202516A7A680A435A620DE013
:102EC0004FF46053C4F202034FF46052C4F20202A2
:102ED000516A7A686FEA02020A405A6207F10C07E7
:102EE000BD4680BC704700BF80B485B000AF78603D
:102EF00039604FF00003FB604FF00003FB727B680A
:102F00005B68FB60FB6823F0407323F48073FB6015
:102F10003B681B794FEA03223B681B681343FA683E
:102F20001343FB607B68FA685A607B689B68FB60B0
:102F3000FA684FF2FD73CCF2FF031340FB603B686D
:102F40001A693B68DB681A433B689B681A433B6815
:102F50005B794FEA43031343FA681343FB607B68D2
:102F6000FA689A607B68DB6AFB60FB6823F4700395
:102F7000FB603B681B7D03F1FF33DAB2FB7A13433E
:102F8000FB72FB7A4FEA0353FA681343FB607B68DA
:102F9000FA68DA6207F11407BD4680BC704700BFCB
:102FA00080B485B000AF78604FF00003FB604FF451
:102FB0000C53C4F201035B68FB60FA6843F2E00360
:102FC000CFF6FC731340FB607B681A687B685B6814
:102FD0001A437B689B681A437B68DB681343FA6873
:102FE0001343FB604FF40C53C4F20103FA685A60B8
:102FF00007F11407BD4680BC704700BF80B483B0A2
:1030000000AF78600B46FB70FB78002B06D07B6826
:103010009B6843F001027B689A6005E07B689B68CF
:1030200023F001027B689A6007F10C07BD4680BC63
:10303000704700BF80B485B000AF7860F970BA7097
:103040007B704FF00003FB604FF00003BB60FB7828
:10305000092B27D97B68DB68FB60FA7813464FEAB7
:1030600043039B18A3F11E034FF0070202FA03F378
:10307000BB60BB686FEA0303FA681340FB607978B2
:10308000FA7813464FEA43039B18A3F11E0301FA93
:1030900003F3BB60FA68BB681343FB607B68FA68A4
:1030A000DA6022E07B681B69FB60FA7813464FEA1E
:1030B00043039B184FF0070202FA03F3BB60BB689F
:1030C0006FEA0303FA681340FB607978FA781346D5
:1030D0004FEA43039B1801FA03F3BB60FA68BB682D
:1030E0001343FB607B68FA681A61BB78062B27D80C
:1030F0007B685B6BFB60BB7803F1FF3213464FEAE2
:1031000083039B184FF01F0202FA03F3BB60BB68F6
:103110006FEA0303FA681340FB60F978BB7803F1A8
:10312000FF3213464FEA83039B1801FA03F3BB6097
:10313000FA68BB681343FB607B68FA685A6351E026
:10314000BB780C2B27D87B681B6BFB60BA781346C7
:103150004FEA83039B18A3F123034FF01F0202FAE7
:1031600003F3BB60BB686FEA0303FA681340FB60BC
:10317000F978BA7813464FEA83039B18A3F1230327
:1031800001FA03F3BB60FA68BB681343FB607B681A
:10319000FA681A6326E07B68DB6AFB60BA7813463C
:1031A0004FEA83039B18A3F141034FF01F0202FA79
:1031B00003F3BB60BB686FEA0303FA681340FB606C
:1031C000F978BA7813464FEA83039B18A3F14103B9
:1031D00001FA03F3BB60FA68BB681343FB607B68CA
:1031E000FA68DA6207F11407BD4680BC704700BF79
:1031F00080B483B000AF78607B689B6843F0804206
:103200007B689A6007F10C07BD4680BC704700BF21
:1032100080B483B000AF78600B46FB70FB78002B66
:1032200006D07B689B6843F480727B689A6005E0F7
:103230007B689B6823F480727B689A6007F10C07B7
:10324000BD4680BC704700BF80B483B000AF7860DB
:103250000B46FB70FB78002B06D07B689B6843F421
:1032600000727B689A6005E07B689B6823F40072BB
:103270007B689A6007F10C07BD4680BC704700BFB1
:1032800080B582B000AF4FF48050C4F202004FF01E
:1032900008014FF0010200F0A3FA4FF48050C4F28D
:1032A00002004FF009014FF0010200F099FA4FF4CB
:1032B0000060C4F202004FF008014FF0030200F07A
:1032C0008FFA4FF440733B604FF002033B714FF0B5
:1032D00003037B714FF00003BB714FF00003FB71E0
:1032E0003B464FF48050C4F20200194600F09CF9AE
:1032F0004FF480733B604FF002033B714FF00303C8
:103300007B714FF00003BB714FF00003FB713B4634
:103310004FF40060C4F20200194600F085F94FF046
:1033200040033B604FF001033B714FF00003BB7162
:103330004FF003037B714FF00003FB713B464FF4EA
:103340004060C4F20200194600F06EF94FF08003AD
:103350003B604FF000033B714FF003037B714FF074
:103360000003FB713B464FF44060C4F20200194673
:1033700000F05AF94FF00000C4F202004FF00901CA
:103380004FF0070200F02CFA4FF00000C4F20200E8
:103390004FF00A014FF0070200F022FA4FF40073D9
:1033A0003B604FF00003BB714FF00103FB714FF026
:1033B00002033B714FF003037B713B464FF000006B
:1033C000C4F20200194600F02FF94FF480633B600D
:1033D0004FF00003BB714FF00103FB714FF002038C
:1033E0003B714FF003037B713B464FF00000C4F28A
:1033F0000200194600F018F94FF00000C4F2020074
:103400004FF002014FF0070200F0EAF94FF0000020
:10341000C4F202004FF003014FF0070200F0E0F9A0
:103420004FF004033B604FF00003BB714FF001030A
:10343000FB714FF002033B714FF003037B713B467E
:103440004FF00000C4F20200194600F0EDF84FF012
:1034500008033B604FF00003BB714FF00103FB71A9
:103460004FF002033B714FF003037B713B464FF07B
:103470000000C4F20200194600F0D6F84FF0020333
:103480003B604FF001033B714FF00003BB714FF005
:1034900003037B714FF00003FB713B464FF00000CC
:1034A000C4F20200194600F0BFF84FF0C1033B60C0
:1034B0004FF003033B714FF00003FB713B464FF0AD
:1034C0000000C4F20200194600F0AEF84FF03F03CE
:1034D0003B604FF003033B714FF00003FB713B4631
:1034E0004FF40060C4F20200194600F09DF84FF05E
:1034F00003033B604FF003033B714FF00003FB718C
:103500003B464FF48060C4F20200194600F08CF88C
:103510004FF030033B604FF003033B714FF000036B
:10352000FB713B464FF00000C4F20200194600F068
:103530007BF84FF0C0033B604FF000033B714FF04E
:1035400003037B714FF00003FB713B464FF4806037
:10355000C4F20200194600F067F84FF020033B6008
:103560004FF001033B714FF00003BB714FF00303B9
:103570007B714FF00003FB713B464FF48060C4F257
:103580000200194600F050F84FF03F033B604FF047
:1035900001033B714FF00003BB714FF003037B71DC
:1035A0004FF00003FB713B464FF44060C4F2020051
:1035B000194600F039F84FF40060C4F202004FF0F1
:1035C0000A014FF0060200F00BF94FF40060C4F25C
:1035D00002004FF00B014FF0060200F001F94FF42A
:1035E0000060C4F202004FF00C014FF0060200F040
:1035F000F7F84FF4E0533B604FF002033B714FF09C
:103600000003BB714FF003037B714FF00203FB71AA
:103610003B464FF40060C4F20200194600F004F883
:1036200007F10807BD4680BD80B487B000AF786061
:1036300039604FF000037B614FF000033B614FF0B6
:103640000003FB604FF000037B6186E07B694FF075
:10365000010202FA03F33B613B681A683B691340BD
:10366000FB60FA683B699A4273D17B681A687B6990
:103670004FEA43034FF0030101FA03F36FEA030338
:103680001A407B681A607B681A683B681B79194688
:103690007B694FEA430301FA03F31A437B681A601C
:1036A0003B681B79012B03D03B681B79022B34D17B
:1036B0007B689A687B694FEA43034FF0030101FA84
:1036C00003F36FEA03031A407B689A607B689A6889
:1036D0003B685B7919467B694FEA430301FA03F3C0
:1036E0001A437B689A607B685A687B699BB24FF08B
:1036F000010101FA03F36FEA03031A407B685A6081
:103700007B685A683B689B7919467B699BB201FAD2
:1037100003F39BB21A437B685A607B68DA687B6963
:103720009BB24FEA43034FF0030101FA03F36FEA40
:1037300003031A407B68DA607B68DA683B68DB79F0
:1037400019467B694FEA430301FA03F31A437B6886
:10375000DA607B6903F101037B617B690F2B7FF6E4
:1037600075AF07F11C07BD4680BC704780B485B0BB
:1037700000AF78600B467B804FF00003FB737B68E3
:103780001A697B881340002B03D04FF00103FB73B1
:1037900002E04FF00003FB73FB7B184607F11407B0
:1037A000BD4680BC704700BF80B483B000AF786076
:1037B0000B467B807B687A881A8307F10C07BD462D
:1037C00080BC704780B483B000AF78600B467B80CC
:1037D0007B687A885A8307F10C07BD4680BC704726
:1037E00080B485B000AF786013460A467A807B705B
:1037F0004FF00003FB604FF00003BB607A787B88DA
:1038000003F007034FEA830302FA03F3FB607B88AC
:103810004FEAD3039BB21A467B884FEAD3039BB28D
:1038200019467B6801F1080153F821107B8803F0E9
:1038300007034FEA83034FF00F0000FA03F36FEA28
:10384000030319407B6802F1080243F822107B88C9
:103850004FEAD3039BB21A467B6802F1080253F881
:103860002220FB681343BB607B884FEAD3039BB2E3
:103870001A467B6802F10802B96843F8221007F182
:103880001407BD4680BC704780B500AF4FF460534D
:10389000C4F202034FF46052C4F20202126842F012
:1038A00001021A604FF46053C4F202034FF00002A9
:1038B0009A604FF46053C4F202034FF46052C4F2B2
:1038C0000202126822F0847222F480321A604FF4ED
:1038D0006053C4F2020343F21002C2F200425A6083
:1038E0004FF46053C4F202034FF46052C4F2020278
:1038F000126822F480221A604FF46053C4F202036B
:103900004FF00002DA6000F009F84FF46D43CEF298
:1039100000034FF000629A6080BD00BF80B483B0A6
:1039200000AF4FF000037B604FF000033B604FF4AB
:103930006053C4F202034FF46052C4F202021268F0
:1039400042F480321A604FF46053C4F202031B68E1
:1039500003F400333B607B6803F101037B603B6849
:10396000002B03D17B68B3F5A06FECD14FF460530B
:10397000C4F202031B6803F40033002B03D04FF0A2
:1039800001033B6002E04FF000033B603B68012B0A
:1039900040F082804FF46053C4F202034FF460524F
:1039A000C4F20202126C42F080521A644FF4E043F7
:1039B000C4F200034FF4E042C4F20002126842F481
:1039C00080421A604FF46053C4F202034FF4605215
:1039D000C4F2020292689A604FF46053C4F2020388
:1039E0004FF46052C4F20202926842F400429A60BC
:1039F0004FF46053C4F202034FF46052C4F2020267
:103A0000926842F4C0529A604FF46053C4F20203C9
:103A100045F20842C0F240725A604FF46053C4F25B
:103A200002034FF46052C4F20202126842F0807244
:103A30001A6000BF4FF46053C4F202031B6803F026
:103A40000073002BF6D04FF47053C4F2020340F21F
:103A500005621A604FF46053C4F202034FF46052DF
:103A6000C4F20202926822F003029A604FF460539B
:103A7000C4F202034FF46052C4F20202926842F0B0
:103A800002029A6000BF4FF46053C4F202039B68C5
:103A900003F00C03082BF6D107F10C07BD4680BCE0
:103AA000704700BF80B485B000AF786039604FF0D8
:103AB0000003FB607B681B68FB60FA6848F23F0309
:103AC000CFF21C031340FB603B681A683B68DB685D
:103AD0001A433B685B691A433B689B691A433B681E
:103AE000DB691A433B681B6A1A433B685B6A1A43EB
:103AF0003B689B6A1A433B685B6B1A433B689B6B52
:103B00001343FA681343FB607B68FA681A607B68AA
:103B10005B69FB60FB6823F00703FB603B68DA6AC4
:103B20003B681B6B1343FA681343FB607B68FA68BE
:103B30005A613B681A697B685A603B685A687B68BF
:103B40009A603B689A687B68DA6007F11407BD46A3
:103B500080BC704780B483B000AF78600B46FB70C8
:103B6000FB78002B06D07B681B6843F001027B6862
:103B70001A6005E07B681B6823F001027B681A600D
:103B800007F10C07BD4680BC704700BF80B485B00C
:103B900000AFF860B9601346FB71BB6803F08003A7
:103BA000002B0FD0FB79002B06D0FB685B6943F03C
:103BB0008002FB685A6105E0FB685B6923F08002C4
:103BC000FB685A61BB68802B15D0FB79002B08D0AD
:103BD000FB681A68BB6803F01E031A43FB681A608F
:103BE00009E0FB681A68BB6803F01E036FEA030371
:103BF0001A40FB681A6007F11407BD4680BC704785
:103C000080B485B000AF786039607A6846F20F43BF
:103C1000C4F202039A4205D84FF4C043C4F202032F
:103C2000FB6004E04FF4C843C4F20203FB603B684E
:103C300003F00053002B07D03B6823F0F02323F060
:103C40008213FA68D36006E03B6823F0F02323F088
:103C50008213FA68936007F11407BD4680BC704771
:103C600080B59AB000AF4FF000037B660CE042F6DF
:103C7000C053C2F200037A6E4FF0000123F8121015
:103C80007B6E03F101037B667B6E3F2BEFD94FF018
:103C900000033B6042F6C053C2F20003BB6042F235
:103CA0004C03C4F201037B604FF00003FB604FF054
:103CB00040033B614FF000037B614FF48063BB61C5
:103CC0004FF40063FB614FF400533B624FF4807389
:103CD0007B624FF40033BB624FF00403FB624FF092
:103CE00001033B634FF000037B634FF00003BB63B2
:103CF0003B4646F21040C4F202001946FFF7D2FEDE
:103D000046F21040C4F202004FF00101FFF722FF1B
:103D10004FF000037B654FF00003BB654FF00003DD
:103D2000FB654FF000033B6607F154031846FFF7AD
:103D300037F94FF00003FB634FF0010387F8403081
:103D40004FF0010387F841304FF000037B644FF0E0
:103D50006063BB644FF00003FB644FF0080387F817
:103D6000503007F13C034FF40050C4F201001946F3
:103D7000FFF7BAF84FF40050C4F201004FF00F0102
:103D80004FF001024FF00003FFF754F94FF40050D9
:103D9000C4F201004FF00E014FF002024FF0000399
:103DA000FFF748F94FF40050C4F201004FF0090149
:103DB0004FF003024FF00003FFF73CF94FF40050BF
:103DC000C4F201004FF008014FF004024FF000036D
:103DD000FFF730F94FF40050C4F201004FF00A0130
:103DE0004FF005024FF00003FFF724F94FF40050A5
:103DF000C4F201004FF00B014FF006024FF0000338
:103E0000FFF718F94FF40050C4F201004FF00C0115
:103E10004FF007024FF00003FFF70CF94FF400508A
:103E2000C4F201004FF00D014FF008024FF0000303
:103E3000FFF700F94FF40050C4F201004FF0010108
:103E4000FFF702FA4FF40050C4F201004FF00101F5
:103E5000FFF7DEF946F21040C4F202004FF0100105
:103E60004FF00102FFF792FE4FF40050C4F2010040
:103E70004FF00101FFF7C2F84FF40050C4F2010007
:103E8000FFF7B6F907F16807BD4680BD80B485B07D
:103E900000AF0346FB714FF00003BB60FB79BB81B1
:103EA0004FF00003FB7312E0BA8942F6C053C2F22E
:103EB000000333F812309BB2BA68D318BB60BB89D9
:103EC00003F10803BB81FB7B03F10103FB73FB7B65
:103ED000072BE9D9BB684FEAD303BB60BB68184620
:103EE00007F11407BD4680BC704700BF80B483B0A3
:103EF00000AF786039607B683A6802FB03F37B604F
:103F00007A6844F6D353C1F26203A3FB02134FEA6B
:103F100093137B607B6840F6C41202FB03F37B6063
:103F20007A6840F20113C0F21003A3FB0213D21A05
:103F30004FEA52029B184FEAD3237B607B681846F6
:103F400007F10C07BD4680BC704700BF80B500AFCD
:103F50004FF00000FFF79AFF0346184640F2F67153
:103F6000FFF7C4FF024640F6F843C2F200031A60AE
:103F70004FF00100FFF78AFF0346184640F2F67142
:103F8000FFF7B4FF024640F6F843C2F200035A605E
:103F90004FF00200FFF77AFF0346184640F2F67131
:103FA000FFF7A4FF024640F6F843C2F200039A600E
:103FB0004FF00300FFF76AFF0346184640F2F67120
:103FC000FFF794FF024640F6F843C2F20003DA60BE
:103FD00080BD00BF80B500AF4FF00400FFF756FF73
:103FE0000346184640F26D61FFF780FF024640F637
:103FF000F843C2F200031A614FF00500FFF746FFD5
:104000000346184640F23D61FFF770FF024640F656
:10401000F843C2F200035A6180BD00BF80B500AF13
:104020004FF00600FFF732FF034618464FF47A714F
:10403000FFF75CFF03461A4640F6F843C2F200035E
:104040009A614FF00700FFF721FF034618464FF42F
:104050007A71FFF74BFF03461A4640F6F843C2F267
:104060000003DA6180BD00BF80B582B000AF786028
:104070007A684FF44053C4F201039A420CD14FF4D2
:1040800080504FF00101FEF705FF4FF480504FF0D4
:104090000001FEF7FFFE26E07A684FF46053C4F299
:1040A00000039A420CD14FF480404FF00101FEF71B
:1040B000C7FE4FF480404FF00001FEF7C1FE12E052
:1040C0007A684FF47053C4F200039A420BD14FF454
:1040D00000404FF00101FEF7B3FE4FF400404FF0F7
:1040E0000001FEF7ADFE07F10807BD4680BD00BF29
:1040F00080B485B000AF786039604FF00003FB8179
:104100007B681B88FB81FB8903F44153FB813B687F
:104110001A883B685B8813439AB23B689B881343B9
:104120009AB23B68DB8813439AB23B681B891343FE
:104130009AB23B685B8913439AB23B689B891343ED
:104140009AB23B68DB8913439AB2FB891343FB8124
:104150007B68FA891A807B689B8B9BB223F400638F
:104160009AB27B689A833B681A8A7B681A8207F145
:104170001407BD4680BC704780B483B000AF786040
:104180000B46FB70FB78002B08D07B681B889BB22A
:1041900043F040039AB27B681A8007E07B681B8873
:1041A0009BB223F040039AB27B681A8007F10C0798
:1041B000BD4680BC704700BF80B483B000AF78605C
:1041C0007B689B899BB2184607F10C07BD4680BCF3
:1041D000704700BF80B483B000AF78600B467B802F
:1041E0007B687A889A8107F10C07BD4680BC7047CE
:1041F00080B485B000AF78600B467B804FF0000341
:10420000FB737B681B899AB27B8813409BB2002B9F
:1042100003D04FF00103FB7302E04FF00003FB7388
:10422000FB7B184607F11407BD4680BC704700BFF2
:1042300080B483B000AF78604FF46D43CEF20003DA
:104240007A6842F0BF6242F40032DA6007F10C078C
:10425000BD4680BC704700BF80B485B000AF7860B9
:104260004FF00003FB734FF00003BB734FF00F03DD
:104270007B737B68DB78002B45D04FF46D43CEF227
:104280000003DB686FEA030303F4E0634FEA1323E0
:10429000FB73FB7BC3F10403BB737A7BFB7B42FAAA
:1042A00003F37B737B685B781A46BB7B02FA03F3EC
:1042B000FB737B689A787B7B1340DAB2FB7B1343FA
:1042C000FB73FB7B4FEA0313FB734FF46143CEF2A6
:1042D00000037A6812789B18FA7B83F800234FF466
:1042E0006143CEF200037A6812784FEA5212D2B2DA
:1042F0007968097801F01F014FF0010000FA01F11F
:1043000043F8221014E04FF46143CEF200037A68C0
:1043100012784FEA5212D2B27968097801F01F017F
:104320004FF0010000FA01F102F1200243F82210DF
:1043300007F11407BD4680BC704700BF80B483B04E
:1043400000AF786039604FF46D43CEF200033A68F5
:1043500022F0604222F07F0279680A439A6007F1F6
:104360000C07BD4680BC704780B400AF40F61853C0
:10437000C2F200034FF000021A7040F61853C2F266
:1043800000034FF000029A7040F61853C2F2000387
:104390004FF000025A7040F61853C2F200034FF07B
:1043A0000002DA70BD4680BC704700BF80B500AF28
:1043B00040F61853C2F200031B78DBB2002B2BD15E
:1043C00040F61853C2F20003DB78DBB2002B56D064
:1043D00040F61853C2F20003DB78DBB2184601F056
:1043E0000DFC40F61853C2F20003DB78DBB218462E
:1043F00001F004FC4FF48050C4F2010040F2277138
:104400004FF00102FDF70AFF40F61853C2F2000315
:104410004FF00002DA7032E040F61853C2F20003A7
:104420001B78DBB2012B2AD140F61853C2F20003ED
:10443000DB78DBB2002B22D040F61853C2F2000327
:10444000DB78DBB2184601F0D9FB40F61853C2F214
:104450000003DB78DBB2184601F0D0FB4FF480504C
:10446000C4F2010040F227714FF00102FDF7D6FEC1
:1044700040F61853C2F200034FF00002DA7080BD1C
:1044800080B582B000AF40F61853C2F200031B782B
:10449000DBB2002B40F07C8101F008FB0346002BCF
:1044A00000F0B28201F02AFB0346BB7140F61853BC
:1044B000C2F200035B78DBB2062B00F2618101A23D
:1044C00052F823F0E1440008F94400082D450008A3
:1044D00075450008BD450008054600084D46000822
:1044E000BB79FF2B40F0968240F61853C2F20003CE
:1044F0004FF001025A708DE2BB79FF2B0ED140F6CE
:104500001853C2F200034FF002025A7040F26C439B
:10451000C2F200034FF000021A7088E240F618530E
:10452000C2F200034FF000025A7080E240F26C4386
:10453000C2F200031A78114640F27043C2F200033F
:10454000B879585402F10103DAB240F26C43C2F276
:1045500000031A7040F26C43C2F200031B78032B75
:1045600040F25A8240F61853C2F200034FF00302A1
:104570005A7051E240F61853C2F20003BA799A70A9
:10458000BB79092B07D840F61853C2F200034FF04D
:1045900004025A704BE2BB790A2B07D140F618533C
:1045A000C2F200034FF005025A7040E240F6185381
:1045B000C2F200034FF000025A7038E240F26C433E
:1045C000C2F200031A78114640F27043C2F20003AF
:1045D000B879585402F10103DAB240F26C43C2F2E6
:1045E00000031A7040F26C43C2F200031B78132BD5
:1045F00040F2148240F61853C2F200034FF0060254
:104600005A700BE240F26C43C2F200031A78114672
:1046100040F27043C2F20003B879585402F101032A
:10462000DAB240F26C43C2F200031A7040F26C43FB
:10463000C2F200031B78072B40F2F28140F61853B8
:10464000C2F200034FF006025A70E9E140F28443DF
:10465000C2F200034FF000021A704FF00003FB712A
:1046600015E0FA7940F27043C2F200039A5C40F21E
:104670008443C2F200031B78D318DAB240F28443B9
:10468000C2F200031A70FB7903F10103FB7140F2DF
:104690006C43C2F200031B78FA799A42E1D340F2EC
:1046A0008443C2F200031B78BA799A425FD140F684
:1046B0001C53C2F2000303F5025303F118031B78E5
:1046C000DBB2002B53D0D14B3B6040F27043C2F2BF
:1046D00000031A783B681A703B6803F1010240F24C
:1046E0007043C2F200035B781370C94B3B6040F229
:1046F0007043C2F200039A783B681A703B6803F17A
:10470000010240F27043C2F20003DB78137040F6FE
:104710001C53C2F200033B6040F61853C2F2000380
:104720009B78DBB24FEA03133A68D3183B603B68CF
:1047300003F1A4033B604FF00403FB710FE0FB792E
:10474000A3F104033A68D218F97940F27043C2F237
:1047500000035B5C1370FB7903F10103FB7140F212
:104760006C43C2F200031B78FA799A42E7D340F611
:104770001853C2F200034FF000025A7000BF56E116
:1047800040F61853C2F200034FF000025A703BE1AA
:1047900040F61853C2F200031B78DBB2012B40F045
:1047A000468101F083F90346002B00F0408101F0BF
:1047B000A5F90346BB7140F61853C2F200035B78BB
:1047C000DBB2062B00F2178101A252F823F000BFE2
:1047D000ED47000805480008F74900083948000877
:1047E00081480008C948000811490008BB79FF2B1F
:1047F00040F0188140F61853C2F200034FF0010256
:104800005A700FE1BB79FF2B0ED140F61853C2F25C
:1048100000034FF003025A7040F26C43C2F20003EF
:104820004FF000021A7002E140F61853C2F2000382
:104830004FF000025A70FAE040F61853C2F200033B
:10484000BA799A70BB79092B07D840F61853C2F28F
:1048500000034FF004025A70E9E0BB790A2B07D13C
:1048600040F61853C2F200034FF005025A70DEE022
:1048700040F61853C2F200034FF000025A70D6E01F
:1048800040F26C43C2F200031A78114640F27043C2
:10489000C2F20003B879585402F10103DAB240F2CF
:1048A0006C43C2F200031A7040F26C43C2F2000380
:1048B0001B780F2B40F2B88040F61853C2F2000369
:1048C0004FF006025A70AFE040F26C43C2F20003B0
:1048D0001A78114640F27043C2F20003B879585476
:1048E00002F10103DAB240F26C43C2F200031A7023
:1048F00040F26C43C2F200031B78032B40F2968017
:1049000040F61853C2F200034FF006025A708DE0D1
:1049100040F28443C2F200034FF000021A704FF0DD
:104920000003FB7115E0FA7940F27043C2F2000314
:104930009A5C40F28443C2F200031B78D318DAB2C7
:1049400040F28443C2F200031A70FB7903F10103C1
:10495000FB7140F26C43C2F200031B78FA799A4271
:10496000E1D340F28443C2F200031B78BA799A4241
:1049700039D140F61C53C2F2000303F5025303F190
:1049800018031B78DBB2002B2DD040F61C53C2F26B
:1049900000033B6040F61853C2F200039B78DBB281
:1049A0004FEA03133A68D3183B603B6803F1A40352
:1049B0003B604FF00003FB710DE0FB793A68D218C1
:1049C000F97940F27043C2F200035B5C1370FB792B
:1049D00003F10103FB7140F26C43C2F200031B7848
:1049E000FA799A42E9D340F61853C2F200034FF025
:1049F00000025A701BE040F61853C2F200034FF059
:104A000000025A7000BF12E000BF10E0522E0020DA
:104A1000502E002000BF0AE000BF08E000BF06E003
:104A200000BF04E000BF02E000BF00E000BF07F1EC
:104A30000807BD4680BD00BF80B400AF40F61C53E0
:104A4000C2F2000303F5025303F118031B78DBB233
:104A5000002B00F0428340F61C53C2F2000303F522
:104A6000025303F110031A6849F63F439A4200F2D9
:104A7000348340F61C53C2F200035A6840F6F843F0
:104A8000C2F200031B68D21840F61C53C2F20003A6
:104A90005A6040F61C53C2F200031A6940F6F8430C
:104AA000C2F200035B68D21840F61C53C2F2000346
:104AB0001A6140F61C53C2F20003DA6940F6F8436B
:104AC000C2F200039B68D21840F61C53C2F20003E6
:104AD000DA6140F61C53C2F200039A6A40F6F843CA
:104AE000C2F20003DB68D21840F61C53C2F2000386
:104AF0009A6240F61C53C2F200035A6E40F6F84325
:104B0000C2F200031B69D21840F61C53C2F2000324
:104B10005A6640F61C53C2F200031A6F40F6F8437F
:104B2000C2F200035B69D21840F61C53C2F20003C4
:104B30001A6740F61C53C2F200035A6B40F2B843A6
:104B4000C2F200035B899BB2D21840F61C53C2F23A
:104B500000035A6340F61C53C2F200031A6C40F281
:104B6000B843C2F200039B899BB2D21840F61C5393
:104B7000C2F200031A6440F61C53C2F20003DA6C5E
:104B800040F2B843C2F20003DB899BB2D21840F670
:104B90001C53C2F20003DA6440F61C53C2F2000355
:104BA0009A6D40F2B843C2F200031B8A9BB2D2183E
:104BB00040F61C53C2F200039A6540F61C53C2F241
:104BC0000003DA6F42F64063C2F200039B68D2181A
:104BD00040F61C53C2F20003DA6740F61C53C2F2DF
:104BE0000003D3F8882042F64063C2F20003DB687A
:104BF000D21840F61C53C2F20003C3F8882040F6D6
:104C00001C53C2F20003D3F8902040F6F843C2F2DE
:104C100000039B69D21840F61C53C2F20003C3F88C
:104C2000902040F61C53C2F20003D3F8942040F6C3
:104C3000F843C2F20003DB69D21840F61C53C2F2FB
:104C40000003C3F8942040F6F843C2F200031A6848
:104C500040F61C53C2F200031B689A4209D940F681
:104C6000F843C2F200031A6840F61C53C2F2000374
:104C70001A6040F6F843C2F200035A6840F61C532B
:104C8000C2F20003DB689A4209D940F6F843C2F247
:104C900000035A6840F61C53C2F20003DA6040F683
:104CA000F843C2F200039A6840F61C53C2F20003B4
:104CB0009B699A4209D940F6F843C2F200039A6808
:104CC00040F61C53C2F200039A6140F6F843C2F268
:104CD0000003DA6840F61C53C2F200035B6A9A4292
:104CE00009D940F6F843C2F20003DA6840F61C53D3
:104CF000C2F200035A6240F6F843C2F200031A6996
:104D000040F61C53C2F200031B6E9A4209D940F6CA
:104D1000F843C2F200031A6940F61C53C2F20003C2
:104D20001A6640F6F843C2F200035A6940F61C5373
:104D3000C2F20003DB6E9A4209D940F6F843C2F290
:104D400000035A6940F61C53C2F20003DA6640F2CF
:104D5000B843C2F200035B899BB21A4640F61C536B
:104D6000C2F200031B6B9A420BD940F2B843C2F265
:104D700000035B899BB21A4640F61C53C2F2000343
:104D80001A6340F2B843C2F200039B899BB21A46F1
:104D900040F61C53C2F20003DB6B9A420BD940F27F
:104DA000B843C2F200039B899BB21A4640F61C53DB
:104DB000C2F20003DA6340F2B843C2F20003DB89B7
:104DC0009BB21A4640F61C53C2F200039B6C9A42F7
:104DD0000BD940F2B843C2F20003DB899BB21A46FA
:104DE00040F61C53C2F200039A6440F2B843C2F288
:104DF00000031B8A9BB21A4640F61C53C2F2000302
:104E00005B6D9A420BD940F2B843C2F200031B8A91
:104E10009BB21A4640F61C53C2F200035A6542F692
:104E20004063C2F200039A6840F61C53C2F20003CA
:104E30009B6F9A4209D942F64063C2F200039A6816
:104E400040F61C53C2F200039A6742F64063C2F276
:104E50000003DA6840F61C53C2F20003D3F8843032
:104E60009A420AD942F64063C2F20003DA6840F679
:104E70001C53C2F20003C3F8842040F6F843C2F288
:104E800000031A6840F61C53C2F200039B689A4262
:104E900009D240F6F843C2F200031A6840F61C53E8
:104EA000C2F200039A6040F6F843C2F200035A6867
:104EB00040F61C53C2F200035B699A4209D240F6E5
:104EC000F843C2F200035A6840F61C53C2F20003D2
:104ED0005A6140F6F843C2F200039A6840F61C5348
:104EE000C2F200031B6A9A4209D240F6F843C2F2AA
:104EF00000039A6840F61C53C2F200031A6240F69F
:104F0000F843C2F20003DA6840F61C53C2F2000311
:104F1000DB6A9A4209D240F6F843C2F20003DA682B
:104F200040F61C53C2F20003DA6240F6F843C2F2C4
:104F300000031A6940F61C53C2F200039B6E9A42AA
:104F400009D240F6F843C2F200031A6940F61C5336
:104F5000C2F200039A6640F6F843C2F200035A69AF
:104F600040F61C53C2F200035B6F9A4209D240F62E
:104F7000F843C2F200035A6940F61C53C2F2000320
:104F80005A6740F2B843C2F200035B899BB21A46EB
:104F900040F61C53C2F200039B6B9A420BD240F2C4
:104FA000B843C2F200035B899BB21A4640F61C5319
:104FB000C2F200039A6340F2B843C2F200039B8935
:104FC0009BB21A4640F61C53C2F200035B6C9A4235
:104FD0000BD240F2B843C2F200039B899BB21A463F
:104FE00040F61C53C2F200035A6440F2B843C2F2C6
:104FF0000003DB899BB21A4640F61C53C2F2000341
:105000001B6D9A420BD240F2B843C2F20003DB8917
:105010009BB21A4640F61C53C2F200031A6540F2D6
:10502000B843C2F200031B8A9BB21A4640F61C53D7
:10503000C2F20003DB6D9A420BD240F2B843C2F2D7
:1050400000031B8A9BB21A4640F61C53C2F20003AF
:10505000DA6542F64063C2F200039A6840F61C53D8
:10506000C2F20003D3F880309A420AD242F640637B
:10507000C2F200039A6840F61C53C2F20003C3F860
:10508000802042F64063C2F20003DA6840F61C5307
:10509000C2F20003D3F88C309A420AD242F640633F
:1050A000C2F20003DA6840F61C53C2F20003C3F8F0
:1050B0008C2040F61C53C2F2000303F5025303F1A7
:1050C00010031B6803F1010240F61C53C2F20003F7
:1050D00003F5025303F110031A60BD4680BC70470C
:1050E00080B400AF40F61C53C2F200034FF0000240
:1050F0005A6040F61C53C2F200034FF000021A61DE
:1051000040F61C53C2F200034FF00002DA6140F691
:105110001C53C2F200034FF000029A6240F61C5387
:10512000C2F200034FF000025A6640F61C53C2F26E
:1051300000034FF000021A6740F61C53C2F200034E
:105140004FF000025A6340F61C53C2F200034FF0C6
:1051500000021A6440F61C53C2F200034FF0000232
:10516000DA6440F61C53C2F200034FF000029A6565
:1051700040F61C53C2F200034FF00002DA6740F61B
:105180001C53C2F200034FF00002C3F8882040F61F
:105190001C53C2F200034FF00002C3F8902040F607
:1051A0001C53C2F200034FF00002C3F8942040F6F3
:1051B0001C53C2F200034FF000021A6040F61C5369
:1051C000C2F200034FF00002DA6040F61C53C2F254
:1051D00000034FF000029A6140F61C53C2F2000334
:1051E0004FF000025A6240F61C53C2F200034FF027
:1051F00000021A6640F61C53C2F200034FF0000290
:10520000DA6640F61C53C2F200034FF000021A6344
:1052100040F61C53C2F200034FF00002DA6340F67E
:105220001C53C2F200034FF000029A6440F61C5374
:10523000C2F200034FF000025A6540F61C53C2F25E
:1052400000034FF000029A6740F61C53C2F20003BD
:105250004FF00002C3F8842040F61C53C2F2000352
:105260006FF000429A6040F61C53C2F200036FF0E8
:1052700000425A6140F61C53C2F200036FF0004234
:105280001A6240F61C53C2F200036FF00042DA6269
:1052900040F61C53C2F200036FF000429A6640F6DB
:1052A0001C53C2F200036FF000425A6740F61C53D1
:1052B000C2F200036FF000429A6340F61C53C2F240
:1052C00000036FF000425A6440F61C53C2F2000320
:1052D0006FF000421A6540F61C53C2F200036FF0F3
:1052E0000042DA6540F61C53C2F200036FF0004240
:1052F000C3F8802040F61C53C2F200036FF0004256
:10530000C3F88C2040F61C53C2F2000303F502538D
:1053100003F110034FF000021A6040F61C53C2F272
:10532000000303F5025303F118034FF001021A7052
:10533000BD4680BC704700BF80B400AF40F61C5330
:10534000C2F2000303F5025303F118034FF0000209
:105350001A7040F61C53C2F200035A6840F61C5300
:10536000C2F2000303F5025303F110031B68B2FB02
:10537000F3F240F61C53C2F200035A6040F61C538D
:10538000C2F200031A6940F61C53C2F2000303F58F
:10539000025303F110031B68B2FBF3F240F61C53F7
:1053A000C2F200031A6140F61C53C2F20003DA692C
:1053B00040F61C53C2F2000303F5025303F110033D
:1053C0001B68B2FBF3F240F61C53C2F20003DA6131
:1053D00040F61C53C2F200039A6A40F61C53C2F214
:1053E000000303F5025303F110031B68B2FBF3F251
:1053F00040F61C53C2F200039A6240F61C53C2F2FC
:1054000000035A6E40F61C53C2F2000303F5025328
:1054100003F110031B68B2FBF3F240F61C53C2F217
:1054200000035A6640F61C53C2F200031A6F40F69E
:105430001C53C2F2000303F5025303F110031B686F
:10544000B2FBF3F240F61C53C2F200031A6740F6B7
:105450001C53C2F200035A6B40F61C53C2F2000305
:1054600003F5025303F110031B68B2FBF3F240F69D
:105470001C53C2F200035A6340F61C53C2F20003ED
:105480001A6C40F61C53C2F2000303F5025303F1F9
:1054900010031B68B2FBF3F240F61C53C2F2000388
:1054A0001A6440F61C53C2F20003DA6C40F61C5337
:1054B000C2F2000303F5025303F110031B68B2FBB1
:1054C000F3F240F61C53C2F20003DA6440F61C53B8
:1054D000C2F200039A6D40F61C53C2F2000303F5BA
:1054E000025303F110031B68B2FBF3F240F61C53A6
:1054F000C2F200039A6540F61C53C2F20003DA6F51
:1055000040F61C53C2F2000303F5025303F11003EB
:105510001B68B2FBF3F240F61C53C2F20003DA67D9
:1055200040F61C53C2F20003D3F8882040F61C5307
:10553000C2F2000303F5025303F110031B68B2FB30
:10554000F3F240F61C53C2F20003C3F8882040F681
:105550001C53C2F20003D3F890301A4640F61C5395
:10556000C2F2000303F5025303F110031B68B2FB00
:10557000F3F31A4640F61C53C2F20003C3F890201E
:1055800040F61C53C2F20003D3F894301A4640F69A
:105590001C53C2F2000303F5025303F110031B680E
:1055A000B2FBF3F31A4640F61C53C2F20003C3F8F1
:1055B000942040F2B843C2F200035A6840F61C53EC
:1055C000C2F20003C3F8982042F64063C2F200031F
:1055D0001B78DBB21A4640F61C53C2F20003C3F834
:1055E0009C20BD4680BC704780B485B000AF786019
:1055F00039604FF00003FB817B681B88FB817A6870
:105600004FF00003C4F201039A421FD07A684FF4AE
:105610008063C4F201039A4218D07B68B3F1804FD3
:1056200014D07A684FF48063C4F200039A420DD01C
:105630007A684FF40063C4F200039A4206D07A6895
:105640004FF44063C4F200039A4208D1FB8923F06F
:105650007003FB813B685A88FB891343FB817A689E
:105660004FF48053C4F200039A420FD07A684FF48B
:10567000A053C4F200039A4208D0FB8923F440737C
:10568000FB813B681A89FB891343FB817B68FA899C
:105690001A803B685A687B68DA623B681A887B68C4
:1056A0001A857A684FF00003C4F201039A4206D0CB
:1056B0007A684FF48063C4F201039A4204D13B68D4
:1056C0009B7A1A467B681A867B684FF001029A82A1
:1056D00007F11407BD4680BC704700BF80B483B09B
:1056E00000AF78600B46FB70FB78002B08D07B681E
:1056F0001B889BB243F001039AB27B681A8007E0D3
:105700007B681B889BB223F001039AB27B681A80E6
:1057100007F10C07BD4680BC704700BF80B485B060
:1057200000AF786039604FF000037B814FF00003D9
:10573000FB814FF00003BB817B681B8C9BB223F481
:1057400080739AB27B681A847B681B8CFB817B68B0
:105750009B88BB817B689B8B7B817B8923F070035B
:105760007B817B8923F003037B813B681A887B89DB
:1057700013437B81FB8923F40073FB813B689B8986
:105780004FEA03239AB2FB891343FB813B685B8892
:105790004FEA03239AB2FB891343FB817A684FF0E7
:1057A0000003C4F201039A4206D07A684FF4806382
:1057B000C4F201039A422FD1FB8923F40063FB81D9
:1057C0003B68DB894FEA03239AB2FB891343FB81D1
:1057D000FB8923F48063FB813B689B884FEA0323AA
:1057E0009AB2FB891343FB81BB8923F48053BB81AD
:1057F000BB8923F40053BB813B681B8A4FEA031328
:105800009AB2BB891343BB813B685B8A4FEA03139F
:105810009AB2BB891343BB817B68BA899A807B6843
:105820007A899A833B689A687B68DA637B68FA892D
:105830001A8407F11407BD4680BC704780B483B05A
:1058400000AF786039603B681A883B685B88134317
:105850009AB23B689B8813439AB23B68DB88134338
:105860009AB23B681B8913439AB23B685B89134326
:105870009AB23B689B8913439AB27B68A3F8442091
:1058800007F10C07BD4680BC704700BF80B483B0F1
:1058900000AF78600B46FB70FB78002B0CD07B6868
:1058A000B3F844309BB26FEA43436FEA53439AB272
:1058B0007B68A3F844200BE07B68B3F844309BB2CC
:1058C0004FEA43434FEA53439AB27B68A3F844201C
:1058D00007F10C07BD4680BC704700BF80B483B0A1
:1058E00000AF78600B467B807B886FEA03039AB237
:1058F0007B681A8207F10C07BD4680BC704700BF69
:1059000080B584B000AF42F65463C2F200034FF09A
:1059100000021A8042F65463C2F200034FF0000204
:105920005A8042F65463C2F200034FF000029A809C
:1059300042F65463C2F200034FF00002DA8042F6EE
:105940005463C2F200034FF000021A8142F654631E
:10595000C2F200034FF000025A814FF4E1333B6082
:105960004FF00003BB804FF00003FB804FF00003BB
:105970003B814FF00003BB814FF00C037B813B4622
:105980004FF48050C4F201001946FCF73DFB4FF480
:105990008050C4F2010040F225514FF00102FCF7A3
:1059A0003DFC4FF48050C4F201004FF00101FCF7C0
:1059B00001FC07F11007BD4680BD00BF80B584B073
:1059C00000AF40F2EC43C2F200034FF000021A8035
:1059D00040F2EC43C2F200034FF000025A8040F262
:1059E000EC43C2F200034FF000029A8040F2EC4315
:1059F000C2F200034FF00002DA8040F2EC43C2F240
:105A000000034FF000021A8140F2EC43C2F200039F
:105A10004FF000025A814FF4E1333B604FF0000336
:105A2000BB804FF00003FB804FF000033B814FF041
:105A30000003BB814FF00C037B813B464FF4884051
:105A4000C4F200001946FCF7DFFA4FF48840C4F2B4
:105A5000000040F225514FF00102FCF7DFFB4FF44C
:105A60008840C4F200004FF00101FCF7A3FB00F0F6
:105A700011F807F11007BD4680BD00BF80B500AF2B
:105A80004FF00000C4F202004FF00201FDF78CFE5F
:105A900080BD00BF80B500AF4FF00000C4F202002F
:105AA0004FF00201FDF78EFE80BD00BF80B400AF55
:105AB00042F65463C2F200035B899BB2002B02D012
:105AC0004FF0010301E04FF000031846BD4680BCD3
:105AD000704700BF80B400AF40F2EC43C2F2000355
